:100000000C945F010C94DB050C94B4050C948701EF
:100010000C9487010C9487010C9487010C94870140
:100020000C9487010C9487010C9487010C94870130
:100030000C9487010C9487010C9487010C94870120
:100040000C946A050C9487010C9428060C94020603
:100050000C9487010C9487010C9487010C94870100
:100060000C9487010C94870108000000BE9224497B
:10007000123EABAAAA2ABECDCCCC4C3E00000080DA
:10008000BEABAAAAAA3E00000000BF000000803F4D
:100090000000000000084178D3BB4387D1133D190D
:1000A0000E3CC3BD4282AD2B3E68EC8276BED98F3A
:1000B000E1A93E4C80EFFFBE01C4FF7F3F0000007E
:1000C00000003A0020002F002F00C2B04320402043
:1000D0000053797374656D20676F696E6720746F64
:1000E00020736C6565702E2E2E002055736564207C
:1000F00052414D20617070726F783A200020467234
:1001000065652052414D3A20002048656170207598
:100110007365643A200020204261747465726965D9
:1001200073206E65656420746F2072656368617208
:10013000676521005629002520280020426174743B
:100140006572793A20004572726F7220696E207470
:10015000656D70657261747572652073656E736F1D
:10016000723A200020204D61782074656D706572B0
:1001700061747572653A200020204D696E207465A7
:100180006D70657261747572653A20002044616912
:100190006C79205374617473200020204D617820A5
:1001A00074656D70657261747572653A2000202007
:1001B0004D696E2074656D70657261747572653A13
:1001C0002000204C69666574696D65205374617404
:1001D000732000C2B04300202054656D70657261C9
:1001E000747572653A20002043757272656E7420D2
:1001F000537461747320003D2A3D2A3D2A3D2045F9
:100200004E44203D2A3D2A3D2A3D0A002D2A2D2A12
:100210002D2A2D2053797374656D20537461747386
:10022000202D2A2D2A2D2A2D002D2A2D2A2D2A2D4A
:1002300020456E7669726F6E6D656E7420537461C1
:100240007473202D2A2D2A2D2A2D003D2A3D2A3D6A
:100250002A3D205354415254203D2A3D2A3D2A3DF7
:100260000000000000240027002A000000000025F4
:100270000028002B000000000023002600290004B5
:10028000040404040404040202020202020303033D
:100290000303030102040810204080010204081037
:1002A00020010204081020000000080002010000E4
:1002B0000304070000000000000000005A0611249B
:1002C0001FBECFEFD8E0DEBFCDBF11E0A0E0B1E0B0
:1002D000E4E5FCE102C005900D92A439B107D9F71D
:1002E00022E0A4E9B1E001C01D92A838B207E1F70D
:1002F00011E0CFE5D1E004C02197FE010E94080B78
:10030000CE35D107C9F70E9408070C94280E0C942B
:100310000000833081F028F4813099F08230A9F018
:1003200008958730A9F08830C9F08430B1F4809105
:1003300080008F7D03C0809180008F778093800044
:10034000089584B58F7784BD089584B58F7DFBCFE4
:100350008091B0008F778093B00008958091B000B5
:100360008F7DF9CFCF93DF93282F30E0F901E95546
:10037000FD4F8491F901ED56FD4FD491F901E158FB
:10038000FD4FC491CC23A1F081110E948901EC2F73
:10039000F0E0EE0FFF1FEB58FD4FA591B491EC91EB
:1003A000ED2381E090E009F480E0DF91CF910895A2
:1003B00080E090E0FACF809142020E94B20121E0F9
:1003C00030E0892B11F030E020E03093460220939A
:1003D00045028091A20181111092A20108951F93FC
:1003E000CF93DF93282F30E0F901E955FD4F849139
:1003F000F901ED56FD4FD491F901E158FD4FC4913B
:10040000CC23A9F0162F81110E948901EC2FF0E076
:10041000EE0FFF1FE559FD4FA591B4918FB7F894EA
:10042000EC91111108C0D095DE23DC938FBFDF91D2
:10043000CF911F910895DE2BF8CFCF93DF9390E0FB
:10044000FC01ED56FD4F249181589D4FFC01849194
:100450008823D1F090E0880F991FFC01EF59FD4FE0
:10046000A591B491FC01E559FD4FC591D49162303D
:1004700071F49FB7F8943C91822F809583238C93DD
:10048000E8812E2B28839FBFDF91CF9108958FB7EE
:10049000F894EC912E2B2C938FBFF6CF8E3008F072
:1004A0008E508770806480937C0080917A00806495
:1004B00080937A0080917A0086FDFCCF809178004D
:1004C000909179000895089581E08093A2010895A4
:1004D000AF92BF92CF92DF92EF92FF920F931F9352
:1004E000CF93DF936C017B018B01040F151FEB0190
:1004F0005E01AE18BF08C017D10759F06991D60147
:10050000ED91FC910190F081E02DC6010995892BB8
:1005100079F7C501DF91CF911F910F91FF90EF9077
:10052000DF90CF90BF90AF900895FC01538D448D24
:10053000252F30E0842F90E0821B930B541710F08E
:10054000CF96089501970895FC01918D828D98179B
:1005500061F0A28DAE0FBF2FB11D5D968C91928D73
:100560009F5F9F73928F90E008958FEF9FEF0895A4
:10057000FC01918D828D981731F0828DE80FF11D6D
:10058000858D90E008958FEF9FEF0895FC01918D88
:10059000228D892F90E0805C9F4F821B91098F7381
:1005A0009927089583EA91E00E94C60221E0892BF1
:1005B00009F420E0822F089580E090E0892B29F053
:1005C0000E94D20281110C9400000895FC01A48DB8
:1005D000A80FB92FB11DA35ABF4F2C91848D90E065
:1005E00001968F739927848FA689B7892C93A08948
:1005F000B1898C91837080648C93938D848D9813D2
:1006000006C00288F389E02D80818F7D8083089564
:10061000EF92FF920F931F93CF93DF93EC0181E052
:10062000888F9B8D8C8D98131AC0E889F9898081F9
:1006300085FF15C09FB7F894EE89FF896083E8892C
:10064000F98980818370806480839FBF81E090E01E
:10065000DF91CF911F910F91FF90EF900895F62EAB
:100660000B8D10E00F5F1F4F0F731127E02E8C8D45
:100670008E110CC00FB607FCFACFE889F98980818A
:1006800085FFF5CFCE010E94E602F1CFEB8DEC0F96
:10069000FD2FF11DE35AFF4FF0829FB7F8940B8FA7
:1006A000EA89FB8980818062CFCF0F931F93CF931C
:1006B000DF938C01D0E0C0E0F801EC0FFD1F6491E6
:1006C000662341F083EA91E00E940803892B11F030
:1006D0002196F2CFCE01DF91CF911F910F91089516
:1006E000CF93DF93EC01888D8823B9F0AA89BB8969
:1006F000E889F9898C9185FD03C0808186FD0DC054
:100700000FB607FCF7CF8C9185FFF2CF808185FF74
:10071000EDCFCE010E94E602E9CFDF91CF9108959F
:100720008EBD00000DB407FEFDCF8EB50895EF928B
:10073000FF920F931F93CF93DF93EC017B018A010C
:1007400081E58CBD1DBC60E080915F020E94EF01DD
:100750008BE0D0FF83E00E9490038C2F0E949003D7
:10076000E7010E0D1F1D80E00E9490038993C017C2
:10077000D107C9F761E080915F02DF91CF911F91AE
:100780000F91FF90EF900C94EF01FC01019000207D
:10079000E9F73197AF01481B590BBC0183EA91E09F
:1007A0000C946802CF93DF930E945503EC0182E51D
:1007B00091E00E94C5038C0F9D1FDF91CF9108959A
:1007C0008F929F92AF92BF920F931F93CF93DF931D
:1007D000CDB7DEB7A1970FB6F894DEBF0FBECDBF81
:1007E00019A2423008F44AE08E010F5D1F4F842E9B
:1007F000912CB12CA12CA50194010E94DF0AE62FB7
:10080000B901CA01EA30F4F4E05DD801EE938D013C
:10081000232B242B252B79F790E080E0109719F0FB
:10082000CD010E94C503A1960FB6F894DEBF0FBE9E
:10083000CDBFDF91CF911F910F91BF90AF909F904F
:100840008F900895E95CE1CF4F925F926F927F9213
:100850008F929F92AF92BF92CF92DF92EF92FF92D0
:100860000F931F93CF936B017C01742EAC019B01FE
:100870000E94FC0D882399F085E591E0CF911F91AE
:100880000F91FF90EF90DF90CF90BF90AF909F902F
:100890008F907F906F905F904F900C94C5034601AE
:1008A0005701E894B7F82FEF3FEF4FE75FE7C50137
:1008B000B4010E94FC0D81110DC02FEF3FEF4FE7F7
:1008C0005FE7C501B4010E948A0B18161CF489E584
:1008D00091E0D4CF2FEF3FEF4FE75FE4C701B601C0
:1008E0000E943A0D18161CF48DE591E0C7CF2FEF4A
:1008F0003FEF4FE75FECC701B6010E948A0B87FD0F
:10090000F3CF20E030E0A901C701B6010E948A0BB5
:1009100010E000E087FF0AC06DE283EA91E00E94E8
:1009200008038C01F7FAF094F7F8F094C0E060E067
:1009300070E080E09FE37C1641F020E030E040E290
:1009400051E40E948F0BCF5FF6CFA70196010E9462
:100950001E0B2B013C010E94010C4B015C014AE083
:100960000E94E0037C01E00EF11ECC23C1F1C50121
:10097000B4010E94300C9B01AC01C301B2010E9482
:100980001D0B4B015C016EE283EA91E00E940803BB
:10099000E80EF91EC15018F120E030E040E251E4C9
:1009A000C501B4010E948F0D2B013C010E94010C76
:1009B0004B01B12CA12C4AE0C501B4010E94E00317
:1009C000E80EF91EC501B4010E94300C9B01AC0178
:1009D000C301B2010E941D0B4B015C01DBCFC701BB
:1009E000CF911F910F91FF90EF90DF90CF90BF902C
:1009F000AF909F908F907F906F905F904F900895F1
:100A0000CF93DF93BC0190E080E04AE00E94E003D6
:100A1000EC0182E591E00E94C5038C0F9D1FDF91E0
:100A2000CF9108954F925F926F927F92AF92CF9243
:100A3000EF92FF920F93CF932A013B01C22F0E94A6
:100A4000550342E0C301B2010E9424048AEC90E005
:100A50000E9455036C2F70E090E080E04AE00E9415
:100A6000E00388EC90E00E945503602F70E090E076
:100A700080E04AE00E94E00386EC90E00E9455038B
:100A8000B70190E080E04AE00E94E00384EC90E04F
:100A90000E9455036C2D70E090E080E04AE00E94D7
:100AA000E00382EC90E00E9455036A2D70E090E034
:100AB00080E04AE00E94E00382E591E0CF910F914F
:100AC000FF90EF90CF90AF907F906F905F904F909E
:100AD0000C94C5031F920F920FB60F9211242F93FF
:100AE0003F938F939F93AF93BF9380919E0190917B
:100AF0009F01A091A001B091A10130919D0123E03F
:100B0000230F2D3758F50196A11DB11D20939D018E
:100B100080939E0190939F01A093A001B093A101A7
:100B20008091990190919A01A0919B01B0919C01B3
:100B30000196A11DB11D8093990190939A01A093F4
:100B40009B01B0939C01BF91AF919F918F913F9179
:100B50002F910F900FBE0F901F90189526E8230F2E
:100B60000296A11DB11DD2CF1F920F920FB60F9208
:100B700011242F933F934F935F936F937F938F93A2
:100B80009F93AF93BF93EF93FF93E0910201F09196
:100B900003010995FF91EF91BF91AF919F918F91C3
:100BA0007F916F915F914F913F912F910F900FBE69
:100BB0000F901F9018951F920F920FB60F9211244D
:100BC0002F933F934F935F936F937F938F939F9355
:100BD000AF93BF93EF93FF93E0910001F091010178
:100BE0000995FF91EF91BF91AF919F918F917F9167
:100BF0006F915F914F913F912F910F900FBE0F908A
:100C00001F9018951F920F920FB60F9211242F93D9
:100C10003F934F935F936F937F938F939F93AF9384
:100C2000BF93EF93FF9383EA91E00E94E602FF9166
:100C3000EF91BF91AF919F918F917F916F915F9154
:100C40004F913F912F910F900FBE0F901F901895CD
:100C50001F920F920FB60F9211242F938F939F9391
:100C6000EF93FF93E091B301F091B4018081E091A3
:100C7000B901F091BA0182FD1BC090818091BC0145
:100C80008F5F8F732091BD01821741F0E091BC010D
:100C9000F0E0ED55FE4F958F8093BC01FF91EF91F1
:100CA0009F918F912F910F900FBE0F901F901895CD
:100CB0008081F4CFE3EAF1E01382128288EE93E0C0
:100CC000A0E0B0E084839583A683B78384E491E0B9
:100CD0009183808385EC90E09587848784EC90E015
:100CE0009787868780EC90E0918B808B81EC90E0F9
:100CF000938B828B82EC90E0958B848B86EC90E0DA
:100D0000978B868B118E128E138E148E85E190E058
:100D10009093410280934002E1E7F2E08EE080830D
:100D200080E090E7A9E1B6E481839283A383B48352
:100D300080E090E4ACE1B6E485839683A783B08736
:100D400080E090E0A8ECB1E481879287A387B48724
:100D500080E090EEA6E7B5E485879687A787B08BFD
:100D600084E090E0928B818BE2E6F2E08FE080837A
:100D70008AE090E0A0E0B0E081839283A383B48313
:100D80008FE090E0A0E0B0E085839683A783B087F2
:100D900088E090E0A0E0B0E081879287A387B487E5
:100DA0008AE080935F02E9E4F2E08FEF9FEFAFE724
:100DB000BFE782839383A483B58380E090E0A0E8BB
:100DC000B0E086839783A087B1875DE152874CE0CE
:100DD00043872CE637E03587248797E196878BE3B6
:100DE0008787508B418B338B228B948B858B80E054
:100DF00098E09093480280934702E2E4F2E083E0B7
:100E0000808382E390E09283818314821382089529
:100E1000CF93DF93CDB7DEB7AA970FB6F894DEBFB6
:100E20000FBECDBF789484B5826084BD84B58160E7
:100E300084BD85B5826085BD85B5816085BD8091A5
:100E40006E00816080936E0010928100809181001D
:100E50008260809381008091810081608093810015
:100E6000809180008160809380008091B1008460D7
:100E70008093B1008091B00081608093B000809138
:100E80007A00846080937A0080917A0082608093F7
:100E90007A0080917A00816080937A0080917A0054
:100EA000806880937A001092C100E091B301F091C4
:100EB000B40182E08083E091AF01F091B001108233
:100EC000E091B101F091B2018FEC80831092BB01EF
:100ED000E091B701F091B80186E08083E091B5011F
:100EE000F091B601808180618083E091B501F0913D
:100EF000B601808188608083E091B501F091B601F0
:100F0000808180688083E091B501F091B601808195
:100F10008F7D80831092700210926F0261E0809149
:100F20005F020E941D0261E080915F020E94EF015A
:100F30001FB7F89480919401811127C0E9E8F2E08D
:100F40008491EDE9F2E09491E82FF0E0EE0FFF1FBD
:100F5000EF59FD4FA591B491EC91E92321F461E0A3
:100F60008AE00E94EF0161E08AE00E941D028CB5D8
:100F700080618CBD8CB580648CBD61E08DE00E9489
:100F80001D0261E08BE00E941D02809194018F5F41
:100F9000809394011FBF62E0809142020E941D0273
:100FA000809142020E94B20121E030E0892B11F0D1
:100FB00030E020E0309346022093450264E6862E1E
:100FC00062E0962E73E0272E312C42E0642E712CC5
:100FD00050E0452E50E0552E0E94DB0180914502E5
:100FE00090914602892B09F04EC081ED90E00E945D
:100FF000D203809142020E94B201892B09F441C0C0
:1010000083EA91E00E94700320917A0010927A00A6
:1010100083B7817F846083BFF89483B7816083BF87
:1010200080914202823009F496C0833051F490924C
:1010300003018092020180916900837F809369009F
:10104000E99A7894889583B78E7F83BF8091420216
:10105000823009F48BC0833061F4E99881E090E03C
:10106000880F991FFC01E050FF4F03E612E0118347
:10107000008320937A0021E030E0309346022093F1
:1010800045020E94DB012FB7F89480919E01909158
:101090009F01A091A001B091A1012FBF40919501A6
:1010A00050919601609197017091980141155105F9
:1010B0006105710571F08C019D01041B150B260B58
:1010C000370BB901A801403157426105710508F499
:1010D00061C28093950190939601A0939701B0937C
:1010E00098018BE492E00E94D20389E292E00E9490
:1010F000D20386E1E9E4F2E0DE01119601900D925F
:101100008A95E1F784E1ECE2F1E0DE015796019087
:101110000D928A95E1F7809171020E944E0200972C
:1011200049F5709283026092820202E010E086E448
:1011300091E00E945503000F111FF801EE5DFE4F74
:1011400080819181009711F00E94C50382E591E0B2
:101150000E94C50336C190920101809200018091E6
:1011600069008C7F80936900E89A6BCFE89890E0E3
:1011700080E076CF8F3F23E0920738F030928302F1
:101180002092820203E010E0D2CFBC0190E080E028
:101190000E94300C6B017C01AC019B0160E070ECA3
:1011A0008FE794E40E941D0B9B01AC01C701B601BF
:1011B0000E948F0B20917202309173024091740251
:1011C000509175020E948F0D209176023091770226
:1011D00040917802509179020E948F0B0E94470D36
:1011E00020917E0230917F024091800250918102D5
:1011F0000E948F0B6B017C0123E333E948E853E441
:1012000060917A0270917B0280917C0290917D02C4
:101210000E941E0B9B01AC0160E070E080E89FE340
:101220000E948F0BA70196010E941E0B9B01AC012F
:1012300060E070E080E89FE30E948F0B10928302D1
:101240001092820223E333E948E853E40E941D0B25
:1012500020E73EEC48E85FE30E948F0D9B01AC0164
:101260000E941E0B20E030E040E05FE30E941E0B76
:101270000E946D0C20E030E040E05FE30E948F0DA3
:101280006B017C01C0920C01D0920D01E0920E0125
:10129000F0920F0187EE91E00E94D20387ED91E07A
:1012A0000E94550360910C0170910D0180910E0117
:1012B00090910F0142E00E94240483ED91E00E948E
:1012C000D203209108013091090140910A01509107
:1012D0000B01C701B6010E943A0D181644F4C092E2
:1012E0000801D0920901E0920A01F0920B012091CD
:1012F0000401309105014091060150910701C70199
:10130000B6010E948A0B87FF08C0C0920401D092E8
:101310000501E0920601F092070144E150E0BE01B0
:10132000695E7F4F81E090E00E94970382EC91E03C
:101330000E94D203E9A0FAA04F89588D698D7A8D59
:10134000ACA0CBA008A12F8D8EEA91E00E941205DF
:10135000EFA0F8A44B8D5C8D6D8D7E8DAAA4C9A4E1
:101360000EA12DA18AE991E00E94120546E150E00C
:10137000BE016F5F7F4F80914002909141020E94B9
:1013800097038CE891E00E94D203ED84FE844B81A8
:101390005C816D817E81A888CF840C852B8588E750
:1013A00091E00E941205EB88FC884F815885698581
:1013B0007A85AE88CD880A89298984E691E00E94E1
:1013C00012058CE092E00E94D203809162020E949A
:1013D0004E0220916B0230916C02AC01249FC0013F
:1013E000259F900D349F900D1124BC0190E080E06A
:1013F0000E94300C20E030E04AE754E40E948F0B5A
:101400006B017C01809162020E944E0220916B026E
:1014100030916C02BC01269FC001279F900D369F22
:10142000900D112420916F0230917002232B21F432
:101430009093700280936F0240916F0250917002FE
:101440009A01220F331F240F351F280F391F36959D
:101450002795369527953093700220936F0214E6F6
:10146000203D70E23707B0F510E0213787E13807FB
:1014700088F1E0E06E2F70E0CB010196DC01AA0F4D
:10148000BB1FAA5EBE4F4D915C914217530710F4EB
:10149000EF5FF0CFFB01EE0FFF1FEA5EFE4F019002
:1014A000F081E02D605F7E4FDB011C91805F9E4FDD
:1014B000DC018C91682F611B770BDB012E1B3F0B2E
:1014C0000E94010B4E1B5F0B9A0150E040E00E940E
:1014D000DF0A120F8BE391E00E945503612F70E049
:1014E00090E080E04AE00E94E00387E391E00E9400
:1014F000550342E0C701B6010E94240484E391E051
:101500000E94D20320E030E040EC50E4C701B60175
:101510000E948A0B181624F086E191E00E94D20303
:1015200089E091E00E9455038091840290918502A8
:101530000097E1F1885892400E9400058DEF90E0FD
:101540000E94550320918402309185028DB79EB789
:101550002115310571F5885892400E9400058AEEE8
:1015600090E00E945503809147029091480240917B
:101570008402509185022DB73EB741155105E1F423
:1015800028583240821B930B0E94000587EF91E0A0
:101590000E94D2034114510409F41ECD0E94D202CC
:1015A000882309F412CD0E9400000FCD90E080E066
:1015B000C3CF821B930BD1CF241B350BE3CFA1E20A
:1015C0001A2EAA1BBB1BFD010DC0AA1FBB1FEE1FBD
:1015D000FF1FA217B307E407F50720F0A21BB30B08
:1015E000E40BF50B661F771F881F991F1A9469F784
:1015F00060957095809590959B01AC01BD01CF01E0
:1016000008950E940E0BB7FF0895821B930B089557
:10161000EE0FFF1F0590F491E02D0994A29FB001F9
:10162000B39FC001A39F700D811D1124911DB29F16
:10163000700D811D1124911D08955058BB27AA27B4
:101640000E94350B0C94E80C0E94DA0C38F00E94D2
:10165000E10C20F039F49F3F19F426F40C94D70CD8
:101660000EF4E095E7FB0C94A80CE92F0E94F90C0E
:1016700058F3BA17620773078407950720F079F4C7
:10168000A6F50C94330D0EF4E0950B2EBA2FA02D79
:101690000B01B90190010C01CA01A0011124FF271F
:1016A000591B99F0593F50F4503E68F11A16F0401A
:1016B000A22F232F342F4427585FF3CF4695379519
:1016C0002795A795F0405395C9F77EF41F16BA0BDE
:1016D000620B730B840BBAF09150A1F0FF0FBB1F8C
:1016E000661F771F881FC2F70EC0BA0F621F731FD5
:1016F000841F48F4879577956795B795F7959E3F32
:1017000008F0B0CF9395880F08F09927EE0F9795C2
:10171000879508950E94840C08F481E008950E9442
:10172000A30B0C94E80C0E94E10C58F00E94DA0C18
:1017300040F029F45F3F29F00C94A80C51110C944F
:10174000340D0C94D70C0E94F90C68F39923B1F373
:10175000552391F3951B550BBB27AA2762177307D7
:10176000840738F09F5F5F4F220F331F441FAA1F6B
:10177000A9F335D00E2E3AF0E0E832D09150504027
:10178000E695001CCAF72BD0FE2F29D0660F771FD5
:10179000881FBB1F261737074807AB07B0E809F0BB
:1017A000BB0B802DBF01FF2793585F4F3AF09E3F40
:1017B000510578F00C94A80C0C94340D5F3FE4F3C1
:1017C000983ED4F3869577956795B795F7959F5F83
:1017D000C9F7880F911D9695879597F90895E1E0CF
:1017E000660F771F881FBB1F621773078407BA072E
:1017F00020F0621B730B840BBA0BEE1F88F7E09589
:1018000008950E94010D88F09F5798F0B92F9927ED
:10181000B751B0F0E1F0660F771F881F991F1AF0DB
:10182000BA95C9F714C0B13091F00E94330DB1E000
:1018300008950C94330D672F782F8827B85F39F0FF
:10184000B93FCCF3869577956795B395D9F73EF474
:1018500090958095709561957F4F8F4F9F4F08951C
:10186000E89409C097FB3EF490958095709561953A
:101870007F4F8F4F9F4F9923A9F0F92F96E9BB27F0
:101880009395F695879577956795B795F111F8CF6C
:10189000FAF4BB0F11F460FF1BC06F5F7F4F8F4FD7
:1018A0009F4F16C0882311F096E911C0772321F0CD
:1018B0009EE8872F762F05C0662371F096E8862F65
:1018C00070E060E02AF09A95660F771F881FDAF7BC
:1018D000880F9695879597F908950E941B0D90F0B3
:1018E0009F3748F4911116F00C94340D60E070E0CD
:1018F00080E89FEB089526F41B16611D711D811D64
:101900000C94AE0C0C94C90C990F0008550FAA0B3F
:10191000E0E8FEEF16161706E807F907C0F0121602
:101920001306E407F50798F0621B730B840B950B05
:1019300039F40A2661F0232B242B252B21F408955A
:101940000A2609F4A140A6958FEF811D811D0895F7
:1019500097F99F6780E870E060E00895882371F44C
:10196000772321F09850872B762F07C0662311F438
:1019700099270DC09051862B70E060E02AF09A956F
:10198000660F771F881FDAF7880F9695879597F966
:1019900008959F3F31F0915020F487957795679592
:1019A000B795880F911D9695879597F908959FEFA4
:1019B00080EC089500240A941616170618060906E6
:1019C000089500240A9412161306140605060895B5
:1019D000092E0394000C11F4882352F0BB0F40F43D
:1019E000BF2B11F460FF04C06F5F7F4F8F4F9F4F7D
:1019F000089557FD9058440F551F59F05F3F71F0FF
:101A00004795880F97FB991F61F09F3F79F0879565
:101A10000895121613061406551FF2CF4695F1DFEE
:101A200008C0161617061806991FF1CF869571057E
:101A30006105089408950E94010DA0F0BEE7B91752
:101A400088F4BB279F3860F41616B11D672F782FD6
:101A50008827985FF7CF869577956795B11D939501
:101A60009639C8F30895E894BB2766277727CB01FA
:101A700097F908950E94840C08F48FEF089516F0EA
:101A80000C94C90C0C94D70C68940C94A80C0E946C
:101A9000010DA8F39923C1F3AEF3DF93CF931F9306
:101AA0000F93FF92C92FDD2788232AF02197660F15
:101AB000771F881FDAF720E030E040E85FEB9FE314
:101AC000883920F0803E38F021968F770E941E0BD7
:101AD000E8E6F0E004C00E941E0BE5E9F0E00E9499
:101AE000010E8B01BE01EC01FB2E6F57710975953C
:101AF000771F880B990B0E94320C28E132E741E3F3
:101B00005FE30E94A20DAF2D9801AE01FF900F91EF
:101B10001F91CF91DF910E94350B0C94E80C0E942D
:101B2000A20D0C94E80C0E94DA0C38F00E94E10C33
:101B300020F0952311F00C94A80C0C94D70C1124D0
:101B40000C94340D0E94F90C70F3959FC1F3950F1E
:101B500050E0551F629FF001729FBB27F00DB11D31
:101B6000639FAA27F00DB11DAA1F649F6627B00DC1
:101B7000A11D661F829F2227B00DA11D621F739FAA
:101B8000B00DA11D621F839FA00D611D221F749FB8
:101B90003327A00D611D231F849F600D211D822FFF
:101BA000762F6A2F11249F5750409AF0F1F0882326
:101BB0004AF0EE0FFF1FBB1F661F771F881F915053
:101BC0005040A9F79E3F510580F00C94A80C0C944E
:101BD000340D5F3FE4F3983ED4F38695779567958F
:101BE000B795F795E7959F5FC1F7FE2B880F911D7D
:101BF0009695879597F908950E94840C880B990B08
:101C00000895DF93CF931F930F93FF92EF92DF928C
:101C10007B018C01689406C0DA2EEF010E94A20DB0
:101C2000FE01E894A5912591359145915591A6F332
:101C3000EF010E94350BFE019701A801DA9469F7C4
:101C4000DF90EF90FF900F911F91CF91DF9108955A
:041C5000F894FFCF36
:101C540063026302FFFF7F7F000080000000C07FFB
:101C64000014283C50647017201C4C1D141E401F87
:101C7400D0206101640171017E018B01FFFF7F7F30
:101C8400000080001D0C6C07173B1D0C6C07173BF4
:101C9400000000000803680295027003C602A40253
:101CA400B8020D0A006E616E00696E66006F76669A
:101CB400004F4B00444953434F4E4E454354454413
:101CC4000053484F52545F544F5F474E44005348AB
:101CD4004F52545F544F5F56434300494E56414C54
:041CE400494400006F
:00000001FF
