:100000000C9493010C945E060C9437060C94BB017F
:100010000C94BB010C94BB010C94BB010C94BB0170
:100020000C94BB010C94BB010C94BB010C94BB0160
:100030000C94BB010C94BB010C94BB010C94BB0150
:100040000C94ED050C94BB010C94AB060C94850646
:100050000C94BB010C94BB010C94BB010C94BB0130
:100060000C94BB010C94BB0108000000BE92244913
:10007000123EABAAAA2ABECDCCCC4C3E00000080DA
:10008000BEABAAAAAA3E00000000BF000000803F4D
:100090000000000000084178D3BB4387D1133D190D
:1000A0000E3CC3BD4282AD2B3E68EC8276BED98F3A
:1000B000E1A93E4C80EFFFBE01C4FF7F3F0000007E
:1000C000000007634236B79BD8A71A39685618AEA6
:1000D000BAAB558C1D3CB7CC5763BD6DEDFD753E7D
:1000E000F6177231BF000000803F20204261747417
:1000F0006572696573206E65656420746F20726532
:100100006368617267652100562900252028002058
:10011000426174746572793A2000205573656420D9
:1001200052414D20617070726F783A200020467203
:1001300065652052414D3A20002048656170207568
:100140007365643A2000204461746120766572739F
:10015000696F6E3A20004572726F7220696E20746A
:10016000656D70657261747572652073656E736F0D
:10017000723A20003A0020002F002F00C2B0C2B017
:10018000432040200020204D61782074656D70650B
:100190007261747572653A20003A0020002F002FBA
:1001A00000C2B0432040200020204D696E207465BD
:1001B0006D70657261747572653A200020446169E2
:1001C0006C7920537461747320003A0020002F0072
:1001D0002F00C2B0C2B0432040200020204D6178E3
:1001E0002074656D70657261747572653A20003AAD
:1001F0000020002F002F00C2B0432040200020200C
:100200004D696E2074656D70657261747572653AC2
:100210002000204C69666574696D652053746174B3
:10022000732000C2B04300202054656D7065726178
:10023000747572653A20002043757272656E742081
:10024000537461747320003D2A3D2A3D2A3D2045A8
:100250004E44203D2A3D2A3D2A3D0A002D2A2D2AC2
:100260002D2A2D2053797374656D20537461747336
:10027000202D2A2D2A2D2A2D002D2A2D2A2D2A2DFA
:1002800020456E7669726F6E6D656E742053746171
:100290007473202D2A2D2A2D2A2D003D2A3D2A3D1A
:1002A0002A3D205354415254203D2A3D2A3D2A3DA7
:1002B0000053797374656D20676F696E6720746F82
:1002C00020736C6565702E2E2E0000000000240047
:1002D00027002A0000000000250028002B00000055
:1002E000000023002600290004040404040404047C
:1002F00002020202020203030303030301020408D1
:10030000102040800102040810200102040810207F
:1003100000000008000201000003040700000000C4
:1003200000000000DD0611241FBECFEFD8E0DEBFC5
:10033000CDBF11E0A0E0B1E0E4ECF1E202C0059035
:100340000D92AA38B107D9F722E0AAE8B1E001C0BE
:100350001D92A03BB207E1F711E0C3E9D1E004C070
:100360002197FE010E94C80CC239D107C9F70E942B
:100370008E070C94E0100C9400008CBD9DBD089578
:100380008F929F92AF92BF92CF92DF92EF92FF92A5
:100390000F931F93CF93DF93209196023091970292
:1003A000F901EE0FFF1FEE0FFF1FEB59FD4F6187A5
:1003B000728783879487C90101966AE070E00E9482
:1003C0007E0CEC019093970280939602892B19F48E
:1003D00081E08093980280919802882311F0CAE00E
:1003E000D0E08EE6A82E82E0B82E10E000E0C12C0E
:1003F000D12C76010C171D077CF4F5012191319168
:10040000419151915F01C701B6010E94CF0C6B0170
:100410007C010F5F1F4FEECF2AE939E949E55FE321
:100420006091990170919A0180919B0190919C013A
:100430000E94470F4B015C01BE01DD0F880B990B39
:100440000E94EA0D9B01AC01C701B6010E94400D5C
:100450002AE939E949E15EE30E94470F9B01AC01BB
:10046000C501B4010E94CF0C6093990170939A0169
:1004700080939B0190939C01DF91CF911F910F91ED
:10048000FF90EF90DF90CF90BF90AF909F908F90B4
:100490000895833081F028F4813099F08230A9F0FA
:1004A00008958730A9F08830C9F08430B1F4809184
:1004B00080008F7D03C0809180008F7780938000C3
:1004C000089584B58F7784BD089584B58F7DFBCF63
:1004D0008091B0008F778093B00008958091B00034
:1004E0008F7DF9CFCF93DF93282F30E0F901E05FC4
:1004F000FC4F8491F901E450FD4FD491F901E8518A
:10050000FD4FC491CC23A1F081110E944902EC2F30
:10051000F0E0EE0FFF1FE252FD4FA591B491EC9178
:10052000ED2381E090E009F480E0DF91CF91089520
:1005300080E090E0FACF80913D020E94720221E0BB
:1005400030E0892B11F030E020E03093410220931D
:1005500040028091980181111092980108951F9393
:10056000CF93DF93282F30E0F901E05FFC4F8491B7
:10057000F901E450FD4FD491F901E851FD4FC491C8
:10058000CC23A9F0162F81110E944902EC2FF0E034
:10059000EE0FFF1FEC52FD4FA591B4918FB7F89469
:1005A000EC91111108C0D095DE23DC938FBFDF9151
:1005B000CF911F910895DE2BF8CFCF93DF9390E07A
:1005C000FC01E450FD4F249188519D4FFC01849122
:1005D0008823D1F090E0880F991FFC01E653FD4F6E
:1005E000A591B491FC01EC52FD4FC591D4916230BC
:1005F00071F49FB7F8943C91822F809583238C935C
:10060000E8812E2B28839FBFDF91CF9108958FB76C
:10061000F894EC912E2B2C938FBFF6CF8E3008F0F0
:100620008E508770806480937C0080917A00806413
:1006300080937A0080917A0086FDFCCF80917800CB
:10064000909179000895089581E08093980108952C
:10065000AF92BF92CF92DF92EF92FF920F931F93D0
:10066000CF93DF936C017B018B01040F151FEB010E
:100670005E01AE18BF08C017D10759F06991D601C5
:10068000ED91FC910190F081E02DC6010995892B37
:1006900079F7C501DF91CF911F910F91FF90EF90F6
:1006A000DF90CF90BF90AF900895FC01538D448DA3
:1006B000252F30E0842F90E0821B930B541710F00D
:1006C000CF96089501970895FC01918D828D98171A
:1006D00061F0A28DAE0FBF2FB11D5D968C91928DF2
:1006E0009F5F9F73928F90E008958FEF9FEF089523
:1006F000FC01918D828D981731F0828DE80FF11DEC
:10070000858D90E008958FEF9FEF0895FC01918D06
:10071000228D892F90E0805C9F4F821B91098F73FF
:10072000992708958EE991E00E94860321E0892BA4
:1007300009F420E0822F089580E090E0892B29F0D1
:100740000E94920381110C9400000895FC01A48D75
:10075000A80FB92FB11DA35ABF4F2C91848D90E0E3
:1007600001968F739927848FA689B7892C93A089C6
:10077000B1898C91837080648C93938D848D981350
:1007800006C00288F389E02D80818F7D80830895E3
:10079000EF92FF920F931F93CF93DF93EC0181E0D1
:1007A000888F9B8D8C8D98131AC0E889F989808178
:1007B00085FF15C09FB7F894EE89FF896083E889AB
:1007C000F98980818370806480839FBF81E090E09D
:1007D000DF91CF911F910F91FF90EF900895F62E2A
:1007E0000B8D10E00F5F1F4F0F731127E02E8C8DC4
:1007F0008E110CC00FB607FCFACFE889F989808109
:1008000085FFF5CFCE010E94A603F1CFEB8DEC0F53
:10081000FD2FF11DE35AFF4FF0829FB7F8940B8F25
:10082000EA89FB8980818062CFCF0F931F93CF939A
:10083000DF938C01D0E0C0E0F801EC0FFD1F649164
:10084000662341F08EE991E00E94C803892B11F0E4
:100850002196F2CFCE01DF91CF911F910F91089594
:10086000CF93DF93EC01888D8823B9F0AA89BB89E7
:10087000E889F9898C9185FD03C0808186FD0DC0D2
:100880000FB607FCF7CF8C9185FFF2CF808185FFF3
:10089000EDCFCE010E94A603E9CFDF91CF9108955D
:1008A0008FB7F89480919D018FBF08958EBD000091
:1008B0000DB407FEFDCF8EB50895EF92FF920F9312
:1008C0001F93CF93DF93EC017B018A0181E590E0D8
:1008D0000E94BD0160E0809162020E94AF028BE045
:1008E000D0FF83E00E9456048C2F0E945604E7013B
:1008F0000E0D1F1D80E00E9456048993C017D1077A
:10090000C9F761E080916202DF91CF911F910F9151
:10091000FF90EF900C94AF02FC0101900020E9F7EA
:100920003197AF01481B590BBC018EE991E00C9443
:100930002803CF93DF930E941504EC0188E491E033
:100940000E948C048C0F9D1FDF91CF9108958F9290
:100950009F92AF92BF920F931F93CF93DF93CDB728
:10096000DEB7A1970FB6F894DEBF0FBECDBF19A2B8
:10097000423008F44AE08E010F5D1F4F842E912C07
:10098000B12CA12CA50194010E94920CE62FB90173
:10099000CA01EA30F4F4E05DD801EE938D01232B17
:1009A000242B252B79F790E080E0109719F0CD01EA
:1009B0000E948C04A1960FB6F894DEBF0FBECDBF87
:1009C000DF91CF911F910F91BF90AF909F908F902B
:1009D0000895E95CE1CF682F70E090E080E04AE0A4
:1009E0000C94A704CF93DF930E94EB04EC0188E4FE
:1009F00091E00E948C048C0F9D1FDF91CF91089590
:100A0000BC0190E080E04AE00C94A7044F925F9212
:100A10006F927F928F929F92AF92BF92CF92DF920E
:100A2000EF92FF920F931F93CF936B017C01742E73
:100A3000AC019B010E940410882399F08BE491E0A3
:100A4000CF911F910F91FF90EF90DF90CF90BF90CB
:100A5000AF909F908F907F906F905F904F900C948D
:100A60008C0446015701E894B7F82FEF3FEF4FE7AA
:100A70005FE7C501B4010E94041081110DC02FEF82
:100A80003FEF4FE75FE7C501B4010E943B0D181629
:100A90001CF48FE491E0D4CF2FEF3FEF4FE75FE4FA
:100AA000C701B6010E94F20E18161CF483E591E00E
:100AB000C7CF2FEF3FEF4FE75FECC701B6010E94B2
:100AC0003B0D87FDF3CF20E030E0A901C701B6015F
:100AD0000E943B0D10E000E087FF0AC06DE28EE946
:100AE00091E00E94C8038C01F7FAF094F7F8F094B3
:100AF000C0E060E070E080E09FE37C1641F020E021
:100B000030E040E251E40E94400DCF5FF6CFA701F4
:100B100096010E94CF0C2B013C010E94B90D4B01A4
:100B20005C014AE00E94A7047C01E00EF11ECC2388
:100B3000A9F1C501B4010E94E80D9B01AC01C301FC
:100B4000B2010E94CE0C4B015C016EE28EE991E095
:100B50000E94C803E80EF91EC15000F120E030E009
:100B600040E251E4C501B4010E94470F2B013C0152
:100B70000E94B90D4B01CB010E940005E80EF91E41
:100B8000B40190E080E00E94E80D9B01AC01C3013C
:100B9000B2010E94CE0C4B015C01DECFC701CF91A8
:100BA0001F910F91FF90EF90DF90CF90BF90AF908B
:100BB0009F908F907F906F905F904F900895CF930C
:100BC000DF930E940005EC0188E491E00E948C0410
:100BD0008C0F9D1FDF91CF9108951F920F920FB63A
:100BE0000F9211242F933F938F939F93AF93BF93B3
:100BF0008091940190919501A0919601B0919701F7
:100C00003091930123E0230F2D3758F50196A11D54
:100C1000B11D209393018093940190939501A0932B
:100C20009601B093970180918F0190919001A091CE
:100C30009101B09192010196A11DB11D80938F0188
:100C400090939001A0939101B0939201BF91AF91C5
:100C50009F918F913F912F910F900FBE0F901F90FA
:100C6000189526E8230F0296A11DB11DD2CF1F9221
:100C70000F920FB60F9211242F933F934F935F93D0
:100C80006F937F938F939F93AF93BF93EF93FF9354
:100C9000E0910201F09103010995FF91EF91BF915D
:100CA000AF919F918F917F916F915F914F913F9104
:100CB0002F910F900FBE0F901F9018951F920F92BB
:100CC0000FB60F9211242F933F934F935F936F931F
:100CD0007F938F939F93AF93BF93EF93FF93E09195
:100CE0000001F09101010995FF91EF91BF91AF9142
:100CF0009F918F917F916F915F914F913F912F9134
:100D00000F900FBE0F901F9018951F920F920FB665
:100D10000F9211242F933F934F935F936F937F9381
:100D20008F939F93AF93BF93EF93FF938EE991E0DF
:100D30000E94A603FF91EF91BF91AF919F918F9178
:100D40007F916F915F914F913F912F910F900FBEC7
:100D50000F901F9018951F920F920FB60F921124AB
:100D60002F938F939F93EF93FF93E091AE01F091B8
:100D7000AF018081E091B401F091B50182FD1BC00B
:100D800090818091B7018F5F8F732091B801821796
:100D900041F0E091B701F0E0E256FE4F958F80936D
:100DA000B701FF91EF919F918F912F910F900FBEFF
:100DB0000F901F9018958081F4CFEEE9F1E0138237
:100DC000128288EE93E0A0E0B0E084839583A6834E
:100DD000B7838AE391E09183808385EC90E09587E7
:100DE000848784EC90E09787868780EC90E0918BF5
:100DF000808B81EC90E0938B828B82EC90E0958BE2
:100E0000848B86EC90E0978B868B118E128E138EDE
:100E1000148E8DE190E090933C0280933B02E9E9CF
:100E2000F2E08EE0808380E090E7A9E1B6E4818380
:100E30009283A383B48380E090E4ACE1B6E485833D
:100E40009683A783B08780E090E0A8ECB1E4818727
:100E50009287A387B48780E090EEA6E7B5E4858704
:100E60009687A787B08B84E090E0928B818BE5E634
:100E7000F2E08FE0808380E090E0A0E2B1E4818343
:100E80009283A383B48380E090E0A0E7B1E48583FC
:100E90009683A783B08712AA11AA13AA8AE0809327
:100EA0006202E4E4F2E04FEF5FEF6FE77FE7428337
:100EB00053836483758380E090E0A0E8B0E086838C
:100EC0009783A087B1874287538764877587868712
:100ED0009787A08BB18B5DE1528B4CE0438B2CE666
:100EE00037E0358B248B97E1968B8BE3878B508F84
:100EF000418F338F228F948F858F80E098E090937D
:100F0000430280934202EDE3F2E083E0808382E3D8
:100F100090E092838183148213820895789484B53B
:100F2000826084BD84B5816084BD85B5826085BDE5
:100F300085B5816085BD80916E00816080936E0073
:100F40001092810080918100826080938100809165
:100F50008100816080938100809180008160809316
:100F600080008091B10084608093B1008091B000D6
:100F700081608093B00080917A00846080937A00D1
:100F800080917A00826080937A0080917A008160FB
:100F900080937A0080917A00806880937A00109222
:100FA000C100E091AE01F091AF0182E08083E09159
:100FB000AA01F091AB011082E091AC01F091AD017A
:100FC0008FEC80831092B601E091B201F091B301F1
:100FD00086E08083E091B001F091B1018081806171
:100FE0008083E091B001F091B101808188608083BD
:100FF000E091B001F091B101808180688083E0913F
:10100000B001F091B10180818F7D8083EEE6F2E046
:1010100086E992E011921192119211928E179F0718
:10102000C9F761E0809162020E94DD0261E0809177
:1010300062020E94AF02CFB7F89480918A018111B9
:1010400027C0E2EFF2E08491E6E0F3E09491E82F2C
:10105000F0E0EE0FFF1FE653FD4FA591B491EC9128
:10106000E92321F461E08AE00E94AF0261E08AE0B6
:101070000E94DD028CB580618CBD8CB580648CBD16
:1010800061E08DE00E94DD0261E08BE00E94DD0204
:1010900080918A018F5F80938A01CFBF62E0809147
:1010A0003D020E94DD0280913D020E94720221E019
:1010B00030E0892B11F030E020E0309341022093A2
:1010C0004002C4E2D3E072E0272E312C00E010E0B1
:1010D0000E949B028091400290914102892B09F06D
:1010E00051C081EB92E00E94990480913D020E94E0
:1010F0007202892B09F444C08EE991E00E94300409
:1011000020917A0010927A0083B7817F846083BF38
:10111000F89483B7816083BF80913D02823009F4E7
:1011200088C0833051F4D0930301C09302018091B1
:101130006900837F80936900E99A7894889583B7E2
:101140008E7F83BF80913D02823009F47DC0833061
:1011500071F4E99881E090E0880F991FFC01E0505C
:10116000FF4F63E2C62E63E0D62ED182C082209369
:101170007A00EE24E394F12CF0924102E0924002D6
:101180000E949B022FB7F894809194019091950151
:10119000A0919601B09197012FBF40918B01509182
:1011A0008C0160918D0170918E0141155105610591
:1011B000710571F06C017D01C41AD50AE60AF70ABF
:1011C000B701A601403157426105710508F47AC3A1
:1011D00080938B0190938C01A0938D01B0938E012D
:1011E0008BE992E00E94990489E792E00E949904B9
:1011F000809199020E940E03009751F53092AB0244
:101200002092AA0232E0E32EF12C86E591E00E94C2
:101210001504F701EE0FFF1FE45DFE4F8081918101
:10122000009711F00E948C0488E491E00E948C04E5
:10123000F2C1D0930101C0930001809169008C7FBD
:1012400080936900E89A79CFE89890E080E084CFB5
:101250008F3F23E0920750F083E090E09093AB0241
:101260008093AA0223E0E22EF12CCFCFBC0190E0C4
:1012700080E00E94E80D6B017C01AC019B0160E005
:1012800070EC8FE794E40E94CE0C9B01AC01C70187
:10129000B6010E94400D20919A0230919B0240912C
:1012A0009C0250919D020E94470F20919E02309116
:1012B0009F024091A0025091A1020E94400D0E9405
:1012C000FF0E2091A6023091A7024091A8025091F2
:1012D000A9020E94400D6B017C0123E333E948E839
:1012E00053E46091A2027091A3028091A4029091B4
:1012F000A5020E94CF0C9B01AC0160E070E080E889
:101300009FE30E94400DA70196010E94CF0C9B0114
:10131000AC0160E070E080E89FE30E94400D109215
:10132000AB021092AA0223E333E948E853E40E9497
:10133000CE0C20E73EEC48E85FE30E94470F9B019C
:10134000AC010E94CF0C20E030E040E05FE30E945F
:10135000CF0C0E94250E20E030E040E05FE30E94C9
:10136000470F6B017C01C0922801D0922901E092C5
:101370002A01F0922B0187E392E00E94990487E210
:1013800092E00E94150460912801709129018091DA
:101390002A0190912B0142E00E94060583E292E02F
:1013A0000E94990420912401309125014091260149
:1013B00050912701C701B6010E94F20E181644F49D
:1013C000C0922401D0922501E0922601F0922701DB
:1013D000209120013091210140912201509123015F
:1013E000C701B6010E943B0D87FF08C0C0922001D3
:1013F000D0922101E0922201F09223014CE150E0D1
:1014000064E071E081E090E00E945D0482E192E09E
:101410000E9499048EEF91E00E94150460910401EE
:1014200070910501809106019091070142E00E94B0
:10143000060587EF91E00E941504809114010E9437
:10144000EB0485EF91E00E941504809115010E9444
:10145000EB0483EF91E00E941504809116019091B6
:1014600017010E94000581EF91E00E941504809110
:1014700018010E94EB048FEE91E00E941504809108
:1014800019010E94F2048BED91E00E941504609115
:1014900008017091090180910A0190910B0142E0CD
:1014A0000E94060582ED91E00E94150480911A01C8
:1014B0000E94EB0480ED91E00E94150480911B01D5
:1014C0000E94EB048EEC91E00E94150480911C01B7
:1014D00090911D010E9400058CEC91E00E94150482
:1014E00080911E010E94EB048AEC91E00E94150499
:1014F00080911F010E94F20460910C0170910D0116
:1015000080910E0190910F0142E00E94060588E44F
:1015100091E00E948C044EE150E064E472E080911E
:101520003B0290913C020E945D048CEB91E00E9492
:10153000990488EA91E00E94150460914602709136
:101540004702809148029091490242E00E940605BC
:1015500081EA91E00E941504809156020E94EB04FA
:101560008FE991E00E941504809157020E94EB04DC
:101570008DE991E00E9415048091580290915902E2
:101580000E9400058BE991E00E94150480915A02A7
:101590000E94EB0489E991E00E94150480915B02AE
:1015A0000E94F20485E891E00E94150460914A02CD
:1015B00070914B0280914C0290914D0242E00E944A
:1015C00006058CE791E00E94150480915C020E9460
:1015D000EB048AE791E00E94150480915D020E946D
:1015E000EB0488E791E00E94150480915E029091DF
:1015F0005F020E94000586E791E00E941504809139
:1016000060020E94EB0484E791E00E94150480913F
:1016100061020E94F2048CE592E00E94990480919C
:1016200065020E940E03C0906A02D0906B02E090A7
:101630006C02F0906D02BC01990F880B990B0E940F
:10164000EA0D20E030E040EA50E40E94470F20E03D
:1016500030EC4FE754E40E94400D4B015C012091B7
:101660006602309167024091680250916902C70199
:10167000B6010E94CF0C9B01AC01C501B4010E94D0
:10168000470FA70196010E94400D0E94C0014B0127
:101690005C01809165020E940E03C0906A02D090A6
:1016A0006B02E0906C02F0906D02BC01990F880B08
:1016B000990B0E94EA0D20E030E040EA50E40E94DD
:1016C000470F20E030EC4FE754E40E94400D2B011F
:1016D0003C0120916602309167024091680250916E
:1016E0006902C701B6010E94CF0C9B01AC01C30186
:1016F000B2010E94470FA70196010E94400D0E946F
:10170000C0016B017C0126E636E646E051E40E940A
:10171000F20E87FFE3C020E030E040EC50E4C70168
:10172000B6010E943B0D18160CF0DCC020E030E042
:1017300040EC50E4C701B6010E94CE0C28E939E91B
:1017400049E150E40E94400D6B017C01AC019B011A
:101750000E94CF0C9B01AC0160E070E080E490E45B
:101760000E94CE0C2B013C01A7019601C701B601D6
:101770000E94470F9B01AC01C301B2010E94470FB9
:1017800020E030E040E45FE30E94B40F20E030E06E
:1017900048EC52E40E94470F0E94B20D6B018FE0AB
:1017A00091E00E9415040D2C000CEE08FF084AE0A1
:1017B000C701B601F7FE0DC06DE28EE991E00E940F
:1017C000C80366277727CB016C197D098E099F090D
:1017D0004AE00E94A7048BE091E00E94150442E0D9
:1017E000C501B4010E94060588E091E00E949904B9
:1017F00020E030E040EC50E4C501B4010E943B0D14
:10180000181624F08AEE90E00E94990489E391E092
:101810000E9415048091AC029091AD02009709F4EA
:1018200064C0805B92400E94DF058DE291E00E94DF
:1018300015042091AC023091AD028DB79EB72115F1
:10184000310509F055C0805B92400E94DF058AE1B6
:1018500091E00E94150480914202909143024091D0
:10186000AC025091AD022DB73EB74115510509F0BC
:1018700042C0205B3240821B930B0E94DF0581E552
:1018800090E00E94BD0160E0809162020E94AF0280
:1018900083E00E94560480E00E94560480E00E948B
:1018A0005604F82E61E0809162020E94AF0286E445
:1018B00091E00E9415048F2D0E94F20487E492E0CB
:1018C0000E9499040115110509F402CC0E949203AB
:1018D000882309F4FBCB0E940000F8CB84E6C82ED5
:1018E000D12C5DCFD12CC12C5ACF90E080E09BCF82
:1018F000821B930BAACF241B350BBDCF97FB072E62
:1019000016F4009407D077FD09D00E94B40C07FCB0
:1019100005D03EF4909581959F4F089570956195FF
:101920007F4F0895A1E21A2EAA1BBB1BFD010DC01B
:10193000AA1FBB1FEE1FFF1FA217B307E407F5077F
:1019400020F0A21BB30BE40BF50B661F771F881F5B
:10195000991F1A9469F760957095809590959B01F1
:10196000AC01BD01CF010895AA1BBB1B51E107C00B
:10197000AA1FBB1FA617B70710F0A61BB70B881F1F
:10198000991F5A95A9F780959095BC01CD010895AE
:10199000EE0FFF1F0590F491E02D09945058BB27DE
:1019A000AA270E94E60C0C94A00E0E94920E38F01A
:1019B0000E94990E20F039F49F3F19F426F40C94FC
:1019C0008F0E0EF4E095E7FB0C94600EE92F0E9459
:1019D000B10E58F3BA17620773078407950720F012
:1019E00079F4A6F50C94EB0E0EF4E0950B2EBA2FBD
:1019F000A02D0B01B90190010C01CA01A001112415
:101A0000FF27591B99F0593F50F4503E68F11A16C0
:101A1000F040A22F232F342F4427585FF3CF469551
:101A200037952795A795F0405395C9F77EF41F1673
:101A3000BA0B620B730B840BBAF09150A1F0FF0F3D
:101A4000BB1F661F771F881FC2F70EC0BA0F621F29
:101A5000731F841F48F4879577956795B795F79519
:101A60009E3F08F0B0CF9395880F08F09927EE0FAE
:101A70009795879508950E943C0E08F481E008959B
:101A80000E94540D0C94A00E0E94990E58F00E94D2
:101A9000920E40F029F45F3F29F00C94600E511132
:101AA0000C94EC0E0C948F0E0E94B10E68F39923E7
:101AB000B1F3552391F3951B550BBB27AA2762174A
:101AC0007307840738F09F5F5F4F220F331F441F57
:101AD000AA1FA9F335D00E2E3AF0E0E832D091508B
:101AE0005040E695001CCAF72BD0FE2F29D0660F78
:101AF000771F881FBB1F261737074807AB07B0E8BB
:101B000009F0BB0B802DBF01FF2793585F4F3AF0C0
:101B10009E3F510578F00C94600E0C94EC0E5F3FE4
:101B2000E4F3983ED4F3869577956795B795F79546
:101B30009F5FC9F7880F911D9695879597F908952E
:101B4000E1E0660F771F881FBB1F621773078407CA
:101B5000BA0720F0621B730B840BBA0BEE1F88F7D9
:101B6000E09508950E94B90D6894B1110C94EC0EA3
:101B700008950E94B90E88F09F5798F0B92F9927C1
:101B8000B751B0F0E1F0660F771F881F991F1AF068
:101B9000BA95C9F714C0B13091F00E94EB0EB1E0D4
:101BA00008950C94EB0E672F782F8827B85F39F0D3
:101BB000B93FCCF3869577956795B395D9F73EF401
:101BC00090958095709561957F4F8F4F9F4F0895A9
:101BD000E89409C097FB3EF49095809570956195C7
:101BE0007F4F8F4F9F4F9923A9F0F92F96E9BB277D
:101BF0009395F695879577956795B795F111F8CFF9
:101C0000FAF4BB0F11F460FF1BC06F5F7F4F8F4F63
:101C10009F4F16C0882311F096E911C0772321F059
:101C20009EE8872F762F05C0662371F096E8862FF1
:101C300070E060E02AF09A95660F771F881FDAF748
:101C4000880F9695879597F908950E94D30E90F086
:101C50009F3748F4911116F00C94EC0E60E070E0A0
:101C600080E89FEB089526F41B16611D711D811DF0
:101C70000C94660E0C94810E990F0008550FAA0B58
:101C8000E0E8FEEF16161706E807F907C0F012168F
:101C90001306E407F50798F0621B730B840B950B92
:101CA00039F40A2661F0232B242B252B21F40895E7
:101CB0000A2609F4A140A6958FEF811D811D089584
:101CC00097F99F6780E870E060E00895882371F4D9
:101CD000772321F09850872B762F07C0662311F4C5
:101CE00099270DC09051862B70E060E02AF09A95FC
:101CF000660F771F881FDAF7880F9695879597F9F3
:101D000008959F3F31F0915020F48795779567951E
:101D1000B795880F911D9695879597F908959FEF30
:101D200080EC089500240A94161617061806090672
:101D3000089500240A941216130614060506089541
:101D4000092E0394000C11F4882352F0BB0F40F4C9
:101D5000BF2B11F460FF04C06F5F7F4F8F4F9F4F09
:101D6000089557FD9058440F551F59F05F3F71F08B
:101D70004795880F97FB991F61F09F3F79F08795F2
:101D80000895121613061406551FF2CF4695F1DF7B
:101D900008C0161617061806991FF1CF869571050B
:101DA0006105089408950E94B90EA0F0BEE7B91726
:101DB00088F4BB279F3860F41616B11D672F782F63
:101DC0008827985FF7CF869577956795B11D93958E
:101DD0009639C8F30895E894BB2766277727CB0187
:101DE00097F908950E943C0E08F48FEF089516F0BD
:101DF0000C94810E0C948F0E68940C94600E0E94CB
:101E0000B90EA8F39923C1F3AEF3DF93CF931F93D9
:101E10000F93FF92C92FDD2788232AF02197660FA1
:101E2000771F881FDAF720E030E040E85FEB9FE3A0
:101E3000883920F0803E38F021968F770E94CF0CB1
:101E4000E8E6F0E004C00E94CF0CE5E9F0E00E9473
:101E500043108B01BE01EC01FB2E6F577109759584
:101E6000771F880B990B0E94EA0D28E132E741E3C6
:101E70005FE30E945A0FAF2D9801AE01FF900F91C2
:101E80001F91CF91DF910E94E60C0C94A00E0E944E
:101E90005A0F0C94A00E0E94920E38F00E94990ED8
:101EA00020F0952311F00C94600E0C948F0E1124E9
:101EB0000C94EC0E0E94B10E70F3959FC1F3950F38
:101EC00050E0551F629FF001729FBB27F00DB11DBE
:101ED000639FAA27F00DB11DAA1F649F6627B00D4E
:101EE000A11D661F829F2227B00DA11D621F739F37
:101EF000B00DA11D621F839FA00D611D221F749F45
:101F00003327A00D611D231F849F600D211D822F8B
:101F1000762F6A2F11249F5750409AF0F1F08823B2
:101F20004AF0EE0FFF1FBB1F661F771F881F9150DF
:101F30005040A9F79E3F510580F00C94600E0C9420
:101F4000EC0E5F3FE4F3983ED4F386957795679562
:101F5000B795F795E7959F5FC1F7FE2B880F911D09
:101F60009695879597F90895FA01EE0FFF1F309621
:101F700021053105A1F16115710561F48038BFE3D8
:101F80009B0749F168949038810561F08038BFEF74
:101F90009B0741F099234AF5FF3FE10531052105F3
:101FA00019F1E8940894E795D901AA2329F4AB2FF5
:101FB000BE2FF85FD0F310C0FF5F70F4A695E0F776
:101FC000F73950F019F0FF3A38F49F779F930DD00E
:101FD0000F9007FC9058089546F00C948F0E60E027
:101FE00070E080E89FE308954FE79F775F934F93FA
:101FF0003F932F930E94FF0E2F913F914F915F913E
:102000000E94470F0C9411100E943C0E880B990BF4
:10201000089529F416F00C94600E0C94EB0E0C94B9
:102020008F0E0E94B90EA8F39638A0F707F80F920A
:10203000E8942BE33AEA48EB5FE70E945D0F0F92CA
:102040000F920F924DB75EB70F920E94AC10E2EC68
:10205000F0E00E9443104F915F91EF91FF91E59561
:10206000EE1FFF1F49F0FE57E0684427EE0F441FA4
:10207000FA95E1F74195550B0E9476100F9007FEF7
:102080000C946A100895DF93CF931F930F93FF92E0
:10209000EF92DF927B018C01689406C0DA2EEF018B
:1020A0000E945A0FFE01E894A59125913591459122
:1020B0005591A6F3EF010E94E60CFE019701A801DD
:1020C000DA9469F7DF90EF90FF900F911F91CF9115
:1020D000DF9108959B01AC0160E070E080E89FE330
:1020E0000C94400D0C94600E0C94810E0E94B90E5D
:1020F000D8F39923C9F3940F511DA3F39150504085
:1021000094F059F0882332F0660F771F881F9150A2
:102110005040C1F79E3F51052CF7880F911D9695B1
:10212000879597F908955F3FACF0983E9CF0BB27E8
:10213000869577956795B79508F4B1609395C1F743
:10214000BB0F58F711F460FFE8CF6F5F7F4F8F4FE1
:102150009F4FE3CF0C94EC0EFA01DC01AA0FBB1FDA
:102160009B01AC01BF5728F422273327442750781E
:1021700020C0B75190F4AB2F002446953795279592
:10218000011CA395D2F3002071F0220F331F441FCE
:10219000B395DAF30ED00C94CE0C61307105A0E843
:1021A0008A07B94630F49B01AC0166277727882758
:1021B0009078309621F020833183428353830895B1
:0421C000F894FFCFC1
:1021C40023032303FFFF7F7F000080000000C6423B
:1021D4000000803F1D0C6C07173B1D0C6C07173B60
:1021E400FFFF7F7F000080000000C07F57015A017D
:1021F40067017401810100000000C803280355032E
:1022040030048603640378030D0A006E616E00696E
:102214006E66006F7666004F4B00444953434F4E41
:102224004E45435445440053484F52545F544F5F06
:10223400474E440053484F52545F544F5F564343F4
:0A22440000494E56414C4944000089
:00000001FF
