:100000000C949E000C94C6000C94C6000C94C60080
:100010000C94C6000C94C6000C94C6000C94C60048
:100020000C94C6000C94C6000C94C6000C94C60038
:100030000C94C6000C94C6000C94C6000C94C60028
:100040000C9446040C94C6000C94B6040C949004D2
:100050000C94C6000C94C6000C94C6000C94C60008
:100060000C94C6000C94C60008000000BE922449FF
:10007000123EABAAAA2ABECDCCCC4C3E00000080DA
:10008000BEABAAAAAA3E00000000BF000000803F4D
:100090000000000000084178D3BB4387D1133D190D
:1000A0000E3CC3BD4282AD2B3E68EC8276BED98F3A
:1000B000E1A93E4C80EFFFBE01C4FF7F3F0000007E
:1000C000000007634236B79BD8A71A39685618AEA6
:1000D000BAAB558C1D3CB7CC5763BD6DEDFD753E7D
:1000E000F6177231BF000000803F000000080002D8
:1000F00001000003040700000000000000000000F1
:100100000000250028002B0000000000240027002C
:100110002A00040404040404040402020202020289
:1001200003030303030301020408102040800102BB
:1001300004081020010204081020E80411241FBE46
:10014000CFEFD8E0DEBFCDBF12E0A0E0B1E0E8E045
:10015000FAE102C005900D92AC30B107D9F723E067
:10016000ACE0B2E001C01D92A731B207E1F710E0A8
:10017000CEE9D0E004C02197FE010E94EA08CD3903
:10018000D107C9F70E945A050C94020D0C94000087
:1001900090E0FC01EA5DFE4F24918E5E9E4FFC01D3
:1001A0008491882399F090E0880F991FFC01E85F03
:1001B000FE4FA591B491FC01E250FF4F85919491BF
:1001C0008FB7F894EC91E22BEC938FBF08958F9248
:1001D0009F92AF92BF92CF92DF92EF92FF920F93D6
:1001E0001F93CF93DF932091010330910203F90114
:1001F000EE0FFF1FEE0FFF1FE053FD4F6187728769
:1002000083879487C90101966AE070E00E94A00884
:10021000EC019093020380930103892B19F481E090
:100220008093030380910303882311F0CAE0D0E098
:1002300089EDA82E82E0B82E10E000E0C12CD12C70
:1002400076010C171D077CF4F50121913191419144
:1002500051915F01C701B6010E94F1086B017C0159
:100260000F5F1F4FEECF2AE939E949E55FE360915F
:100270001A0270911B0280911C0290911D020E9433
:10028000690B4B015C01BE01DD0F880B990B0E94CD
:100290000C0A9B01AC01C701B6010E9462092AE960
:1002A00039E949E15EE30E94690B9B01AC01C5019C
:1002B000B4010E94F10860931A0270931B028093AC
:1002C0001C0290931D02DF91CF911F910F91FF901F
:1002D000EF90DF90CF90BF90AF909F908F90089558
:1002E00090E0FC01E651FF4F2491FC01EA5DFE4FD6
:1002F0003491FC01EE5EFE4FE491EE23C9F022231F
:1003000039F0233001F1A8F4213019F1223029F11C
:10031000F0E0EE0FFF1FE250FF4FA591B4918FB7B1
:10032000F894EC91611126C030953E233C938FBF29
:1003300008952730A9F02830C9F0243049F780917A
:1003400080008F7D03C0809180008F778093800034
:10035000DFCF84B58F7784BDDBCF84B58F7DFBCFB6
:100360008091B0008F778093B000D2CF8091B000A1
:100370008F7DF9CF3E2BDACF8E3008F08E5087700C
:10038000806480937C0080917A00806480937A00FE
:1003900080917A0086FDFCCF809178009091790061
:1003A0000895AF92BF92CF92DF92EF92FF920F9398
:1003B0001F93CF93DF936C017B018B01040F151FFB
:1003C000EB015E01AE18BF08C017D10759F0699163
:1003D000D601ED91FC910190F081E02DC6010995C7
:1003E000892B79F7C501DF91CF911F910F91FF9074
:1003F000EF90DF90CF90BF90AF900895FC01538DA8
:10040000448D252F30E0842F90E0821B930B5417EE
:1004100010F0CF96089501970895FC01918D828D7B
:10042000981761F0A28DAE0FBF2FB11D5D968C9114
:10043000928D9F5F9F73928F90E008958FEF9FEF53
:100440000895FC01918D828D981731F0828DE80F0F
:10045000F11D858D90E008958FEF9FEF0895FC01C9
:10046000918D228D892F90E0805C9F4F821B910996
:100470008F73992708958EE292E00E942F0221E067
:10048000892B09F420E0822F089580E090E0892BE9
:1004900029F00E943B0281110C9400000895FC0198
:1004A000A48DA80FB92FB11DA35ABF4F2C91848DD5
:1004B00090E001968F739927848FA689B7892C9332
:1004C000A089B1898C91837080648C93938D848D85
:1004D000981306C00288F389E02D80818F7D808388
:1004E0000895EF92FF920F931F93CF93DF93EC0148
:1004F00081E0888F9B8D8C8D98131AC0E889F989CB
:10050000808185FF15C09FB7F894EE89FF896083CD
:10051000E889F98980818370806480839FBF81E04E
:1005200090E0DF91CF911F910F91FF90EF90089590
:10053000F62E0B8D10E00F5F1F4F0F731127E02E6B
:100540008C8D8E110CC00FB607FCFACFE889F989A3
:10055000808185FFF5CFCE010E944F02F1CFEB8D58
:10056000EC0FFD2FF11DE35AFF4FF0829FB7F89477
:100570000B8FEA89FB8980818062CFCFCF93DF9395
:10058000EC01888D8823B9F0AA89BB89E889F989AB
:100590008C9185FD03C0808186FD0DC00FB607FCE0
:1005A000F7CF8C9185FFF2CF808185FFEDCFCE0113
:1005B0000E944F02E9CFDF91CF9108958EBD0000D8
:1005C0000DB407FEFDCF8EB50895CF93DF93EC01F8
:1005D00060E08091CB020E94700183E00E94DE0205
:1005E0008D2F0E94DE028C2F0E94DE02CEE1D2E02F
:1005F00080E00E94DE02899382E0CE32D807C1F704
:1006000061E08091CB02DF91CF910C947001FC01ED
:1006100001900020E9F73197AF01481B590BBC014D
:100620008EE292E00C94D1018F929F92AF92BF9292
:100630000F931F93CF93DF93CDB7DEB7A1970FB67C
:10064000F894DEBF0FBECDBF19A2423008F44AE0D5
:100650008E010F5D1F4F842E912CB12CA12CA50172
:1006600094010E94B408E62FB901CA01EA30F4F4FB
:10067000E05DD801EE938D01232B242B252B79F7F8
:1006800090E080E0109719F0CD010E940703A19639
:100690000FB6F894DEBF0FBECDBFDF91CF911F9193
:1006A0000F91BF90AF909F908F900895E95CE1CF3C
:1006B000CF93DF93D0E0C0E0009719F00E940703CA
:1006C000EC0188E291E00E9407038C0F9D1FDF91EF
:1006D000CF9108954F925F926F927F928F929F92E7
:1006E000AF92BF92CF92DF92EF92FF920F931F9340
:1006F000CF936B017C01742EAC019B010E94260CF0
:10070000882399F08BE291E0CF911F910F91FF9098
:10071000EF90DF90CF90BF90AF909F908F907F90A1
:100720006F905F904F900C94070346015701E89437
:10073000B7F82FEF3FEF4FE75FE7C501B4010E9425
:10074000260C81110DC02FEF3FEF4FE75FE7C5018A
:10075000B4010E945D0918161CF48FE291E0D4CF19
:100760002FEF3FEF4FE75FE4C701B6010E94140B84
:1007700018161CF483E391E0C7CF2FEF3FEF4FE74C
:100780005FECC701B6010E945D0987FDF3CF20E051
:1007900030E0A901C701B6010E945D0910E000E048
:1007A00087FF0AC06DE28EE292E00E9471028C0126
:1007B000F7FAF094F7F8F094C0E060E070E080E0C1
:1007C0009FE37C1641F020E030E040E251E40E94DB
:1007D0006209CF5FF6CFA70196010E94F1082B01B5
:1007E0003C010E94DB094B015C014AE00E941403BA
:1007F0007C01E00EF11ECC23C1F1C501B4010E94C1
:100800000A0A9B01AC01C301B2010E94F0084B012E
:100810005C016EE28EE292E00E947102E80EF91E27
:10082000C15018F120E030E040E251E4C501B401CC
:100830000E94690B2B013C010E94DB094B01B12C8A
:10084000A12C4AE0C501B4010E941403E80EF91E70
:10085000C501B4010E940A0A9B01AC01C301B201A7
:100860000E94F0084B015C01DBCFC701CF911F91C3
:100870000F91FF90EF90DF90CF90BF90AF909F903F
:100880008F907F906F905F904F9008951F920F927E
:100890000FB60F9211242F933F938F939F93AF9393
:1008A000BF938091160290911702A0911802B09107
:1008B00019023091150223E0230F2D3758F50196C8
:1008C000A11DB11D2093150280931602909317026B
:1008D000A0931802B0931902809111029091120214
:1008E000A0911302B09114020196A11DB11D809335
:1008F000110290931202A0931302B0931402BF91BD
:10090000AF919F918F913F912F910F900FBE0F90BC
:100910001F90189526E8230F0296A11DB11DD2CF76
:100920001F920F920FB60F9211242F933F934F9364
:100930005F936F937F938F939F93AF93BF93EF9347
:10094000FF938EE292E00E944F02FF91EF91BF91E0
:10095000AF919F918F917F916F915F914F913F9157
:100960002F910F900FBE0F901F9018951F920F920E
:100970000FB60F9211242F938F939F93EF93FF93B2
:10098000E0913E02F0913F028081E0914402F091BB
:10099000450282FD1BC09081809147028F5F8F735B
:1009A00020914802821741F0E0914702F0E0E25DB9
:1009B000FD4F958F80934702FF91EF919F918F910B
:1009C0002F910F900FBE0F901F9018958081F4CF3C
:1009D000EEE2F2E01382128288EE93E0A0E0B0E053
:1009E00084839583A683B7838AE191E09183808392
:1009F00085EC90E09587848784EC90E097878687E4
:100A000080EC90E0918B808B81EC90E0938B828BDB
:100A100082EC90E0958B848B86EC90E0978B868BB4
:100A2000118E128E138E148EE4E0F3E08EE080833C
:100A300080E090E7A9E1B6E481839283A383B48345
:100A400080E090E4ACE1B6E485839683A783B08729
:100A500080E090E0A8ECB1E481879287A387B48717
:100A600080E090EEA6E7B5E485879687A787B08BF0
:100A700084E090E0928B818BE0EDF2E08FE0808368
:100A800080E090E0A0E2B1E481839283A383B48309
:100A900080E090E0A0E7B1E485839683A783B087E8
:100AA00012AA11AA13AAEBECF2E0148213828AE0D4
:100AB00080830895789484B5826084BD84B5816014
:100AC00084BD85B5826085BD85B5816085BD809119
:100AD0006E00816080936E00109281008091810091
:100AE0008260809381008091810081608093810089
:100AF000809180008160809380008091B10084604B
:100B00008093B1008091B00081608093B0008091AB
:100B10007A00846080937A0080917A00826080936A
:100B20007A0080917A00816080937A0080917A00C7
:100B3000806880937A001092C100E0913E02F091AB
:100B40003F0282E08083E0913A02F0913B02108202
:100B5000E0913C02F0913D028FEC808310924602BE
:100B6000E0914202F091430286E08083E0914002EE
:100B7000F0914102808180618083E0914002F09198
:100B80004102808188608083E0914002F0914102BF
:100B9000808180688083E0914002F09141028081F1
:100BA0008F7D8083E9EDF2E0119211921192119202
:100BB00023E0E130F207C1F78091CB020E94C80028
:100BC00061E08091CB020E947001CFB7F8948091D0
:100BD0000C02811124C0ECE1F1E08491E0E3F1E04A
:100BE0009491E82FF0E0EE0FFF1FE85FFE4FA59114
:100BF000B491EC91E92321F461E08AE00E94700154
:100C00008AE00E94C8008CB580618CBD8CB5806480
:100C10008CBD8DE00E94C8008BE00E94C8008091CE
:100C20000C028F5F80930C02CFBF8091CE02909117
:100C3000CF020E94E50240E0242E40E0342E03E083
:100C400010E0C2E0D0E02FB7F894809116029091A6
:100C50001702A0911802B09119022FBF40910D0206
:100C600050910E0260910F027091100241155105D2
:100C70006105710571F06C017D01C41AD50AE60A9F
:100C8000F70AB701A601403157426105710508F422
:100C900044C280930D0290930E02A0930F02B09372
:100CA0001002809104030E94BC01009799F4D09334
:100CB0001603C093150332E0E32EF12C8BEA91E08A
:100CC0000E940703F701EE0FFF1FE45FFE4F8081D4
:100CD000918138C18F3F23E0920740F010931603B3
:100CE0000093150323E0E22EF12CE8CFBC0190E045
:100CF00080E00E940A0A6B017C01AC019B0160E06C
:100D000070EC8FE794E40E94F0089B01AC01C701EE
:100D1000B6010E94620920910503309106034091BB
:100D20000703509108030E94690B20910903309139
:100D30000A0340910B0350910C030E9462090E9428
:100D4000210B209111033091120340911303509114
:100D500014030E9462096B017C0123E333E948E834
:100D600053E460910D0370910E0380910F039091F5
:100D700010030E94F1089B01AC0160E070E080E884
:100D80009FE30E946209A70196010E94F1089B015E
:100D9000AC0160E070E080E89FE30E94620910927D
:100DA00016031092150323E333E948E853E40E9445
:100DB000F00820E73EEC48E85FE30E94690B9B01E6
:100DC000AC010E94F10820E030E040E05FE30E94C7
:100DD000F1080E94470A20E030E040E05FE30E9413
:100DE000690B6B017C018090080190900901A09033
:100DF0000A01B0900B01A5019401C501B4010E9444
:100E0000260C811108C0A5019401C701B6010E94FA
:100E10005D098823D9F0C0920801D0920901E092BF
:100E20000A01F0920B0187E391E00E9407036091B1
:100E300008017091090180910A0190910B0142E033
:100E40000E946A038DE491E00E94580320910401FE
:100E5000309105014091060150910701C701B6018B
:100E60000E94140B1816DCF4C0920401D092050104
:100E7000E0920601F092070181E591E00E940703EC
:100E80006091040170910501809106019091070124
:100E900042E00E946A038DE491E00E945803209191
:100EA0000001309101014091020150910301C701FD
:100EB000B6010E945D0987FF1BC0C0920001D0925D
:100EC0000101E0920201F092030183E691E00E94A9
:100ED00007036091000170910101809102019091DE
:100EE000030142E00E946A038DE491E00E945803EE
:100EF0008091CE029091CF020E94E50285E791E0B9
:100F00000E94070360911E0270911F0280912002CF
:100F10009091210242E00E946A038DE491E00E94D8
:100F2000580380E991E00E940703609122027091CA
:100F30002302809124029091250242E00E946A03DC
:100F40008DE491E00E9458038091D0020E94BC0180
:100F5000C090D502D090D602E090D702F090D8028F
:100F6000BC01990F880B990B0E940C0A20E030E01D
:100F700040EA50E40E94690B20E030EC4FE754E473
:100F80000E9462094B015C012091D1023091D20292
:100F90004091D3025091D402C701B6010E94F108DA
:100FA0009B01AC01C501B4010E94690BA701960128
:100FB0000E9462090E94E7004B015C018091D0020F
:100FC0000E94BC01C090D502D090D602E090D7021A
:100FD000F090D802BC01990F880B990B0E940C0A63
:100FE00020E030E040EA50E40E94690B20E030EC61
:100FF0004FE754E40E9462092B013C012091D10289
:101000003091D2024091D3025091D402C701B6016F
:101010000E94F1089B01AC01C301B2010E94690B5F
:10102000A70196010E9462090E94E7006B017C0102
:1010300026E636E646E051E40E94140B87FF79C0AD
:1010400020E030E040EC50E4C701B6010E945D09A9
:1010500018160CF072C020E030E040EC50E4C701FC
:10106000B6010E94F00828E939E949E150E40E94FC
:1010700062096B017C01AC019B010E94F1089B019C
:10108000AC0160E070E080E490E40E94F0082B0185
:101090003C01A7019601C701B6010E94690B9B01A3
:1010A000AC01C301B2010E94690B20E030E040E4D2
:1010B0005FE30E94D60B20E030E048EC52E40E944F
:1010C000690B0E94D4096B0189EC91E00E9407032F
:1010D0000D2C000CEE08FF084AE0C701B601F7FE30
:1010E0000DC06DE28EE292E00E94710266277727C2
:1010F000CB016C197D098E099F094AE00E941403F7
:1011000083ED91E00E94070342E0C501B4010E9413
:101110006A0387ED91E00E9458032114310409F419
:1011200092CD0E943B02882309F48DCD0E940000DD
:101130008ACD84E6C82ED12CC7CFD12CC12CC4CFE8
:1011400097FB072E16F4009407D077FD09D00E9474
:10115000D60807FC05D03EF4909581959F4F0895E1
:10116000709561957F4F0895A1E21A2EAA1BBB1BB3
:10117000FD010DC0AA1FBB1FEE1FFF1FA217B30763
:10118000E407F50720F0A21BB30BE40BF50B661F79
:10119000771F881F991F1A9469F76095709580953D
:1011A00090959B01AC01BD01CF010895AA1BBB1B0B
:1011B00051E107C0AA1FBB1FA617B70710F0A61B57
:1011C000B70B881F991F5A95A9F780959095BC0178
:1011D000CD010895EE0FFF1F0590F491E02D0994C5
:1011E0005058BB27AA270E9408090C94C20A0E94E3
:1011F000B40A38F00E94BB0A20F039F49F3F19F47A
:1012000026F40C94B10A0EF4E095E7FB0C94820AE4
:10121000E92F0E94D30A58F3BA17620773078407AD
:10122000950720F079F4A6F50C940D0B0EF4E095DB
:101230000B2EBA2FA02D0B01B90190010C01CA0190
:10124000A0011124FF27591B99F0593F50F4503E3B
:1012500068F11A16F040A22F232F342F4427585F2D
:10126000F3CF469537952795A795F0405395C9F745
:101270007EF41F16BA0B620B730B840BBAF09150FD
:10128000A1F0FF0FBB1F661F771F881FC2F70EC09C
:10129000BA0F621F731F841F48F48795779567956F
:1012A000B795F7959E3F08F0B0CF9395880F08F05B
:1012B0009927EE0F9795879508950E945E0A08F486
:1012C00081E008950E9476090C94C20A0E94BB0A2C
:1012D00058F00E94B40A40F029F45F3F29F00C94C2
:1012E000820A51110C940E0B0C94B10A0E94D30A7D
:1012F00068F39923B1F3552391F3951B550BBB2745
:10130000AA2762177307840738F09F5F5F4F220F89
:10131000331F441FAA1FA9F335D00E2E3AF0E0E880
:1013200032D091505040E695001CCAF72BD0FE2FCA
:1013300029D0660F771F881FBB1F2617370748075E
:10134000AB07B0E809F0BB0B802DBF01FF27935816
:101350005F4F3AF09E3F510578F00C94820A0C944E
:101360000E0B5F3FE4F3983ED4F38695779567952F
:10137000B795F7959F5FC9F7880F911D969587954B
:1013800097F90895E1E0660F771F881FBB1F62176A
:1013900073078407BA0720F0621B730B840BBA0B28
:1013A000EE1F88F7E09508950E94DB096894B1115B
:1013B0000C940E0B08950E94DB0A88F09F5798F05A
:1013C000B92F9927B751B0F0E1F0660F771F881F4A
:1013D000991F1AF0BA95C9F714C0B13091F00E9464
:1013E0000D0BB1E008950C940D0B672F782F882713
:1013F000B85F39F0B93FCCF3869577956795B3958B
:10140000D9F73EF490958095709561957F4F8F4FF9
:101410009F4F0895E89409C097FB3EF490958095FE
:10142000709561957F4F8F4F9F4F9923A9F0F92FAA
:1014300096E9BB279395F695879577956795B79528
:10144000F111F8CFFAF4BB0F11F460FF1BC06F5F0E
:101450007F4F8F4F9F4F16C0882311F096E911C020
:10146000772321F09EE8872F762F05C0662371F041
:1014700096E8862F70E060E02AF09A95660F771F55
:10148000881FDAF7880F9695879597F908950E9437
:10149000F50A90F09F3748F4911116F00C940E0B5A
:1014A00060E070E080E89FEB089526F41B16611D54
:1014B000711D811D0C94880A0C94A30A990F0008D1
:1014C000550FAA0BE0E8FEEF16161706E807F90716
:1014D000C0F012161306E407F50798F0621B730BB1
:1014E000840B950B39F40A2661F0232B242B252B32
:1014F00021F408950A2609F4A140A6958FEF811DD5
:10150000811D089597F99F6780E870E060E0089575
:10151000882371F4772321F09850872B762F07C00A
:10152000662311F499270DC09051862B70E060E07E
:101530002AF09A95660F771F881FDAF7880F96951D
:10154000879597F908959F3F31F0915020F4879542
:1015500077956795B795880F911D9695879597F91B
:1015600008959FEF80EC089500240A94161617063C
:1015700018060906089500240A9412161306140684
:1015800005060895092E0394000C11F4882352F0E7
:10159000BB0F40F4BF2B11F460FF04C06F5F7F4F9F
:1015A0008F4F9F4F089557FD9058440F551F59F086
:1015B0005F3F71F04795880F97FB991F61F09F3F40
:1015C00079F087950895121613061406551FF2CF69
:1015D0004695F1DF08C0161617061806991FF1CFB9
:1015E000869571056105089408950E94DB0AA0F0B4
:1015F000BEE7B91788F4BB279F3860F41616B11DF3
:10160000672F782F8827985FF7CF8695779567950E
:10161000B11D93959639C8F30895E894BB276627C2
:101620007727CB0197F908950E945E0A08F48FEF9F
:10163000089516F00C94A30A0C94B10A68940C94C3
:10164000820A0E94DB0AA8F39923C1F3AEF3DF9369
:10165000CF931F930F93FF92C92FDD2788232AF082
:101660002197660F771F881FDAF720E030E040E807
:101670005FEB9FE3883920F0803E38F021968F772A
:101680000E94F108E8E6F0E004C00E94F108E5E9F4
:10169000F0E00E94650C8B01BE01EC01FB2E6F5740
:1016A00071097595771F880B990B0E940C0A28E128
:1016B00032E741E35FE30E947C0BAF2D9801AE015E
:1016C000FF900F911F91CF91DF910E9408090C9418
:1016D000C20A0E947C0B0C94C20A0E94B40A38F021
:1016E0000E94BB0A20F0952311F00C94820A0C94FE
:1016F000B10A11240C940E0B0E94D30A70F3959F2B
:10170000C1F3950F50E0551F629FF001729FBB27F8
:10171000F00DB11D639FAA27F00DB11DAA1F649F94
:101720006627B00DA11D661F829F2227B00DA11D47
:10173000621F739FB00DA11D621F839FA00D611DCD
:10174000221F749F3327A00D611D231F849F600DEE
:10175000211D822F762F6A2F11249F5750409AF017
:10176000F1F088234AF0EE0FFF1FBB1F661F771FA3
:10177000881F91505040A9F79E3F510580F00C946E
:10178000820A0C940E0B5F3FE4F3983ED4F38695E7
:1017900077956795B795F795E7959F5FC1F7FE2B0E
:1017A000880F911D9695879597F90895FA01EE0F88
:1017B000FF1F309621053105A1F16115710561F416
:1017C0008038BFE39B0749F168949038810561F048
:1017D0008038BFEF9B0741F099234AF5FF3FE105B1
:1017E0003105210519F1E8940894E795D901AA2358
:1017F00029F4AB2FBE2FF85FD0F310C0FF5F70F459
:10180000A695E0F7F73950F019F0FF3A38F49F77D2
:101810009F930DD00F9007FC9058089546F00C94BC
:10182000B10A60E070E080E89FE308954FE79F779A
:101830005F934F933F932F930E94210B2F913F91E2
:101840004F915F910E94690B0C94330C0E945E0AC9
:10185000880B990B089529F416F00C94820A0C94C5
:101860000D0B0C94B10A0E94DB0AA8F39638A0F77E
:1018700007F80F92E8942BE33AEA48EB5FE70E94FF
:101880007F0B0F920F920F924DB75EB70F920E948F
:10189000CE0CE2ECF0E00E94650C4F915F91EF916D
:1018A000FF91E595EE1FFF1F49F0FE57E0684427C2
:1018B000EE0F441FFA95E1F74195550B0E94980CE5
:1018C0000F9007FE0C948C0C0895DF93CF931F9319
:1018D0000F93FF92EF92DF927B018C01689406C018
:1018E000DA2EEF010E947C0BFE01E894A591259170
:1018F000359145915591A6F3EF010E940809FE012B
:101900009701A801DA9469F7DF90EF90FF900F91AB
:101910001F91CF91DF9108959B01AC0160E070E0D1
:1019200080E89FE30C9462090C94820A0C94A30A49
:101930000E94DB0AD8F39923C9F3940F511DA3F336
:101940009150504094F059F0882332F0660F771F81
:10195000881F91505040C1F79E3F51052CF7880FCA
:10196000911D9695879597F908955F3FACF0983E45
:101970009CF0BB27869577956795B79508F4B1607D
:101980009395C1F7BB0F58F711F460FFE8CF6F5F75
:101990007F4F8F4F9F4FE3CF0C940E0BFA01DC016A
:1019A000AA0FBB1F9B01AC01BF5728F42227332786
:1019B0004427507820C0B75190F4AB2F00244695AF
:1019C00037952795011CA395D2F3002071F0220FC3
:1019D000331F441FB395DAF30ED00C94F008613036
:1019E0007105A0E88A07B94630F49B01AC0166276F
:1019F000772788279078309621F02083318342839F
:081A000053830895F894FFCF11
:101A0800FFFF7F7FFFFF7FFF0000C07FDA01DD015E
:101A1800EA01F7010402000000007102D101FE0191
:101A2800BE022F020D0221020D0A006E616E0069CE
:101A38006E66006F76660043757272656E74207408
:101A4800656D70657261747572653A2000C2B04345
:101A5800004D61782074656D70657261747572658A
:101A68003A20004D696E2074656D706572617475F9
:101A780072653A20004D696E2074656D70657261FB
:101A880074757265206C69666574696D653A2000C5
:101A98004D61782074656D7065726174757265202A
:101AA8006C69666574696D653A20004572726F727B
:101AB80020696E2074656D70657261747572652039
:101AC80073656E736F723A2000426174746572793F
:101AD8003A2000252028005629004F4B004449533E
:101AE800434F4E4E45435445440053484F52545F6C
:101AF800544F5F474E440053484F52545F544F5F12
:0C1B080056434300494E56414C494400EE
:00000001FF
