:100000000C943F010C94E7050C94C0050C94670117
:100010000C9467010C9467010C9467010C946701C0
:100020000C9467010C9467010C9467010C946701B0
:100030000C9467010C9467010C9467010C946701A0
:100040000C9476050C9467010C9434060C940E06FF
:100050000C9467010C9467010C9467010C94670180
:100060000C9467010C94670108000000BE922449BB
:10007000123EABAAAA2ABECDCCCC4C3E00000080DA
:10008000BEABAAAAAA3E00000000BF000000803F4D
:100090000000000000084178D3BB4387D1133D190D
:1000A0000E3CC3BD4282AD2B3E68EC8276BED98F3A
:1000B000E1A93E4C80EFFFBE01C4FF7F3F0000007E
:1000C000000007634236B79BD8A71A39685618AEA6
:1000D000BAAB558C1D3CB7CC5763BD6DEDFD753E7D
:1000E000F6177231BF000000803F557365642052DF
:1000F000414D20617070726F783A200046726565DC
:100100002052414D3A200048656170207573656446
:100110003A20005629002520280042617474657237
:10012000793A20004572726F7220696E2074656D95
:1001300070657261747572652073656E736F723A63
:1001400020003A0020002F002F00C2B0C2B0432090
:100150004020004D61782074656D70657261747522
:100160007265206C69666574696D653A20003A00B5
:1001700020002F002F00C2B043204020004D696EA8
:100180002074656D7065726174757265206C696646
:100190006574696D653A2000C2B043004D696E20F8
:1001A00074656D70657261747572653A2000C2B0D5
:1001B00043004D61782074656D706572617475726D
:1001C000653A2000C2B0430043757272656E7420B8
:1001D00074656D70657261747572653A20003D2AB0
:1001E0003D2A3D2A3D20454E44203D2A3D2A3D2AB8
:1001F0003D003D2A3D2A3D2A3D2053544152542082
:100200003D2A3D2A3D2A3D0053797374656D206770
:100210006F696E6720746F20736C6565702E2E2E6B
:100220000000000000240027002A00000000002534
:100230000028002B000000000023002600290004F5
:10024000040404040404040202020202020303037D
:100250000303030102040810204080010204081077
:100260002001020408102000000008000201000024
:1002700003040700000000000000000066061124CF
:100280001FBECFEFD8E0DEBFCDBF11E0A0E0B1E0F0
:10029000E8E4FFE102C005900D92AE36B107D9F750
:1002A00022E0AEE6B1E001C01D92A938B207E1F745
:1002B00011E0CFE3D1E004C02197FE010E948A0B38
:1002C000CE33D107C9F70E94FA060C94A20F0C9402
:1002D00000008F929F92AF92BF92CF92DF92EF92E7
:1002E000FF920F931F93CF93DF9320916F02309172
:1002F0007002F901EE0FFF1FEE0FFF1FE25CFD4FD2
:100300006187728783879487C90101966AE070E0EC
:100310000E94400BEC019093700280936F02892B36
:1003200019F481E08093710280917102882311F0A9
:10033000CAE0D0E087E4A82E82E0B82E10E000E00A
:10034000C12CD12C76010C171D077CF4F5012191ED
:100350003191419151915F01C701B6010E94910B0A
:100360006B017C010F5F1F4FEECF2AE939E949E5A8
:100370005FE360917D0170917E0180917F0190919A
:1003800080010E94090E4B015C01BE01DD0F880B4C
:10039000990B0E94AC0C9B01AC01C701B6010E94F5
:1003A000020C2AE939E949E15EE30E94090E9B014A
:1003B000AC01C501B4010E94910B60937D01709363
:1003C0007E0180937F0190938001DF91CF911F91F7
:1003D0000F91FF90EF90DF90CF90BF90AF909F90E4
:1003E0008F900895833081F028F4813099F0823025
:1003F000A9F008958730A9F08830C9F08430B1F4AD
:10040000809180008F7D03C0809180008F778093E2
:100410008000089584B58F7784BD089584B58F7D5D
:10042000FBCF8091B0008F778093B00008958091CA
:10043000B0008F7DF9CFCF93DF93282F30E0F90103
:10044000E959FD4F8491F901ED5AFD4FD491F9011D
:10045000E15CFD4FC491CC23A1F081110E94F20117
:10046000EC2FF0E0EE0FFF1FEB5CFD4FA591B49178
:10047000EC91ED2381E090E009F480E0DF91CF91F1
:10048000089580E090E0FACF80911E020E941B0246
:1004900021E030E0892B11F030E020E0309322029F
:1004A0002093210280917C01811110927C0108959A
:1004B0001F93CF93DF93282F30E0F901E959FD4FC7
:1004C0008491F901ED5AFD4FD491F901E15CFD4FA2
:1004D000C491CC23A9F0162F81110E94F201EC2FB8
:1004E000F0E0EE0FFF1FE55DFD4FA591B4918FB7D2
:1004F000F894EC91111108C0D095DE23DC938FBFE6
:10050000DF91CF911F910895DE2BF8CFCF93DF932A
:1005100090E0FC01ED5AFD4F2491815C9D4FFC0160
:1005200084918823D1F090E0880F991FFC01EF5D42
:10053000FD4FA591B491FC01E55DFD4FC591D491AE
:10054000623071F49FB7F8943C91822F8095832399
:100550008C93E8812E2B28839FBFDF91CF91089544
:100560008FB7F894EC912E2B2C938FBFF6CF8E3053
:1005700008F08E508770806480937C0080917A00B0
:10058000806480937A0080917A0086FDFCCF809110
:10059000780090917900089581E080937C0108951E
:1005A0000895AF92BF92CF92DF92EF92FF920F9396
:1005B0001F93CF93DF936C017B018B01040F151FF9
:1005C000EB015E01AE18BF08C017D10759F0699161
:1005D000D601ED91FC910190F081E02DC6010995C5
:1005E000892B79F7C501DF91CF911F910F91FF9072
:1005F000EF90DF90CF90BF90AF900895FC01538DA6
:10060000448D252F30E0842F90E0821B930B5417EC
:1006100010F0CF96089501970895FC01918D828D79
:10062000981761F0A28DAE0FBF2FB11D5D968C9112
:10063000928D9F5F9F73928F90E008958FEF9FEF51
:100640000895FC01918D828D981731F0828DE80F0D
:10065000F11D858D90E008958FEF9FEF0895FC01C7
:10066000918D228D892F90E0805C9F4F821B910994
:100670008F739927089581E891E00E942F0321E06C
:10068000892B09F420E0822F089580E090E0892BE7
:1006900029F00E943B0381110C9400000895FC0195
:1006A000A48DA80FB92FB11DA35ABF4F2C91848DD3
:1006B00090E001968F739927848FA689B7892C9330
:1006C000A089B1898C91837080648C93938D848D83
:1006D000981306C00288F389E02D80818F7D808386
:1006E0000895EF92FF920F931F93CF93DF93EC0146
:1006F00081E0888F9B8D8C8D98131AC0E889F989C9
:10070000808185FF15C09FB7F894EE89FF896083CB
:10071000E889F98980818370806480839FBF81E04C
:1007200090E0DF91CF911F910F91FF90EF9008958E
:10073000F62E0B8D10E00F5F1F4F0F731127E02E69
:100740008C8D8E110CC00FB607FCFACFE889F989A1
:10075000808185FFF5CFCE010E944F03F1CFEB8D55
:10076000EC0FFD2FF11DE35AFF4FF0829FB7F89475
:100770000B8FEA89FB8980818062CFCF0F931F9313
:10078000CF93DF938C01D0E0C0E0F801EC0FFD1FA8
:100790006491662341F081E891E00E947103892B06
:1007A00011F02196F2CFCE01DF91CF911F910F91E1
:1007B0000895CF93DF93EC01888D8823B9F0AA893F
:1007C000BB89E889F9898C9185FD03C0808186FD0C
:1007D0000DC00FB607FCF7CF8C9185FFF2CF80815B
:1007E00085FFEDCFCE010E944F03E9CFDF91CF917E
:1007F00008958EBD00000DB407FEFDCF8EB508959F
:10080000CF93DF93EC0160E0809139020E9458029F
:1008100083E00E94F9038D2F0E94F9038C2F0E9420
:10082000F903C5E2D2E080E00E94F903899382E0F7
:10083000C933D807C1F761E080913902DF91CF91C8
:100840000C945802FC0101900020E9F73197AF01A8
:10085000481B590BBC0181E891E00C94D1028F92A6
:100860009F92AF92BF920F931F93CF93DF93CDB719
:10087000DEB7A1970FB6F894DEBF0FBECDBF19A2A9
:10088000423008F44AE08E010F5D1F4F842E912CF8
:10089000B12CA12CA50194010E94540BE62FB901A3
:1008A000CA01EA30F4F4E05DD801EE938D01232B08
:1008B000242B252B79F790E080E0109719F0CD01DB
:1008C0000E942204A1960FB6F894DEBF0FBECDBFE2
:1008D000DF91CF911F910F91BF90AF909F908F901C
:1008E0000895E95CE1CFCF93DF930E94BE03EC0152
:1008F0008CE291E00E9422048C0F9D1FDF91CF912A
:100900000895682F70E090E080E04AE00C942F0496
:100910004F925F926F927F928F929F92AF92BF920F
:10092000CF92DF92EF92FF920F931F93CF936B01C1
:100930007C01742EAC019B010E94C60E882399F0A5
:100940008FE291E0CF911F910F91FF90EF90DF9098
:10095000CF90BF90AF909F908F907F906F905F905F
:100960004F900C94220446015701E894B7F82FEFFA
:100970003FEF4FE75FE7C501B4010E94C60E81114A
:100980000DC02FEF3FEF4FE75FE7C501B4010E94B5
:10099000FD0B18161CF483E391E0D4CF2FEF3FEF4B
:1009A0004FE75FE4C701B6010E94B40D18161CF4AE
:1009B00087E391E0C7CF2FEF3FEF4FE75FECC70131
:1009C000B6010E94FD0B87FDF3CF20E030E0A901C6
:1009D000C701B6010E94FD0B10E000E087FF0AC0CE
:1009E0006DE281E891E00E9471038C01F7FAF094C6
:1009F000F7F8F094C0E060E070E080E09FE37C16E0
:100A000041F020E030E040E251E40E94020CCF5F70
:100A1000F6CFA70196010E94910B2B013C010E9489
:100A20007B0C4B015C014AE00E942F047C01E00E2C
:100A3000F11ECC23C1F1C501B4010E94AA0C9B0197
:100A4000AC01C301B2010E94900B4B015C016EE24C
:100A500081E891E00E947103E80EF91EC15018F17F
:100A600020E030E040E251E4C501B4010E94090EEB
:100A70002B013C010E947B0C4B01B12CA12C4AE0C4
:100A8000C501B4010E942F04E80EF91EC501B4018E
:100A90000E94AA0C9B01AC01C301B2010E94900B01
:100AA0004B015C01DBCFC701CF911F910F91FF90EC
:100AB000EF90DF90CF90BF90AF909F908F907F90FE
:100AC0006F905F904F900895CF93DF93BC0190E0BB
:100AD00080E04AE00E942F04EC018CE291E00E9449
:100AE00022048C0F9D1FDF91CF9108951F920F92CA
:100AF0000FB60F9211242F933F938F939F93AF9331
:100B0000BF938091780190917901A0917A01B09181
:100B10007B013091770123E0230F2D3758F50196A3
:100B2000A11DB11D209377018093780190937901E5
:100B3000A0937A01B0937B0180917301909174012D
:100B4000A0917501B09176010196A11DB11D809310
:100B5000730190937401A0937501B0937601BF91D6
:100B6000AF919F918F913F912F910F900FBE0F905A
:100B70001F90189526E8230F0296A11DB11DD2CF14
:100B80001F920F920FB60F9211242F933F934F9302
:100B90005F936F937F938F939F93AF93BF93EF93E5
:100BA000FF93E0910201F09103010995FF91EF910C
:100BB000BF91AF919F918F917F916F915F914F9175
:100BC0003F912F910F900FBE0F901F9018951F927D
:100BD0000F920FB60F9211242F933F934F935F9371
:100BE0006F937F938F939F93AF93BF93EF93FF93F5
:100BF000E0910001F09101010995FF91EF91BF9102
:100C0000AF919F918F917F916F915F914F913F91A4
:100C10002F910F900FBE0F901F9018951F920F925B
:100C20000FB60F9211242F933F934F935F936F93BF
:100C30007F938F939F93AF93BF93EF93FF9381E83D
:100C400091E00E944F03FF91EF91BF91AF919F916F
:100C50008F917F916F915F914F913F912F910F9065
:100C60000FBE0F901F9018951F920F920FB60F9204
:100C700011242F938F939F93EF93FF93E091910112
:100C8000F09192018081E0919701F091980182FDAD
:100C90001BC0908180919A018F5F8F7320919B017F
:100CA000821741F0E0919A01F0E0EF57FE4F958FE7
:100CB00080939A01FF91EF919F918F912F910F90C7
:100CC0000FBE0F901F9018958081F4CFE1E8F1E0FE
:100CD0001382128288EE93E0A0E0B0E084839583D3
:100CE000A683B7838EE191E09183808385EC90E0C9
:100CF0009587848784EC90E09787868780EC90E0E6
:100D0000918B808B81EC90E0938B828B82EC90E0D6
:100D1000958B848B86EC90E0978B868B118E128E50
:100D2000138E148EE2E7F2E08EE0808380E090E79D
:100D3000A9E1B6E481839283A383B48380E090E445
:100D4000ACE1B6E485839683A783B08780E090E02A
:100D5000A8ECB1E481879287A387B48780E090EE06
:100D6000A6E7B5E485879687A787B08B84E090E0F7
:100D7000928B818BEEE3F2E08FE0808380E090E065
:100D8000A0E2B1E481839283A383B48380E090E006
:100D9000A0E7B1E485839683A783B08712AA11AA3E
:100DA00013AAE9E3F2E0148213828AE08083E5E289
:100DB000F2E08FEF9FEFAFE7BFE780839183A283DD
:100DC000B38380E090E0A0E8B0E084839583A683BD
:100DD000B78380E098E09093240280932302EEE1B1
:100DE000F2E083E0808382E390E092838183148247
:100DF00013820895789484B5826084BD84B581603F
:100E000084BD85B5826085BD85B5816085BD8091D5
:100E10006E00816080936E0010928100809181004D
:100E20008260809381008091810081608093810045
:100E3000809180008160809380008091B100846007
:100E40008093B1008091B00081608093B000809168
:100E50007A00846080937A0080917A008260809327
:100E60007A0080917A00816080937A0080917A0084
:100E7000806880937A001092C10061E082E00E9455
:100E80008602E0919101F091920182E08083E091ED
:100E90008D01F0918E011082E0918F01F09190010F
:100EA0008FEC808310929901E0919501F091960169
:100EB00086E08083E0919301F091940180818061CC
:100EC0008083E0919301F091940180818860808318
:100ED000E0919301F0919401808180688083E0919A
:100EE0009301F091940180818F7D8083E7E4F2E0AB
:100EF000119211921192119222E0EF36F207C1F78E
:100F000061E0809139020E94860261E0809139029D
:100F10000E945802CFB7F89480916E01811127C0CA
:100F2000E9E4F2E08491EDE5F2E09491E82FF0E05D
:100F3000EE0FFF1FEF5DFD4FA591B491EC91E923FA
:100F400021F461E08AE00E94580261E08AE00E9498
:100F500086028CB580618CBD8CB580648CBD61E0EF
:100F60008DE00E94860261E08BE00E948602809103
:100F70006E018F5F80936E01CFBF80913C02909194
:100F80003D020E94000462E080911E020E948602DF
:100F900080911E020E941B0221E030E0892B11F09B
:100FA00030E020E03093220220932102CCECD2E00A
:100FB00062E0262E312C00E010E00E944402809175
:100FC000210290912202892B09F04FC088E092E023
:100FD0000E94730480911E020E941B02892B09F457
:100FE00042C081E891E00E94D90320917A001092DA
:100FF0007A0083B7817F846083BFF89483B7816070
:1010000083BF80911E02823009F47FC0833051F487
:10101000D0930301C093020180916900837F809384
:101020006900E99A7894889583B78E7F83BF809111
:101030001E02823009F474C0833061F4E99881E0C3
:1010400090E0880F991FFC01E050FF4F80ED92E087
:101050009183808320937A00CC24C394D12CD092A6
:101060002202C09221020E9444022FB7F89480917C
:10107000780190917901A0917A01B0917B012FBF05
:1010800040916F01509170016091710170917201F6
:10109000411551056105710571F06C017D01C41A9E
:1010A000D50AE60AF70AB701A601403157426105A1
:1010B000710508F4C9C280936F0190937001A093E9
:1010C0007101B093720182EF91E00E9473048091EC
:1010D00072020E94B702009739F530928402209282
:1010E000830232E0E32EF12C84E291E00E94BE0301
:1010F000F701EE0FFF1FE05FFE4F808191810097A7
:1011000009F47AC10E94220477C1D0930101C093EF
:101110000001809169008C7F80936900E89A82CFFA
:10112000E89890E080E08DCF8F3F23E0920750F069
:1011300083E090E0909384028093830223E0E22E88
:10114000F12CD2CFBC0190E080E00E94AA0C6B0190
:101150007C01AC019B0160E070EC8FE794E40E949D
:10116000900B9B01AC01C701B6010E94020C2091BB
:1011700073023091740240917502509176020E9480
:10118000090E2091770230917802409179025091B6
:101190007A020E94020C0E94C10D20917F023091C0
:1011A000800240918102509182020E94020C6B01E8
:1011B0007C0123E333E948E853E460917B027091BA
:1011C0007C0280917D0290917E020E94910B9B0196
:1011D000AC0160E070E080E89FE30E94020CA70190
:1011E00096010E94910B9B01AC0160E070E080E8E9
:1011F0009FE30E94020C109284021092830223E368
:1012000033E948E853E40E94900B20E73EEC48E8BD
:101210005FE30E94090E9B01AC010E94910B20E04C
:1012200030E040E05FE30E94910B0E94E70C20E079
:1012300030E040E05FE30E94090E6B017C01C09248
:101240000C01D0920D01E0920E01F0920F0188EC9A
:1012500091E00E94BE0342E0C701B6010E948804EB
:1012600084EC91E00E9473042091080130910901FF
:1012700040910A0150910B01C701B6010E94B40DC3
:101280001816ACF4C0920801D0920901E0920A014C
:10129000F0920B0182EB91E00E94BE0342E0C70195
:1012A000B6010E9488048EEA91E00E9473042091A6
:1012B0000401309105014091060150910701C701D9
:1012C000B6010E94FD0B87FF15C0C0920401D092A9
:1012D0000501E0920601F09207018CE991E00E947D
:1012E000BE0342E0C701B6010E94880488E991E08C
:1012F0000E94730480913C0290913D020E94000480
:101300008DE791E00E94BE03609125027091260254
:10131000809127029091280242E00E94880486E78B
:1013200091E00E94BE0380912D020E94810484E717
:1013300091E00E94BE0380912E020E94810482E708
:1013400091E00E94BE0360912F027091300290E004
:1013500080E04AE00E942F0480E791E00E94BE03F3
:10136000809131020E9481048EE691E00E94BE03CA
:10137000809132020E9481048CE291E00E9422045A
:1013800083E591E00E94BE036091290270912A02D8
:1013900080912B0290912C0242E00E9488048AE402
:1013A00091E00E94BE03809133020E94810488E490
:1013B00091E00E94BE03809134020E94810486E481
:1013C00091E00E94BE03609135027091360290E078
:1013D00080E04AE00E942F0484E491E00E94BE0372
:1013E000809137020E94810482E491E00E94BE0352
:1013F000809138020E9481048CE291E00E942204D4
:1014000080913E020E94B702C0904302D0904402F5
:10141000E0904502F0904602BC01990F880B990BB1
:101420000E94AC0C20E030E040EA50E40E94090E3B
:1014300020E030EC4FE754E40E94020C4B015C01C9
:1014400020913F023091400240914102509142026E
:10145000C701B6010E94910B9B01AC01C501B4010B
:101460000E94090EA70196010E94020C0E946901C8
:101470004B015C0180913E020E94B702C090430282
:10148000D0904402E0904502F0904602BC01990FD2
:10149000880B990B0E94AC0C20E030E040EA50E44D
:1014A0000E94090E20E030EC4FE754E40E94020C49
:1014B0002B013C0120913F023091400240914102BA
:1014C00050914202C701B6010E94910B9B01AC01F1
:1014D000C301B2010E94090EA70196010E94020CED
:1014E0000E9469016B017C0126E636E646E051E484
:1014F0000E94B40D87FFB4C020E030E040EC50E41F
:10150000C701B6010E94FD0B18160CF0ADC020E01B
:1015100030E040EC50E4C701B6010E94900B28E98E
:1015200039E949E150E40E94020C6B017C01AC01F5
:101530009B010E94910B9B01AC0160E070E080E494
:1015400090E40E94900B2B013C01A7019601C7017A
:10155000B6010E94090E9B01AC01C301B2010E94B9
:10156000090E20E030E040E45FE30E94760E20E0C8
:1015700030E048EC52E40E94090E0E94740C6B01AA
:101580008AE191E00E94BE030D2C000CEE08FF08DA
:101590004AE0C701B601F7FE0DC06DE281E891E0B7
:1015A0000E94710366277727CB016C197D098E098C
:1015B0009F094AE00E942F0486E191E00E94BE0349
:1015C00042E0C501B4010E94880483E191E00E94D9
:1015D000730487E091E00E94BE03809185029091A0
:1015E0008602009709F443C0895892400E9464051E
:1015F0008CEF90E00E94BE0320918502309186021C
:101600008DB79EB721153105A9F5895892400E94E2
:1016100064058AEE90E00E94BE03809123029091BF
:10162000240240918502509186022DB73EB74115A4
:10163000510519F529583240821B930B0E9464050D
:101640008EED91E00E9473040115110509F4B5CCEB
:101650000E943B03882309F4AECC0E940000ABCC6F
:1016600084E6C82ED12C8CCFD12CC12C89CF90E010
:1016700080E0BCCF821B930BCACF241B350BDCCF81
:1016800097FB072E16F4009407D077FD09D00E942F
:10169000760B07FC05D03EF4909581959F4F0895F9
:1016A000709561957F4F0895A1E21A2EAA1BBB1B6E
:1016B000FD010DC0AA1FBB1FEE1FFF1FA217B3071E
:1016C000E407F50720F0A21BB30BE40BF50B661F34
:1016D000771F881F991F1A9469F7609570958095F8
:1016E00090959B01AC01BD01CF010895AA1BBB1BC6
:1016F00051E107C0AA1FBB1FA617B70710F0A61B12
:10170000B70B881F991F5A95A9F780959095BC0132
:10171000CD010895EE0FFF1F0590F491E02D09947F
:101720005058BB27AA270E94A80B0C94620D0E9458
:10173000540D38F00E945B0D20F039F49F3F19F4EE
:1017400026F40C94510D0EF4E095E7FB0C94220D59
:10175000E92F0E94730D58F3BA17620773078407C5
:10176000950720F079F4A6F50C94AD0D0EF4E095F4
:101770000B2EBA2FA02D0B01B90190010C01CA014B
:10178000A0011124FF27591B99F0593F50F4503EF6
:1017900068F11A16F040A22F232F342F4427585FE8
:1017A000F3CF469537952795A795F0405395C9F700
:1017B0007EF41F16BA0B620B730B840BBAF09150B8
:1017C000A1F0FF0FBB1F661F771F881FC2F70EC057
:1017D000BA0F621F731F841F48F48795779567952A
:1017E000B795F7959E3F08F0B0CF9395880F08F016
:1017F0009927EE0F9795879508950E94FE0C08F49F
:1018000081E008950E94160C0C94620D0E945B0DFD
:1018100058F00E94540D40F029F45F3F29F00C94D9
:10182000220D51110C94AE0D0C94510D0E94730DAC
:1018300068F39923B1F3552391F3951B550BBB27FF
:10184000AA2762177307840738F09F5F5F4F220F44
:10185000331F441FAA1FA9F335D00E2E3AF0E0E83B
:1018600032D091505040E695001CCAF72BD0FE2F85
:1018700029D0660F771F881FBB1F26173707480719
:10188000AB07B0E809F0BB0B802DBF01FF279358D1
:101890005F4F3AF09E3F510578F00C94220D0C9466
:1018A000AE0D5F3FE4F3983ED4F386957795679548
:1018B000B795F7959F5FC9F7880F911D9695879506
:1018C00097F90895E1E0660F771F881FBB1F621725
:1018D00073078407BA0720F0621B730B840BBA0BE3
:1018E000EE1F88F7E09508950E947B0C6894B11173
:1018F0000C94AE0D08950E947B0D88F09F5798F0D0
:10190000B92F9927B751B0F0E1F0660F771F881F04
:10191000991F1AF0BA95C9F714C0B13091F00E941E
:10192000AD0DB1E008950C94AD0D672F782F882789
:10193000B85F39F0B93FCCF3869577956795B39545
:10194000D9F73EF490958095709561957F4F8F4FB4
:101950009F4F0895E89409C097FB3EF490958095B9
:10196000709561957F4F8F4F9F4F9923A9F0F92F65
:1019700096E9BB279395F695879577956795B795E3
:10198000F111F8CFFAF4BB0F11F460FF1BC06F5FC9
:101990007F4F8F4F9F4F16C0882311F096E911C0DB
:1019A000772321F09EE8872F762F05C0662371F0FC
:1019B00096E8862F70E060E02AF09A95660F771F10
:1019C000881FDAF7880F9695879597F908950E94F2
:1019D000950D90F09F3748F4911116F00C94AE0DD0
:1019E00060E070E080E89FEB089526F41B16611D0F
:1019F000711D811D0C94280D0C94430D990F000846
:101A0000550FAA0BE0E8FEEF16161706E807F907D0
:101A1000C0F012161306E407F50798F0621B730B6B
:101A2000840B950B39F40A2661F0232B242B252BEC
:101A300021F408950A2609F4A140A6958FEF811D8F
:101A4000811D089597F99F6780E870E060E0089530
:101A5000882371F4772321F09850872B762F07C0C5
:101A6000662311F499270DC09051862B70E060E039
:101A70002AF09A95660F771F881FDAF7880F9695D8
:101A8000879597F908959F3F31F0915020F48795FD
:101A900077956795B795880F911D9695879597F9D6
:101AA00008959FEF80EC089500240A9416161706F7
:101AB00018060906089500240A941216130614063F
:101AC00005060895092E0394000C11F4882352F0A2
:101AD000BB0F40F4BF2B11F460FF04C06F5F7F4F5A
:101AE0008F4F9F4F089557FD9058440F551F59F041
:101AF0005F3F71F04795880F97FB991F61F09F3FFB
:101B000079F087950895121613061406551FF2CF23
:101B10004695F1DF08C0161617061806991FF1CF73
:101B2000869571056105089408950E947B0DA0F0CB
:101B3000BEE7B91788F4BB279F3860F41616B11DAD
:101B4000672F782F8827985FF7CF869577956795C9
:101B5000B11D93959639C8F30895E894BB2766277D
:101B60007727CB0197F908950E94FE0C08F48FEFB8
:101B7000089516F00C94430D0C94510D68940C9438
:101B8000220D0E947B0DA8F39923C1F3AEF3DF93DE
:101B9000CF931F930F93FF92C92FDD2788232AF03D
:101BA0002197660F771F881FDAF720E030E040E8C2
:101BB0005FEB9FE3883920F0803E38F021968F77E5
:101BC0000E94910BE8E6F0E004C00E94910BE5E969
:101BD000F0E00E94050F8B01BE01EC01FB2E6F5758
:101BE00071097595771F880B990B0E94AC0C28E141
:101BF00032E741E35FE30E941C0EAF2D9801AE0176
:101C0000FF900F911F91CF91DF910E94A80B0C9430
:101C1000620D0E941C0E0C94620D0E94540D38F04F
:101C20000E945B0D20F0952311F00C94220D0C9472
:101C3000510D11240C94AE0D0E94730D70F3959FFD
:101C4000C1F3950F50E0551F629FF001729FBB27B3
:101C5000F00DB11D639FAA27F00DB11DAA1F649F4F
:101C60006627B00DA11D661F829F2227B00DA11D02
:101C7000621F739FB00DA11D621F839FA00D611D88
:101C8000221F749F3327A00D611D231F849F600DA9
:101C9000211D822F762F6A2F11249F5750409AF0D2
:101CA000F1F088234AF0EE0FFF1FBB1F661F771F5E
:101CB000881F91505040A9F79E3F510580F00C9429
:101CC000220D0C94AE0D5F3FE4F3983ED4F386955D
:101CD00077956795B795F795E7959F5FC1F7FE2BC9
:101CE000880F911D9695879597F90895FA01EE0F43
:101CF000FF1F309621053105A1F16115710561F4D1
:101D00008038BFE39B0749F168949038810561F002
:101D10008038BFEF9B0741F099234AF5FF3FE1056B
:101D20003105210519F1E8940894E795D901AA2312
:101D300029F4AB2FBE2FF85FD0F310C0FF5F70F413
:101D4000A695E0F7F73950F019F0FF3A38F49F778D
:101D50009F930DD00F9007FC9058089546F00C9477
:101D6000510D60E070E080E89FE308954FE79F77B2
:101D70005F934F933F932F930E94C10D2F913F91FB
:101D80004F915F910E94090E0C94D30E0E94FE0C9D
:101D9000880B990B089529F416F00C94220D0C94DD
:101DA000AD0D0C94510D0E947B0DA8F39638A0F751
:101DB00007F80F92E8942BE33AEA48EB5FE70E94BA
:101DC0001F0E0F920F920F924DB75EB70F920E94A7
:101DD0006E0FE2ECF0E00E94050F4F915F91EF91E2
:101DE000FF91E595EE1FFF1F49F0FE57E06844277D
:101DF000EE0F441FFA95E1F74195550B0E94380FFD
:101E00000F9007FE0C942C0F0895DF93CF931F9330
:101E10000F93FF92EF92DF927B018C01689406C0D2
:101E2000DA2EEF010E941C0EFE01E894A591259187
:101E3000359145915591A6F3EF010E94A80BFE0143
:101E40009701A801DA9469F7DF90EF90FF900F9166
:101E50001F91CF91DF9108959B01AC0160E070E08C
:101E600080E89FE30C94020C0C94220D0C94430D1B
:101E70000E947B0DD8F39923C9F3940F511DA3F34E
:101E80009150504094F059F0882332F0660F771F3C
:101E9000881F91505040C1F79E3F51052CF7880F85
:101EA000911D9695879597F908955F3FACF0983E00
:101EB0009CF0BB27869577956795B79508F4B16038
:101EC0009395C1F7BB0F58F711F460FFE8CF6F5F30
:101ED0007F4F8F4F9F4FE3CF0C94AE0DFA01DC0183
:101EE000AA0FBB1F9B01AC01BF5728F42227332741
:101EF0004427507820C0B75190F4AB2F002446956A
:101F000037952795011CA395D2F3002071F0220F7D
:101F1000331F441FB395DAF30ED00C94900B61304D
:101F20007105A0E88A07B94630F49B01AC01662729
:101F3000772788279078309621F020833183428359
:081F400053830895F894FFCFCC
:101F4800D002D002FFFF7F7F000080000000C07F2A
:101F58003B013E014B01580165010000000071037F
:101F6800D102FE02D9032F030D0321030D0A006ECF
:101F7800616E00696E66006F7666004F4B004449DB
:101F880053434F4E4E45435445440053484F5254D3
:101F98005F544F5F474E440053484F52545F544F6D
:0E1FA8005F56434300494E56414C49440000E9
:00000001FF
