:100000000C9469010C94B7050C9490050C94910123
:100010000C9491010C9491010C9491010C94910118
:100020000C9491010C9491010C9491010C94910108
:100030000C9491010C9491010C9491010C949101F8
:100040000C9446050C9491010C9404060C94DE0566
:100050000C9491010C9491010C9491010C949101D8
:100060000C9491010C94910108000000BE92244967
:10007000123EABAAAA2ABECDCCCC4C3E00000080DA
:10008000BEABAAAAAA3E00000000BF000000803F4D
:100090000000000000084178D3BB4387D1133D190D
:1000A0000E3CC3BD4282AD2B3E68EC8276BED98F3A
:1000B000E1A93E4C80EFFFBE01C4FF7F3F0000007E
:1000C00000003A0020002F002F00C2B04320402043
:1000D0000053797374656D20676F696E6720746F64
:1000E00020736C6565702E2E2E002055736564207C
:1000F00052414D20617070726F783A200020467234
:1001000065652052414D3A20002048656170207598
:100110007365643A200020204261747465726965D9
:1001200073206E65656420746F2072656368617208
:10013000676521005629002520280020426174743B
:100140006572793A200052756E6E696E67206F6E27
:100150002055534220706F776572004572726F723E
:1001600020696E2074656D706572617475726520AA
:1001700073656E736F723A200020204D6178207491
:10018000656D70657261747572653A200020204D4E
:10019000696E2074656D70657261747572653A2060
:1001A00000204461696C79205374617473200020CD
:1001B000204D61782074656D70657261747572652B
:1001C0003A200020204D696E2074656D7065726163
:1001D000747572653A2000204C69666574696D65B6
:1001E0002053746174732000C2B043002020546512
:1001F0006D70657261747572653A20002043757286
:1002000072656E7420537461747320003D2A3D2A18
:100210003D2A3D20454E44203D2A3D2A3D2A3D0AA7
:10022000002D2A2D2A2D2A2D2053797374656D20D7
:100230005374617473202D2A2D2A2D2A2D002D2A06
:100240002D2A2D2A2D20456E7669726F6E6D656E92
:1002500074205374617473202D2A2D2A2D2A2D00A9
:100260003D2A3D2A3D2A3D205354415254203D2AE7
:100270003D2A3D2A3D0000000000240027002A00FE
:1002800000000000250028002B00000000002300D3
:1002900026002900040404040404040402020202E7
:1002A0000202030303030303010204081020408039
:1002B00001020408102001020408102000000008B8
:1002C000000201000003040700000000000000001D
:1002D000360611241FBECFEFD8E0DEBFCDBF11E040
:1002E000A0E0B1E0E6E6FFE102C005900D92AC3877
:1002F000B107D9F722E0ACE8B1E001C01D92A03906
:10030000B207E1F711E0C9E6D1E004C02197FE0190
:100310000E94A00CC836D107C9F70E94DC060C94D5
:10032000B10F0C940000833081F028F4813099F0F3
:100330008230A9F008958730A9F08830C9F0843060
:10034000B1F4809180008F7D03C0809180008F7711
:1003500080938000089584B58F7784BD089584B517
:100360008F7DFBCF8091B0008F778093B000089590
:100370008091B0008F7DF9CFCF93DF93282F30E0AD
:10038000F901E454FD4F8491F901E855FD4FD491F2
:10039000F901EC56FD4FC491CC23A1F081110E94CC
:1003A0009301EC2FF0E0EE0FFF1FE657FD4FA591F4
:1003B000B491EC91ED2381E090E009F480E0DF91CD
:1003C000CF91089580E090E0FACF809138020E94AA
:1003D000BC0121E030E0892B11F030E020E03093C7
:1003E0003C0220933B0280919A01811110929A0164
:1003F00008951F93CF93DF93282F30E0F901E45441
:10040000FD4F8491F901E855FD4FD491F901EC5667
:10041000FD4FC491CC23A9F0162F81110E949301A6
:10042000EC2FF0E0EE0FFF1FE058FD4FA591B491C7
:100430008FB7F894EC91111108C0D095DE23DC93AE
:100440008FBFDF91CF911F910895DE2BF8CFCF930F
:10045000DF9390E0FC01E855FD4F24918C569D4FB1
:10046000FC0184918823D1F090E0880F991FFC0152
:10047000EA58FD4FA591B491FC01E058FD4FC5919C
:10048000D491623071F49FB7F8943C91822F80959B
:1004900083238C93E8812E2B28839FBFDF91CF91FC
:1004A00008958FB7F894EC912E2B2C938FBFF6CF35
:1004B0008E3008F08E508770806480937C0080912D
:1004C0007A00806480937A0080917A0086FDFCCF68
:1004D00080917800909179000895089581E080934B
:1004E0009A010895AF92BF92CF92DF92EF92FF925E
:1004F0000F931F93CF93DF936C017B018B01040F4C
:10050000151FEB015E01AE18BF08C017D10759F0E7
:100510006991D601ED91FC910190F081E02DC60129
:100520000995892B79F7C501DF91CF911F910F9123
:10053000FF90EF90DF90CF90BF90AF900895FC01B7
:10054000538D448D252F30E0842F90E0821B930B38
:10055000541710F0CF96089501970895FC01918DDE
:10056000828D981761F0A28DAE0FBF2FB11D5D96E1
:100570008C91928D9F5F9F73928F90E008958FEF83
:100580009FEF0895FC01918D828D981731F0828D37
:10059000E80FF11D858D90E008958FEF9FEF08958E
:1005A000FC01918D228D892F90E0805C9F4F821BF2
:1005B00091098F73992708958BE991E00E94D002E9
:1005C00021E0892B09F420E0822F089580E090E05B
:1005D000892B29F00E94DC0281110C9400000895FF
:1005E000FC01A48DA80FB92FB11DA35ABF4F2C91A8
:1005F000848D90E001968F739927848FA689B7899F
:100600002C93A089B1898C91837080648C93938D95
:10061000848D981306C00288F389E02D80818F7D38
:1006200080830895EF92FF920F931F93CF93DF93F0
:10063000EC0181E0888F9B8D8C8D98131AC0E8891E
:10064000F989808185FF15C09FB7F894EE89FF89ED
:100650006083E889F98980818370806480839FBF8B
:1006600081E090E0DF91CF911F910F91FF90EF908B
:100670000895F62E0B8D10E00F5F1F4F0F7311279B
:10068000E02E8C8D8E110CC00FB607FCFACFE889D6
:10069000F989808185FFF5CFCE010E94F002F1CF6C
:1006A000EB8DEC0FFD2FF11DE35AFF4FF0829FB74A
:1006B000F8940B8FEA89FB8980818062CFCF0F93FA
:1006C0001F93CF93DF938C01D0E0C0E0F801EC0FD3
:1006D000FD1F6491662341F08BE991E00E941203B3
:1006E000892B11F02196F2CFCE01DF91CF911F918E
:1006F0000F910895CF93DF93EC01888D8823B9F093
:10070000AA89BB89E889F9898C9185FD03C080811C
:1007100086FD0DC00FB607FCF7CF8C9185FFF2CF99
:10072000808185FFEDCFCE010E94F002E9CFDF91FD
:10073000CF9108958EBD00000DB407FEFDCF8EB59C
:100740000895FC0101900020E9F73197AF01481BA3
:10075000590BBC018BE991E00C947202CF93DF93AB
:100760000E945F03EC018BE491E00E94A1038C0FD7
:100770009D1FDF91CF9108958F929F92AF92BF926C
:100780000F931F93CF93DF93CDB7DEB7A1970FB62B
:10079000F894DEBF0FBECDBF19A2423008F44AE084
:1007A0008E010F5D1F4F842E912CB12CA12CA50121
:1007B00094010E94410CE62FB901CA01EA30F4F419
:1007C000E05DD801EE938D01232B242B252B79F7A7
:1007D00090E080E0109719F0CD010E94A103A1964E
:1007E0000FB6F894DEBF0FBECDBFDF91CF911F9142
:1007F0000F91BF90AF909F908F900895E95CE1CFEB
:100800004F925F926F927F928F929F92AF92BF9220
:10081000CF92DF92EF92FF920F931F93CF936B01D2
:100820007C01742EAC019B010E94850F882399F0F6
:100830008EE491E0CF911F910F91FF90EF90DF90A8
:10084000CF90BF90AF909F908F907F906F905F9070
:100850004F900C94A10346015701E894B7F82FEF8D
:100860003FEF4FE75FE7C501B4010E94850F81119B
:100870000DC02FEF3FEF4FE75FE7C501B4010E94C6
:10088000130D18161CF482E591E0D4CF2FEF3FEF43
:100890004FE75FE4C701B6010E94C30E18161CF4AF
:1008A00086E591E0C7CF2FEF3FEF4FE75FECC70141
:1008B000B6010E94130D87FDF3CF20E030E0A901BF
:1008C000C701B6010E94130D10E000E087FF0AC0C7
:1008D0006DE28BE991E00E9412038C01F7FAF0942B
:1008E000F7F8F094C0E060E070E080E09FE37C16F1
:1008F00041F020E030E040E251E40E94180DCF5F6B
:10090000F6CFA70196010E94A70C2B013C010E9483
:100910008A0D4B015C014AE00E94BC037C01E00EA1
:10092000F11ECC23C1F1C501B4010E94B90D9B0198
:10093000AC01C301B2010E94A60C4B015C016EE246
:100940008BE991E00E941203E80EF91EC15018F1E4
:1009500020E030E040E251E4C501B4010E94180FEC
:100960002B013C010E948A0D4B01B12CA12C4AE0C5
:10097000C501B4010E94BC03E80EF91EC501B40113
:100980000E94B90D9B01AC01C301B2010E94A60CEB
:100990004B015C01DBCFC701CF911F910F91FF90FD
:1009A000EF90DF90CF90BF90AF909F908F907F900F
:1009B0006F905F904F900895CF93DF93BC0190E0CC
:1009C00080E04AE00E94BC03EC018BE491E00E94CD
:1009D000A1038C0F9D1FDF91CF9108954F925F92DD
:1009E0006F927F92AF92CF92EF92FF920F93CF933D
:1009F0002A013B01C22F0E945F0342E0C301B20102
:100A00000E9400048AEC90E00E945F036C2F70E06B
:100A100090E080E04AE00E94BC0388EC90E00E94F5
:100A20005F03602F70E090E080E04AE00E94BC032A
:100A300086EC90E00E945F03B70190E080E04AE01E
:100A40000E94BC0384EC90E00E945F036C2D70E078
:100A500090E080E04AE00E94BC0382EC90E00E94BB
:100A60005F036A2D70E090E080E04AE00E94BC03E2
:100A70008BE491E0CF910F91FF90EF90CF90AF90EA
:100A80007F906F905F904F900C94A1031F920F92F4
:100A90000FB60F9211242F933F938F939F93AF9391
:100AA000BF938091960190919701A0919801B09188
:100AB00099013091950123E0230F2D3758F50196C8
:100AC000A11DB11D209395018093960190939701EC
:100AD000A0939801B0939901809191019091920116
:100AE000A0919301B09194010196A11DB11D809335
:100AF000910190939201A0939301B0939401BF91BF
:100B0000AF919F918F913F912F910F900FBE0F90BA
:100B10001F90189526E8230F0296A11DB11DD2CF74
:100B20001F920F920FB60F9211242F933F934F9362
:100B30005F936F937F938F939F93AF93BF93EF9345
:100B4000FF93E0910201F09103010995FF91EF916C
:100B5000BF91AF919F918F917F916F915F914F91D5
:100B60003F912F910F900FBE0F901F9018951F92DD
:100B70000F920FB60F9211242F933F934F935F93D1
:100B80006F937F938F939F93AF93BF93EF93FF9355
:100B9000E0910001F09101010995FF91EF91BF9162
:100BA000AF919F918F917F916F915F914F913F9105
:100BB0002F910F900FBE0F901F9018951F920F92BC
:100BC0000FB60F9211242F933F934F935F936F9320
:100BD0007F938F939F93AF93BF93EF93FF938BE993
:100BE00091E00E94F002FF91EF91BF91AF919F9130
:100BF0008F917F916F915F914F913F912F910F90C6
:100C00000FBE0F901F9018951F920F920FB60F9264
:100C100011242F938F939F93EF93FF93E091AB0158
:100C2000F091AC018081E091B101F091B20182FDBF
:100C30001BC090818091B4018F5F8F732091B501AB
:100C4000821741F0E091B401F0E0E556FE4F958F38
:100C50008093B401FF91EF919F918F912F910F900D
:100C60000FBE0F901F9018958081F4CFEBE9F1E053
:100C70001382128288EE93E0A0E0B0E08483958333
:100C8000A683B7838DE391E09183808385EC90E028
:100C90009587848784EC90E09787868780EC90E046
:100CA000918B808B81EC90E0938B828B82EC90E037
:100CB000958B848B86EC90E0978B868B118E128EB1
:100CC000138E148EE9E7F2E08EE0808380E090E7F7
:100CD000A9E1B6E481839283A383B48380E090E4A6
:100CE000ACE1B6E485839683A783B08780E090E08B
:100CF000A8ECB1E481879287A387B48780E090EE67
:100D0000A6E7B5E485879687A787B08B84E090E057
:100D1000928B818BE6E5F2E08FE080838AE090E0C1
:100D2000A0E0B0E081839283A383B4838FE090E05E
:100D3000A0E0B0E085839683A783B087158E168EDA
:100D400010A2178E12A211A28AE080935502EFE33F
:100D5000F2E08FEF9FEFAFE7BFE782839383A48337
:100D6000B58380E090E0A0E8B0E086839783A08719
:100D7000B1875DE152874CE043872CE637E0358749
:100D8000248797E196878BE38787508B418B338B42
:100D9000228B948B858B80E098E090933E02809329
:100DA0003D02E8E3F2E083E0808382E390E0928317
:100DB0008183148213820895CF93DF93CDB7DEB77A
:100DC000A2970FB6F894DEBF0FBECDBF789484B55E
:100DD000826084BD84B5816084BD85B5826085BD37
:100DE00085B5816085BD80916E00816080936E00C5
:100DF00010928100809181008260809381008091B7
:100E00008100816080938100809180008160809367
:100E100080008091B10084608093B1008091B00027
:100E200081608093B00080917A00846080937A0022
:100E300080917A00826080937A0080917A0081604C
:100E400080937A0080917A00806880937A00109273
:100E5000C100E091AB01F091AC0182E08083E091B0
:100E6000A701F091A8011082E091A901F091AA01D7
:100E70008FEC80831092B301E091AF01F091B0014B
:100E800086E08083E091AD01F091AE0180818061C8
:100E90008083E091AD01F091AE0180818860808314
:100EA000E091AD01F091AE01808180688083E09196
:100EB000AD01F091AE0180818F7D808383E792E068
:100EC000EFE5F2E0119211928E179F07D9F761E0DA
:100ED000809155020E94270261E0809155020E9494
:100EE000F9011FB7F89480918C01811127C0EEE9B8
:100EF000F2E08491E2EBF2E09491E82FF0E0EE0F63
:100F0000FF1FEA58FD4FA591B491EC91E92321F41C
:100F100061E08AE00E94F90161E08AE00E94270214
:100F20008CB580618CBD8CB580648CBD61E08DE03A
:100F30000E94270261E08BE00E94270280918C01D1
:100F40008F5F80938C011FBF62E0809138020E9406
:100F50002702809138020E94BC0121E030E0892BF9
:100F600011F030E020E030933C0220933B028E01F0
:100F70000B5E1F4F1E8B0D8B0E94E50180913B0283
:100F800090913C02892B09F050C081ED90E00E94C5
:100F9000AE03809138020E94BC01892B09F443C042
:100FA0008BE991E00E947A0320917A0010927A00F6
:100FB00083B7817F846083BFF89483B7816083BFE8
:100FC00080913802823009F4CAC0833061F48EE621
:100FD00092E0909303018093020180916900837FE6
:100FE00080936900E99A7894889583B78E7F83BF50
:100FF00080913802823009F4BFC0833061F4E998EF
:1010000081E090E0880F991FFC01E050FF4F0DE652
:1010100012E01183008320937A0021E030E03093C6
:101020003C0220933B020E94E5012FB7F894809187
:10103000960190919701A0919801B09199012FBFCD
:1010400040918D0150918E0160918F0170919001BE
:10105000411551056105710571F08C019D01041B5D
:10106000150B260B370BB901A8014031574261051A
:10107000710508F471C280938D0190938E01A09345
:101080008F01B093900180913B0290913C02892B9B
:1010900009F462C280E692E00E94AE038EE392E021
:1010A0000E94AE030091410210914202B0904302AF
:1010B000D0904402A0904502C0904602E0904702C2
:1010C000F0904802209149022D8F30914A023C8FC6
:1010D00080914B0290914C02988F8F8B90914D0292
:1010E0009A8FE0914E02EB8FF0914F02F98F209191
:1010F00050022E8F209051023090520230915302B4
:1011000038A3609154026F8F84E1E5E2F1E0DE01E3
:10111000119601900D928A95E1F7809179020E94D3
:101120005802009769F582E090E090938B028093DB
:101130008A0202E010E08BE591E00E945F03000F5D
:10114000111FF801E55EFE4F80819181009711F03B
:101150000E94A1038BE491E00E94A10384C1EEE60A
:10116000F2E0F0930101E0930001809169008C7F2F
:1011700080936900E89A37CFE89890E080E042CF0A
:101180008F3FE3E09E0748F083E090E090938B026E
:1011900080938A0203E010E0CECFBC0190E080E0B3
:1011A0000E94B90D2B013C01AC019B0160E070EC89
:1011B0008FE794E40E94A60C9B01AC01C301B2012D
:1011C0000E94180D20917A0230917B0240917C029E
:1011D00050917D020E94180F20917E0230917F0273
:1011E00040918002509181020E94180D0E94D00E01
:1011F00020918602309187024091880250918902A5
:101200000E94180D2B013C0123E333E948E853E425
:101210006091820270918302809184029091850294
:101220000E94A70C9B01AC0160E070E080E89FE3A6
:101230000E94180DA30192010E94A70C9B01AC0112
:1012400060E070E080E89FE30E94180D10928B022E
:1012500010928A0223E333E948E853E40E94A60C83
:1012600020E73EEC48E85FE30E94180F9B01AC01C9
:101270000E94A70C20E030E040E05FE30E94A70C52
:101280000E94F60D20E030E040E05FE30E94180F7E
:101290002B013C0140920C0150920D0160920E0115
:1012A00070920F018CEF91E00E94AE038CEE91E002
:1012B0000E945F0360910C0170910D0180910E01FD
:1012C00090910F0142E00E94000488EE91E00E949C
:1012D000AE03209108013091090140910A0150911B
:1012E0000B01C301B2010E94C30E181644F44092D0
:1012F00008015092090160920A0170920B0120913D
:101300000401309105014091060150910701C3018C
:10131000B2010E94130D87FF08C040920401509251
:1013200005016092060170920701409004015090FF
:10133000050160900601709007018090080190906F
:101340000901F0910A01F9A320910B012AA32A2D8A
:101350003C2DA7016A2D7C2DC7010E94850F8111AC
:1013600008C12A2D3C2DA701B40189A19AA10E9490
:10137000C30E18160CF40AC18A2C9C2CE9A2FAA2FE
:1013800098014B2D5D2DB8018B2D9D2D0E94850F51
:10139000811109C198014B2D5D2DB201C3010E943D
:1013A000130D87FD00C128016B2C7D2C81E58CBDC0
:1013B0001DBC60E0809155020E94F90183E00E940B
:1013C0009A0381E00E949A038E010F5F1F4F80E015
:1013D0000E949A03F80181938F012D893E89E217BB
:1013E000F307A9F761E0809155020E94F90187EDAA
:1013F00091E00E94AE03EB84FC8449815A816B81A9
:101400007C81AE84CD840A85298583EC91E00E949D
:10141000EE04E988FA884D815E816F817885AC8819
:10142000CB8808892F858FEA91E00E94EE0481EA3B
:1014300091E00E94AE03AB8CCA8CEF88F88C0C8DC7
:101440002D8DA201B3018DE891E00E94EE04AF8CD6
:10145000C8A071010E8D298DA40169A17AA189E727
:1014600091E00E94EE0481E292E00E94AE0380913E
:1014700056020E94580280905B0290905C02A090FD
:101480005D02B0905E02C0905702D0905802E0908A
:101490005902F0905A02C80CD91CEA1CFB1C28E81F
:1014A00033E1DC010E94720C2FEF33E040E050E0AA
:1014B0000E94410CCA01B901A70196010E941D0CAE
:1014C000A50194010E94410CC901815A9F408B34AF
:1014D000944008F075C086E491E00E94AE0389E074
:1014E00091E00E945F0380918C0290918D020097A1
:1014F00009F49AC1805992400E94DC048DEF90E07B
:101500000E945F0320918C0230918D028DB79EB7AF
:101510002115310509F08BC1805992400E94DC04ED
:101520008AEE90E00E945F0380913D0290913E021E
:1015300040918C0250918D022DB73EB74115510557
:1015400009F078C120593240821B930B0E94DC04C1
:101550008CE092E00E94AE0380E090E0892B09F4D9
:101560000BCD0E94DC02882309F406CD0E94000006
:10157000FECC3BE33F8F67E168A37AEE272E77E04E
:10158000372E8CE08E8F9FE1998FFACEEBE3EF8FB1
:10159000F7E1F8A36AEE262E67E0362E2CE02E8FB8
:1015A0003FE1398FEDCE1BE31B8F17E11A8F2AEE37
:1015B00037E0388F2F8B1CE01C8F1FE11D8FF6CE7C
:1015C000B90190E080E00E94B90D20E030E04AE7E8
:1015D00054E40E94180D4B015C01809156020E9458
:1015E000580240905B0250905C0260905D027090E7
:1015F0005E02C0905702D0905802E0905902F090DD
:101600005A02C40CD51CE61CF71C28E833E1DC01A7
:101610000E94720C2FEF33E040E050E00E94410C3A
:10162000CA01B901A70196010E941D0CA3019201F4
:101630000E94410CC9016091770270917802611596
:10164000710509F08AC03093760220937502909359
:10165000780280937702803DF0E29F0708F0E2C0B5
:1016600010E0813707E1900708F451C09C01205732
:101670003741A8EEB3E00E94630C20E639E040E079
:1016800050E00E94410CAEEFBFEF0E94870C6B014F
:101690007C0118EBC10E1BE0D11EE11CF11CCA013C
:1016A000B9010E941D0CA70196010E941D0C2B017F
:1016B0003C0120E031EE45EF55E00E94410C2A301C
:1016C00008F0B0C0E22FF0E0E05FFE4F1081E18053
:1016D000E11AFF08C301B20120E432E44FE050E018
:1016E0000E94410CCA01B90124E630E040E050E01C
:1016F0000E94410CE69E9001E79E300DF69E300D53
:101700001124C90164E670E00E942D0C160F8BE3D2
:1017100091E00E945F03612F70E090E080E04AE07A
:101720000E94BC0387E391E00E945F0342E0C50191
:10173000B4010E94000484E391E00E94AE0320E023
:1017400030E040EC50E4C501B4010E94130D1816BE
:101750000CF4C5CE86E191E0C0CE621B730B77FF1F
:1017600003C0719561957109643F71400CF06FCFB2
:101770008091730290E0FC01EE0FFF1FEA5AFD4FCB
:101780003287218701966AE070E00E942D0C382F85
:1017900080937302811103C081E080937402809171
:1017A000740281113AE0EFE5F2E020E060E070E0E1
:1017B000CB01231741F041915191640F751F811D99
:1017C000911D2F5FF6CF30E050E040E00E94410CC9
:1017D00069017A018091750290917602892B21F43A
:1017E0003093760220937502209175023091760233
:1017F000A5E5B0E00E94630C2B013C01A701960116
:1018000044275527AFE0B0E00E94790C640D751DA8
:10181000861D971D24E630E040E050E00E94410C18
:10182000C90111CF14E673CF90E080E065CE821B32
:10183000930B74CE241B350B87CEDB018F939F93C4
:101840000E94790CBF91AF91A29F800D911DA39F23
:10185000900DB29F900D1124089597FB072E16F45A
:10186000009407D077FD09D00E948C0C07FC05D0AE
:101870003EF4909581959F4F0895709561957F4FA7
:101880000895A1E21A2EAA1BBB1BFD010DC0AA1FC1
:10189000BB1FEE1FFF1FA217B307E407F50720F0D9
:1018A000A21BB30BE40BF50B661F771F881F991F54
:1018B0001A9469F760957095809590959B01AC019D
:1018C000BD01CF010895A29FB001B39FC001A39FA6
:1018D000700D811D1124911DB29F700D811D112469
:1018E000911D08950E94630CB7FF0895821B930B0E
:1018F00008950E94630CA59F900DB49F900DA49F26
:10190000800D911D11240895B7FF0C94790C0E944D
:10191000790C821B930B0895AA1BBB1B51E107C0D6
:10192000AA1FBB1FA617B70710F0A61BB70B881F6F
:10193000991F5A95A9F780959095BC01CD010895FE
:10194000EE0FFF1F0590F491E02D09945058BB272E
:10195000AA270E94BE0C0C94710E0E94630E38F0F0
:101960000E946A0E20F039F49F3F19F426F40C947B
:10197000600E0EF4E095E7FB0C94310EE92F0E9407
:10198000820E58F3BA17620773078407950720F091
:1019900079F4A6F50C94BC0E0EF4E0950B2EBA2F3C
:1019A000A02D0B01B90190010C01CA01A001112465
:1019B000FF27591B99F0593F50F4503E68F11A1611
:1019C000F040A22F232F342F4427585FF3CF4695A2
:1019D00037952795A795F0405395C9F77EF41F16C4
:1019E000BA0B620B730B840BBAF09150A1F0FF0F8E
:1019F000BB1F661F771F881FC2F70EC0BA0F621F7A
:101A0000731F841F48F4879577956795B795F79569
:101A10009E3F08F0B0CF9395880F08F09927EE0FFE
:101A20009795879508950E940D0E08F481E008951A
:101A30000E942C0D0C94710E0E946A0E58F00E94A8
:101A4000630E40F029F45F3F29F00C94310E5111E0
:101A50000C94BD0E0C94600E0E94820E68F39923C4
:101A6000B1F3552391F3951B550BBB27AA2762179A
:101A70007307840738F09F5F5F4F220F331F441FA7
:101A8000AA1FA9F335D00E2E3AF0E0E832D09150DB
:101A90005040E695001CCAF72BD0FE2F29D0660FC8
:101AA000771F881FBB1F261737074807AB07B0E80B
:101AB00009F0BB0B802DBF01FF2793585F4F3AF011
:101AC0009E3F510578F00C94310E0C94BD0E5F3F93
:101AD000E4F3983ED4F3869577956795B795F79597
:101AE0009F5FC9F7880F911D9695879597F908957F
:101AF000E1E0660F771F881FBB1F6217730784071B
:101B0000BA0720F0621B730B840BBA0BEE1F88F729
:101B1000E09508950E948A0E88F09F5798F0B92F9B
:101B20009927B751B0F0E1F0660F771F881F991F12
:101B30001AF0BA95C9F714C0B13091F00E94BC0EEA
:101B4000B1E008950C94BC0E672F782F8827B85FFA
:101B500039F0B93FCCF3869577956795B395D9F76A
:101B60003EF490958095709561957F4F8F4F9F4F74
:101B70000895E89409C097FB3EF490958095709580
:101B800061957F4F8F4F9F4F9923A9F0F92F96E9C9
:101B9000BB279395F695879577956795B795F1113E
:101BA000F8CFFAF4BB0F11F460FF1BC06F5F7F4FDB
:101BB0008F4F9F4F16C0882311F096E911C07723ED
:101BC00021F09EE8872F762F05C0662371F096E8F6
:101BD000862F70E060E02AF09A95660F771F881FC5
:101BE000DAF7880F9695879597F908950E94A40EC5
:101BF00090F09F3748F4911116F00C94BD0E60E000
:101C000070E080E89FEB089526F41B16611D711D9E
:101C1000811D0C94370E0C94520E990F0008550F2D
:101C2000AA0BE0E8FEEF16161706E807F907C0F062
:101C300012161306E407F50798F0621B730B840B6A
:101C4000950B39F40A2661F0232B242B252B21F444
:101C500008950A2609F4A140A6958FEF811D811DE4
:101C6000089597F99F6780E870E060E00895882301
:101C700071F4772321F09850872B762F07C06623C5
:101C800011F499270DC09051862B70E060E02AF086
:101C90009A95660F771F881FDAF7880F96958795B4
:101CA00097F908959F3F31F0915020F487957795EB
:101CB0006795B795880F911D9695879597F9089523
:101CC0009FEF80EC089500240A9416161706180654
:101CD0000906089500240A94121613061406050630
:101CE0000895092E0394000C11F4882352F0BB0FC1
:101CF00040F4BF2B11F460FF04C06F5F7F4F8F4F24
:101D00009F4F089557FD9058440F551F59F05F3F5E
:101D100071F04795880F97FB991F61F09F3F79F00D
:101D200087950895121613061406551FF2CF46958F
:101D3000F1DF08C0161617061806991FF1CF869511
:101D400071056105089408950E948A0EA0F0BEE70F
:101D5000B91788F4BB279F3860F41616B11D672F9A
:101D6000782F8827985FF7CF869577956795B11D6F
:101D700093959639C8F30895E894BB27662777278B
:101D8000CB0197F908950E940D0E08F48FEF089586
:101D900016F00C94520E0C94600E68940C94310E54
:101DA0000E948A0EA8F39923C1F3AEF3DF93CF9379
:101DB0001F930F93FF92C92FDD2788232AF02197C5
:101DC000660F771F881FDAF720E030E040E85FEB0E
:101DD0009FE3883920F0803E38F021968F770E946B
:101DE000A70CE8E6F0E004C00E94A70CE5E9F0E0EB
:101DF0000E948A0F8B01BE01EC01FB2E6F57710907
:101E00007595771F880B990B0E94BB0D28E132E76F
:101E100041E35FE30E942B0FAF2D9801AE01FF90CD
:101E20000F911F91CF91DF910E94BE0C0C94710E07
:101E30000E942B0F0C94710E0E94630E38F00E94CA
:101E40006A0E20F0952311F00C94310E0C94600E64
:101E500011240C94BD0E0E94820E70F3959FC1F365
:101E6000950F50E0551F629FF001729FBB27F00D48
:101E7000B11D639FAA27F00DB11DAA1F649F66279D
:101E8000B00DA11D661F829F2227B00DA11D621FEC
:101E9000739FB00DA11D621F839FA00D611D221FA6
:101EA000749F3327A00D611D231F849F600D211D8A
:101EB000822F762F6A2F11249F5750409AF0F1F00D
:101EC00088234AF0EE0FFF1FBB1F661F771F881F76
:101ED00091505040A9F79E3F510580F00C94310E6F
:101EE0000C94BD0E5F3FE4F3983ED4F3869577954E
:101EF0006795B795F795E7959F5FC1F7FE2B880F1C
:101F0000911D9695879597F908950E940D0E880B5F
:101F1000990B0895DF93CF931F930F93FF92EF9246
:101F2000DF927B018C01689406C0DA2EEF010E94DB
:101F30002B0FFE01E894A59125913591459155917E
:101F4000A6F3EF010E94BE0CFE019701A801DA94EE
:101F500069F7DF90EF90FF900F911F91CF91DF9184
:061F60000895F894FFCF84
:101F66006D026D02FFFF7F7F000080000000C07FD2
:101F7600000F1C28343F49525A60645A015D016AB9
:101F86000177018401FFFF7F7F000080001D0C6C3C
:101F960007173B1D0C6C07173B000000001203726D
:101FA600029F027A03D002AE02C2020D0A006E61DF
:101FB6006E00696E66006F7666004F4B00444953AB
:101FC600434F4E4E45435445440053484F52545F89
:101FD600544F5F474E440053484F52545F544F5F2F
:0C1FE60056434300494E56414C4944000C
:00000001FF
