:100000000C9476000C949E000C949E000C949E0020
:100010000C949E000C949E000C949E000C949E00E8
:100020000C949E000C949E000C949E000C949E00D8
:100030000C949E000C949E000C949E000C949E00C8
:100040000C948A030C949E000C94FA030C94D40331
:100050000C949E000C949E000C949E000C949E00A8
:100060000C949E000C949E0008000000BE9224494F
:10007000123EABAAAA2ABECDCCCC4C3E00000080DA
:10008000BEABAAAAAA3E00000000BF000000803F4D
:100090000000000000084178D3BB4387D1133D190D
:1000A0000E3CC3BD4282AD2B3E68EC8276BED98F3A
:1000B000E1A93E4C80EFFFBE01C4FF7F3F0000007E
:1000C000000007634236B79BD8A71A39685618AEA6
:1000D000BAAB558C1D3CB7CC5763BD6DEDFD753E7D
:1000E000F6177231BF000000803F2C0411241FBEA0
:1000F000CFEFD8E0DEBFCDBF11E0A0E0B1E0EEEA87
:10010000F7E102C005900D92A63DB107D9F722E0B4
:10011000A6EDB1E001C01D92AB3CB207E1F710E0E3
:10012000C6E7D0E004C02197FE010E94BD07C53795
:10013000D107C9F70E9498040C94D50B0C940000C9
:100140008F929F92AF92BF92CF92DF92EF92FF92E7
:100150000F931F93CF93DF932091B5023091B60296
:10016000F901EE0FFF1FEE0FFF1FEC57FD4F6187E8
:10017000728783879487C90101966AE070E00E94C4
:100180007307EC019093B6028093B502892B19F4A2
:1001900081E08093B7028091B702882311F0CAE012
:1001A000D0E08DE8A82E82E0B82E10E000E0C12C4F
:1001B000D12C76010C171D077CF4F50121913191AA
:1001C000419151915F01C701B6010E94C4076B01C3
:1001D0007C010F5F1F4FEECF2AE939E949E55FE364
:1001E0006091E3017091E4018091E5019091E60155
:1001F0000E943C0A4B015C01BE01DD0F880B990B8C
:100200000E94DF089B01AC01C701B6010E943508BE
:100210002AE939E949E15EE30E943C0A9B01AC010D
:10022000C501B4010E94C4076093E3017093E40127
:100230008093E5019093E601DF91CF911F910F919B
:10024000FF90EF90DF90CF90BF90AF909F908F90F6
:1002500008958E3008F08E508770806480937C0003
:1002600080917A00806480937A0080917A0086FD84
:10027000FCCF80917800909179000895AF92BF9261
:10028000CF92DF92EF92FF920F931F93CF93DF9362
:100290006C017B018B01040F151FEB015E01AE1891
:1002A000BF08C017D10759F06991D601ED91FC91B3
:1002B0000190F081E02DC6010995892B79F7C501E0
:1002C000DF91CF911F910F91FF90EF90DF90CF9032
:1002D000BF90AF900895FC01538D448D252F30E0E1
:1002E000842F90E0821B930B541710F0CF96089543
:1002F00001970895FC01918D828D981761F0A28D70
:10030000AE0FBF2FB11D5D968C91928D9F5F9F7335
:10031000928F90E008958FEF9FEF0895FC01918DEB
:10032000828D981731F0828DE80FF11D858D90E058
:1003300008958FEF9FEF0895FC01918D228D892FF5
:1003400090E0805C9F4F821B91098F7399270895DD
:1003500087EE91E00E949C0121E0892B09F420E0C6
:10036000822F089580E090E0892B29F00E94A80157
:1003700081110C9400000895FC01A48DA80FB92FE1
:10038000B11DA35ABF4F2C91848D90E001968F73BD
:100390009927848FA689B7892C93A089B1898C91DC
:1003A000837080648C93938D848D981306C002882B
:1003B000F389E02D80818F7D80830895EF92FF92F5
:1003C0000F931F93CF93DF93EC0181E0888F9B8D78
:1003D0008C8D98131AC0E889F989808185FF15C032
:1003E0009FB7F894EE89FF896083E889F989808155
:1003F0008370806480839FBF81E090E0DF91CF9124
:100400001F910F91FF90EF900895F62E0B8D10E045
:100410000F5F1F4F0F731127E02E8C8D8E110CC0B4
:100420000FB607FCFACFE889F989808185FFF5CFFF
:10043000CE010E94BC01F1CFEB8DEC0FFD2FF11D21
:10044000E35AFF4FF0829FB7F8940B8FEA89FB893C
:1004500080818062CFCFCF93DF93EC01888D88239A
:10046000B9F0AA89BB89E889F9898C9185FD03C017
:10047000808186FD0DC00FB607FCF7CF8C9185FFFC
:10048000F2CF808185FFEDCFCE010E94BC01E9CF84
:10049000DF91CF910895FC0101900020E9F7319799
:1004A000AF01481B590BBC0187EE91E00C943E0153
:1004B0008F929F92AF92BF920F931F93CF93DF9330
:1004C000CDB7DEB7A1970FB6F894DEBF0FBECDBF94
:1004D00019A2423008F44AE08E010F5D1F4F842EAE
:1004E000912CB12CA12CA50194010E948707E62F25
:1004F000B901CA01EA30F4F4E05DD801EE938D0150
:10050000232B242B252B79F790E080E0109719F00E
:10051000CD010E944B02A1960FB6F894DEBF0FBE2C
:10052000CDBFDF91CF911F910F91BF90AF909F9062
:100530008F900895E95CE1CFCF93DF93D0E0C0E0E6
:10054000009719F00E944B02EC0188E291E00E94B2
:100550004B028C0F9D1FDF91CF9108954F925F92B8
:100560006F927F928F929F92AF92BF92CF92DF92C3
:10057000EF92FF920F931F93CF936B017C01742E28
:10058000AC019B010E94F90A882399F08BE291E06B
:10059000CF911F910F91FF90EF90DF90CF90BF9080
:1005A000AF909F908F907F906F905F904F900C9442
:1005B0004B0246015701E894B7F82FEF3FEF4FE7A2
:1005C0005FE7C501B4010E94F90A81110DC02FEF48
:1005D0003FEF4FE75FE7C501B4010E9430081816EE
:1005E0001CF48FE291E0D4CF2FEF3FEF4FE75FE4B1
:1005F000C701B6010E94E70918161CF483E391E0D5
:10060000C7CF2FEF3FEF4FE75FECC701B6010E9466
:10061000300887FDF3CF20E030E0A901C701B60123
:100620000E94300810E000E087FF0AC06DE287EE0C
:1006300091E00E94DE018C01F7FAF094F7F8F09453
:10064000C0E060E070E080E09FE37C1641F020E0D5
:1006500030E040E251E40E943508CF5FF6CFA701B9
:1006600096010E94C4072B013C010E94AE084B0179
:100670005C014AE00E9458027C01E00EF11ECC238E
:10068000C1F1C501B4010E94DD089B01AC01C301A9
:10069000B2010E94C3074B015C016EE287EE91E05C
:1006A0000E94DE01E80EF91EC15018F120E030E092
:1006B00040E251E4C501B4010E943C0A2B013C0117
:1006C0000E94AE084B01B12CA12C4AE0C501B40137
:1006D0000E945802E80EF91EC501B4010E94DD080F
:1006E0009B01AC01C301B2010E94C3074B015C0135
:1006F000DBCFC701CF911F910F91FF90EF90DF905B
:10070000CF90BF90AF909F908F907F906F905F90B1
:100710004F9008951F920F920FB60F9211242F93AE
:100720003F938F939F93AF93BF938091DF019091FD
:10073000E001A091E101B091E2013091DE0123E0FE
:10074000230F2D3758F50196A11DB11D2093DE0111
:100750008093DF019093E001A093E101B093E20167
:100760008091DA019091DB01A091DC01B091DD0173
:100770000196A11DB11D8093DA019093DB01A09336
:10078000DC01B093DD01BF91AF919F918F913F91BB
:100790002F910F900FBE0F901F90189526E8230FF2
:1007A0000296A11DB11DD2CF1F920F920FB60F92CC
:1007B00011242F933F934F935F936F937F938F9366
:1007C0009F93AF93BF93EF93FF9387EE91E00E94C7
:1007D000BC01FF91EF91BF91AF919F918F917F915C
:1007E0006F915F914F913F912F910F900FBE0F909E
:1007F0001F9018951F920F920FB60F9211242F93EE
:100800008F939F93EF93FF93E091F701F091F8019D
:100810008081E091FD01F091FE0182FD1BC090817D
:10082000809100028F5F8F7320910102821741F047
:10083000E0910002F0E0E951FE4F958F80930002B5
:10084000FF91EF919F918F912F910F900FBE0F907D
:100850001F9018958081F4CFE7EEF1E013821282A9
:1008600088EE93E0A0E0B0E084839583A683B7830D
:100870008AE191E09183808385EC90E0958784877D
:1008800084EC90E09787868780EC90E0918B808B5A
:1008900081EC90E0938B828B82EC90E0958B848B43
:1008A00086EC90E0978B868B118E128E138E148EB1
:1008B000E8EBF2E08EE0808380E090E7A9E1B6E427
:1008C00081839283A383B48380E090E4ACE1B6E4B7
:1008D00085839683A783B08780E090E0A8ECB1E49D
:1008E00081879287A387B48780E090EEA6E7B5E47E
:1008F00085879687A787B08B84E090E0928B818B69
:10090000E4E8F2E08FE0808380E090E0A0E2B1E4F0
:1009100081839283A383B48380E090E0A0E7B1E475
:1009200085839683A783B08712AA11AA13AA089574
:10093000789484B5826084BD84B5816084BD85B5BA
:10094000826085BD85B5816085BD80916E008160C6
:1009500080936E001092810080918100826080936C
:10096000810080918100816080938100809180006E
:100970008160809380008091B10084608093B10099
:100980008091B00081608093B00080917A00846093
:1009900080937A0080917A00826080937A008091BF
:1009A0007A00816080937A0080917A0080688093D9
:1009B0007A001092C100E091F701F091F80182E015
:1009C0008083E091F301F091F4011082E091F50150
:1009D000F091F6018FEC80831092FF01E091FB0112
:1009E000F091FC0186E08083E091F901F091FA0139
:1009F000808180618083E091F901F091FA0180812A
:100A000088608083E091F901F091FA01808180682B
:100A10008083E091F901F091FA0180818F7D8083DC
:100A2000EDE8F2E0119211921192119222E0E53B71
:100A3000F207C1F740E0242E40E0342E03E010E03E
:100A4000C2E0D0E02FB7F8948091DF019091E001EF
:100A5000A091E101B091E2012FBF4091D6015091E8
:100A6000D7016091D8017091D901411551056105F7
:100A7000710571F06C017D01C41AD50AE60AF70A06
:100A8000B701A601403157426105710508F418C24B
:100A90008093D6019093D701A093D801B093D90148
:100AA0008091B8020E942901009799F4D093CA025C
:100AB000C093C90232E0E32EF12C85E791E00E9459
:100AC0004B02F701EE0FFF1FE45FFE4F8081918123
:100AD0000CC18F3F23E0920740F01093CA020093AD
:100AE000C90223E0E22EF12CE8CFBC0190E080E0C7
:100AF0000E94DD086B017C01AC019B0160E070ECA1
:100B00008FE794E40E94C3079B01AC01C701B601C3
:100B10000E9435082091B9023091BA024091BB027F
:100B20005091BC020E943C0A2091BD023091BE024D
:100B30004091BF025091C0020E9435080E94F40902
:100B40002091C5023091C6024091C7025091C8025F
:100B50000E9435086B017C0123E333E948E853E444
:100B60006091C1027091C2028091C3029091C4024F
:100B70000E94C4079B01AC0160E070E080E89FE345
:100B80000E943508A70196010E94C4079B01AC0191
:100B900060E070E080E89FE30E9435081092CA028E
:100BA0001092C90223E333E948E853E40E94C307E3
:100BB00020E73EEC48E85FE30E943C0A9B01AC0161
:100BC0000E94C40720E030E040E05FE30E94C407D9
:100BD0000E941A0920E030E040E05FE30E943C0AF6
:100BE0006B017C018090080190900901A0900A019E
:100BF000B0900B01A5019401C501B4010E94F90A4E
:100C0000811108C0A5019401C701B6010E943008F6
:100C10008823D9F0C0920801D0920901E0920A011C
:100C2000F0920B0187E391E00E944B026091080172
:100C30007091090180910A0190910B0142E00E949C
:100C4000AE028DE491E00E949C022091040130915B
:100C500005014091060150910701C701B6010E94AC
:100C6000E7091816DCF4C0920401D0920501E09265
:100C70000601F092070181E591E00E944B0260912C
:100C8000040170910501809106019091070142E0F5
:100C90000E94AE028DE491E00E949C02209100012E
:100CA000309101014091020150910301C701B60149
:100CB0000E94300887FF1BC0C0920001D092010142
:100CC000E0920201F092030183E691E00E944B0260
:100CD00060910001709101018091020190910301E6
:100CE00042E00E94AE028DE491E00E949C0280915D
:100CF00084020E942901C0908902D0908A02E0906B
:100D00008B02F0908C02BC01990F880B990B0E940A
:100D1000DF0820E030E040EA50E40E943C0A20E096
:100D200030EC4FE754E40E9435084B015C01209100
:100D30008502309186024091870250918802C70156
:100D4000B6010E94C4079B01AC01C501B4010E9419
:100D50003C0AA70196010E9435080E94A0004B01A1
:100D60005C01809184020E942901C0908902D09088
:100D70008A02E0908B02F0908C02BC01990F880BE4
:100D8000990B0E94DF0820E030E040EA50E40E9426
:100D90003C0A20E030EC4FE754E40E9435082B0178
:100DA0003C0120918502309186024091870250914A
:100DB0008802C701B6010E94C4079B01AC01C301B0
:100DC000B2010E943C0AA70196010E9435080E94C8
:100DD000A0006B017C0126E636E646E051E40E9465
:100DE000E70987FF79C020E030E040EC50E4C7011C
:100DF000B6010E94300818160CF072C020E030E0F6
:100E000040EC50E4C701B6010E94C30728E939E964
:100E100049E150E40E9435086B017C01AC019B0163
:100E20000E94C4079B01AC0160E070E080E490E4A4
:100E30000E94C3072B013C01A7019601C701B6011F
:100E40000E943C0A9B01AC01C301B2010E943C0A12
:100E500020E030E040E45FE30E94A90A20E030E0B7
:100E600048EC52E40E943C0A0E94A7086B0183E907
:100E700091E00E944B020D2C000CEE08FF084AE0A6
:100E8000C701B601F7FE0DC06DE287EE91E00E944A
:100E9000DE0166277727CB016C197D098E099F0932
:100EA0004AE00E9458028DE991E00E944B0242E024
:100EB000C501B4010E94AE0281EA91E00E949C0249
:100EC0002114310409F4BECD0E94A801882309F43D
:100ED000B9CD0E940000B6CD84E6C82ED12CC7CF74
:100EE000D12CC12CC4CF97FB072E16F4009407D049
:100EF00077FD09D00E94A90707FC05D03EF4909524
:100F000081959F4F0895709561957F4F0895A1E257
:100F10001A2EAA1BBB1BFD010DC0AA1FBB1FEE1F73
:100F2000FF1FA217B307E407F50720F0A21BB30BBE
:100F3000E40BF50B661F771F881F991F1A9469F73A
:100F400060957095809590959B01AC01BD01CF0196
:100F50000895AA1BBB1B51E107C0AA1FBB1FA61700
:100F6000B70710F0A61BB70B881F991F5A95A9F752
:100F700080959095BC01CD010895EE0FFF1F05905F
:100F8000F491E02D09945058BB27AA270E94DB0753
:100F90000C9495090E94870938F00E948E0920F070
:100FA00039F49F3F19F426F40C9484090EF4E0956B
:100FB000E7FB0C945509E92F0E94A60958F3BA17CC
:100FC000620773078407950720F079F4A6F50C945F
:100FD000E0090EF4E0950B2EBA2FA02D0B01B901FC
:100FE00090010C01CA01A0011124FF27591B99F09F
:100FF000593F50F4503E68F11A16F040A22F232FAB
:10100000342F4427585FF3CF469537952795A795FA
:10101000F0405395C9F77EF41F16BA0B620B730BA1
:10102000840BBAF09150A1F0FF0FBB1F661F771F12
:10103000881FC2F70EC0BA0F621F731F841F48F4C7
:10104000879577956795B795F7959E3F08F0B0CF50
:101050009395880F08F09927EE0F97958795089537
:101060000E94310908F481E008950E9449080C9417
:1010700095090E948E0958F00E94870940F029F4D2
:101080005F3F29F00C94550951110C94E1090C941F
:1010900084090E94A60968F39923B1F3552391F3BB
:1010A000951B550BBB27AA2762177307840738F0D7
:1010B0009F5F5F4F220F331F441FAA1FA9F335D034
:1010C0000E2E3AF0E0E832D091505040E695001CE8
:1010D000CAF72BD0FE2F29D0660F771F881FBB1FA2
:1010E000261737074807AB07B0E809F0BB0B802D80
:1010F000BF01FF2793585F4F3AF09E3F510578F0AC
:101100000C9455090C94E1095F3FE4F3983ED4F345
:10111000869577956795B795F7959F5FC9F7880F7F
:10112000911D9695879597F90895E1E0660F771FD1
:10113000881FBB1F621773078407BA0720F0621B62
:10114000730B840BBA0BEE1F88F7E09508950E948D
:10115000AE086894B1110C94E10908950E94AE099B
:1011600088F09F5798F0B92F9927B751B0F0E1F068
:10117000660F771F881F991F1AF0BA95C9F714C018
:10118000B13091F00E94E009B1E008950C94E009BB
:10119000672F782F8827B85F39F0B93FCCF3869551
:1011A00077956795B395D9F73EF4909580957095AE
:1011B00061957F4F8F4F9F4F0895E89409C097FB2B
:1011C0003EF490958095709561957F4F8F4F9F4F1E
:1011D0009923A9F0F92F96E9BB279395F695879562
:1011E00077956795B795F111F8CFFAF4BB0F11F425
:1011F00060FF1BC06F5F7F4F8F4F9F4F16C08823CC
:1012000011F096E911C0772321F09EE8872F762F01
:1012100005C0662371F096E8862F70E060E02AF042
:101220009A95660F771F881FDAF7880F969587952E
:1012300097F908950E94C80990F09F3748F49111DA
:1012400016F00C94E10960E070E080E89FEB0895EF
:1012500026F41B16611D711D811D0C945B090C94F5
:101260007609990F0008550FAA0BE0E8FEEF161655
:101270001706E807F907C0F012161306E407F5078A
:1012800098F0621B730B840B950B39F40A2661F0FE
:10129000232B242B252B21F408950A2609F4A140A1
:1012A000A6958FEF811D811D089597F99F6780E8AE
:1012B00070E060E00895882371F4772321F098505E
:1012C000872B762F07C0662311F499270DC0905104
:1012D000862B70E060E02AF09A95660F771F881FD2
:1012E000DAF7880F9695879597F908959F3F31F023
:1012F000915020F4879577956795B795880F911D44
:101300009695879597F908959FEF80EC08950024AE
:101310000A941616170618060906089500240A945A
:1013200012161306140605060895092E0394000CE0
:1013300011F4882352F0BB0F40F4BF2B11F460FF6F
:1013400004C06F5F7F4F8F4F9F4F089557FD905898
:10135000440F551F59F05F3F71F04795880F97FB79
:10136000991F61F09F3F79F0879508951216130633
:101370001406551FF2CF4695F1DF08C01616170662
:101380001806991FF1CF8695710561050894089597
:101390000E94AE09A0F0BEE7B91788F4BB279F38BA
:1013A00060F41616B11D672F782F8827985FF7CF46
:1013B000869577956795B11D93959639C8F30895ED
:1013C000E894BB2766277727CB0197F908950E94F9
:1013D000310908F48FEF089516F00C9476090C94F7
:1013E000840968940C9455090E94AE09A8F39923C6
:1013F000C1F3AEF3DF93CF931F930F93FF92C92FE7
:10140000DD2788232AF02197660F771F881FDAF7D8
:1014100020E030E040E85FEB9FE3883920F0803E39
:1014200038F021968F770E94C407E8E6F0E004C008
:101430000E94C407E5E9F0E00E94380B8B01BE0171
:10144000EC01FB2E6F5771097595771F880B990B6F
:101450000E94DF0828E132E741E35FE30E944F0A80
:10146000AF2D9801AE01FF900F911F91CF91DF91A9
:101470000E94DB070C9495090E944F0A0C94950971
:101480000E94870938F00E948E0920F0952311F000
:101490000C9455090C94840911240C94E1090E94C0
:1014A000A60970F3959FC1F3950F50E0551F629FF9
:1014B000F001729FBB27F00DB11D639FAA27F00DAD
:1014C000B11DAA1F649F6627B00DA11D661F829FD4
:1014D0002227B00DA11D621F739FB00DA11D621FB9
:1014E000839FA00D611D221F749F3327A00D611DD6
:1014F000231F849F600D211D822F762F6A2F1124B8
:101500009F5750409AF0F1F088234AF0EE0FFF1FEA
:10151000BB1F661F771F881F91505040A9F79E3F41
:10152000510580F00C9455090C94E1095F3FE4F3F8
:10153000983ED4F3869577956795B795F795E79597
:101540009F5FC1F7FE2B880F911D9695879597F9A0
:101550000895FA01EE0FFF1F309621053105A1F124
:101560006115710561F48038BFE39B0749F1689408
:101570009038810561F08038BFEF9B0741F09923D7
:101580004AF5FF3FE1053105210519F1E89408947A
:10159000E795D901AA2329F4AB2FBE2FF85FD0F32A
:1015A00010C0FF5F70F4A695E0F7F73950F019F01E
:1015B000FF3A38F49F779F930DD00F9007FC905817
:1015C000089546F00C94840960E070E080E89FE3A1
:1015D00008954FE79F775F934F933F932F930E9418
:1015E000F4092F913F914F915F910E943C0A0C9416
:1015F000060B0E943109880B990B089529F416F007
:101600000C9455090C94E0090C9484090E94AE09CD
:10161000A8F39638A0F707F80F92E8942BE33AEA7C
:1016200048EB5FE70E94520A0F920F920F924DB75C
:101630005EB70F920E94A10BE2ECF0E00E94380B23
:101640004F915F91EF91FF91E595EE1FFF1F49F0DC
:10165000FE57E0684427EE0F441FFA95E1F74195E5
:10166000550B0E946B0B0F9007FE0C945F0B0895B7
:10167000DF93CF931F930F93FF92EF92DF927B0143
:101680008C01689406C0DA2EEF010E944F0AFE0119
:10169000E894A5912591359145915591A6F3EF01D7
:1016A0000E94DB07FE019701A801DA9469F7DF9039
:1016B000EF90FF900F911F91CF91DF9108959B01C3
:1016C000AC0160E070E080E89FE30C9435080C9476
:1016D00055090C9476090E94AE09D8F39923C9F3F1
:1016E000940F511DA3F39150504094F059F088236A
:1016F00032F0660F771F881F91505040C1F79E3F10
:1017000051052CF7880F911D9695879597F90895A7
:101710005F3FACF0983E9CF0BB2786957795679528
:10172000B79508F4B1609395C1F7BB0F58F711F462
:1017300060FFE8CF6F5F7F4F8F4F9F4FE3CF0C94D9
:10174000E109FA01DC01AA0FBB1F9B01AC01BF57E5
:1017500028F4222733274427507820C0B75190F42B
:10176000AB2F0024469537952795011CA395D2F3FE
:10177000002071F0220F331F441FB395DAF30ED00F
:101780000C94C30761307105A0E88A07B94630F4AC
:101790009B01AC016627772788279078309621F047
:0E17A00020833183428353830895F894FFCF52
:1017AE00FFFF7F7FFFFF7FFF0000C07FA401A70127
:1017BE00B401C101CE0100000000DE013E016B014B
:1017CE002B029C017A018E010D0A006E616E00697A
:1017DE006E66006F76660043757272656E74207465
:1017EE00656D70657261747572653A2000C2B043A2
:1017FE00004D61782074656D7065726174757265E7
:10180E003A20004D696E2074656D70657261747555
:10181E0072653A20004572726F7220696E2074658F
:10182E006D70657261747572652073656E736F721B
:10183E003A2000426174746572793A20002520289E
:10184E00005629004F4B00444953434F4E4E4543DB
:10185E005445440053484F52545F544F5F474E44D3
:10186E000053484F52545F544F5F56434300494E06
:06187E0056414C494400F4
:00000001FF
