:100000000C9462000C948A000C948A000C948A0070
:100010000C948A000C948A000C948A000C948A0038
:100020000C948A000C948A000C948A000C948A0028
:100030000C948A000C948A000C948A000C948A0018
:100040000C94D8020C948A000C9448030C9422035C
:100050000C948A000C948A000C948A000C948A00F8
:100060000C948A000C948A0008000000BE92244977
:10007000123EABAAAA2ABECDCCCC4C3E00000080DA
:10008000BEABAAAAAA3E00000000BF000000803F4D
:100090000000000000084178D3BB4387D1133D190D
:1000A0000E3CC3BD4282AD2B3E68EC8276BED98F3A
:1000B000E1A93E4C80EFFFBE01C4FF7F3F0000007E
:1000C00000007A0311241FBECFEFD8E0DEBFCDBF02
:1000D00011E0A0E0B1E0E8EEF1E102C005900D9280
:1000E000A63CB107D9F722E0A6ECB1E001C01D9211
:1000F000A338B207E1F710E0C2E6D0E004C02197D0
:10010000FE010E94E105C136D107C9F70E94CF0365
:100110000C94F2080C940000AF92BF92CF92DF9241
:10012000EF92FF920F931F93CF93DF936C017B01AC
:100130008B01040F151FEB015E01AE18BF08C0173D
:10014000D10759F06991D601ED91FC910190F081B0
:10015000E02DC6010995892B79F7C501DF91CF9173
:100160001F910F91FF90EF90DF90CF90BF90AF90D5
:100170000895FC01538D448D252F30E0842F90E0AD
:10018000821B930B541710F0CF9608950197089592
:10019000FC01918D828D981761F0A28DAE0FBF2F5B
:1001A000B11D5D968C91928D9F5F9F73928F90E0B1
:1001B00008958FEF9FEF0895FC01918D828D981720
:1001C00031F0828DE80FF11D858D90E008958FEF5D
:1001D0009FEF0895FC01918D228D892F90E0805C26
:1001E0009F4F821B91098F739927089583ED91E0AA
:1001F0000E94EA0021E0892B09F420E0822F089573
:1002000080E090E0892B29F00E94F60081110C9487
:1002100000000895FC01A48DA80FB92FB11DA35AA9
:10022000BF4F2C91848D90E001968F739927848F16
:10023000A689B7892C93A089B1898C918370806439
:100240008C93938D848D981306C00288F389E02DDA
:1002500080818F7D80830895EF92FF920F931F938B
:10026000CF93DF93EC0181E0888F9B8D8C8D981369
:100270001AC0E889F989808185FF15C09FB7F89475
:10028000EE89FF896083E889F989808183708064C1
:1002900080839FBF81E090E0DF91CF911F910F910C
:1002A000FF90EF900895F62E0B8D10E00F5F1F4F1B
:1002B0000F731127E02E8C8D8E110CC00FB607FC2A
:1002C000FACFE889F989808185FFF5CFCE010E94B8
:1002D0000A01F1CFEB8DEC0FFD2FF11DE35AFF4F1B
:1002E000F0829FB7F8940B8FEA89FB898081806246
:1002F000CFCFCF93DF93EC01888D8823B9F0AA8903
:10030000BB89E889F9898C9185FD03C0808186FDD0
:100310000DC00FB607FCF7CF8C9185FFF2CF80811F
:1003200085FFEDCFCE010E940A01E9CFDF91CF9189
:100330000895FC0101900020E9F73197AF01481BB7
:10034000590BBC0183ED91E00C948C008F929F922D
:10035000AF92BF920F931F93CF93DF93CDB7DEB7CA
:10036000A1970FB6F894DEBF0FBECDBF19A24230E1
:1003700008F44AE08E010F5D1F4F842E912CB12CA2
:10038000A12CA50194010E94BF05E62FB901CA0165
:10039000EA30F4F4E05DD801EE938D01232B242B99
:1003A000252B79F790E080E0109719F0CD010E949D
:1003B0009901A1960FB6F894DEBF0FBECDBFDF91B5
:1003C000CF911F910F91BF90AF909F908F90089504
:1003D000E95CE1CFCF93DF93D0E0C0E0009719F064
:1003E0000E949901EC0188E291E00E9499018C0F32
:1003F0009D1FDF91CF9108954F925F926F927F92F0
:100400008F929F92AF92BF92CF92DF92EF92FF9224
:100410000F931F93CF936B017C01742EAC019B0152
:100420000E94C608882399F08BE291E0CF911F913A
:100430000F91FF90EF90DF90CF90BF90AF909F9083
:100440008F907F906F905F904F900C949901460130
:100450005701E894B7F82FEF3FEF4FE75FE7C5018B
:10046000B4010E94C60881110DC02FEF3FEF4FE786
:100470005FE7C501B4010E94540618161CF48FE210
:1004800091E0D4CF2FEF3FEF4FE75FE4C701B60114
:100490000E94040818161CF483E391E0C7CF2FEFE5
:1004A0003FEF4FE75FECC701B6010E94540687FD9E
:1004B000F3CF20E030E0A901C701B6010E94540645
:1004C00010E000E087FF0AC06DE283ED91E00E943A
:1004D0002C018C01F7FAF094F7F8F094C0E060E09A
:1004E00070E080E09FE37C1641F020E030E040E2E5
:1004F00051E40E945906CF5FF6CFA70196010E94F2
:10050000E8052B013C010E94CB064B015C014AE04F
:100510000E94A6017C01E00EF11ECC23C1F1C501B1
:10052000B4010E94FA069B01AC01C301B2010E9412
:10053000E7054B015C016EE283ED91E00E942C0126
:10054000E80EF91EC15018F120E030E040E251E41D
:10055000C501B4010E9459082B013C010E94CB0641
:100560004B01B12CA12C4AE0C501B4010E94A601A7
:10057000E80EF91EC501B4010E94FA069B01AC0108
:10058000C301B2010E94E7054B015C01DBCFC7014B
:10059000CF911F910F91FF90EF90DF90CF90BF9080
:1005A000AF909F908F907F906F905F904F90089545
:1005B0001F920F920FB60F9211242F933F938F9398
:1005C0009F93AF93BF938091CF019091D001A09161
:1005D000D101B091D2013091CE0123E0230F2D370C
:1005E00058F50196A11DB11D2093CE018093CF0136
:1005F0009093D001A093D101B093D2018091CA0110
:100600009091CB01A091CC01B091CD010196A11D9B
:10061000B11D8093CA019093CB01A093CC01B093FC
:10062000CD01BF91AF919F918F913F912F910F90ED
:100630000FBE0F901F90189526E8230F0296A11D5C
:10064000B11DD2CF1F920F920FB60F9211242F938C
:100650003F934F935F936F937F938F939F93AF934A
:10066000BF93EF93FF9383ED91E00E940A01FF9106
:10067000EF91BF91AF919F918F917F916F915F911A
:100680004F913F912F910F900FBE0F901F90189593
:100690001F920F920FB60F9211242F938F939F9357
:1006A000EF93FF93E091E301F091E4018081E09109
:1006B000E901F091EA0182FD1BC090818091EC017B
:1006C0008F5F8F732091ED01821741F0E091EC0173
:1006D000F0E0ED52FE4F958F8093EC01FF91EF918A
:1006E0009F918F912F910F900FBE0F901F90189593
:1006F0008081F4CFE3EDF1E01382128288EE93E083
:10070000A0E0B0E084839583A683B7838AE191E07B
:100710009183808385EC90E09587848784EC90E0DA
:100720009787868780EC90E0918B808B81EC90E0BE
:10073000938B828B82EC90E0958B848B86EC90E09F
:10074000978B868B118E128E138E148EE0E7F2E05B
:100750008EE0808380E090E7A9E1B6E48183928314
:10076000A383B48380E090E4ACE1B6E48583968310
:10077000A783B08780E090E0A8ECB1E481879287FE
:10078000A387B48780E090EEA6E7B5E485879687D7
:10079000A787B08B84E090E0928B818B089578944A
:1007A00084B5826084BD84B5816084BD85B5826076
:1007B00085BD85B5816085BD80916E008160809327
:1007C0006E00109281008091810082608093810090
:1007D00080918100816080938100809180008160A0
:1007E000809380008091B10084608093B1008091FB
:1007F000B00081608093B00080917A008460809323
:100800007A0080917A00826080937A0080917A00E9
:10081000816080937A0080917A00806880937A006A
:100820001092C100E091E301F091E40182E0808345
:10083000E091DF01F091E0011082E091E101F0919F
:10084000E2018FEC80831092EB01E091E701F091DF
:10085000E80186E08083E091E501F091E601808186
:1008600080618083E091E501F091E60180818860FC
:100870008083E091E501F091E601808180688083CA
:10088000E091E501F091E60180818F7D808300E0B9
:1008900010E093E0E92EF12C22E0C22ED12C2FB7EC
:1008A000F8948091CF019091D001A091D101B091A5
:1008B000D2012FBF4091C6015091C7016091C8017C
:1008C0007091C901411551056105710571F04C0127
:1008D0005D01841A950AA60AB70AB501A401403140
:1008E00057426105710508F43EC18093C60190939B
:1008F000C701A093C801B093C901809170028E30E6
:1009000008F08E508770806480937C0080917A001C
:10091000806480937A0080917A0086FDFCCF60919C
:100920007800709179006115710589F4D092820286
:10093000C0928102C2E0D0E085E791E00E94990177
:10094000CC0FDD1FC45FDE4F888199810AC16F3FE4
:1009500083E0780738F0F0928202E0928102C3E0EF
:10096000D0E0EACF90E080E00E94FA064B015C0103
:10097000AC019B0160E070EC8FE794E40E94E70516
:100980009B01AC01C501B4010E945906209171027E
:100990003091720240917302509174020E94590882
:1009A0002091750230917602409177025091780241
:1009B0000E9459060E94110820917D0230917E020A
:1009C00040917F02509180020E9459064B015C01C8
:1009D00023E333E948E853E46091790270917A02A5
:1009E00080917B0290917C020E94E8059B01AC0102
:1009F00060E070E080E89FE30E945906A501940141
:100A00000E94E8059B01AC0160E070E080E89FE394
:100A10000E945906109282021092810223E333E968
:100A200048E853E40E94E70520E73EEC48E85FE32E
:100A30000E9459089B01AC010E94E80520E030E0CB
:100A400040E05FE30E94E8050E94370720E030E0C5
:100A500040E05FE30E9459084B015C0140900801AF
:100A60005090090160900A0170900B01A30192015E
:100A7000C301B2010E94C608811108C0A3019201FE
:100A8000C501B4010E9454068823D9F08092080160
:100A900090920901A0920A01B0920B0187E391E0C4
:100AA0000E949901609108017091090180910A01E9
:100AB00090910B0142E00E94FC018DE491E00E94C4
:100AC000EA01209104013091050140910601509105
:100AD0000701C501B4010E9404081816DCF48092D5
:100AE000040190920501A0920601B092070181E5F0
:100AF00091E00E949901609104017091050180913B
:100B000006019091070142E00E94FC018DE491E012
:100B10000E94EA01209100013091010140910201FF
:100B200050910301C501B4010E94540687FF1BC008
:100B30008092000190920101A0920201B092030103
:100B400083E691E00E94990160910001709101019A
:100B5000809102019091030142E00E94FC018DE42A
:100B600091E00E94EA010115110509F498CE0E9456
:100B7000F600882309F493CE0E94000090CEA1E2F3
:100B80001A2EAA1BBB1BFD010DC0AA1FBB1FEE1F07
:100B9000FF1FA217B307E407F50720F0A21BB30B52
:100BA000E40BF50B661F771F881F991F1A9469F7CE
:100BB00060957095809590959B01AC01BD01CF012A
:100BC0000895EE0FFF1F0590F491E02D0994505801
:100BD000BB27AA270E94FF050C94B2070E94A40716
:100BE00038F00E94AB0720F039F49F3F19F426F447
:100BF0000C94A1070EF4E095E7FB0C947207E92F23
:100C00000E94C30758F3BA17620773078407950752
:100C100020F079F4A6F50C94FD070EF4E0950B2E68
:100C2000BA2FA02D0B01B90190010C01CA01A0013E
:100C30001124FF27591B99F0593F50F4503E68F199
:100C40001A16F040A22F232F342F4427585FF3CFDA
:100C5000469537952795A795F0405395C9F77EF4AB
:100C60001F16BA0B620B730B840BBAF09150A1F0F4
:100C7000FF0FBB1F661F771F881FC2F70EC0BA0F7A
:100C8000621F731F841F48F4879577956795B79502
:100C9000F7959E3F08F0B0CF9395880F08F09927FD
:100CA000EE0F9795879508950E944E0708F481E00E
:100CB00008950E946D060C94B2070E94AB0758F08D
:100CC0000E94A40740F029F45F3F29F00C947207BA
:100CD00051110C94FE070C94A1070E94C30768F3FE
:100CE0009923B1F3552391F3951B550BBB27AA27E5
:100CF00062177307840738F09F5F5F4F220F331F1F
:100D0000441FAA1FA9F335D00E2E3AF0E0E832D0E6
:100D100091505040E695001CCAF72BD0FE2F29D0E9
:100D2000660F771F881FBB1F261737074807AB07BB
:100D3000B0E809F0BB0B802DBF01FF2793585F4F30
:100D40003AF09E3F510578F00C9472070C94FE0720
:100D50005F3FE4F3983ED4F3869577956795B79512
:100D6000F7959F5FC9F7880F911D9695879597F91D
:100D70000895E1E0660F771F881FBB1F6217730796
:100D80008407BA0720F0621B730B840BBA0BEE1FAB
:100D900088F7E09508950E94CB0788F09F5798F058
:100DA000B92F9927B751B0F0E1F0660F771F881F70
:100DB000991F1AF0BA95C9F714C0B13091F00E948A
:100DC000FD07B1E008950C94FD07672F782F882761
:100DD000B85F39F0B93FCCF3869577956795B395B1
:100DE000D9F73EF490958095709561957F4F8F4F20
:100DF0009F4F0895E89409C097FB3EF49095809525
:100E0000709561957F4F8F4F9F4F9923A9F0F92FD0
:100E100096E9BB279395F695879577956795B7954E
:100E2000F111F8CFFAF4BB0F11F460FF1BC06F5F34
:100E30007F4F8F4F9F4F16C0882311F096E911C046
:100E4000772321F09EE8872F762F05C0662371F067
:100E500096E8862F70E060E02AF09A95660F771F7B
:100E6000881FDAF7880F9695879597F908950E945D
:100E7000E50790F09F3748F4911116F00C94FE07A7
:100E800060E070E080E89FEB089526F41B16611D7A
:100E9000711D811D0C9478070C949307990F00081D
:100EA000550FAA0BE0E8FEEF16161706E807F9073C
:100EB000C0F012161306E407F50798F0621B730BD7
:100EC000840B950B39F40A2661F0232B242B252B58
:100ED00021F408950A2609F4A140A6958FEF811DFB
:100EE000811D089597F99F6780E870E060E008959C
:100EF000882371F4772321F09850872B762F07C031
:100F0000662311F499270DC09051862B70E060E0A4
:100F10002AF09A95660F771F881FDAF7880F969543
:100F2000879597F908959F3F31F0915020F4879568
:100F300077956795B795880F911D9695879597F941
:100F400008959FEF80EC089500240A941616170662
:100F500018060906089500240A94121613061406AA
:100F600005060895092E0394000C11F4882352F00D
:100F7000BB0F40F4BF2B11F460FF04C06F5F7F4FC5
:100F80008F4F9F4F089557FD9058440F551F59F0AC
:100F90005F3F71F04795880F97FB991F61F09F3F66
:100FA00079F087950895121613061406551FF2CF8F
:100FB0004695F1DF08C0161617061806991FF1CFDF
:100FC000869571056105089408950E94CB07A0F0ED
:100FD000BEE7B91788F4BB279F3860F41616B11D19
:100FE000672F782F8827985FF7CF86957795679535
:100FF000B11D93959639C8F30895E894BB276627E9
:101000007727CB0197F908950E944E0708F48FEFD8
:10101000089516F00C9493070C94A10768940C940F
:1010200072070E94CB07A8F39923C1F3AEF3DF93B5
:10103000CF931F930F93FF92C92FDD2788232AF0A8
:101040002197660F771F881FDAF720E030E040E82D
:101050005FEB9FE3883920F0803E38F021968F7750
:101060000E94E805E8E6F0E004C00E94E805E5E932
:10107000F0E00E94CB088B01BE01EC01FB2E6F5704
:1010800071097595771F880B990B0E94FC0628E162
:1010900032E741E35FE30E946C08AF2D9801AE0197
:1010A000FF900F911F91CF91DF910E94FF050C944B
:1010B000B2070E946C080C94B2070E94A40738F093
:1010C0000E94AB0720F0952311F00C9472070C944A
:1010D000A10711240C94FE070E94C30770F3959F8B
:1010E000C1F3950F50E0551F629FF001729FBB271F
:1010F000F00DB11D639FAA27F00DB11DAA1F649FBB
:101100006627B00DA11D661F829F2227B00DA11D6D
:10111000621F739FB00DA11D621F839FA00D611DF3
:10112000221F749F3327A00D611D231F849F600D14
:10113000211D822F762F6A2F11249F5750409AF03D
:10114000F1F088234AF0EE0FFF1FBB1F661F771FC9
:10115000881F91505040A9F79E3F510580F00C9494
:1011600072070C94FE075F3FE4F3983ED4F3869534
:1011700077956795B795F795E7959F5FC1F7FE2B34
:10118000880F911D9695879597F908950E944E07AF
:10119000880B990B0895DF93CF931F930F93FF92C2
:1011A000EF92DF927B018C01689406C0DA2EEF018A
:1011B0000E946C08FE01E894A59125913591459116
:1011C0005591A6F3EF010E94FF05FE019701A801CA
:1011D000DA9469F7DF90EF90FF900F911F91CF9114
:0811E000DF910895F894FFCFA0
:1011E800FFFF7F7FFFFF7FFF0000C07F9301960115
:1011F800A301B001BD01000000002C018C00B90062
:101208007901EA00C800DC000D0A006E616E006911
:101218006E66006F76660043757272656E74207430
:10122800656D70657261747572653A2000C2B0436D
:10123800004D61782074656D7065726174757265B2
:101248003A20004D696E2074656D70657261747521
:1012580072653A20004572726F7220696E2074655B
:101268006D70657261747572652073656E736F72E7
:101278003A20004F4B00444953434F4E4E45435488
:1012880045440053484F52545F544F5F474E440003
:1012980053484F52545F544F5F56434300494E568C
:0612A800414C4944000026
:00000001FF
