:100000000C9477010C94AF050C9488050C949F0117
:100010000C949F010C949F010C949F010C949F01E0
:100020000C949F010C949F010C949F010C949F01D0
:100030000C949F010C949F010C949F010C949F01C0
:100040000C943E050C949F010C94FC050C94D60571
:100050000C949F010C949F010C949F010C949F01A0
:100060000C949F010C949F0108000000BE9224494B
:10007000123EABAAAA2ABECDCCCC4C3E00000080DA
:10008000BEABAAAAAA3E00000000BF000000803F4D
:100090000000000000084178D3BB4387D1133D190D
:1000A0000E3CC3BD4282AD2B3E68EC8276BED98F3A
:1000B000E1A93E4C80EFFFBE01C4FF7F3F0000007E
:1000C000000053797374656D20676F696E672074E3
:1000D0006F20736C6565702E2E2E0020557365643D
:1000E0002052414D20617070726F783A2000204696
:1000F0007265652052414D3A2000204865617020AC
:10010000757365643A2000202042617474657269D9
:100110006573206E65656420746F20726563686125
:10012000726765210056290025202800204261744D
:10013000746572793A20004572726F7220696E2080
:1001400074656D70657261747572652073656E7328
:100150006F723A20003A0020002F002F00C2B0C278
:10016000B0432040200020204D61782074656D70E0
:10017000657261747572653A20003A0020002F00A4
:100180002F00C2B0432040200020204D696E207413
:10019000656D70657261747572653A200020446106
:1001A000696C7920537461747320003A0020002F29
:1001B000002F00C2B0C2B0432040200020204D617B
:1001C000782074656D70657261747572653A20008F
:1001D0003A0020002F002F00C2B043204020002012
:1001E000204D696E2074656D7065726174757265FD
:1001F0003A2000204C69666574696D65205374610E
:1002000074732000C2B04300202054656D70657285
:1002100061747572653A20002043757272656E7460
:1002200020537461747320003D2A3D2A3D2A3D20ED
:10023000454E44203D2A3D2A3D2A3D0A002D2A2DC7
:100240002A2D2A2D2053797374656D20537461749F
:1002500073202D2A2D2A2D2A2D002D2A2D2A2D2AD4
:100260002D20456E7669726F6E6D656E74205374C5
:10027000617473202D2A2D2A2D2A2D003D2A3D2A16
:100280003D2A3D205354415254203D2A3D2A3D2AC7
:100290003D0000000000240027002A0000000000AC
:1002A000250028002B000000000023002600290064
:1002B000040404040404040402020202020203030C
:1002C0000303030301020408102040800102040814
:1002D00010200102040810200000000800020100A4
:1002E0000003040700000000000000002E06112497
:1002F0001FBECFEFD8E0DEBFCDBF11E0A0E0B1E080
:10030000EEE0FDE102C005900D92A439B107D9F7E6
:1003100022E0A4E9B1E001C01D92A838B207E1F7DC
:1003200011E0C7E7D1E004C02197FE010E94650BF0
:10033000C637D107C9F70E94DC060C94850E0C94D1
:100340000000833081F028F4813099F08230A9F0E8
:1003500008958730A9F08830C9F08430B1F48091D5
:1003600080008F7D03C0809180008F778093800014
:10037000089584B58F7784BD089584B58F7DFBCFB4
:100380008091B0008F778093B00008958091B00085
:100390008F7DF9CFCF93DF93282F30E0F901E8521A
:1003A000FD4F8491F901EC53FD4FD491F901E055D3
:1003B000FD4FC491CC23A1F081110E94A101EC2F2B
:1003C000F0E0EE0FFF1FEA55FD4FA591B491EC91BF
:1003D000ED2381E090E009F480E0DF91CF91089572
:1003E00080E090E0FACF809142020E94CA0121E0B1
:1003F00030E0892B11F030E020E03093460220936A
:1004000045028091A20181111092A20108951F93CB
:10041000CF93DF93282F30E0F901E852FD4F84910C
:10042000F901EC53FD4FD491F901E055FD4FC49112
:10043000CC23A9F0162F81110E94A101EC2FF0E02E
:10044000EE0FFF1FE456FD4FA591B4918FB7F894BE
:10045000EC91111108C0D095DE23DC938FBFDF91A2
:10046000CF911F910895DE2BF8CFCF93DF9390E0CB
:10047000FC01EC53FD4F249180559D4FFC0184916C
:100480008823D1F090E0880F991FFC01EE56FD4FB4
:10049000A591B491FC01E456FD4FC591D491623011
:1004A00071F49FB7F8943C91822F809583238C93AD
:1004B000E8812E2B28839FBFDF91CF9108958FB7BE
:1004C000F894EC912E2B2C938FBFF6CF8E3008F042
:1004D0008E508770806480937C0080917A00806465
:1004E00080937A0080917A0086FDFCCF809178001D
:1004F000909179000895089581E08093A201089574
:10050000AF92BF92CF92DF92EF92FF920F931F9321
:10051000CF93DF936C017B018B01040F151FEB015F
:100520005E01AE18BF08C017D10759F06991D60116
:10053000ED91FC910190F081E02DC6010995892B88
:1005400079F7C501DF91CF911F910F91FF90EF9047
:10055000DF90CF90BF90AF900895FC01538D448DF4
:10056000252F30E0842F90E0821B930B541710F05E
:10057000CF96089501970895FC01918D828D98176B
:1005800061F0A28DAE0FBF2FB11D5D968C91928D43
:100590009F5F9F73928F90E008958FEF9FEF089574
:1005A000FC01918D828D981731F0828DE80FF11D3D
:1005B000858D90E008958FEF9FEF0895FC01918D58
:1005C000228D892F90E0805C9F4F821B91098F7351
:1005D0009927089583EA91E00E94DE0221E0892BA9
:1005E00009F420E0822F089580E090E0892B29F023
:1005F0000E94EA0281110C9400000895FC01A48D70
:10060000A80FB92FB11DA35ABF4F2C91848D90E034
:1006100001968F739927848FA689B7892C93A08917
:10062000B1898C91837080648C93938D848D9813A1
:1006300006C00288F389E02D80818F7D8083089534
:10064000EF92FF920F931F93CF93DF93EC0181E022
:10065000888F9B8D8C8D98131AC0E889F9898081C9
:1006600085FF15C09FB7F894EE89FF896083E889FC
:10067000F98980818370806480839FBF81E090E0EE
:10068000DF91CF911F910F91FF90EF900895F62E7B
:100690000B8D10E00F5F1F4F0F731127E02E8C8D15
:1006A0008E110CC00FB607FCFACFE889F98980815A
:1006B00085FFF5CFCE010E94FE02F1CFEB8DEC0F4E
:1006C000FD2FF11DE35AFF4FF0829FB7F8940B8F77
:1006D000EA89FB8980818062CFCF0F931F93CF93EC
:1006E000DF938C01D0E0C0E0F801EC0FFD1F6491B6
:1006F000662341F083EA91E00E942003892B11F0E8
:100700002196F2CFCE01DF91CF911F910F910895E5
:10071000CF93DF93EC01888D8823B9F0AA89BB8938
:10072000E889F9898C9185FD03C0808186FD0DC023
:100730000FB607FCF7CF8C9185FFF2CF808185FF44
:10074000EDCFCE010E94FE02E9CFDF91CF91089557
:100750008EBD00000DB407FEFDCF8EB50895EF925B
:10076000FF920F931F93CF93DF93EC017B018A01DC
:1007700081E58CBD1DBC60E080915F020E94070294
:100780008BE0D0FF83E00E94A8038C2F0E94A80377
:10079000E7010E0D1F1D80E00E94A8038993C0177A
:1007A000D107C9F761E080915F02DF91CF911F917E
:1007B0000F91FF90EF900C940702FC010190002034
:1007C000E9F73197AF01481B590BBC0183EA91E06F
:1007D0000C948002CF93DF930E946D03EC0182E5BD
:1007E00091E00E94DD038C0F9D1FDF91CF91089552
:1007F0008F929F92AF92BF920F931F93CF93DF93ED
:10080000CDB7DEB7A1970FB6F894DEBF0FBECDBF50
:1008100019A2423008F44AE08E010F5D1F4F842E6A
:10082000912CB12CA12CA50194010E943C0BE62F28
:10083000B901CA01EA30F4F4E05DD801EE938D010C
:10084000232B242B252B79F790E080E0109719F0CB
:10085000CD010E94DD03A1960FB6F894DEBF0FBE56
:10086000CDBFDF91CF911F910F91BF90AF909F901F
:100870008F900895E95CE1CF682F70E090E080E010
:100880004AE00C94F803CF93DF930E943C04EC0100
:1008900082E591E00E94DD038C0F9D1FDF91CF91D7
:1008A0000895BC0190E080E04AE00C94F8034F9278
:1008B0005F926F927F928F929F92AF92BF92CF92F0
:1008C000DF92EF92FF920F931F93CF936B017C0106
:1008D000742EAC019B010E94590E882399F085E586
:1008E00091E0CF911F910F91FF90EF90DF90CF900B
:1008F000BF90AF909F908F907F906F905F904F9040
:100900000C94DD0346015701E894B7F82FEF3FEF51
:100910004FE75FE7C501B4010E94590E81110DC078
:100920002FEF3FEF4FE75FE7C501B4010E94E70BF0
:1009300018161CF489E591E0D4CF2FEF3FEF4FE775
:100940005FE4C701B6010E94970D18161CF48DE5EF
:1009500091E0C7CF2FEF3FEF4FE75FECC701B60144
:100960000E94E70B87FDF3CF20E030E0A901C7012B
:10097000B6010E94E70B10E000E087FF0AC06DE2BD
:1009800083EA91E00E9420038C01F7FAF094F7F8D3
:10099000F094C0E060E070E080E09FE37C1641F0FE
:1009A00020E030E040E251E40E94EC0BCF5FF6CF54
:1009B000A70196010E947B0B2B013C010E945E0C5B
:1009C0004B015C014AE00E94F8037C01E00EF11E3D
:1009D000CC23A9F1C501B4010E948D0C9B01AC018F
:1009E000C301B2010E947A0B4B015C016EE283EA03
:1009F00091E00E942003E80EF91EC15000F120E0B2
:100A000030E040E251E4C501B4010E94EC0D2B013D
:100A10003C010E945E0C4B01CB010E945104E80E88
:100A2000F91EB40190E080E00E948D0C9B01AC01A6
:100A3000C301B2010E947A0B4B015C01DECFC701FA
:100A4000CF911F910F91FF90EF90DF90CF90BF90CB
:100A5000AF909F908F907F906F905F904F90089590
:100A6000CF93DF930E945104EC0182E591E00E9454
:100A7000DD038C0F9D1FDF91CF9108951F920F9280
:100A80000FB60F9211242F933F938F939F93AF93A1
:100A9000BF9380919E0190919F01A091A001B09180
:100AA000A10130919D0123E0230F2D3758F50196C8
:100AB000A11DB11D20939D0180939E0190939F01E4
:100AC000A093A001B093A1018091990190919A0106
:100AD000A0919B01B0919C010196A11DB11D809335
:100AE000990190939A01A0939B01B0939C01BF91AF
:100AF000AF919F918F913F912F910F900FBE0F90CB
:100B00001F90189526E8230F0296A11DB11DD2CF84
:100B10001F920F920FB60F9211242F933F934F9372
:100B20005F936F937F938F939F93AF93BF93EF9355
:100B3000FF93E0910201F09103010995FF91EF917C
:100B4000BF91AF919F918F917F916F915F914F91E5
:100B50003F912F910F900FBE0F901F9018951F92ED
:100B60000F920FB60F9211242F933F934F935F93E1
:100B70006F937F938F939F93AF93BF93EF93FF9365
:100B8000E0910001F09101010995FF91EF91BF9172
:100B9000AF919F918F917F916F915F914F913F9115
:100BA0002F910F900FBE0F901F9018951F920F92CC
:100BB0000FB60F9211242F933F934F935F936F9330
:100BC0007F938F939F93AF93BF93EF93FF9383EAAA
:100BD00091E00E94FE02FF91EF91BF91AF919F9132
:100BE0008F917F916F915F914F913F912F910F90D6
:100BF0000FBE0F901F9018951F920F920FB60F9275
:100C000011242F938F939F93EF93FF93E091B30160
:100C1000F091B4018081E091B901F091BA0182FDB7
:100C20001BC090818091BC018F5F8F732091BD01AB
:100C3000821741F0E091BC01F0E0ED55FE4F958F39
:100C40008093BC01FF91EF919F918F912F910F9015
:100C50000FBE0F901F9018958081F4CFE3EAF1E06A
:100C60001382128288EE93E0A0E0B0E08483958343
:100C7000A683B78384E491E09183808385EC90E040
:100C80009587848784EC90E09787868780EC90E056
:100C9000918B808B81EC90E0938B828B82EC90E047
:100CA000958B848B86EC90E0978B868B118E128EC1
:100CB000138E148E85E190E0909341028093400260
:100CC000E1E7F2E08EE0808380E090E7A9E1B6E41E
:100CD00081839283A383B48380E090E4ACE1B6E4A3
:100CE00085839683A783B08780E090E0A8ECB1E489
:100CF00081879287A387B48780E090EEA6E7B5E46A
:100D000085879687A787B08B84E090E0928B818B54
:100D1000E2E6F2E08FE080838AE090E0A0E0B0E0DD
:100D200081839283A383B4838FE090E0A0E0B0E05E
:100D300085839683A783B08788E090E0A0E0B0E049
:100D400081879287A387B4878AE080935F02E9E472
:100D5000F2E08FEF9FEFAFE7BFE782839383A48337
:100D6000B58380E090E0A0E8B0E086839783A08719
:100D7000B1875DE152874CE043872CE637E0358749
:100D8000248797E196878BE38787508B418B338B42
:100D9000228B948B858B80E098E09093480280931F
:100DA0004702E2E4F2E083E0808382E390E0928312
:100DB0008183148213820895CF93DF93CDB7DEB77A
:100DC000AA970FB6F894DEBF0FBECDBF789484B556
:100DD000826084BD84B5816084BD85B5826085BD37
:100DE00085B5816085BD80916E00816080936E00C5
:100DF00010928100809181008260809381008091B7
:100E00008100816080938100809180008160809367
:100E100080008091B10084608093B1008091B00027
:100E200081608093B00080917A00846080937A0022
:100E300080917A00826080937A0080917A0081604C
:100E400080937A0080917A00806880937A00109273
:100E5000C100E091B301F091B40182E08083E091A0
:100E6000AF01F091B0011082E091B101F091B201B7
:100E70008FEC80831092BB01E091B701F091B80133
:100E800086E08083E091B501F091B60180818061B8
:100E90008083E091B501F091B60180818860808304
:100EA000E091B501F091B601808180688083E09186
:100EB000B501F091B60180818F7D80831092700220
:100EC00010926F0261E080915F020E94350261E042
:100ED00080915F020E9407021FB7F89480919401ED
:100EE000811127C0EAEBF2E08491EEECF2E09491FC
:100EF000E82FF0E0EE0FFF1FEE56FD4FA591B491E5
:100F0000EC91E92321F461E08AE00E94070261E0AC
:100F10008AE00E9435028CB580618CBD8CB58064FE
:100F20008CBD61E08DE00E94350261E08BE00E94A3
:100F30003502809194018F5F809394011FBF62E01E
:100F4000809142020E943502809142020E94CA01B1
:100F500021E030E0892B11F030E020E030934602B0
:100F60002093450244244394512C0CE712E0E3E023
:100F70006E2E712C52E0E52EF12C60E0C62E60E062
:100F8000D62E0E94F3018091450290914602892B52
:100F900009F04EC082EC90E00E94EA038091420288
:100FA0000E94CA01892B09F441C083EA91E00E94A2
:100FB000880320917A0010927A0083B7817F846041
:100FC00083BFF89483B7816083BF809142028230EF
:100FD00009F497C0833051F4109303010093020188
:100FE00080916900837F80936900E99A789488955D
:100FF00083B78E7F83BF80914202823009F48CC018
:10100000833071F4E99881E090E0880F991FFC012A
:10101000E050FF4F4BE7842E42E0942E9182808275
:1010200020937A0050924602409245020E94F301BA
:101030002FB7F89480919E0190919F01A091A001FB
:10104000B091A1012FBF40919501509196016091FF
:10105000970170919801411551056105710571F075
:101060004C015D01841A950AA60AB70AB501A401CC
:10107000403157426105710508F4E9C2809395013A
:1010800090939601A0939701B09398018CE792E01A
:101090000E94EA038AE592E00E94EA0386E1E9E41D
:1010A000F2E0DE01119601900D928A95E1F784E15C
:1010B000ECE2F1E0DE01579601900D928A95E1F79E
:1010C000809171020E946602009751F5F0928302AE
:1010D000E092820282E0A82EB12C87E391E00E9488
:1010E0006D03F501EE0FFF1FEE5DFE4F80819181D4
:1010F000009711F00E94DD0382E591E00E94DD037C
:10110000BBC11093010100930001809169008C7FA5
:1011100080936900E89A6ACFE89890E080E075CF04
:101120008F3F43E0940740F0709283026092820206
:10113000B3E0AB2EB12CD1CFBC0190E080E00E9497
:101140008D0C4B015C01AC019B0160E070EC8FE702
:1011500094E40E947A0B9B01AC01C501B4010E948A
:10116000EC0B209172023091730240917402509105
:1011700075020E94EC0D2091760230917702409129
:101180007802509179020E94EC0B0E94A40D2091EC
:101190007E0230917F0240918002509181020E9434
:1011A000EC0B4B015C0123E333E948E853E4609125
:1011B0007A0270917B0280917C0290917D020E9464
:1011C0007B0B9B01AC0160E070E080E89FE30E9434
:1011D000EC0BA50194010E947B0B9B01AC0160E02C
:1011E00070E080E89FE30E94EC0B10928302109263
:1011F000820223E333E948E853E40E947A0B20E7B4
:101200003EEC48E85FE30E94EC0D9B01AC010E94BC
:101210007B0B20E030E040E05FE30E947B0B0E940C
:10122000CA0C20E030E040E05FE30E94EC0D4B018F
:101230005C0180920C0190920D01A0920E01B0927F
:101240000F0188E192E00E94EA0388E092E00E94A8
:101250006D0360910C0170910D0180910E019091D0
:101260000F0142E00E94570484E092E00E94EA03EA
:10127000209108013091090140910A0150910B0120
:10128000C501B4010E94970D181644F4809208011C
:1012900090920901A0920A01B0920B0120910401E1
:1012A000309105014091060150910701C501B4013B
:1012B0000E94E70B87FF08C080920401909205010D
:1012C000A0920601B092070144E150E0BE01695EC0
:1012D0007F4F81E090E00E94AF0383EF91E00E9496
:1012E000EA038FED91E00E946D036F89788D898DFF
:1012F0009A8D42E00E94570488ED91E00E946D03B0
:101300008F8D0E943C0486ED91E00E946D0388A1C0
:101310000E943C0484ED91E00E946D0389A19AA192
:101320000E94510482ED91E00E946D038BA10E9406
:101330003C0480ED91E00E946D038CA10E94430467
:101340008CEB91E00E946D036B8D7C8D8D8D9E8D5D
:1013500042E00E94570483EB91E00E946D038DA14F
:101360000E943C0481EB91E00E946D038EA10E94DB
:101370003C048FEA91E00E946D038FA198A50E9422
:1013800051048DEA91E00E946D0389A50E943C04FE
:101390008BEA91E00E946D038AA50E94430446E116
:1013A00050E0BE016F5F7F4F8091400290914102FB
:1013B0000E94AF038DE991E00E94EA0389E891E081
:1013C0000E946D036B817C818D819E8142E00E9431
:1013D000570482E891E00E946D038B850E943C04D3
:1013E00080E891E00E946D038C850E943C048EE7AA
:1013F00091E00E946D038D859E850E9451048CE7CB
:1014000091E00E946D038F850E943C048AE791E081
:101410000E946D0388890E94430486E691E00E9441
:101420006D036F81788589859A8542E00E94570413
:101430008DE591E00E946D0389890E943C048BE553
:1014400091E00E946D038A890E943C0489E591E045
:101450000E946D038B899C890E94510487E591E06D
:101460000E946D038D890E943C0485E591E00E94F5
:101470006D038E890E9443048DE392E00E94EA038B
:10148000809162020E94660220916B0230916C0290
:10149000BC01269FC001279F900D369F900D1124FF
:1014A000BC0190E080E00E948D0C20E030E04AE733
:1014B00054E40E94EC0B4B015C01809162020E949B
:1014C000660220916B0230916C02DC012A9FC00100
:1014D0002B9F900D3A9F900D112420916F02309117
:1014E0007002232B21F49093700280936F0240913D
:1014F0006F02509170029A01220F331F240F351F83
:10150000280F391F36952795369527953093700209
:1015100020936F0284E6382E203DB0E23B07B8F5F9
:10152000312C213747E1340790F1A0E08A2F90E079
:10153000BC016F5F7F4FFB01EE0FFF1FEA5EFE4FA6
:10154000408151814217530710F4AF5FEFCFFC0188
:10155000EE0FFF1FEA5EFE4F0190F081E02D805FED
:101560009E4FDC013C90605F7E4FDB018C91682FC9
:101570006319770BDB012E1B3F0B0E945E0B4E1B8A
:101580005F0B9A0150E040E00E943C0B320E8CE26F
:1015900091E00E946D03632D70E090E080E04AE0EE
:1015A0000E94F80388E291E00E946D0342E0C501C9
:1015B000B4010E94570485E291E00E94EA0320E012
:1015C00030E040EC50E4C501B4010E94E70B18166E
:1015D00024F087E091E00E94EA038AEF90E00E9405
:1015E0006D0380918402909185020097E1F1885803
:1015F00092400E9430058EEE90E00E946D03209193
:101600008402309185028DB79EB72115310571F5A1
:10161000885892400E9430058BED90E00E946D0347
:101620008091470290914802409184025091850236
:101630002DB73EB741155105E1F428583240821BC1
:10164000930B0E94300588E292E00E94EA03C114E5
:10165000D10409F496CC0E94EA02882309F48ACCCA
:101660000E94000087CC90E080E0C3CF821B930BE8
:10167000D1CF241B350BE3CFA1E21A2EAA1BBB1B33
:10168000FD010DC0AA1FBB1FEE1FFF1FA217B3074E
:10169000E407F50720F0A21BB30BE40BF50B661F64
:1016A000771F881F991F1A9469F760957095809528
:1016B00090959B01AC01BD01CF0108950E946B0B79
:1016C000B7FF0895821B930B0895EE0FFF1F05903F
:1016D000F491E02D0994A29FB001B39FC001A39F94
:1016E000700D811D1124911DB29F700D811D11245B
:1016F000911D08955058BB27AA270E94920B0C9465
:10170000450D0E94370D38F00E943E0D20F039F44F
:101710009F3F19F426F40C94340D0EF4E095E7FB8A
:101720000C94050DE92F0E94560D58F3BA17620765
:1017300073078407950720F079F4A6F50C94900DB3
:101740000EF4E0950B2EBA2FA02D0B01B9019001DC
:101750000C01CA01A0011124FF27591B99F0593F20
:1017600050F4503E68F11A16F040A22F232F342F68
:101770004427585FF3CF469537952795A795F040B6
:101780005395C9F77EF41F16BA0B620B730B840BCB
:10179000BAF09150A1F0FF0FBB1F661F771F881F83
:1017A000C2F70EC0BA0F621F731F841F48F48795DB
:1017B00077956795B795F7959E3F08F0B0CF9395CD
:1017C000880F08F09927EE0F9795879508950E9446
:1017D000E10C08F481E008950E94000C0C94450D82
:1017E0000E943E0D58F00E94370D40F029F45F3FF3
:1017F00029F00C94050D51110C94910D0C94340D9D
:101800000E94560D68F39923B1F3552391F3951B6C
:10181000550BBB27AA2762177307840738F09F5F11
:101820005F4F220F331F441FAA1FA9F335D00E2E7E
:101830003AF0E0E832D091505040E695001CCAF7EB
:101840002BD0FE2F29D0660F771F881FBB1F2617AE
:1018500037074807AB07B0E809F0BB0B802DBF0185
:10186000FF2793585F4F3AF09E3F510578F00C9454
:10187000050D0C94910D5F3FE4F3983ED4F38695EB
:1018800077956795B795F7959F5FC9F7880F911D75
:101890009695879597F90895E1E0660F771F881F61
:1018A000BB1F621773078407BA0720F0621B730B14
:1018B000840BBA0BEE1F88F7E09508950E945E0D29
:1018C00088F09F5798F0B92F9927B751B0F0E1F001
:1018D000660F771F881F991F1AF0BA95C9F714C0B1
:1018E000B13091F00E94900DB1E008950C94900DEC
:1018F000672F782F8827B85F39F0B93FCCF38695EA
:1019000077956795B395D9F73EF490958095709546
:1019100061957F4F8F4F9F4F0895E89409C097FBC3
:101920003EF490958095709561957F4F8F4F9F4FB6
:101930009923A9F0F92F96E9BB279395F6958795FA
:1019400077956795B795F111F8CFFAF4BB0F11F4BD
:1019500060FF1BC06F5F7F4F8F4F9F4F16C0882364
:1019600011F096E911C0772321F09EE8872F762F9A
:1019700005C0662371F096E8862F70E060E02AF0DB
:101980009A95660F771F881FDAF7880F96958795C7
:1019900097F908950E94780D90F09F3748F49111BF
:1019A00016F00C94910D60E070E080E89FEB0895D4
:1019B00026F41B16611D711D811D0C940B0D0C94DA
:1019C000260D990F0008550FAA0BE0E8FEEF16163A
:1019D0001706E807F907C0F012161306E407F50723
:1019E00098F0621B730B840B950B39F40A2661F097
:1019F000232B242B252B21F408950A2609F4A1403A
:101A0000A6958FEF811D811D089597F99F6780E846
:101A100070E060E00895882371F4772321F09850F6
:101A2000872B762F07C0662311F499270DC090519C
:101A3000862B70E060E02AF09A95660F771F881F6A
:101A4000DAF7880F9695879597F908959F3F31F0BB
:101A5000915020F4879577956795B795880F911DDC
:101A60009695879597F908959FEF80EC0895002447
:101A70000A941616170618060906089500240A94F3
:101A800012161306140605060895092E0394000C79
:101A900011F4882352F0BB0F40F4BF2B11F460FF08
:101AA00004C06F5F7F4F8F4F9F4F089557FD905831
:101AB000440F551F59F05F3F71F04795880F97FB12
:101AC000991F61F09F3F79F08795089512161306CC
:101AD0001406551FF2CF4695F1DF08C016161706FB
:101AE0001806991FF1CF8695710561050894089530
:101AF0000E945E0DA0F0BEE7B91788F4BB279F389F
:101B000060F41616B11D672F782F8827985FF7CFDE
:101B1000869577956795B11D93959639C8F3089585
:101B2000E894BB2766277727CB0197F908950E9491
:101B3000E10C08F48FEF089516F00C94260D0C9428
:101B4000340D68940C94050D0E945E0DA8F3992342
:101B5000C1F3AEF3DF93CF931F930F93FF92C92F7F
:101B6000DD2788232AF02197660F771F881FDAF771
:101B700020E030E040E85FEB9FE3883920F0803ED2
:101B800038F021968F770E947B0BE8E6F0E004C0E6
:101B90000E947B0BE5E9F0E00E945E0E8B01BE0126
:101BA000EC01FB2E6F5771097595771F880B990B08
:101BB0000E948F0C28E132E741E35FE30E94FF0DB2
:101BC000AF2D9801AE01FF900F911F91CF91DF9142
:101BD0000E94920B0C94450D0E94FF0D0C94450D34
:101BE0000E94370D38F00E943E0D20F0952311F031
:101BF0000C94050D0C94340D11240C94910D0E943D
:101C0000560D70F3959FC1F3950F50E0551F629FDD
:101C1000F001729FBB27F00DB11D639FAA27F00D45
:101C2000B11DAA1F649F6627B00DA11D661F829F6C
:101C30002227B00DA11D621F739FB00DA11D621F51
:101C4000839FA00D611D221F749F3327A00D611D6E
:101C5000231F849F600D211D822F762F6A2F112450
:101C60009F5750409AF0F1F088234AF0EE0FFF1F83
:101C7000BB1F661F771F881F91505040A9F79E3FDA
:101C8000510580F00C94050D0C94910D5F3FE4F329
:101C9000983ED4F3869577956795B795F795E79530
:101CA0009F5FC1F7FE2B880F911D9695879597F939
:101CB00008950E94E10C880B990B0895DF93CF9350
:101CC0001F930F93FF92EF92DF927B018C01689438
:101CD00006C0DA2EEF010E94FF0DFE01E894A591E7
:101CE0002591359145915591A6F3EF010E94920BF4
:101CF000FE019701A801DA9469F7DF90EF90FF9059
:0E1D00000F911F91CF91DF910895F894FFCFBE
:101D0E007B027B02FFFF7F7F000080000000C07F10
:101D1E000014283C50647017201C4C1D141E401FCC
:101D2E00D0206101640171017E018B01FFFF7F7F75
:101D3E00000080001D0C6C07173B1D0C6C07173B39
:101D4E000000000020038002AD028803DE02BC0208
:101D5E00D0020D0A006E616E00696E66006F7666C7
:101D6E00004F4B00444953434F4E4E454354454458
:101D7E000053484F52545F544F5F474E44005348F0
:101D8E004F52545F544F5F56434300494E56414C99
:041D9E0049440000B4
:00000001FF
