:100000000C9475010C94E2050C94BB050C949D01B5
:100010000C949D010C949D010C949D010C949D01E8
:100020000C949D010C949D010C949D010C949D01D8
:100030000C949D010C949D010C949D010C949D01C8
:100040000C9471050C949D010C942F060C940906D8
:100050000C949D010C949D010C949D010C949D01A8
:100060000C949D010C949D0108000000BE9224494F
:10007000123EABAAAA2ABECDCCCC4C3E00000080DA
:10008000BEABAAAAAA3E00000000BF000000803F4D
:100090000000000000084178D3BB4387D1133D190D
:1000A0000E3CC3BD4282AD2B3E68EC8276BED98F3A
:1000B000E1A93E4C80EFFFBE01C4FF7F3F0000007E
:1000C00000003A0020002F002F00C2B04320402043
:1000D000003E3E3E2044656275676765722052654A
:1000E0006164790053797374656D20676F696E6719
:1000F00020746F20736C6565702E2E2E0020557352
:1001000065642052414D20617070726F783A200012
:1001100020467265652052414D3A200020486561B5
:100120007020757365643A20002020426174746504
:1001300072696573206E65656420746F20726563F3
:100140006861726765210056290030002E00252065
:10015000280020426174746572793A200052756EED
:100160006E696E67206F6E2055534220706F776501
:1001700072004572726F7220696E2074656D7065D1
:100180007261747572652073656E736F723A2000C8
:1001900020204D61782074656D7065726174757290
:1001A000653A200020204D696E2074656D7065727F
:1001B00061747572653A2000204461696C7920533E
:1001C00074617473200020204D61782074656D7017
:1001D000657261747572653A200020204D696E2049
:1001E00074656D70657261747572653A2000204C9B
:1001F00069666574696D652053746174732000C20B
:10020000B04300202054656D70657261747572652D
:100210003A20002043757272656E742053746174C5
:100220007320003D2A3D2A3D2A3D20454E44203D75
:100230002A3D2A3D2A3D0A002D2A2D2A2D2A2D202D
:1002400053797374656D205374617473202D2A2D56
:100250002A2D2A2D002D2A2D2A2D2A2D20456E7675
:1002600069726F6E6D656E74205374617473202DA6
:100270002A2D2A2D2A2D003D2A3D2A3D2A3D205394
:1002800054415254203D2A3D2A3D2A3D00000000A1
:1002900000240027002A0000000000250028002B71
:1002A00000000000002300260029000404040404C8
:1002B0000404040202020202020303030303030113
:1002C00002040810204080010204081020010204EA
:1002D00008102000000008000201000003040700CD
:1002E0000000000000000000610611241FBECFEFD7
:1002F000D8E0DEBFCDBF11E0A0E0B1E0E4EFFFE168
:1003000002C005900D92A837B107D9F722E0A8E7FF
:10031000B1E001C01D92A038B207E1F711E0C5E7D6
:10032000D1E004C02197FE010E94E70CC437D10739
:10033000C9F70E94F0060C94F80F0C940000E7E84F
:10034000F1E0A089B18982E08C93A485B5851C92E7
:10035000A685B7858FEC8C93108EA489B58986E02D
:100360008C93A289B3898C9180618C93A289B38983
:100370008C9188608C93A289B3898C9180688C93CE
:100380000288F389E02D80818F7D808308958330FA
:1003900081F028F4813099F08230A9F008958730F7
:1003A000A9F08830C9F08430B1F4809180008F7D4D
:1003B00003C0809180008F7780938000089584B57A
:1003C0008F7784BD089584B58F7DFBCF8091B00079
:1003D0008F778093B00008958091B0008F7DF9CF22
:1003E000CF93DF93282F30E0F901ED52FD4F849138
:1003F000F901E154FD4FD491F901E555FD4FC49148
:10040000CC23A1F081110E94C701EC2FF0E0EE0F88
:10041000FF1FEF55FD4FA591B491EC91ED2381E0C5
:1004200090E009F480E0DF91CF91089580E090E0C2
:10043000FACF809125020E94F00121E030E0892B63
:1004400011F030E020E030932902209328028091BF
:10045000860181111092860108951F93CF93DF9337
:10046000282F30E0F901ED52FD4F8491F901E1545C
:10047000FD4FD491F901E555FD4FC491CC23A9F06E
:10048000162F81110E94C701EC2FF0E0EE0FFF1F25
:10049000E956FD4FA591B4918FB7F894EC911111E5
:1004A00008C0D095DE23DC938FBFDF91CF911F91E1
:1004B0000895DE2BF8CFCF93DF9390E0FC01E15459
:1004C000FD4F249185559D4FFC0184918823D1F0E7
:1004D00090E0880F991FFC01E357FD4FA591B4915F
:1004E000FC01E956FD4FC591D491623071F49FB77C
:1004F000F8943C91822F809583238C93E8812E2B56
:1005000028839FBFDF91CF9108958FB7F894EC9126
:100510002E2B2C938FBFF6CF8E3008F08E50877025
:10052000806480937C0080917A00806480937A005C
:1005300080917A0086FDFCCF8091780090917900BF
:100540000895089581E0809386010895AF92BF9247
:10055000CF92DF92EF92FF920F931F93CF93DF938F
:100560006C017B018B01040F151FEB015E01AE18BE
:10057000BF08C017D10759F06991D601ED91FC91E0
:100580000190F081E02DC6010995892B79F7C5010D
:10059000DF91CF911F910F91FF90EF90DF90CF905F
:1005A000BF90AF900895FC01538D448D252F30E00E
:1005B000842F90E0821B930B541710F0CF96089570
:1005C00001970895FC01918D828D981761F0A28D9D
:1005D000AE0FBF2FB11D5D968C91928D9F5F9F7363
:1005E000928F90E008958FEF9FEF0895FC01918D19
:1005F000828D981731F0828DE80FF11D858D90E086
:1006000008958FEF9FEF0895FC01918D228D892F22
:1006100090E0805C9F4F821B91098F73992708950A
:1006200087E891E00E94040321E0892B09F420E08F
:10063000822F089580E090E0892B29F00E9410031A
:1006400081110C9400000895FC01A48DA80FB92F0E
:10065000B11DA35ABF4F2C91848D90E001968F73EA
:100660009927848FA689B7892C93A089B1898C9109
:10067000837080648C93938D848D981306C0028858
:10068000F389E02D80818F7D80830895EF92FF9222
:100690000F931F93CF93DF93EC0181E0888F9B8DA5
:1006A0008C8D98131AC0E889F989808185FF15C05F
:1006B0009FB7F894EE89FF896083E889F989808182
:1006C0008370806480839FBF81E090E0DF91CF9151
:1006D0001F910F91FF90EF900895F62E0B8D10E073
:1006E0000F5F1F4F0F731127E02E8C8D8E110CC0E2
:1006F0000FB607FCFACFE889F989808185FFF5CF2D
:10070000CE010E942403F1CFEB8DEC0FFD2FF11DE4
:10071000E35AFF4FF0829FB7F8940B8FEA89FB8969
:1007200080818062CFCF0F931F93CF93DF938C0193
:10073000D0E0C0E0F801EC0FFD1F6491662341F0AA
:1007400087E891E00E944603892B11F02196F2CFB1
:10075000CE01DF91CF911F910F910895CF93DF9339
:10076000EC01888D8823B9F0AA89BB89E889F989C9
:100770008C9185FD03C0808186FD0DC00FB607FCFE
:10078000F7CF8C9185FFF2CF808185FFEDCFCE0131
:100790000E942403E9CFDF91CF9108958EBD000020
:1007A0000DB407FEFDCF8EB50895FC010190002029
:1007B000E9F73197AF01481B590BBC0187E891E07D
:1007C0000C94A602CF93DF930E949303EC0187E37E
:1007D00091E00E94D5038C0F9D1FDF91CF9108956A
:1007E0008F929F92AF92BF920F931F93CF93DF93FD
:1007F000CDB7DEB7A1970FB6F894DEBF0FBECDBF61
:1008000019A2423008F44AE08E010F5D1F4F842E7A
:10081000912CB12CA12CA50194010E94A30CE62FD0
:10082000B901CA01EA30F4F4E05DD801EE938D011C
:10083000232B242B252B79F790E080E0109719F0DB
:10084000CD010E94D503A1960FB6F894DEBF0FBE6E
:10085000CDBFDF91CF911F910F91BF90AF909F902F
:100860008F900895E95CE1CF682F70E090E080E020
:100870004AE00C94F0034F925F926F927F928F92B6
:100880009F92AF92BF92CF92DF92EF92FF920F931F
:100890001F93CF936B017C01742EAC019B010E94CE
:1008A000CC0F882399F08AE391E0CF911F910F91AB
:1008B000FF90EF90DF90CF90BF90AF909F908F9080
:1008C0007F906F905F904F900C94D5034601570135
:1008D000E894B7F82FEF3FEF4FE75FE7C501B401AA
:1008E0000E94CC0F81110DC02FEF3FEF4FE75FE764
:1008F000C501B4010E945A0D18161CF48EE391E054
:10090000D4CF2FEF3FEF4FE75FE4C701B6010E945E
:100910000A0F18161CF482E491E0C7CF2FEF3FEFC7
:100920004FE75FECC701B6010E945A0D87FDF3CF78
:1009300020E030E0A901C701B6010E945A0D10E085
:1009400000E087FF0AC06DE287E891E00E9446035D
:100950008C01F7FAF094F7F8F094C0E060E070E0F2
:1009600080E09FE37C1641F020E030E040E251E47B
:100970000E945F0DCF5FF6CFA70196010E94EE0C9B
:100980002B013C010E94D10D4B015C014AE00E9409
:10099000F0037C01E00EF11ECC23C1F1C501B401CE
:1009A0000E94000E9B01AC01C301B2010E94ED0C3C
:1009B0004B015C016EE287E891E00E944603E80E7D
:1009C000F91EC15018F120E030E040E251E4C501C9
:1009D000B4010E945F0F2B013C010E94D10D4B011D
:1009E000B12CA12C4AE0C501B4010E94F003E80E2D
:1009F000F91EC501B4010E94000E9B01AC01C301A8
:100A0000B2010E94ED0C4B015C01DBCFC701CF911D
:100A10001F910F91FF90EF90DF90CF90BF90AF901C
:100A20009F908F907F906F905F904F9008954F921E
:100A30005F926F927F92AF92CF92EF92FF920F935D
:100A4000CF932A013B01C22F0E94930342E0C301CE
:100A5000B2010E943B048AEC90E00E9493038C2F29
:100A60000E94340488EC90E00E949303802F0E943F
:100A7000340486EC90E00E949303B70190E080E09C
:100A80004AE00E94F00384EC90E00E9493038C2DD6
:100A90000E94340482EC90E00E9493038A2D0E940D
:100AA000340487E391E0CF910F91FF90EF90CF90C6
:100AB000AF907F906F905F904F900C94D503CF9341
:100AC000DF93BC0190E080E04AE00E94F003EC017B
:100AD00087E391E00E94D5038C0F9D1FDF91CF919A
:100AE00008951F920F920FB60F9211242F933F93E8
:100AF0008F939F93AF93BF938091820190918301D5
:100B0000A0918401B09185013091810123E0230FF0
:100B10002D3758F50196A11DB11D209381018093B9
:100B2000820190938301A0938401B0938501809109
:100B30007D0190917E01A0917F01B091800101968D
:100B4000A11DB11D80937D0190937E01A0937F0133
:100B5000B0938001BF91AF919F918F913F912F9161
:100B60000F900FBE0F901F90189526E8230F029646
:100B7000A11DB11DD2CF1F920F920FB60F9211245B
:100B80002F933F934F935F936F937F938F939F9395
:100B9000AF93BF93EF93FF93E0910201F0910301B4
:100BA0000995FF91EF91BF91AF919F918F917F91A7
:100BB0006F915F914F913F912F910F900FBE0F90CA
:100BC0001F9018951F920F920FB60F9211242F931A
:100BD0003F934F935F936F937F938F939F93AF93C5
:100BE000BF93EF93FF93E0910001F091010109950C
:100BF000FF91EF91BF91AF919F918F917F916F91F5
:100C00005F914F913F912F910F900FBE0F901F90CA
:100C100018951F920F920FB60F9211242F933F93A6
:100C20004F935F936F937F938F939F93AF93BF93F4
:100C3000EF93FF9387E891E00E942403FF91EF91E7
:100C4000BF91AF919F918F917F916F915F914F91E4
:100C50003F912F910F900FBE0F901F9018951F92EC
:100C60000F920FB60F9211242F938F939F93EF93B0
:100C7000FF93E0919701F09198018081E0919D01AF
:100C8000F0919E0182FD1BC090818091A0018F5F39
:100C90008F732091A101821741F0E091A001F0E053
:100CA000E957FE4F958F8093A001FF91EF919F919F
:100CB0008F912F910F900FBE0F901F9018958081EC
:100CC000F4CFE7E8F1E01382128288EE93E0A0E02F
:100CD000B0E084839583A683B78389E291E0918312
:100CE000808385EC90E09587848784EC90E09787FB
:100CF000868780EC90E0918B808B81EC90E0938BE9
:100D0000828B82EC90E0958B848B86EC90E0978BC5
:100D1000868B118E128E138E148E81E080932402A6
:100D2000E2E7F2E08EE080838CE596E292838183B5
:100D300080E197E29483838389E185838EE69FE057
:100D40009783868384E090E091878087EFE4F2E0E8
:100D50008FE080838AE090E0A0E0B0E0818392831E
:100D6000A383B4838FE090E0A0E0B0E08583968316
:100D7000A783B087158E168E10A2178E12A211A20D
:100D80008AE080934E02ECE3F2E04FEF5FEF6FE713
:100D90007FE7428353836483758380E090E0A0E81B
:100DA000B0E086839783A087B187ECE2F2E04083CE
:100DB00051836283738384839583A683B78380E0A2
:100DC00098E090932B0280932A02E5E2F2E083E020
:100DD000808382E390E0928381831482138208955A
:100DE000789484B5826084BD84B5816084BD85B506
:100DF000826085BD85B5816085BD80916E00816012
:100E000080936E00109281008091810082608093B7
:100E100081008091810081608093810080918000B9
:100E20008160809380008091B10084608093B100E4
:100E30008091B00081608093B00080917A008460DE
:100E400080937A0080917A00826080937A0080910A
:100E50007A00816080937A0080917A008068809324
:100E60007A001092C1000E949F0180912402882381
:100E700031F00E949F0181ED90E00E94E203E8E5DD
:100E8000F2E01192119202E0EC36F007D1F761E046
:100E900080914E020E945B0261E080914E020E94AE
:100EA0002D02CFB7F89480917801811127C0E5EB2E
:100EB000F2E08491E9ECF2E09491E82FF0E0EE0F9B
:100EC000FF1FE357FD4FA591B491EC91E92321F465
:100ED00061E08AE00E942D0261E08AE00E945B02EC
:100EE0008CB580618CBD8CB580648CBD61E08DE07B
:100EF0000E945B0261E08BE00E945B0280917801BE
:100F00008F5F80937801CFBF62E0809125020E94BD
:100F10005B02809125020E94F00121E030E0892BE4
:100F200011F030E020E030932902209328027AE08B
:100F3000272E312C0E9419028091280290912902BB
:100F4000892B09F050C084EE90E00E94E20380916A
:100F500025020E94F001892B09F443C087E891E043
:100F60000E94AE0320917A0010927A0083B7817FAD
:100F7000846083BFF89483B7816083BF809125022A
:100F8000823009F48EC0833061F482EA92E090935B
:100F900003018093020180916900837F809369003F
:100FA000E99A7894889583B78E7F83BF80912502D4
:100FB000823009F483C0833061F4E99881E090E0E5
:100FC000880F991FFC01E050FF4F81EA92E0918366
:100FD000808320937A0001E010E0109329020093AF
:100FE00028020E9419022FB7F894809182019091F3
:100FF0008301A0918401B09185012FBF40917901B7
:1010000050917A0160917B0170917C0141155105ED
:101010006105710571F08C019D01041B150B260BF8
:10102000370BB901A801403157426105710508F439
:1010300009C38093790190937A01A0937B01B093C7
:101040007C018091280290912902892B09F4FAC22F
:1010500087E792E00E94E20385E592E00E94E203C6
:10106000809172020E948C02009761F582E090E00C
:1010700090937B0280937A02C2E0D0E082E791E015
:101080000E949303CC0FDD1FC55EDE4F88819981DE
:10109000009711F00E94D50387E391E00E94D503E9
:1010A00058C202EA12E010930101009300018091FE
:1010B00069008C7F80936900E89A73CFE89890E08C
:1010C00080E07ECF8F3F23E0920748F083E090E0FE
:1010D00090937B0280937A02C3E0D0E0CFCFBC0133
:1010E00090E080E00E94000E6B017C016091730231
:1010F0007091740290E080E00E94000E4B015C0150
:10110000A701960160E070EC8FE794E40E94ED0C7B
:101110009B01AC01C701B6010E945F0D9B01AC01B0
:10112000C501B4010E945F0F6B017C0160917502E3
:101130007091760290E080E00E94000E9B01AC016D
:10114000C701B6010E945F0D0E94170F6B017C0161
:10115000609178027091790290E080E00E94000E28
:101160009B01AC01C701B6010E945F0D6B017C01C0
:1011700060917702062E000C770B880B990B0E946A
:10118000020E23E333E948E853E40E94EE0C9B018E
:10119000AC0160E070E080E89FE30E945F0DA70172
:1011A00096010E94EE0C9B01AC0160E070E080E8CB
:1011B0009FE30E945F0D10927B0210927A0223E35C
:1011C00033E948E853E40E94ED0C9B01AC010E9416
:1011D000EE0C20E030E040E05FE30E94EE0C0E9465
:1011E0003D0E20E030E040E05FE30E945F0F6B01C6
:1011F0007C01C0920C01D0920D01E0920E01F092A0
:101200000F0183E192E00E94E20383E092E00E94FA
:10121000930360910C0170910D0180910E019091EA
:101220000F0142E00E943B048FEF91E00E94E20335
:10123000209108013091090140910A0150910B0160
:10124000C701B6010E940A0F181644F4C0920801A3
:10125000D0920901E0920A01F0920B012091040161
:10126000309105014091060150910701C701B60177
:101270000E945A0D87FF08C0C0920401D092050158
:10128000E0920601F0920701809004019090050120
:10129000A0900601B090070140900801509009010C
:1012A00060900A0170900B01C0904202D0904302FE
:1012B000E0904402F0904502A7019601C701B601F3
:1012C0000E94CC0F811108C0A7019601C301B20191
:1012D0000E940A0F1816A4F4409242025092430250
:1012E00060924402709245028FE980934A0285ED34
:1012F00080934B028FEE80934C028EEE80934D02D2
:10130000C0903E02D0903F02E0904002F090410237
:10131000A7019601C701B6010E94CC0F811108C038
:10132000A7019601C501B4010E945A0D87FF14C0A0
:1013300080923E0290923F02A0924002B0924102FF
:101340008FE98093460285ED809347028FEE80936C
:1013500048028EEE8093490281E58CBD1DBC60E0A1
:1013600080914E020E942D0283E00E94CE0381E014
:101370000E94CE03CCE2D2E080E00E94CE038993AB
:1013800092E0CC33D907C1F761E080914E020E9410
:101390002D028EEE91E00E94E20380913702A82E8A
:1013A000A694A694F09036029F2D929596959770EC
:1013B0008370C82ECC0CCC0CCC0CC92A0091350201
:1013C000E02EE6949F2D979599279795E92AF69414
:1013D000EF2DEF70FE2E20913402922F929596956C
:1013E00097700170000F000F000F092B2F714091B3
:1013F0002C0250912D0260912E0270912F028AEDE5
:1014000091E00E94170580913B02A82EA694A69415
:10141000F0903A029F2D9295969597708370C82E02
:10142000CC0CCC0CCC0CC92A00913902E02EE694ED
:101430009F2D979599279795E92AF6941F2D1F7050
:10144000F12E20913802922F929596959770017007
:10145000000F000F000F092B2F71409130025091A7
:101460003102609132027091330286EC91E00E9469
:10147000170588EB91E00E94E20380914902A82EB3
:10148000A694A694F09048029F2D929596959770F9
:101490008370C82ECC0CCC0CCC0CC92A009147020E
:1014A000E02EE6949F2D979599279795E92AF69433
:1014B0002F2D2F70F22E20914602922F9295969505
:1014C00097700170000F000F000F092B2F714091D2
:1014D0003E0250913F02609140027091410284EAC5
:1014E00091E00E94170580914D02A82EA694A69423
:1014F000F0904C029F2D9295969597708370C82E10
:10150000CC0CCC0CCC0CC92A00914B02E02EE694FA
:101510009F2D979599279795E92AF6943F2D3F702F
:10152000F32E20914A02922F929596959770017012
:10153000000F000F000F092B2F71409142025091B4
:101540004302609144027091450280E991E00E945B
:10155000170588E392E00E94E20380914F020E9407
:101560008C028090540290905502A0905602B09048
:101570005702C0905002D0905102E0905202F09079
:101580005302C80CD91CEA1CFB1C9C01A8E8B3E15F
:101590000E94C50C2FEF33E040E050E00E94A30C06
:1015A000CA01B901A70196010E946B0CA501940123
:1015B0000E94A30C8901215A3F402B34344008F08B
:1015C0004EC08DE591E00E94E2038CE191E00E9423
:1015D000930380917C0290917D02009709F472C17F
:1015E000805892400E945F0580E191E00E94930341
:1015F00020917C0230917D028DB79EB72115310577
:1016000009F063C1805892400E945F058DEF90E021
:101610000E94930380912A0290912B0240917C02B8
:1016200050917D022DB73EB74115510509F050C1CB
:1016300020583240821B930B0E945F0583E292E0A8
:101640000E94E20380E090E0892B09F473CC0E94B1
:101650001003882309F46BCC0E94000068CCC801F9
:1016600068EE73E00E947B0C562EB1010E947B0C49
:10167000762E662E80914F020E948C02809054023A
:1016800090905502A0905602B0905702C090500220
:10169000D0905102E0905202F0905302C80CD91C35
:1016A000EA1CFB1C9C01A8E8B3E10E94C50C2FEFCB
:1016B00033E040E050E00E94A30CCA01B901A70149
:1016C00096010E946B0CA50194010E94A30CC90114
:1016D00060917002709171026115710509F08CC002
:1016E00030936F0220936E02909371028093700288
:1016F000803D20E2920708F0E3C0C0E0813737E187
:10170000930708F452C09C0120573741A8EEB3E07C
:101710000E94C50C20E639E040E050E00E94A30C96
:10172000AEEFBFEF0E94E20C6B017C01E8EBCE0E46
:10173000EBE0DE1EE11CF11CCA01B9010E946B0C3A
:10174000A70196010E946B0C4B015C0120E031EE79
:1017500045EF55E00E94A30C2A3008F0B1C0E22FFB
:10176000F0E0E05FFE4FF080C181CF19DD0BC501D5
:10177000B40120E432E44FE050E00E94A30CCA011F
:10178000B90124E630E040E050E00E94A30CC69F7F
:101790009001C79F300DD69F300D1124C90164E61A
:1017A00070E00E948F0CCF2DC60F82E591E00E9461
:1017B00093038C2F0E9434048EE491E00E949303E3
:1017C000852D0E9434048CE491E00E94930329E06B
:1017D000261520F08AE491E00E949303872D0E9451
:1017E000340487E491E00E94E2030137174108F0D6
:1017F000ECCE89E291E0E7CE621B730B77FF03C06A
:10180000719561957109643F71400CF06DCF8091C5
:101810006C0290E0FC01EE0FFF1FE15BFD4F328791
:1018200021870196B1010E948F0C382F80936C02A2
:10183000811103C081E080936D0280916D0281115E
:101840003AE0E8E5F2E020E060E070E0CB01231749
:1018500041F041915191640F751F811D911D2F5FC2
:10186000F6CF30E050E040E00E94A30C49015A015D
:1018700080916E0290916F02892B21F430936F0258
:1018800020936E0220916E0230916F02A5E5B0E0C8
:101890000E94C50C6B017C01A501940144275527CA
:1018A000AFE0B0E00E94D40C6C0D7D1D8E1D9F1D1D
:1018B00024E630E040E050E00E94A30CC90110CFC4
:1018C000C4E673CF90E080E08DCE821B930B9CCE5C
:1018D000241B350BAFCEDB018F939F930E94D40C5A
:1018E000BF91AF91A29F800D911DA39F900DB29FBC
:1018F000900D11240895AA1BBB1B51E107C0AA1F1C
:10190000BB1FA617B70710F0A61BB70B881F991FA0
:101910005A95A9F780959095BC01CD01089597FB44
:10192000072E16F4009407D077FD09D00E947B0C97
:1019300007FC05D03EF4909581959F4F08957095D2
:1019400061957F4F0895A1E21A2EAA1BBB1BFD01D2
:101950000DC0AA1FBB1FEE1FFF1FA217B307E4078E
:10196000F50720F0A21BB30BE40BF50B661F771FE6
:10197000881F991F1A9469F76095709580959095C6
:101980009B01AC01BD01CF010895A29FB001B39F9F
:10199000C001A39F700D811D1124911DB29F700D78
:1019A000811D1124911D08950E94C50CA59F900DC5
:1019B000B49F900DA49F800D911D11240895B7FF31
:1019C0000C94D40C0E94D40C821B930B0895EE0F40
:1019D000FF1F0590F491E02D09945058BB27AA27CA
:1019E0000E94050D0C94B80E0E94AA0E38F00E94B9
:1019F000B10E20F039F49F3F19F426F40C94A70E91
:101A00000EF4E095E7FB0C94780EE92F0E94C90EC6
:101A100058F3BA17620773078407950720F079F423
:101A2000A6F50C94030F0EF4E0950B2EBA2FA02D03
:101A30000B01B90190010C01CA01A0011124FF277B
:101A4000591B99F0593F50F4503E68F11A16F04076
:101A5000A22F232F342F4427585FF3CF4695379575
:101A60002795A795F0405395C9F77EF41F16BA0B3A
:101A7000620B730B840BBAF09150A1F0FF0FBB1FE8
:101A8000661F771F881FC2F70EC0BA0F621F731F31
:101A9000841F48F4879577956795B795F7959E3F8E
:101AA00008F0B0CF9395880F08F09927EE0F97951F
:101AB000879508950E94540E08F481E008950E94CD
:101AC000730D0C94B80E0E94B10E58F00E94AA0E2D
:101AD00040F029F45F3F29F00C94780E51110C94DA
:101AE000040F0C94A70E0E94C90E68F39923B1F35A
:101AF000552391F3951B550BBB27AA276217730734
:101B0000840738F09F5F5F4F220F331F441FAA1FC7
:101B1000A9F335D00E2E3AF0E0E832D09150504083
:101B2000E695001CCAF72BD0FE2F29D0660F771F31
:101B3000881FBB1F261737074807AB07B0E809F017
:101B4000BB0B802DBF01FF2793585F4F3AF09E3F9C
:101B5000510578F00C94780E0C94040F5F3FE4F379
:101B6000983ED4F3869577956795B795F7959F5FDF
:101B7000C9F7880F911D9695879597F90895E1E02B
:101B8000660F771F881FBB1F621773078407BA078A
:101B900020F0621B730B840BBA0BEE1F88F7E095E5
:101BA00008950E94D10E88F09F5798F0B92F992779
:101BB000B751B0F0E1F0660F771F881F991F1AF038
:101BC000BA95C9F714C0B13091F00E94030FB1E08B
:101BD00008950C94030F672F782F8827B85F39F08A
:101BE000B93FCCF3869577956795B395D9F73EF4D1
:101BF00090958095709561957F4F8F4F9F4F089579
:101C0000E89409C097FB3EF4909580957095619596
:101C10007F4F8F4F9F4F9923A9F0F92F96E9BB274C
:101C20009395F695879577956795B795F111F8CFC8
:101C3000FAF4BB0F11F460FF1BC06F5F7F4F8F4F33
:101C40009F4F16C0882311F096E911C0772321F029
:101C50009EE8872F762F05C0662371F096E8862FC1
:101C600070E060E02AF09A95660F771F881FDAF718
:101C7000880F9695879597F908950E94EB0E90F03E
:101C80009F3748F4911116F00C94040F60E070E057
:101C900080E89FEB089526F41B16611D711D811DC0
:101CA0000C947E0E0C94990E990F0008550FAA0BF8
:101CB000E0E8FEEF16161706E807F907C0F012165F
:101CC0001306E407F50798F0621B730B840B950B62
:101CD00039F40A2661F0232B242B252B21F40895B7
:101CE0000A2609F4A140A6958FEF811D811D089554
:101CF00097F99F6780E870E060E00895882371F4A9
:101D0000772321F09850872B762F07C0662311F494
:101D100099270DC09051862B70E060E02AF09A95CB
:101D2000660F771F881FDAF7880F9695879597F9C2
:101D300008959F3F31F0915020F4879577956795EE
:101D4000B795880F911D9695879597F908959FEF00
:101D500080EC089500240A94161617061806090642
:101D6000089500240A941216130614060506089511
:101D7000092E0394000C11F4882352F0BB0F40F499
:101D8000BF2B11F460FF04C06F5F7F4F8F4F9F4FD9
:101D9000089557FD9058440F551F59F05F3F71F05B
:101DA0004795880F97FB991F61F09F3F79F08795C2
:101DB0000895121613061406551FF2CF4695F1DF4B
:101DC00008C0161617061806991FF1CF86957105DB
:101DD0006105089408950E94D10EA0F0BEE7B917DE
:101DE00088F4BB279F3860F41616B11D672F782F33
:101DF0008827985FF7CF869577956795B11D93955E
:101E00009639C8F30895E894BB2766277727CB0156
:101E100097F908950E94540E08F48FEF089516F074
:101E20000C94990E0C94A70E68940C94780E0E9452
:101E3000D10EA8F39923C1F3AEF3DF93CF931F9391
:101E40000F93FF92C92FDD2788232AF02197660F71
:101E5000771F881FDAF720E030E040E85FEB9FE370
:101E6000883920F0803E38F021968F770E94EE0C62
:101E7000E8E6F0E004C00E94EE0CE5E9F0E00E9424
:101E8000D10F8B01BE01EC01FB2E6F5771097595C7
:101E9000771F880B990B0E94020E28E132E741E37D
:101EA0005FE30E94720FAF2D9801AE01FF900F917A
:101EB0001F91CF91DF910E94050D0C94B80E0E94E6
:101EC000720F0C94B80E0E94AA0E38F00E94B10E48
:101ED00020F0952311F00C94780E0C94A70E112489
:101EE0000C94040F0E94C90E70F3959FC1F3950FD7
:101EF00050E0551F629FF001729FBB27F00DB11D8E
:101F0000639FAA27F00DB11DAA1F649F6627B00D1D
:101F1000A11D661F829F2227B00DA11D621F739F06
:101F2000B00DA11D621F839FA00D611D221F749F14
:101F30003327A00D611D231F849F600D211D822F5B
:101F4000762F6A2F11249F5750409AF0F1F0882382
:101F50004AF0EE0FFF1FBB1F661F771F881F9150AF
:101F60005040A9F79E3F510580F00C94780E0C94D8
:101F7000040F5F3FE4F3983ED4F386957795679519
:101F8000B795F795E7959F5FC1F7FE2B880F911DD9
:101F90009695879597F908950E94540E880B990B92
:101FA0000895DF93CF931F930F93FF92EF92DF92E9
:101FB0007B018C01689406C0DA2EEF010E94720F3B
:101FC000FE01E894A5912591359145915591A6F38F
:101FD000EF010E94050DFE019701A801DA9469F74F
:101FE000DF90EF90FF900F911F91CF91DF910895B7
:041FF000F894FFCF93
:101FF400A102A102FFFF7F7F000080000000C07FDC
:10200400000F1C28343F49525A6064460149015666
:102014000163017001000000004603A602D302AE72
:10202400030403E202F6020D0A006E616E00696E9B
:1020340066006F7666004F4B00444953434F4E4E43
:1020440045435445440053484F52545F544F5F47EF
:102054004E440053484F52545F544F5F564343001D
:08206400494E56414C4944006D
:00000001FF
