:100000000C946B010C94D5050C94AE050C949301E3
:100010000C9493010C9493010C9493010C94930110
:100020000C9493010C9493010C9493010C94930100
:100030000C9493010C9493010C9493010C949301F0
:100040000C9464050C9493010C9422060C94FC050A
:100050000C9493010C9493010C9493010C949301D0
:100060000C9493010C94930108000000BE92244963
:10007000123EABAAAA2ABECDCCCC4C3E00000080DA
:10008000BEABAAAAAA3E00000000BF000000803F4D
:100090000000000000084178D3BB4387D1133D190D
:1000A0000E3CC3BD4282AD2B3E68EC8276BED98F3A
:1000B000E1A93E4C80EFFFBE01C4FF7F3F0000007E
:1000C00000003A0020002F002F00C2B04320402043
:1000D0000053797374656D20676F696E6720746F64
:1000E00020736C6565702E2E2E002055736564207C
:1000F00052414D20617070726F783A200020467234
:1001000065652052414D3A20002048656170207598
:100110007365643A200020204261747465726965D9
:1001200073206E65656420746F2072656368617208
:100130006765210056290030002E00252028002068
:10014000426174746572793A200052756E6E696E00
:1001500067206F6E2055534220706F77657200459F
:1001600072726F7220696E2074656D706572617451
:100170007572652073656E736F723A200020204D92
:1001800061782074656D70657261747572653A206E
:100190000020204D696E2074656D70657261747504
:1001A00072653A2000204461696C7920537461744F
:1001B00073200020204D61782074656D7065726138
:1001C000747572653A200020204D696E2074656D4B
:1001D00070657261747572653A2000204C696665BD
:1001E00074696D652053746174732000C2B043005C
:1001F000202054656D70657261747572653A2000D7
:100200002043757272656E7420537461747320009C
:100210003D2A3D2A3D2A3D20454E44203D2A3D2A87
:100220003D2A3D0A002D2A2D2A2D2A2D205379738F
:1002300074656D205374617473202D2A2D2A2D2A24
:100240002D002D2A2D2A2D2A2D20456E7669726FBC
:100250006E6D656E74205374617473202D2A2D2A7F
:100260002D2A2D003D2A3D2A3D2A3D20535441523E
:1002700054203D2A3D2A3D2A3D0000000000240074
:1002800027002A0000000000250028002B000000A5
:1002900000002300260029000404040404040404CC
:1002A0000202020202020303030303030102040821
:1002B00010204080010204081020010204081020D0
:1002C0000000000800020100000304070000000015
:1002D00000000000540611241FBECFEFD8E0DEBF9F
:1002E000CDBF11E0A0E0B1E0EAEDFFE102C0059072
:1002F0000D92AC38B107D9F722E0ACE8B1E001C00B
:100300001D92A039B207E1F711E0CBE6D1E004C0BD
:100310002197FE010E94DA0CCA36D107C9F70E9464
:10032000FA060C94EB0F0C940000833081F028F453
:10033000813099F08230A9F008958730A9F0883093
:10034000C9F08430B1F4809180008F7D03C080912A
:1003500080008F7780938000089584B58F7784BD67
:10036000089584B58F7DFBCF8091B0008F77809307
:10037000B00008958091B0008F7DF9CFCF93DF93C7
:10038000282F30E0F901E054FD4F8491F901E45544
:10039000FD4FD491F901E856FD4FC491CC23A1F053
:1003A00081110E949501EC2FF0E0EE0FFF1FE25744
:1003B000FD4FA591B491EC91ED2381E090E009F41B
:1003C00080E0DF91CF91089580E090E0FACF8091B6
:1003D00038020E94BE0121E030E0892B11F030E0AC
:1003E00020E030933C0220933B0280919A018111DE
:1003F00010929A0108951F93CF93DF93282F30E036
:10040000F901E054FD4F8491F901E455FD4FD49179
:10041000F901E856FD4FC491CC23A9F0162F8111A4
:100420000E949501EC2FF0E0EE0FFF1FEC57FD4FFF
:10043000A591B4918FB7F894EC91111108C0D095A3
:10044000DE23DC938FBFDF91CF911F910895DE2BC8
:10045000F8CFCF93DF9390E0FC01E455FD4F24915A
:1004600088569D4FFC0184918823D1F090E0880F3D
:10047000991FFC01E658FD4FA591B491FC01EC5782
:10048000FD4FC591D491623071F49FB7F8943C91BF
:10049000822F809583238C93E8812E2B28839FBF06
:1004A000DF91CF9108958FB7F894EC912E2B2C9378
:1004B0008FBFF6CF8E3008F08E50877080648093A7
:1004C0007C0080917A00806480937A0080917A0029
:1004D00086FDFCCF809178009091790008953FB718
:1004E000F8948091960190919701A0919801B09114
:1004F000990126B5A89B05C02F3F19F00196A11DB3
:10050000B11D3FBFBA2FA92F982F8827BC01CD015D
:10051000620F711D811D911D42E0660F771F881FBC
:10052000991F4A95D1F70895089581E080939A0123
:100530000895AF92BF92CF92DF92EF92FF920F9306
:100540001F93CF93DF936C017B018B01040F151F69
:10055000EB015E01AE18BF08C017D10759F06991D1
:10056000D601ED91FC910190F081E02DC601099535
:10057000892B79F7C501DF91CF911F910F91FF90E2
:10058000EF90DF90CF90BF90AF900895FC01538D16
:10059000448D252F30E0842F90E0821B930B54175D
:1005A00010F0CF96089501970895FC01918D828DEA
:1005B000981761F0A28DAE0FBF2FB11D5D968C9183
:1005C000928D9F5F9F73928F90E008958FEF9FEFC2
:1005D0000895FC01918D828D981731F0828DE80F7E
:1005E000F11D858D90E008958FEF9FEF0895FC0138
:1005F000918D228D892F90E0805C9F4F821B910905
:100600008F73992708958BE991E00E94F70221E00A
:10061000892B09F420E0822F089580E090E0892B57
:1006200029F00E94030381110C9400000895FC013D
:10063000A48DA80FB92FB11DA35ABF4F2C91848D43
:1006400090E001968F739927848FA689B7892C93A0
:10065000A089B1898C91837080648C93938D848DF3
:10066000981306C00288F389E02D80818F7D8083F6
:100670000895EF92FF920F931F93CF93DF93EC01B6
:1006800081E0888F9B8D8C8D98131AC0E889F98939
:10069000808185FF15C09FB7F894EE89FF8960833C
:1006A000E889F98980818370806480839FBF81E0BD
:1006B00090E0DF91CF911F910F91FF90EF900895FF
:1006C000F62E0B8D10E00F5F1F4F0F731127E02EDA
:1006D0008C8D8E110CC00FB607FCFACFE889F98912
:1006E000808185FFF5CFCE010E941703F1CFEB8DFE
:1006F000EC0FFD2FF11DE35AFF4FF0829FB7F894E6
:100700000B8FEA89FB8980818062CFCF0F931F9383
:10071000CF93DF938C01D0E0C0E0F801EC0FFD1F18
:100720006491662341F08BE991E00E943903892BA3
:1007300011F02196F2CFCE01DF91CF911F910F9151
:100740000895CF93DF93EC01888D8823B9F0AA89AF
:10075000BB89E889F9898C9185FD03C0808186FD7C
:100760000DC00FB607FCF7CF8C9185FFF2CF8081CB
:1007700085FFEDCFCE010E941703E9CFDF91CF9126
:1007800008958EBD00000DB407FEFDCF8EB508950F
:10079000FC0101900020E9F73197AF01481B590B8C
:1007A000BC018BE991E00C949902CF93DF930E94F6
:1007B0008603EC018BE491E00E94C8038C0F9D1F1F
:1007C000DF91CF9108958F929F92AF92BF920F9336
:1007D0001F93CF93DF93CDB7DEB7A1970FB6F894F1
:1007E000DEBF0FBECDBF19A2423008F44AE08E0131
:1007F0000F5D1F4F842E912CB12CA12CA5019401CB
:100800000E948F0CE62FB901CA01EA30F4F4E05DD2
:10081000D801EE938D01232B242B252B79F790E023
:1008200080E0109719F0CD010E94C803A1960FB681
:10083000F894DEBF0FBECDBFDF91CF911F910F9116
:10084000BF90AF909F908F900895E95CE1CF682FA3
:1008500070E090E080E04AE00C94E3034F925F92F6
:100860006F927F928F929F92AF92BF92CF92DF92C0
:10087000EF92FF920F931F93CF936B017C01742E25
:10088000AC019B010E94BF0F882399F08EE491E098
:10089000CF911F910F91FF90EF90DF90CF90BF907D
:1008A000AF909F908F907F906F905F904F900C943F
:1008B000C80346015701E894B7F82FEF3FEF4FE721
:1008C0005FE7C501B4010E94BF0F81110DC02FEF7A
:1008D0003FEF4FE75FE7C501B4010E944D0D1816C9
:1008E0001CF482E591E0D4CF2FEF3FEF4FE75FE4B8
:1008F000C701B6010E94FD0E18161CF486E591E0B2
:10090000C7CF2FEF3FEF4FE75FECC701B6010E9463
:100910004D0D87FDF3CF20E030E0A901C701B601FE
:100920000E944D0D10E000E087FF0AC06DE28BE9E8
:1009300091E00E9439038C01F7FAF094F7F8F094F3
:10094000C0E060E070E080E09FE37C1641F020E0D2
:1009500030E040E251E40E94520DCF5FF6CFA70194
:1009600096010E94E10C2B013C010E94C40D4B0139
:100970005C014AE00E94E3037C01E00EF11ECC23FF
:10098000C1F1C501B4010E94F30D9B01AC01C3018B
:10099000B2010E94E00C4B015C016EE28BE991E038
:1009A0000E943903E80EF91EC15018F120E030E032
:1009B00040E251E4C501B4010E94520F2B013C01F9
:1009C0000E94C40D4B01B12CA12C4AE0C501B40119
:1009D0000E94E303E80EF91EC501B4010E94F30D65
:1009E0009B01AC01C301B2010E94E00C4B015C0110
:1009F000DBCFC701CF911F910F91FF90EF90DF9058
:100A0000CF90BF90AF909F908F907F906F905F90AE
:100A10004F9008954F925F926F927F92AF92CF92D4
:100A2000EF92FF920F93CF932A013B01C22F0E94B6
:100A3000860342E0C301B2010E942E048AEC90E0DA
:100A40000E9486038C2F0E94270488EC90E00E946D
:100A50008603802F0E94270486EC90E00E94860384
:100A6000B70190E080E04AE00E94E30384EC90E06C
:100A70000E9486038C2D0E94270482EC90E00E9445
:100A800086038A2D0E9427048BE491E0CF910F9179
:100A9000FF90EF90CF90AF907F906F905F904F90CE
:100AA0000C94C803CF93DF93BC0190E080E04AE050
:100AB0000E94E303EC018BE491E00E94C8038C0FD9
:100AC0009D1FDF91CF9108951F920F920FB60F9245
:100AD00011242F933F938F939F93AF93BF93809154
:100AE000920190919301A0919401B0919501309160
:100AF000910123E0230F2D3758F50196A11DB11D5B
:100B0000209391018093920190939301A09394017B
:100B1000B09395018091960190919701A0919801D1
:100B2000B09199010196A11DB11D809396019093FA
:100B30009701A0939801B0939901BF91AF919F91B4
:100B40008F913F912F910F900FBE0F901F9018958E
:100B500026E8230F0296A11DB11DD2CF1F920F923E
:100B60000FB60F9211242F933F934F935F936F9380
:100B70007F938F939F93AF93BF93EF93FF93E091F6
:100B80000201F09103010995FF91EF91BF91AF919F
:100B90009F918F917F916F915F914F913F912F9195
:100BA0000F900FBE0F901F9018951F920F920FB6C7
:100BB0000F9211242F933F934F935F936F937F93E3
:100BC0008F939F93AF93BF93EF93FF93E0910001B7
:100BD000F09101010995FF91EF91BF91AF919F9124
:100BE0008F917F916F915F914F913F912F910F90D6
:100BF0000FBE0F901F9018951F920F920FB60F9275
:100C000011242F933F934F935F936F937F938F9311
:100C10009F93AF93BF93EF93FF938BE991E00E9473
:100C20001703FF91EF91BF91AF919F918F917F91AA
:100C30006F915F914F913F912F910F900FBE0F9049
:100C40001F9018951F920F920FB60F9211242F9399
:100C50008F939F93EF93FF93E091AB01F091AC01E1
:100C60008081E091B101F091B20182FD1BC09081C1
:100C70008091B4018F5F8F732091B501821741F08D
:100C8000E091B401F0E0E556FE4F958F8093B401FA
:100C9000FF91EF919F918F912F910F900FBE0F9029
:100CA0001F9018958081F4CFEBE9F1E01382128256
:100CB00088EE93E0A0E0B0E084839583A683B783B9
:100CC0008DE391E09183808385EC90E09587848724
:100CD00084EC90E09787868780EC90E0918B808B06
:100CE00081EC90E0938B828B82EC90E0958B848BEF
:100CF00086EC90E0978B868B118E128E138E148E5D
:100D0000E9E7F2E08EE0808380E090E7A9E1B6E4D5
:100D100081839283A383B48380E090E4ACE1B6E462
:100D200085839683A783B08780E090E0A8ECB1E448
:100D300081879287A387B48780E090EEA6E7B5E429
:100D400085879687A787B08B84E090E0928B818B14
:100D5000E6E5F2E08FE080838AE090E0A0E0B0E09A
:100D600081839283A383B4838FE090E0A0E0B0E01E
:100D700085839683A783B087158E168E10A2178E53
:100D800012A211A28AE080935502EFE3F2E08FEF06
:100D90009FEFAFE7BFE782839383A483B58380E0AF
:100DA00090E0A0E8B0E086839783A087B1875DE1FB
:100DB00052874CE043872CE637E03587248797E15C
:100DC00096878BE38787508B418B338B228B948B59
:100DD000858B80E098E090933E0280933D02E8E3AB
:100DE000F2E083E0808382E390E092838183148247
:100DF00013820895CF93DF93CDB7DEB7A2970FB6D6
:100E0000F894DEBF0FBECDBF789484B5826084BDF8
:100E100084B5816084BD85B5826085BD85B58160FE
:100E200085BD80916E00816080936E00109281007C
:100E30008091810082608093810080918100816037
:100E400080938100809180008160809380008091F8
:100E5000B10084608093B1008091B0008160809384
:100E6000B00080917A00846080937A0080917A004B
:100E7000826080937A0080917A00816080937A000A
:100E800080917A00806880937A001092C100E0918E
:100E9000AB01F091AC0182E08083E091A701F09179
:100EA000A8011082E091A901F091AA018FEC808342
:100EB0001092B301E091AF01F091B00186E0808320
:100EC000E091AD01F091AE01808180618083E0917D
:100ED000AD01F091AE01808188608083E091AD0129
:100EE000F091AE01808180688083E091AD01F09146
:100EF000AE0180818F7D808383E792E0EFE5F2E0B1
:100F0000119211928E179F07D9F761E080915502D7
:100F10000E94290261E0809155020E94FB011FB7E7
:100F2000F89480918C01811127C0E2EAF2E084916B
:100F3000E6EBF2E09491E82FF0E0EE0FFF1FE658A9
:100F4000FD4FA591B491EC91E92321F461E08AE091
:100F50000E94FB0161E08AE00E9429028CB5806159
:100F60008CBD8CB580648CBD61E08DE00E9429024F
:100F700061E08BE00E94290280918C018F5F809359
:100F80008C011FBF62E0809138020E94290280918B
:100F900038020E94BE0121E030E0892B11F030E0E0
:100FA00020E030933C0220933B028E010B5E1F4FEA
:100FB0001E8B0D8B0E94E70180913B0290913C02B9
:100FC000892B09F050C081ED90E00E94D5038091FB
:100FD00038020E94BE01892B09F443C08BE991E0DD
:100FE0000E94A10320917A0010927A0083B7817F3A
:100FF000846083BFF89483B7816083BF8091380297
:10100000823009F4CAC0833061F485E992E090939C
:1010100003018093020180916900837F80936900BE
:10102000E99A7894889583B78E7F83BF8091380240
:10103000823009F4BFC0833061F4E99881E090E028
:10104000880F991FFC01E050FF4F04E912E0118363
:10105000008320937A0021E030E030933C0220931B
:101060003B020E94E7012FB7F89480919201909182
:101070009301A0919401B09195012FBF40918D01F2
:1010800050918E0160918F01709190014115510531
:101090006105710571F08C019D01041B150B260B78
:1010A000370BB901A801403157426105710508F4B9
:1010B00071C280938D0190938E01A0938F01B093A4
:1010C000900180913B0290913C02892B09F462C20D
:1010D00084E692E00E94D50382E492E00E94D50368
:1010E0000091410210914202B0904302D09044021C
:1010F000A0904502C0904602E0904702F09048025E
:10110000209149022D8F30914A02398F80914B02F4
:1011100090914C02988F8F8B90914D029B8FE09114
:101120004E02EC8FF0914F02FA8F209150022E8FD9
:1011300020905102309052023091530238A3809196
:1011400054028F8F84E1E5E2F1E0DE011196019017
:101150000D928A95E1F7809179020E945A020097D8
:1011600069F582E090E090938B0280938A0202E01E
:1011700010E08FE591E00E948603000F111FF80137
:10118000E55EFE4F80819181009711F00E94C803B7
:101190008BE491E00E94C80384C1E5E9F2E0F0939A
:1011A0000101E0930001809169008C7F80936900C8
:1011B000E89A37CFE89890E080E042CF8F3FE3E0B5
:1011C0009E0748F083E090E090938B0280938A0220
:1011D00003E010E0CECFBC0190E080E00E94F30D70
:1011E0002B013C01AC019B0160E070EC8FE794E4C3
:1011F0000E94E00C9B01AC01C301B2010E94520DA0
:1012000020917A0230917B0240917C0250917D02C4
:101210000E94520F20917E0230917F024091800205
:10122000509181020E94520D0E940A0F2091860265
:101230003091870240918802509189020E94520D9C
:101240002B013C0123E333E948E853E46091820237
:101250007091830280918402909185020E94E10C3A
:101260009B01AC0160E070E080E89FE30E94520DBA
:10127000A30192010E94E10C9B01AC0160E070E0CF
:1012800080E89FE30E94520D10928B0210928A0216
:1012900023E333E948E853E40E94E00C20E73EEC06
:1012A00048E85FE30E94520F9B01AC010E94E10CF1
:1012B00020E030E040E05FE30E94E10C0E94300E4D
:1012C00020E030E040E05FE30E94520F2B013C0140
:1012D00040920C0150920D0160920E0170920F012C
:1012E00080E092E00E94D50380EF91E00E948603A7
:1012F00060910C0170910D0180910E0190910F0190
:1013000042E00E942E048CEE91E00E94D5032091D1
:1013100008013091090140910A0150910B01C3016C
:10132000B2010E94FD0E181644F44092080150923A
:10133000090160920A0170920B0120910401309121
:1013400005014091060150910701C301B2010E94BD
:101350004D0D87FF08C04092040150920501609234
:1013600006017092070140900401509005016090C1
:101370000601709007018090080190900901F0919A
:101380000A01F9A320910B012AA32A2D3C2DA701C4
:101390006A2D7C2DC7010E94BF0F811108C12A2D23
:1013A0003C2DA701B40189A19AA10E94FD0E181637
:1013B0000CF40AC18A2C9C2CE9A2FAA298014B2DAC
:1013C0005D2DB8018B2D9D2D0E94BF0F811109C18C
:1013D00098014B2D5D2DB201C3010E944D0D87FD7B
:1013E00000C128016B2C7D2C81E58CBD1DBC60E00B
:1013F000809155020E94FB0183E00E94C10381E0BD
:101400000E94C1038E010F5F1F4F80E00E94C10345
:10141000F80181938F012D893E892E173F07A9F787
:1014200061E0809155020E94FB018BED91E00E94EA
:10143000D503EB84FC8449815A816B817C81AE8425
:10144000CD840A85298587EC91E00E940A05E98808
:10145000FA884D815E816F817885AC88CB88088958
:101460002F8583EB91E00E940A0585EA91E00E94B6
:10147000D503AC8CCB8CEF88F88C098D2D8DA20117
:10148000B30181E991E00E940A05AF8CC8A0710107
:101490000E8D2A8DA40169A17AA18DE791E00E94A9
:1014A0000A0585E292E00E94D503809156020E94CF
:1014B0005A0280905B0290905C02A0905D02B09016
:1014C0005E02C0905702D0905802E0905902F0900E
:1014D0005A02C80CD91CEA1CFB1C28E833E1DC01C9
:1014E0000E94C00C2FEF33E040E050E00E948F0CD0
:1014F000CA01B901A70196010E94570CA5019401E8
:101500000E948F0C8901215A3F402B34344008F04F
:1015100075C08AE491E00E94D50389E091E00E94C1
:10152000860380918C0290918D02009709F4B6C1D8
:10153000805992400E9452058DEF90E00E948603F0
:1015400020918C0230918D028DB79EB72115310507
:1015500009F0A7C1805992400E9452058AEE90E09E
:101560000E94860380913D0290913E0240918C0240
:1015700050918D022DB73EB74115510509F094C128
:1015800020593240821B930B0E94520580E192E069
:101590000E94D50380E090E0892B09F40BCD0E94D6
:1015A0000303882309F406CD0E940000FECC3BE330
:1015B0003F8F87E188A37AEE272E77E0372E9CE0D5
:1015C0009E8FEFE1EA8FFACEFBE3FF8F27E128A39E
:1015D0006AEE262E67E0362E3CE03E8F8FE18A8F42
:1015E000EDCE1BE31C8F17E11B8F2AEE37E0388FFF
:1015F0002F8B1CE0198F1FE11D8FF6CE0E946F020A
:101600006B017C01C80168EE73E00E94670C562EE6
:10161000C8016AE070E00E94670CCB0164E670E0EC
:101620000E94670C782E682E0E946F026C197D094B
:101630008E099F094AE00E94E3038BE491E00E9437
:10164000C803809156020E945A0280905B029090DB
:101650005C02A0905D02B0905E02C0905702D090F4
:101660005802E0905902F0905A02C80CD91CEA1CAA
:10167000FB1C28E833E1DC010E94C00C2FEF33E0B3
:1016800040E050E00E948F0CCA01B901A701960109
:101690000E94570CA50194010E948F0CC901609112
:1016A0007702709178026115710509F08FC030934F
:1016B0007602209375029093780280937702803DA2
:1016C000F0E29F0708F0E7C0D12C813727E19207AD
:1016D00008F455C09C0120573741A8EEB3E00E94A2
:1016E000B10C20E639E040E050E00E948F0C490147
:1016F0005A01AEEFBFEF0E94D50C6B017C0138EBB5
:10170000C30E3BE0D31EE11CF11CA5019401C501F1
:10171000B4010E94570CA70196010E94570C4B017F
:101720005C0120E031EE45EF55E00E948F0C2A303D
:1017300008F0B1C0E22FF0E0E05FFE4FD080E18022
:10174000ED18FF08C501B40120E432E44FE050E099
:101750000E948F0CCA01B90124E630E040E050E05D
:101760000E948F0CE69E9001E79E300DF69E300D94
:101770001124C90164E670E00E947B0CD60E8FE351
:1017800091E00E9486038D2D0E9427048BE391E057
:101790000E948603852D0E94270489E391E00E9420
:1017A000860389E0861520F087E391E00E94860396
:1017B000872D0E94270484E391E00E94D50301371E
:1017C000174108F0AACE86E191E0A5CE621B730B0B
:1017D00077FF03C0719561957109643F71400CF00A
:1017E0006ACF8091730290E0FC01EE0FFF1FEA5A6E
:1017F000FD4F3287218701966AE070E00E947B0CE2
:10180000382F80937302811103C081E080937402AA
:101810008091740281113AE0EFE5F2E020E060E0AF
:1018200070E0CB01231741F041915191640F751F76
:10183000811D911D2F5FF6CF30E050E040E00E9407
:101840008F0C49015A018091750290917602892B83
:1018500021F4309376022093750220917502309125
:101860007602A5E5B0E00E94B10C6B017C01A501F8
:10187000940144275527AFE0B0E00E94C70C6C0DDF
:101880007D1D8E1D9F1D24E630E040E050E00E944B
:101890008F0CC9010CCF84E6D82E71CF90E080E088
:1018A00049CE821B930B58CE241B350B6BCEDB012C
:1018B0008F939F930E94C70CBF91AF91A29F800D01
:1018C000911DA39F900DB29F900D11240895AA1B06
:1018D000BB1B51E107C0AA1FBB1FA617B70710F01B
:1018E000A61BB70B881F991F5A95A9F7809590954D
:1018F000BC01CD01089597FB072E16F4009407D084
:1019000077FD09D00E94670C07FC05D03EF4909546
:1019100081959F4F0895709561957F4F0895A1E23D
:101920001A2EAA1BBB1BFD010DC0AA1FBB1FEE1F59
:10193000FF1FA217B307E407F50720F0A21BB30BA4
:10194000E40BF50B661F771F881F991F1A9469F720
:1019500060957095809590959B01AC01BD01CF017C
:101960000895A29FB001B39FC001A39F700D811D78
:101970001124911DB29F700D811D1124911D089598
:101980000E94B10CB7FF0895821B930B08950E942B
:10199000B10CA59F900DB49F900DA49F800D911D3B
:1019A00011240895B7FF0C94C70C0E94C70C821B2A
:1019B000930B0895EE0FFF1F0590F491E02D09940D
:1019C0005058BB27AA270E94F80C0C94AB0E0E941B
:1019D0009D0E38F00E94A40E20F039F49F3F19F4B8
:1019E00026F40C949A0E0EF4E095E7FB0C946B0E23
:1019F000E92F0E94BC0E58F3BA17620773078407D9
:101A0000950720F079F4A6F50C94F60E0EF4E09507
:101A10000B2EBA2FA02D0B01B90190010C01CA01A8
:101A2000A0011124FF27591B99F0593F50F4503E53
:101A300068F11A16F040A22F232F342F4427585F45
:101A4000F3CF469537952795A795F0405395C9F75D
:101A50007EF41F16BA0B620B730B840BBAF0915015
:101A6000A1F0FF0FBB1F661F771F881FC2F70EC0B4
:101A7000BA0F621F731F841F48F487957795679587
:101A8000B795F7959E3F08F0B0CF9395880F08F073
:101A90009927EE0F9795879508950E94470E08F4B1
:101AA00081E008950E94660D0C94AB0E0E94A40E76
:101AB00058F00E949D0E40F029F45F3F29F00C94ED
:101AC0006B0E51110C94F70E0C949A0E0E94BC0EE2
:101AD00068F39923B1F3552391F3951B550BBB275D
:101AE000AA2762177307840738F09F5F5F4F220FA2
:101AF000331F441FAA1FA9F335D00E2E3AF0E0E899
:101B000032D091505040E695001CCAF72BD0FE2FE2
:101B100029D0660F771F881FBB1F26173707480776
:101B2000AB07B0E809F0BB0B802DBF01FF2793582E
:101B30005F4F3AF09E3F510578F00C946B0E0C9479
:101B4000F70E5F3FE4F3983ED4F38695779567955B
:101B5000B795F7959F5FC9F7880F911D9695879563
:101B600097F90895E1E0660F771F881FBB1F621782
:101B700073078407BA0720F0621B730B840BBA0B40
:101B8000EE1F88F7E09508950E94C40E88F09F57D5
:101B900098F0B92F9927B751B0F0E1F0660F771F91
:101BA000881F991F1AF0BA95C9F714C0B13091F087
:101BB0000E94F60EB1E008950C94F60E672F782F70
:101BC0008827B85F39F0B93FCCF38695779567954C
:101BD000B395D9F73EF490958095709561957F4FB8
:101BE0008F4F9F4F0895E89409C097FB3EF490955E
:101BF0008095709561957F4F8F4F9F4F9923A9F0E6
:101C0000F92F96E9BB279395F69587957795679574
:101C1000B795F111F8CFFAF4BB0F11F460FF1BC0B8
:101C20006F5F7F4F8F4F9F4F16C0882311F096E94B
:101C300011C0772321F09EE8872F762F05C06623F9
:101C400071F096E8862F70E060E02AF09A95660FB2
:101C5000771F881FDAF7880F9695879597F908956B
:101C60000E94DE0E90F09F3748F4911116F00C940C
:101C7000F70E60E070E080E89FEB089526F41B16F5
:101C8000611D711D811D0C94710E0C948C0E990FA9
:101C90000008550FAA0BE0E8FEEF16161706E80736
:101CA000F907C0F012161306E407F50798F0621B57
:101CB000730B840B950B39F40A2661F0232B242B2C
:101CC000252B21F408950A2609F4A140A6958FEF4B
:101CD000811D811D089597F99F6780E870E060E09D
:101CE0000895882371F4772321F09850872B762F5D
:101CF00007C0662311F499270DC09051862B70E020
:101D000060E02AF09A95660F771F881FDAF7880F30
:101D10009695879597F908959F3F31F0915020F45B
:101D2000879577956795B795880F911D96958795B7
:101D300097F908959FEF80EC089500240A941616F1
:101D4000170618060906089500240A9412161306A9
:101D5000140605060895092E0394000C11F4882337
:101D600052F0BB0F40F4BF2B11F460FF04C06F5F53
:101D70007F4F8F4F9F4F089557FD9058440F551F29
:101D800059F05F3F71F04795880F97FB991F61F0FD
:101D90009F3F79F087950895121613061406551F74
:101DA000F2CF4695F1DF08C0161617061806991FE0
:101DB000F1CF869571056105089408950E94C40EBF
:101DC000A0F0BEE7B91788F4BB279F3860F4161659
:101DD000B11D672F782F8827985FF7CF8695779565
:101DE0006795B11D93959639C8F30895E894BB277C
:101DF00066277727CB0197F908950E94470E08F4CC
:101E00008FEF089516F00C948C0E0C949A0E689433
:101E10000C946B0E0E94C40EA8F39923C1F3AEF389
:101E2000DF93CF931F930F93FF92C92FDD27882352
:101E30002AF02197660F771F881FDAF720E030E03D
:101E400040E85FEB9FE3883920F0803E38F0219630
:101E50008F770E94E10CE8E6F0E004C00E94E10CFC
:101E6000E5E9F0E00E94C40F8B01BE01EC01FB2EFE
:101E70006F5771097595771F880B990B0E94F50DA7
:101E800028E132E741E35FE30E94650FAF2D98013F
:101E9000AE01FF900F911F91CF91DF910E94F80C3E
:101EA0000C94AB0E0E94650F0C94AB0E0E949D0E1D
:101EB00038F00E94A40E20F0952311F00C946B0EC4
:101EC0000C949A0E11240C94F70E0E94BC0E70F321
:101ED000959FC1F3950F50E0551F629FF001729FCF
:101EE000BB27F00DB11D639FAA27F00DB11DAA1FDE
:101EF000649F6627B00DA11D661F829F2227B00D2B
:101F0000A11D621F739FB00DA11D621F839FA00DB5
:101F1000611D221F749F3327A00D611D231F849F05
:101F2000600D211D822F762F6A2F11249F5750405C
:101F30009AF0F1F088234AF0EE0FFF1FBB1F661FD7
:101F4000771F881F91505040A9F79E3F510580F0A0
:101F50000C946B0E0C94F70E5F3FE4F3983ED4F3B1
:101F6000869577956795B795F795E7959F5FC1F744
:101F7000FE2B880F911D9695879597F908950E94DD
:101F8000470E880B990B0895DF93CF931F930F9300
:101F9000FF92EF92DF927B018C01689406C0DA2EEB
:101FA000EF010E94650FFE01E894A59125913591FE
:101FB00045915591A6F3EF010E94F80CFE0197019F
:101FC000A801DA9469F7DF90EF90FF900F911F91CD
:0A1FD000CF91DF910895F894FFCF40
:101FDA0094029402FFFF7F7F000080000000C07F10
:101FEA00000F1C28343F49525A60645A015D016A45
:101FFA000177018401FFFF7F7F000080001D0C6CC8
:10200A0007173B1D0C6C07173B00000000390399AA
:10201A0002C602A103F702D502E9020D0A006E61A7
:10202A006E00696E66006F7666004F4B0044495336
:10203A00434F4E4E45435445440053484F52545F14
:10204A00544F5F474E440053484F52545F544F5FBA
:0C205A0056434300494E56414C49440097
:00000001FF
