:100000000C945F010C94AD050C9486050C9487014B
:100010000C9487010C9487010C9487010C94870140
:100020000C9487010C9487010C9487010C94870130
:100030000C9487010C9487010C9487010C94870120
:100040000C943C050C9487010C94FA050C94D4058F
:100050000C9487010C9487010C9487010C94870100
:100060000C9487010C94870108000000BE9224497B
:10007000123EABAAAA2ABECDCCCC4C3E00000080DA
:10008000BEABAAAAAA3E00000000BF000000803F4D
:100090000000000000084178D3BB4387D1133D190D
:1000A0000E3CC3BD4282AD2B3E68EC8276BED98F3A
:1000B000E1A93E4C80EFFFBE01C4FF7F3F0000007E
:1000C00000003A0020002F002F00C2B04320402043
:1000D0000053797374656D20676F696E6720746F64
:1000E00020736C6565702E2E2E002055736564207C
:1000F00052414D20617070726F783A200020467234
:1001000065652052414D3A20002048656170207598
:100110007365643A200020204261747465726965D9
:1001200073206E65656420746F2072656368617208
:10013000676521005629002520280020426174743B
:100140006572793A20004572726F7220696E207470
:10015000656D70657261747572652073656E736F1D
:10016000723A200020204D61782074656D706572B0
:1001700061747572653A200020204D696E207465A7
:100180006D70657261747572653A20002044616912
:100190006C79205374617473200020204D617820A5
:1001A00074656D70657261747572653A2000202007
:1001B0004D696E2074656D70657261747572653A13
:1001C0002000204C69666574696D65205374617404
:1001D000732000C2B04300202054656D70657261C9
:1001E000747572653A20002043757272656E7420D2
:1001F000537461747320003D2A3D2A3D2A3D2045F9
:100200004E44203D2A3D2A3D2A3D0A002D2A2D2A12
:100210002D2A2D2053797374656D20537461747386
:10022000202D2A2D2A2D2A2D002D2A2D2A2D2A2D4A
:1002300020456E7669726F6E6D656E7420537461C1
:100240007473202D2A2D2A2D2A2D003D2A3D2A3D6A
:100250002A3D205354415254203D2A3D2A3D2A3DF7
:100260000000000000240027002A000000000025F4
:100270000028002B000000000023002600290004B5
:10028000040404040404040202020202020303033D
:100290000303030102040810204080010204081037
:1002A00020010204081020000000080002010000E4
:1002B0000304070000000000000000002C061124C9
:1002C0001FBECFEFD8E0DEBFCDBF11E0A0E0B1E0B0
:1002D000EAE3FFE102C005900D92AC38B107D9F70F
:1002E00022E0ACE8B1E001C01D92A039B207E1F70D
:1002F00011E0CFE5D1E004C02197FE010E948A0CF5
:10030000CE35D107C9F70E94D2060C949B0F0C94EE
:100310000000833081F028F4813099F08230A9F018
:1003200008958730A9F08830C9F08430B1F4809105
:1003300080008F7D03C0809180008F778093800044
:10034000089584B58F7784BD089584B58F7DFBCFE4
:100350008091B0008F778093B00008958091B000B5
:100360008F7DF9CFCF93DF93282F30E0F901E95546
:10037000FD4F8491F901ED56FD4FD491F901E158FB
:10038000FD4FC491CC23A1F081110E948901EC2F73
:10039000F0E0EE0FFF1FEB58FD4FA591B491EC91EB
:1003A000ED2381E090E009F480E0DF91CF910895A2
:1003B00080E090E0FACF809138020E94B20121E003
:1003C00030E0892B11F030E020E030933C022093A4
:1003D0003B0280919A01811110929A0108951F9316
:1003E000CF93DF93282F30E0F901E955FD4F849139
:1003F000F901ED56FD4FD491F901E158FD4FC4913B
:10040000CC23A9F0162F81110E948901EC2FF0E076
:10041000EE0FFF1FE559FD4FA591B4918FB7F894EA
:10042000EC91111108C0D095DE23DC938FBFDF91D2
:10043000CF911F910895DE2BF8CFCF93DF9390E0FB
:10044000FC01ED56FD4F249181589D4FFC01849194
:100450008823D1F090E0880F991FFC01EF59FD4FE0
:10046000A591B491FC01E559FD4FC591D49162303D
:1004700071F49FB7F8943C91822F809583238C93DD
:10048000E8812E2B28839FBFDF91CF9108958FB7EE
:10049000F894EC912E2B2C938FBFF6CF8E3008F072
:1004A0008E508770806480937C0080917A00806495
:1004B00080937A0080917A0086FDFCCF809178004D
:1004C000909179000895089581E080939A010895AC
:1004D000AF92BF92CF92DF92EF92FF920F931F9352
:1004E000CF93DF936C017B018B01040F151FEB0190
:1004F0005E01AE18BF08C017D10759F06991D60147
:10050000ED91FC910190F081E02DC6010995892BB8
:1005100079F7C501DF91CF911F910F91FF90EF9077
:10052000DF90CF90BF90AF900895FC01538D448D24
:10053000252F30E0842F90E0821B930B541710F08E
:10054000CF96089501970895FC01918D828D98179B
:1005500061F0A28DAE0FBF2FB11D5D968C91928D73
:100560009F5F9F73928F90E008958FEF9FEF0895A4
:10057000FC01918D828D981731F0828DE80FF11D6D
:10058000858D90E008958FEF9FEF0895FC01918D88
:10059000228D892F90E0805C9F4F821B91098F7381
:1005A000992708958BE991E00E94C60221E0892BEA
:1005B00009F420E0822F089580E090E0892B29F053
:1005C0000E94D20281110C9400000895FC01A48DB8
:1005D000A80FB92FB11DA35ABF4F2C91848D90E065
:1005E00001968F739927848FA689B7892C93A08948
:1005F000B1898C91837080648C93938D848D9813D2
:1006000006C00288F389E02D80818F7D8083089564
:10061000EF92FF920F931F93CF93DF93EC0181E052
:10062000888F9B8D8C8D98131AC0E889F9898081F9
:1006300085FF15C09FB7F894EE89FF896083E8892C
:10064000F98980818370806480839FBF81E090E01E
:10065000DF91CF911F910F91FF90EF900895F62EAB
:100660000B8D10E00F5F1F4F0F731127E02E8C8D45
:100670008E110CC00FB607FCFACFE889F98980818A
:1006800085FFF5CFCE010E94E602F1CFEB8DEC0F96
:10069000FD2FF11DE35AFF4FF0829FB7F8940B8FA7
:1006A000EA89FB8980818062CFCF0F931F93CF931C
:1006B000DF938C01D0E0C0E0F801EC0FFD1F6491E6
:1006C000662341F08BE991E00E940803892B11F029
:1006D0002196F2CFCE01DF91CF911F910F91089516
:1006E000CF93DF93EC01888D8823B9F0AA89BB8969
:1006F000E889F9898C9185FD03C0808186FD0DC054
:100700000FB607FCF7CF8C9185FFF2CF808185FF74
:10071000EDCFCE010E94E602E9CFDF91CF9108959F
:100720008EBD00000DB407FEFDCF8EB50895FC010F
:1007300001900020E9F73197AF01481B590BBC012C
:100740008BE991E00C946802CF93DF930E945503EC
:10075000EC018BE491E00E9497038C0F9D1FDF91C9
:10076000CF9108958F929F92AF92BF920F931F9354
:10077000CF93DF93CDB7DEB7A1970FB6F894DEBF66
:100780000FBECDBF19A2423008F44AE08E010F5DC2
:100790001F4F842E912CB12CA12CA50194010E94F5
:1007A0002B0CE62FB901CA01EA30F4F4E05DD80160
:1007B000EE938D01232B242B252B79F790E080E0FD
:1007C000109719F0CD010E949703A1960FB6F894E7
:1007D000DEBF0FBECDBFDF91CF911F910F91BF90B4
:1007E000AF909F908F900895E95CE1CF4F925F9218
:1007F0006F927F928F929F92AF92BF92CF92DF9231
:10080000EF92FF920F931F93CF936B017C01742E95
:10081000AC019B010E946F0F882399F08EE491E058
:10082000CF911F910F91FF90EF90DF90CF90BF90ED
:10083000AF909F908F907F906F905F904F900C94AF
:10084000970346015701E894B7F82FEF3FEF4FE7C2
:100850005FE7C501B4010E946F0F81110DC02FEF3A
:100860003FEF4FE75FE7C501B4010E94FD0C18168A
:100870001CF482E591E0D4CF2FEF3FEF4FE75FE428
:10088000C701B6010E94AD0E18161CF486E591E072
:10089000C7CF2FEF3FEF4FE75FECC701B6010E94D4
:1008A000FD0C87FDF3CF20E030E0A901C701B601C0
:1008B0000E94FD0C10E000E087FF0AC06DE28BE9AA
:1008C00091E00E9408038C01F7FAF094F7F8F09495
:1008D000C0E060E070E080E09FE37C1641F020E043
:1008E00030E040E251E40E94020DCF5FF6CFA70155
:1008F00096010E94910C2B013C010E94740D4B014A
:100900005C014AE00E94B2037C01E00EF11ECC23A0
:10091000C1F1C501B4010E94A30D9B01AC01C3014B
:10092000B2010E94900C4B015C016EE28BE991E0F8
:100930000E940803E80EF91EC15018F120E030E0D3
:1009400040E251E4C501B4010E94020F2B013C01B9
:100950000E94740D4B01B12CA12C4AE0C501B401D9
:100960000E94B203E80EF91EC501B4010E94A30D56
:100970009B01AC01C301B2010E94900C4B015C01D0
:10098000DBCFC701CF911F910F91FF90EF90DF90C8
:10099000CF90BF90AF909F908F907F906F905F901F
:1009A0004F900895CF93DF93BC0190E080E04AE040
:1009B0000E94B203EC018BE491E00E9497038C0F3C
:1009C0009D1FDF91CF9108954F925F926F927F921A
:1009D000AF92CF92EF92FF920F93CF932A013B01F8
:1009E000C22F0E94550342E0C301B2010E94F603E8
:1009F0008AEC90E00E9455036C2F70E090E080E05C
:100A00004AE00E94B20388EC90E00E945503602FF8
:100A100070E090E080E04AE00E94B20386EC90E053
:100A20000E945503B70190E080E04AE00E94B203C3
:100A300084EC90E00E9455036C2D70E090E080E023
:100A40004AE00E94B20382EC90E00E9455036A2DB6
:100A500070E090E080E04AE00E94B2038BE491E015
:100A6000CF910F91FF90EF90CF90AF907F906F90CC
:100A70005F904F900C9497031F920F920FB60F92B6
:100A800011242F933F938F939F93AF93BF938091A4
:100A9000960190919701A0919801B09199013091A0
:100AA000950123E0230F2D3758F50196A11DB11DA7
:100AB000209395018093960190939701A0939801BC
:100AC000B09399018091910190919201A09193012D
:100AD000B09194010196A11DB11D80939101909355
:100AE0009201A0939301B0939401BF91AF919F9114
:100AF0008F913F912F910F900FBE0F901F901895DF
:100B000026E8230F0296A11DB11DD2CF1F920F928E
:100B10000FB60F9211242F933F934F935F936F93D0
:100B20007F938F939F93AF93BF93EF93FF93E09146
:100B30000201F09103010995FF91EF91BF91AF91EF
:100B40009F918F917F916F915F914F913F912F91E5
:100B50000F900FBE0F901F9018951F920F920FB617
:100B60000F9211242F933F934F935F936F937F9333
:100B70008F939F93AF93BF93EF93FF93E091000107
:100B8000F09101010995FF91EF91BF91AF919F9174
:100B90008F917F916F915F914F913F912F910F9026
:100BA0000FBE0F901F9018951F920F920FB60F92C5
:100BB00011242F933F934F935F936F937F938F9362
:100BC0009F93AF93BF93EF93FF938BE991E00E94C4
:100BD000E602FF91EF91BF91AF919F918F917F912D
:100BE0006F915F914F913F912F910F900FBE0F909A
:100BF0001F9018951F920F920FB60F9211242F93EA
:100C00008F939F93EF93FF93E091AB01F091AC0131
:100C10008081E091B101F091B20182FD1BC0908111
:100C20008091B4018F5F8F732091B501821741F0DD
:100C3000E091B401F0E0E556FE4F958F8093B4014A
:100C4000FF91EF919F918F912F910F900FBE0F9079
:100C50001F9018958081F4CFEBE9F1E013821282A6
:100C600088EE93E0A0E0B0E084839583A683B78309
:100C70008DE391E09183808385EC90E09587848774
:100C800084EC90E09787868780EC90E0918B808B56
:100C900081EC90E0938B828B82EC90E0958B848B3F
:100CA00086EC90E0978B868B118E128E138E148EAD
:100CB000E9E7F2E08EE0808380E090E7A9E1B6E426
:100CC00081839283A383B48380E090E4ACE1B6E4B3
:100CD00085839683A783B08780E090E0A8ECB1E499
:100CE00081879287A387B48780E090EEA6E7B5E47A
:100CF00085879687A787B08B84E090E0928B818B65
:100D0000E6E5F2E08FE080838AE090E0A0E0B0E0EA
:100D100081839283A383B4838FE090E0A0E0B0E06E
:100D200085839683A783B087158E168E10A2178EA3
:100D300012A211A28AE080935502EFE3F2E08FEF56
:100D40009FEFAFE7BFE782839383A483B58380E0FF
:100D500090E0A0E8B0E086839783A087B1875DE14B
:100D600052874CE043872CE637E03587248797E1AC
:100D700096878BE38787508B418B338B228B948BA9
:100D8000858B80E098E090933E0280933D02E8E3FB
:100D9000F2E083E0808382E390E092838183148297
:100DA00013820895CF93DF93CDB7DEB7A2970FB626
:100DB000F894DEBF0FBECDBF789484B5826084BD49
:100DC00084B5816084BD85B5826085BD85B581604F
:100DD00085BD80916E00816080936E0010928100CD
:100DE0008091810082608093810080918100816088
:100DF0008093810080918000816080938000809149
:100E0000B10084608093B1008091B00081608093D4
:100E1000B00080917A00846080937A0080917A009B
:100E2000826080937A0080917A00816080937A005A
:100E300080917A00806880937A001092C100E091DE
:100E4000AB01F091AC0182E08083E091A701F091C9
:100E5000A8011082E091A901F091AA018FEC808392
:100E60001092B301E091AF01F091B00186E0808370
:100E7000E091AD01F091AE01808180618083E091CD
:100E8000AD01F091AE01808188608083E091AD0179
:100E9000F091AE01808180688083E091AD01F09196
:100EA000AE0180818F7D8083EFE5F2E01192119297
:100EB00002E0E337F007D1F761E0809155020E942C
:100EC0001D0261E0809155020E94EF011FB7F89466
:100ED00080918C01811127C0E9E8F2E08491EDE96D
:100EE000F2E09491E82FF0E0EE0FFF1FEF59FD4F75
:100EF000A591B491EC91E92321F461E08AE00E948C
:100F0000EF0161E08AE00E941D028CB580618CBD1A
:100F10008CB580648CBD61E08DE00E941D0261E0B3
:100F20008BE00E941D0280918C018F5F80938C0169
:100F30001FBF62E0809138020E941D02809138023A
:100F40000E94B20121E030E0892B11F030E020E076
:100F500030933C0220933B029E012B5E3F4F3E8B21
:100F60002D8B0E94DB0180913B0290913C02892BEA
:100F700009F050C081ED90E00E94A40380913802F6
:100F80000E94B201892B09F443C08BE991E00E94D1
:100F9000700320917A0010927A0083B7817F846079
:100FA00083BFF89483B7816083BF80913802823019
:100FB00009F4CAC0833061F484E692E0909303019F
:100FC0008093020180916900837F80936900E99A90
:100FD0007894889583B78E7F83BF80913802823062
:100FE00009F4BFC0833061F4E99881E090E0880F94
:100FF000991FFC01E050FF4F03E612E011830083CC
:1010000020937A0021E030E030933C0220933B02B1
:101010000E94DB012FB7F89480919601909197017F
:10102000A0919801B09199012FBF40918D015091ED
:101030008E0160918F0170919001411551056105FC
:10104000710571F08C019D01041B150B260B370BEC
:10105000B901A801403157426105710508F433C355
:1010600080938D0190938E01A0938F01B093900196
:1010700080913B0290913C02892B09F424C38BE4BC
:1010800092E00E94A40389E292E00E94A4030091EE
:10109000410210914202B0904302D0904402A090CD
:1010A0004502C0904602E0904702F090480220912D
:1010B0004902298F30914A023A8F80914B029091D8
:1010C0004C02988F8F8B90914D029C8FE0914E0235
:1010D000ED8FF0914F02FB8F209150022E8F2090C8
:1010E000510230905202309153023F8F809154024E
:1010F00088A384E1E5E2F1E0DE01119601900D9212
:101100008A95E1F7809179020E944E02009769F575
:1011100082E090E090938B0280938A0202E010E0DC
:1011200086E491E00E945503000F111FF801E55E6F
:10113000FE4F80819181009711F00E9497038BE40C
:1011400091E00E94970384C1E4E6F2E0F09301018C
:10115000E0930001809169008C7F80936900E89A98
:1011600037CFE89890E080E042CF8F3FE3E09E07E2
:1011700048F083E090E090938B0280938A0203E032
:1011800010E0CECFBC0190E080E00E94A30D2B01C7
:101190003C01AC019B0160E070EC8FE794E40E949D
:1011A000900C9B01AC01C301B2010E94020D209181
:1011B0007A0230917B0240917C0250917D020E9424
:1011C000020F20917E0230917F0240918002509167
:1011D00081020E94020D0E94BA0E20918602309177
:1011E000870240918802509189020E94020D2B01D2
:1011F0003C0123E333E948E853E4609182027091B3
:10120000830280918402909185020E94910C9B013F
:10121000AC0160E070E080E89FE30E94020DA30152
:1012200092010E94910C9B01AC0160E070E080E8AB
:101230009FE30E94020D10928B0210928A0223E318
:1012400033E948E853E40E94900C20E73EEC48E87C
:101250005FE30E94020F9B01AC010E94910C20E011
:1012600030E040E05FE30E94910C0E94E00D20E03E
:1012700030E040E05FE30E94020F2B013C0140920E
:101280000C0150920D0160920E0170920F0187EED9
:1012900091E00E94A40387ED91E00E9455036091C4
:1012A0000C0170910D0180910E0190910F0142E0AF
:1012B0000E94F60383ED91E00E94A40320910801AF
:1012C0003091090140910A0150910B01C301B20113
:1012D0000E94AD0E181644F4409208015092090184
:1012E00060920A0170920B01209104013091050176
:1012F0004091060150910701C301B2010E94FD0C0B
:1013000087FF08C0409204015092050160920601D7
:101310007092070140900401509005016090060111
:10132000709007018090080190900901F0910A01E6
:10133000F9A320910B012AA32A2D3C2DA7016A2D88
:101340007C2DC7010E946F0F8111CAC12A2D3C2D2F
:10135000A701B40189A19AA10E94AD0E18160CF440
:10136000CCC18A2C9C2CE9A2FAA298014B2D5D2DB0
:10137000B8018B2D9D2D0E946F0F8111CBC198015B
:101380004B2D5D2DB201C3010E94FD0C87FDC2C132
:1013900028016B2C7D2C81E58CBD1DBC60E080910B
:1013A00055020E94EF0183E00E94900381E00E94B9
:1013B00090038E010F5F1F4F80E00E949003F801A1
:1013C00081938F012D893E892E173F07A9F761E090
:1013D000809155020E94EF0182EC91E00E94A403EB
:1013E000EB84FC8449815A816B817C81AE84CD84FD
:1013F0000A8529858EEA91E00E94E404E988FA884A
:101400004D815E816F817885AC88CB8808892F8576
:101410008AE991E00E94E4048CE891E00E94A40330
:10142000AD8CCC8CEF88F88C0A8D298DA201B3018C
:1014300088E791E00E94E404A8A0CF8C71010E8D92
:101440002B8DA40169A17AA184E691E00E94E404B5
:101450008CE092E00E94A403809156020E944E020A
:1014600080905B0290905C02A0905D02B0905E0262
:10147000C0905702D0905802E0905902F0905A0262
:10148000C80CD91CEA1CFB1C28E833E1DC010E94D3
:101490005C0C2FEF33E040E050E00E942B0CCA01BF
:1014A000B901A70196010E94070CA50194010E94B1
:1014B0002B0CB90190E080E00E94A30D20E030E009
:1014C0004AE754E40E94020D4B015C0180915602F0
:1014D0000E944E0240905B0250905C0260905D0260
:1014E00070905E02C0905702D0905802E09059026E
:1014F000F0905A02C40CD51CE61CF71C28E833E116
:10150000DC010E945C0C2FEF33E040E050E00E94D1
:101510002B0CCA01B901A70196010E94070CA30177
:1015200092010E942B0CC9016091770270917802A0
:101530006115710509F0FBC03093760220937502A6
:101540009093780280937702803DF0E29F0708F045
:1015500053C110E0813707E1900708F451C09C01A6
:1015600020573741A8EEB3E00E944D0C20E639E049
:1015700040E050E00E942B0CAEEFBFEF0E94710CD8
:101580006B017C0118EBC10E1BE0D11EE11CF11CAC
:10159000CA01B9010E94070CA70196010E94070C1D
:1015A0002B013C0120E031EE45EF55E00E942B0C71
:1015B0002A3008F021C1E22FF0E0E05FFE4F1081F9
:1015C000E180E11AFF08C301B20120E432E44FE0F8
:1015D00050E00E942B0CCA01B90124E630E040E043
:1015E00050E00E942B0CE69E9001E79E300DF69E87
:1015F000300D1124C90164E670E00E94170C160F2B
:101600008BE391E00E945503612F70E090E080E051
:101610004AE00E94B20387E391E00E94550342E052
:10162000C501B4010E94F60384E391E00E94A40383
:1016300020E030E040EC50E4C501B4010E94FD0C14
:10164000181624F086E191E00E94A40389E091E05D
:101650000E94550380918C0290918D02009709F4AD
:10166000CDC0805992400E94D2048DEF90E00E943C
:10167000550320918C0230918D028DB79EB72115B4
:10168000310509F0BEC0805992400E94D2048AEE12
:1016900090E00E94550380913D0290913E0240915E
:1016A0008C0250918D022DB73EB74115510509F0BE
:1016B000ABC020593240821B930B0E94D20487EFAB
:1016C00091E00E94A40380E090E0892B09F449CCCA
:1016D0000E94D202882309F444CC0E9400003CCC32
:1016E0003BE338A387E18F8F7AEE272E77E0372E02
:1016F0009CE09E8FEFE1EB8F38CEFBE3F8A327E170
:101700002F8F6AEE262E67E0362E3CE03E8F8FE16B
:101710008B8F2BCE1BE31D8F17E11C8F2AEE37E03A
:10172000388F2F8B1CE01A8F1FE1198F34CE621B6C
:10173000730B77FF03C0719561957109643F714028
:101740000CF0FECE8091730290E0FC01EE0FFF1FC3
:10175000EA5AFD4F3287218701966AE070E00E94C5
:10176000170C382F80937302811103C081E080939E
:1017700074028091740281113AE0EFE5F2E020E01A
:1017800060E070E0CB01231741F041915191640F6B
:10179000751F811D911D2F5FF6CF30E050E040E0B6
:1017A0000E942B0C69017A0180917502909176025A
:1017B000892B21F4309376022093750220917502D3
:1017C00030917602A5E5B0E00E944D0C2B013C0162
:1017D000A701960144275527AFE0B0E00E94630CB3
:1017E000640D751D861D971D24E630E040E050E035
:1017F0000E942B0CC901A0CE14E602CF90E080E03D
:1018000032CF821B930B41CF241B350B54CFDB010E
:101810008F939F930E94630CBF91AF91A29F800D05
:10182000911DA39F900DB29F900D1124089597FBD9
:10183000072E16F4009407D077FD09D00E94760C8D
:1018400007FC05D03EF4909581959F4F08957095C3
:1018500061957F4F0895A1E21A2EAA1BBB1BFD01C3
:101860000DC0AA1FBB1FEE1FFF1FA217B307E4077F
:10187000F50720F0A21BB30BE40BF50B661F771FD7
:10188000881F991F1A9469F76095709580959095B7
:101890009B01AC01BD01CF010895A29FB001B39F90
:1018A000C001A39F700D811D1124911DB29F700D69
:1018B000811D1124911D08950E944D0CB7FF0895BC
:1018C000821B930B08950E944D0CA59F900DB49F11
:1018D000900DA49F800D911D11240895B7FF0C94C5
:1018E000630C0E94630C821B930B0895AA1BBB1B05
:1018F00051E107C0AA1FBB1FA617B70710F0A61B10
:10190000B70B881F991F5A95A9F780959095BC0130
:10191000CD010895EE0FFF1F0590F491E02D09947D
:101920005058BB27AA270E94A80C0C945B0E0E945B
:101930004D0E38F00E94540E20F039F49F3F19F4F8
:1019400026F40C944A0E0EF4E095E7FB0C941B0E63
:10195000E92F0E946C0E58F3BA17620773078407C9
:10196000950720F079F4A6F50C94A60E0EF4E095F8
:101970000B2EBA2FA02D0B01B90190010C01CA0149
:10198000A0011124FF27591B99F0593F50F4503EF4
:1019900068F11A16F040A22F232F342F4427585FE6
:1019A000F3CF469537952795A795F0405395C9F7FE
:1019B0007EF41F16BA0B620B730B840BBAF09150B6
:1019C000A1F0FF0FBB1F661F771F881FC2F70EC055
:1019D000BA0F621F731F841F48F487957795679528
:1019E000B795F7959E3F08F0B0CF9395880F08F014
:1019F0009927EE0F9795879508950E94F70D08F4A3
:101A000081E008950E94160D0C945B0E0E94540E06
:101A100058F00E944D0E40F029F45F3F29F00C94DD
:101A20001B0E51110C94A70E0C944A0E0E946C0EC2
:101A300068F39923B1F3552391F3951B550BBB27FD
:101A4000AA2762177307840738F09F5F5F4F220F42
:101A5000331F441FAA1FA9F335D00E2E3AF0E0E839
:101A600032D091505040E695001CCAF72BD0FE2F83
:101A700029D0660F771F881FBB1F26173707480717
:101A8000AB07B0E809F0BB0B802DBF01FF279358CF
:101A90005F4F3AF09E3F510578F00C941B0E0C946A
:101AA000A70E5F3FE4F3983ED4F38695779567954C
:101AB000B795F7959F5FC9F7880F911D9695879504
:101AC00097F90895E1E0660F771F881FBB1F621723
:101AD00073078407BA0720F0621B730B840BBA0BE1
:101AE000EE1F88F7E09508950E94740E88F09F57C6
:101AF00098F0B92F9927B751B0F0E1F0660F771F32
:101B0000881F991F1AF0BA95C9F714C0B13091F027
:101B10000E94A60EB1E008950C94A60E672F782FB0
:101B20008827B85F39F0B93FCCF3869577956795EC
:101B3000B395D9F73EF490958095709561957F4F58
:101B40008F4F9F4F0895E89409C097FB3EF49095FE
:101B50008095709561957F4F8F4F9F4F9923A9F086
:101B6000F92F96E9BB279395F69587957795679515
:101B7000B795F111F8CFFAF4BB0F11F460FF1BC059
:101B80006F5F7F4F8F4F9F4F16C0882311F096E9EC
:101B900011C0772321F09EE8872F762F05C066239A
:101BA00071F096E8862F70E060E02AF09A95660F53
:101BB000771F881FDAF7880F9695879597F908950C
:101BC0000E948E0E90F09F3748F4911116F00C94FD
:101BD000A70E60E070E080E89FEB089526F41B16E6
:101BE000611D711D811D0C94210E0C943C0E990FEA
:101BF0000008550FAA0BE0E8FEEF16161706E807D7
:101C0000F907C0F012161306E407F50798F0621BF7
:101C1000730B840B950B39F40A2661F0232B242BCC
:101C2000252B21F408950A2609F4A140A6958FEFEB
:101C3000811D811D089597F99F6780E870E060E03D
:101C40000895882371F4772321F09850872B762FFD
:101C500007C0662311F499270DC09051862B70E0C0
:101C600060E02AF09A95660F771F881FDAF7880FD1
:101C70009695879597F908959F3F31F0915020F4FC
:101C8000879577956795B795880F911D9695879558
:101C900097F908959FEF80EC089500240A94161692
:101CA000170618060906089500240A94121613064A
:101CB000140605060895092E0394000C11F48823D8
:101CC00052F0BB0F40F4BF2B11F460FF04C06F5FF4
:101CD0007F4F8F4F9F4F089557FD9058440F551FCA
:101CE00059F05F3F71F04795880F97FB991F61F09E
:101CF0009F3F79F087950895121613061406551F15
:101D0000F2CF4695F1DF08C0161617061806991F80
:101D1000F1CF869571056105089408950E94740EAF
:101D2000A0F0BEE7B91788F4BB279F3860F41616F9
:101D3000B11D672F782F8827985FF7CF8695779505
:101D40006795B11D93959639C8F30895E894BB271C
:101D500066277727CB0197F908950E94F70D08F4BD
:101D60008FEF089516F00C943C0E0C944A0E689474
:101D70000C941B0E0E94740EA8F39923C1F3AEF3CA
:101D8000DF93CF931F930F93FF92C92FDD278823F3
:101D90002AF02197660F771F881FDAF720E030E0DE
:101DA00040E85FEB9FE3883920F0803E38F02196D1
:101DB0008F770E94910CE8E6F0E004C00E94910C3D
:101DC000E5E9F0E00E94740F8B01BE01EC01FB2EEF
:101DD0006F5771097595771F880B990B0E94A50D98
:101DE00028E132E741E35FE30E94150FAF2D980130
:101DF000AE01FF900F911F91CF91DF910E94A80C2F
:101E00000C945B0E0E94150F0C945B0E0E944D0EFD
:101E100038F00E94540E20F0952311F00C941B0E04
:101E20000C944A0E11240C94A70E0E946C0E70F3B1
:101E3000959FC1F3950F50E0551F629FF001729F6F
:101E4000BB27F00DB11D639FAA27F00DB11DAA1F7E
:101E5000649F6627B00DA11D661F829F2227B00DCB
:101E6000A11D621F739FB00DA11D621F839FA00D56
:101E7000611D221F749F3327A00D611D231F849FA6
:101E8000600D211D822F762F6A2F11249F575040FD
:101E90009AF0F1F088234AF0EE0FFF1FBB1F661F78
:101EA000771F881F91505040A9F79E3F510580F041
:101EB0000C941B0E0C94A70E5F3FE4F3983ED4F3F2
:101EC000869577956795B795F795E7959F5FC1F7E5
:101ED000FE2B880F911D9695879597F908950E947E
:101EE000F70D880B990B0895DF93CF931F930F93F2
:101EF000FF92EF92DF927B018C01689406C0DA2E8C
:101F0000EF010E94150FFE01E894A59125913591EE
:101F100045915591A6F3EF010E94A80CFE0197018F
:101F2000A801DA9469F7DF90EF90FF900F911F916D
:0A1F3000CF91DF910895F894FFCFE0
:101F3A0063026302FFFF7F7F000080000000C07F12
:101F4A00000F1C28343F49525A60645A015D016AE5
:101F5A000177018401FFFF7F7F000080001D0C6C68
:101F6A0007173B1D0C6C07173B00000000080368AD
:101F7A000295027003C602A402B8020D0A006E613D
:101F8A006E00696E66006F7666004F4B00444953D7
:101F9A00434F4E4E45435445440053484F52545FB5
:101FAA00544F5F474E440053484F52545F544F5F5B
:0C1FBA0056434300494E56414C49440038
:00000001FF
