:100000000C9462000C948A000C948A000C948A0070
:100010000C948A000C948A000C948A000C948A0038
:100020000C948A000C948A000C948A000C948A0028
:100030000C948A000C948A000C948A000C948A0018
:100040000C940F020C948A000C947F020C945902B9
:100050000C948A000C948A000C948A000C948A00F8
:100060000C948A000C948A0008000000BE92244977
:10007000123EABAAAA2ABECDCCCC4C3E00000080DA
:10008000BEABAAAAAA3E00000000BF000000803F4D
:100090000000000000084178D3BB4387D1133D190D
:1000A0000E3CC3BD4282AD2B3E68EC8276BED98F3A
:1000B000E1A93E4C80EFFFBE01C4FF7F3F0000007E
:1000C0000000B10211241FBECFEFD8E0DEBFCDBFCC
:1000D00011E0A0E0B1E0E8EDFFE002C005900D9274
:1000E000A038B107D9F722E0A0E8B1E001C01D9225
:1000F000A933B207E1F710E0C2E6D0E004C02197CF
:10010000FE010E942305C136D107C9F70E940603EC
:100110000C94EA070C9400003FB7F8948091850195
:1001200090918601A0918701B091880126B5A89B86
:1001300005C02F3F19F00196A11DB11D3FBFBA2F79
:10014000A92F982F8827BC01CD01620F711D811D39
:10015000911D42E0660F771F881F991F4A95D1F7BE
:100160000895AF92BF92CF92DF92EF92FF920F93DA
:100170001F93CF93DF936C017B018B01040F151F3D
:10018000EB015E01AE18BF08C017D10759F06991A5
:10019000D601ED91FC910190F081E02DC601099509
:1001A000892B79F7C501DF91CF911F910F91FF90B6
:1001B000EF90DF90CF90BF90AF900895FC01538DEA
:1001C000448D252F30E0842F90E0821B930B541731
:1001D00010F0CF96089501970895FC01918D828DBE
:1001E000981761F0A28DAE0FBF2FB11D5D968C9157
:1001F000928D9F5F9F73928F90E008958FEF9FEF96
:100200000895FC01918D828D981731F0828DE80F51
:10021000F11D858D90E008958FEF9FEF0895FC010B
:10022000918D228D892F90E0805C9F4F821B9109D8
:100230008F739927089589E891E00E940F0121E0CA
:10024000892B09F420E0822F089580E090E0892B2B
:1002500029F00E941B0181110C9400000895FC01FB
:10026000A48DA80FB92FB11DA35ABF4F2C91848D17
:1002700090E001968F739927848FA689B7892C9374
:10028000A089B1898C91837080648C93938D848DC7
:10029000981306C00288F389E02D80818F7D8083CA
:1002A0000895EF92FF920F931F93CF93DF93EC018A
:1002B00081E0888F9B8D8C8D98131AC0E889F9890D
:1002C000808185FF15C09FB7F894EE89FF89608310
:1002D000E889F98980818370806480839FBF81E091
:1002E00090E0DF91CF911F910F91FF90EF900895D3
:1002F000F62E0B8D10E00F5F1F4F0F731127E02EAE
:100300008C8D8E110CC00FB607FCFACFE889F989E5
:10031000808185FFF5CFCE010E942F01F1CFEB8DBB
:10032000EC0FFD2FF11DE35AFF4FF0829FB7F894B9
:100330000B8FEA89FB8980818062CFCFCF93DF93D7
:10034000EC01888D8823B9F0AA89BB89E889F989ED
:100350008C9185FD03C0808186FD0DC00FB607FC22
:10036000F7CF8C9185FFF2CF808185FFEDCFCE0155
:100370000E942F01E9CFDF91CF910895FC010190F8
:100380000020E9F73197AF01481B590BBC0189E800
:1003900091E00C94B1008F929F92AF92BF920F9315
:1003A0001F93CF93DF93CDB7DEB7A1970FB6F89425
:1003B000DEBF0FBECDBF19A2423008F44AE08E0165
:1003C0000F5D1F4F842E912CB12CA12CA5019401FF
:1003D0000E940105E62FB901CA01EA30F4F4E05D9C
:1003E000D801EE938D01232B242B252B79F790E058
:1003F00080E0109719F0CD010E94BE01A1960FB6C2
:10040000F894DEBF0FBECDBFDF91CF911F910F914A
:10041000BF90AF909F908F900895E95CE1CF1F92BD
:100420000F920FB60F9211242F933F938F939F93A8
:10043000AF93BF938091810190918201A09183013C
:10044000B09184013091800123E0230F2D3758F5BE
:100450000196A11DB11D209380018093810190938D
:100460008201A0938301B0938401809185019091D2
:100470008601A0918701B09188010196A11DB11D4F
:100480008093850190938601A0938701B0938801A2
:10049000BF91AF919F918F913F912F910F900FBE80
:1004A0000F901F90189526E8230F0296A11DB11DED
:1004B000D2CF1F920F920FB60F9211242F933F931A
:1004C0004F935F936F937F938F939F93AF93BF935C
:1004D000EF93FF9389E891E00E942F01FF91EF9144
:1004E000BF91AF919F918F917F916F915F914F914C
:1004F0003F912F910F900FBE0F901F9018951F9254
:100500000F920FB60F9211242F938F939F93EF9317
:10051000FF93E0919901F0919A018081E0919F0110
:10052000F091A00182FD1BC090818091A2018F5F9C
:100530008F732091A301821741F0E091A201F0E0B6
:10054000E757FE4F958F8093A201FF91EF919F9106
:100550008F912F910F900FBE0F901F901895808153
:10056000F4CFE9E8F1E01382128288EE93E0A0E094
:10057000B0E084839583A683B7838EE091E0918376
:10058000808385EC90E09587848784EC90E0978762
:10059000868780EC90E0918B808B81EC90E0938B50
:1005A000828B82EC90E0958B848B86EC90E0978B2D
:1005B000868B118E128E138E148EE6E2F2E08EE0A0
:1005C000808380E090E7A9E1B6E481839283A383EE
:1005D000B48380E090E4ACE1B6E485839683A7839E
:1005E000B08780E090E0A8ECB1E481879287A38790
:1005F000B48780E090EEA6E7B5E485879687A78765
:10060000B08B84E090E0928B818B0895789484B5D0
:10061000826084BD84B5816084BD85B5826085BDFE
:1006200085B5816085BD80916E00816080936E008C
:10063000109281008091810082608093810080917E
:10064000810081608093810080918000816080932F
:1006500080008091B10084608093B1008091B000EF
:1006600081608093B00080917A00846080937A00EA
:1006700080917A00826080937A0080917A00816014
:1006800080937A0080917A00806880937A0010923B
:10069000C100E0919901F0919A0182E08083E0919C
:1006A0009501F09196011082E0919701F0919801E7
:1006B0008FEC80831092A101E0919D01F0919E0149
:1006C00086E08083E0919B01F0919C0180818061B4
:1006D0008083E0919B01F0919C0180818860808300
:1006E000E0919B01F0919C01808180688083E09182
:1006F0009B01F0919C0180818F7D808340E0242EBE
:1007000040E0342E03E010E0C2E0D0E08091260209
:100710008E3008F08E508770806480937C008091CA
:100720007A00806480937A0080917A0086FDFCCF05
:100730006091780070917900161617060CF44AC083
:10074000D0933802C093370232E0E32EF12C8FE2CF
:1007500091E00E94BE01F701EE0FFF1FE050FF4F36
:1007600080819181009709F0B5C08CE291E00E94F0
:10077000BE010E948C004B015C0180E1C82E87E223
:10078000D82EE12CF12C0E948C00681979098A0975
:100790009B09683E734081059105A8F381E0C81A62
:1007A000D108E108F10828EE820E23E0921EA11C78
:1007B000B11CC114D104E104F10429F7211431045E
:1007C00009F4A4CF0E941B01882309F49FCF0E9443
:1007D00000009CCF6F3F23E0720744F01093380273
:1007E0000093370223E0E22EF12CB1CF072E000C4C
:1007F000880B990B0E943E066B017C01AC019B01AA
:1008000060E070EC8FE794E40E9429059B01AC0145
:10081000C701B6010E949B05209127023091280252
:100820004091290250912A020E94430720912B02F5
:1008300030912C0240912D0250912E020E949B0576
:100840000E94FB0620913302309134024091350220
:10085000509136020E949B056B017C0123E333E932
:1008600048E853E460912F02709130028091310288
:10087000909132020E942A059B01AC0160E070E079
:1008800080E89FE30E949B05A70196010E942A052C
:100890009B01AC0160E070E080E89FE30E949B0553
:1008A00023E333E948E853E40E9429056B017C0106
:1008B0004B015C011092380210923702AC019B018F
:1008C0000E94B007882349F08CE191E00E94BE01AC
:1008D00088E291E00E94BE0148CF26013701E894EA
:1008E00077F82FEF3FEF4FE75FE7C301B2010E94B8
:1008F000B00781110DC02FEF3FEF4FE75FE7C30156
:10090000B2010E94960518161CF480E291E0DECF39
:100910002FEF3FEF4FE75FE4C701B6010E94EE06FD
:1009200018161CF484E291E0D1CF2FEF3FEF4FE790
:100930005FECC701B6010E94960587FDF3CF20E06A
:1009400030E0A901C701B6010E94960587FF0BC0E0
:100950006DE289E891E00E94510146015701B7FA22
:10096000B094B7F8B0942AE037ED43EA5BE3C501F1
:10097000B4010E942A054B015C010E940D066B0127
:100980007C010E943C069B01AC01C501B4010E94A0
:1009900029054B015C014AE0C701B6010E94CB0169
:1009A0006EE289E891E00E94510120E030E040E2EF
:1009B00051E4C501B4010E9443074B015C010E9450
:1009C0000D066B01F12CE12C4AE0C701B6010E9433
:1009D000CB01C701B6010E943C069B01AC01C501D9
:1009E000B4010E94290520E030E040E251E40E9479
:1009F00043070E940D0690E080E04AE00E94CB0190
:100A000067CFA1E21A2EAA1BBB1BFD010DC0AA1FB6
:100A1000BB1FEE1FFF1FA217B307E407F50720F067
:100A2000A21BB30BE40BF50B661F771F881F991FE2
:100A30001A9469F760957095809590959B01AC012B
:100A4000BD01CF010895EE0FFF1F0590F491E02D39
:100A500009945058BB27AA270E9441050C94B4065C
:100A60000E94A60638F00E94AD0620F039F49F3FA0
:100A700019F426F40C94A3060EF4E095E7FB0C940D
:100A80009D06E92F0E94C50658F3BA17620773073F
:100A90008407950720F079F4A6F50C94E7060EF488
:100AA000E0950B2EBA2FA02D0B01B90190010C017E
:100AB000CA01A0011124FF27591B99F0593F50F496
:100AC000503E68F11A16F040A22F232F342F4427EE
:100AD000585FF3CF469537952795A795F0405395E6
:100AE000C9F77EF41F16BA0B620B730B840BBAF0B6
:100AF0009150A1F0FF0FBB1F661F771F881FC2F721
:100B00000EC0BA0F621F731F841F48F48795779534
:100B10006795B795F7959E3F08F0B0CF9395880FEE
:100B200008F09927EE0F9795879508950E9479060A
:100B300008F481E008950E94AF050C94B4060E9469
:100B4000AD0658F00E94A60640F029F45F3F29F058
:100B50000C949D0651110C94E8060C94A3060E9477
:100B6000C50668F39923B1F3552391F3951B550BF3
:100B7000BB27AA2762177307840738F09F5F5F4F70
:100B8000220F331F441FAA1FA9F335D00E2E3AF0AF
:100B9000E0E832D091505040E695001CCAF72BD0C7
:100BA000FE2F29D0660F771F881FBB1F2617370718
:100BB0004807AB07B0E809F0BB0B802DBF01FF274A
:100BC00093585F4F3AF09E3F510578F00C949D0684
:100BD0000C94E8065F3FE4F3983ED4F3869577954E
:100BE0006795B795F7959F5FC9F7880F911D969503
:100BF000879597F90895E1E0660F771F881FBB1F5F
:100C0000621773078407BA0720F0621B730B840B0B
:100C1000BA0BEE1F88F7E09508950E94CD0688F084
:100C20009F5798F0B92F9927B751B0F0E1F0660FB0
:100C3000771F881F991F1AF0BA95C9F714C0B130F1
:100C400091F00E94E706B1E008950C94E706672F43
:100C5000782F8827B85F39F0B93FCCF38695779520
:100C60006795B395D9F73EF4909580957095619509
:100C70007F4F8F4F9F4F0895E89409C097FB3EF434
:100C800090958095709561957F4F8F4F9F4F9923D9
:100C9000A9F0F92F96E9BB279395F6958795779557
:100CA0006795B795F111F8CFFAF4BB0F11F460FF17
:100CB0001BC06F5F7F4F8F4F9F4F16C0882311F06F
:100CC00096E911C0772321F09EE8872F762F05C083
:100CD000662371F096E8862F70E060E02AF09A951E
:100CE000660F771F881FDAF7880F9695879597F913
:100CF0000895990F0008550FAA0BE0E8FEEF1616AD
:100D00001706E807F907C0F012161306E407F507FF
:100D100098F0621B730B840B950B39F40A2661F073
:100D2000232B242B252B21F408950A2609F4A14016
:100D3000A6958FEF811D811D089597F99F6780E823
:100D400070E060E008959FEF80EC089500240A941D
:100D50001616170618060906089500240A94121696
:100D60001306140605060895092E0394000C11F4C9
:100D7000882352F0BB0F40F4BF2B11F460FF04C076
:100D80006F5F7F4F8F4F9F4F089557FD9058440FCF
:100D9000551F59F05F3F71F04795880F97FB991FDA
:100DA00061F09F3F79F08795089512161306140697
:100DB000551FF2CF4695F1DF08C016161706180624
:100DC000991FF1CF86957105610508940895E894FF
:100DD000BB2766277727CB0197F908950E947906EC
:100DE00008F48FEF089516F00C94B5070C94A30641
:100DF00068940C949D060E94CD06A8F39923C1F334
:100E0000AEF3DF93CF931F930F93FF92C92FDD278C
:100E100088232AF02197660F771F881FDAF720E0D2
:100E200030E040E85FEB9FE3883920F0803E38F007
:100E300021968F770E942A05E8E6F0E004C00E9420
:100E40002A05E5E9F0E00E94C3078B01BE01EC0131
:100E5000FB2E6F5771097595771F880B990B0E94B0
:100E60003E0628E132E741E35FE30E945607AF2DDB
:100E70009801AE01FF900F911F91CF91DF910E94D9
:100E800041050C94B4060E9456070C94B4060E94C7
:100E9000A60638F00E94AD0620F0952311F00C94C0
:100EA0009D060C94A30611240C94E8060E94C50626
:100EB00070F3959FC1F3950F50E0551F629FF001AD
:100EC000729FBB27F00DB11D639FAA27F00DB11DC6
:100ED000AA1F649F6627B00DA11D661F829F22274F
:100EE000B00DA11D621F739FB00DA11D621F839FD6
:100EF000A00D611D221F749F3327A00D611D231FAC
:100F0000849F600D211D822F762F6A2F11249F57F9
:100F100050409AF0F1F088234AF0EE0FFF1FBB1FFC
:100F2000661F771F881F91505040A9F79E3F5105BB
:100F300080F00C949D060C94E8065F3FE4F3983E25
:100F4000D4F3869577956795B795F795E7959F5F65
:100F5000C1F7FE2B880F911D9695879597F90895F7
:100F60000E947906880B990B08959F3F31F09150AC
:100F700020F4879577956795B795880F911D96957D
:100F8000879597F90895DF93CF931F930F93FF925F
:100F9000EF92DF927B018C01689406C0DA2EEF019C
:100FA0000E945607FE01E894A5912591359145913F
:100FB0005591A6F3EF010E944105FE019701A8019A
:100FC000DA9469F7DF90EF90FF900F911F91CF9126
:080FD000DF910895F894FFCFB2
:100FD8004D0150015D016A017701000000005101D7
:100FE800B100DE009E010F01ED0001016E616E008F
:100FF800696E66006F766600C2B043000D0A004550
:1010080072726F7220696E2074656D70657261749A
:101018007572652073656E736F723A20004F4B00CE
:10102800444953434F4E4E45435445440053484F5B
:1010380052545F544F5F474E440053484F52545FD9
:10104800544F5F56434300494E56414C49440000B3
:00000001FF
