:100000000C943F010C94EE050C94C7050C94670109
:100010000C9467010C9467010C9467010C946701C0
:100020000C9467010C9467010C9467010C946701B0
:100030000C9467010C9467010C9467010C946701A0
:100040000C947D050C9467010C943B060C941506EA
:100050000C9467010C9467010C9467010C94670180
:100060000C9467010C94670108000000BE922449BB
:10007000123EABAAAA2ABECDCCCC4C3E00000080DA
:10008000BEABAAAAAA3E00000000BF000000803F4D
:100090000000000000084178D3BB4387D1133D190D
:1000A0000E3CC3BD4282AD2B3E68EC8276BED98F3A
:1000B000E1A93E4C80EFFFBE01C4FF7F3F0000007E
:1000C000000007634236B79BD8A71A39685618AEA6
:1000D000BAAB558C1D3CB7CC5763BD6DEDFD753E7D
:1000E000F6177231BF000000803F557365642052DF
:1000F000414D20617070726F783A200046726565DC
:100100002052414D3A200048656170207573656446
:100110003A20005629002520280042617474657237
:10012000793A20004572726F7220696E2074656D95
:1001300070657261747572652073656E736F723A63
:1001400020003A0020002F002F00C2B0C2B0432090
:100150004020004D61782074656D70657261747522
:100160007265206C69666574696D653A20003A00B5
:1001700020002F002F00C2B043204020004D696EA8
:100180002074656D7065726174757265206C696646
:100190006574696D653A2000C2B043004D696E20F8
:1001A00074656D70657261747572653A2000C2B0D5
:1001B00043004D61782074656D706572617475726D
:1001C000653A2000C2B0430043757272656E7420B8
:1001D00074656D70657261747572653A20003D2AB0
:1001E0003D2A3D2A3D20454E44203D2A3D2A3D2AB8
:1001F0003D003D2A3D2A3D2A3D2053544152542082
:100200003D2A3D2A3D2A3D0053797374656D206770
:100210006F696E6720746F20736C6565702E2E2E6B
:100220000000000000240027002A00000000002534
:100230000028002B000000000023002600290004F5
:10024000040404040404040202020202020303037D
:100250000303030102040810204080010204081077
:100260002001020408102000000008000201000024
:100270000304070000000000000000006D061124C8
:100280001FBECFEFD8E0DEBFCDBF11E0A0E0B1E0F0
:10029000E2E7FFE102C005900D92A238B107D9F75D
:1002A00022E0A2E8B1E001C01D92AF39B207E1F748
:1002B00011E0CFE3D1E004C02197FE010E949F0B23
:1002C000CE33D107C9F70E9413070C94B70F0C94D3
:1002D00000008F929F92AF92BF92CF92DF92EF92E7
:1002E000FF920F931F93CF93DF932091850230915C
:1002F0008602F901EE0FFF1FEE0FFF1FEC5AFD4FB4
:100300006187728783879487C90101966AE070E0EC
:100310000E94550BEC019093860280938502892BF5
:1003200019F481E08093870280918702882311F07D
:10033000CAE0D0E08DE5A82E82E0B82E10E000E003
:10034000C12CD12C76010C171D077CF4F5012191ED
:100350003191419151915F01C701B6010E94A60BF5
:100360006B017C010F5F1F4FEECF2AE939E949E5A8
:100370005FE360919101709192018091930190915E
:1003800094010E941E0E4B015C01BE01DD0F880B23
:10039000990B0E94C10C9B01AC01C701B6010E94E0
:1003A000170C2AE939E949E15EE30E941E0E9B0120
:1003B000AC01C501B4010E94A60B6093910170933A
:1003C00092018093930190939401DF91CF911F91BB
:1003D0000F91FF90EF90DF90CF90BF90AF909F90E4
:1003E0008F900895833081F028F4813099F0823025
:1003F000A9F008958730A9F08830C9F08430B1F4AD
:10040000809180008F7D03C0809180008F778093E2
:100410008000089584B58F7784BD089584B58F7D5D
:10042000FBCF8091B0008F778093B00008958091CA
:10043000B0008F7DF9CFCF93DF93282F30E0F90103
:10044000E959FD4F8491F901ED5AFD4FD491F9011D
:10045000E15CFD4FC491CC23A1F081110E94F20117
:10046000EC2FF0E0EE0FFF1FEB5CFD4FA591B49178
:10047000EC91ED2381E090E009F480E0DF91CF91F1
:10048000089580E090E0FACF809132020E941B0232
:1004900021E030E0892B11F030E020E0309336028B
:1004A000209335028091900181111092900108955E
:1004B0001F93CF93DF93282F30E0F901E959FD4FC7
:1004C0008491F901ED5AFD4FD491F901E15CFD4FA2
:1004D000C491CC23A9F0162F81110E94F201EC2FB8
:1004E000F0E0EE0FFF1FE55DFD4FA591B4918FB7D2
:1004F000F894EC91111108C0D095DE23DC938FBFE6
:10050000DF91CF911F910895DE2BF8CFCF93DF932A
:1005100090E0FC01ED5AFD4F2491815C9D4FFC0160
:1005200084918823D1F090E0880F991FFC01EF5D42
:10053000FD4FA591B491FC01E55DFD4FC591D491AE
:10054000623071F49FB7F8943C91822F8095832399
:100550008C93E8812E2B28839FBFDF91CF91089544
:100560008FB7F894EC912E2B2C938FBFF6CF8E3053
:1005700008F08E508770806480937C0080917A00B0
:10058000806480937A0080917A0086FDFCCF809110
:10059000780090917900089581E08093900108950A
:1005A0000895AF92BF92CF92DF92EF92FF920F9396
:1005B0001F93CF93DF936C017B018B01040F151FF9
:1005C000EB015E01AE18BF08C017D10759F0699161
:1005D000D601ED91FC910190F081E02DC6010995C5
:1005E000892B79F7C501DF91CF911F910F91FF9072
:1005F000EF90DF90CF90BF90AF900895FC01538DA6
:10060000448D252F30E0842F90E0821B930B5417EC
:1006100010F0CF96089501970895FC01918D828D79
:10062000981761F0A28DAE0FBF2FB11D5D968C9112
:10063000928D9F5F9F73928F90E008958FEF9FEF51
:100640000895FC01918D828D981731F0828DE80F0D
:10065000F11D858D90E008958FEF9FEF0895FC01C7
:10066000918D228D892F90E0805C9F4F821B910994
:100670008F739927089585E991E00E942F0321E067
:10068000892B09F420E0822F089580E090E0892BE7
:1006900029F00E943B0381110C9400000895FC0195
:1006A000A48DA80FB92FB11DA35ABF4F2C91848DD3
:1006B00090E001968F739927848FA689B7892C9330
:1006C000A089B1898C91837080648C93938D848D83
:1006D000981306C00288F389E02D80818F7D808386
:1006E0000895EF92FF920F931F93CF93DF93EC0146
:1006F00081E0888F9B8D8C8D98131AC0E889F989C9
:10070000808185FF15C09FB7F894EE89FF896083CB
:10071000E889F98980818370806480839FBF81E04C
:1007200090E0DF91CF911F910F91FF90EF9008958E
:10073000F62E0B8D10E00F5F1F4F0F731127E02E69
:100740008C8D8E110CC00FB607FCFACFE889F989A1
:10075000808185FFF5CFCE010E944F03F1CFEB8D55
:10076000EC0FFD2FF11DE35AFF4FF0829FB7F89475
:100770000B8FEA89FB8980818062CFCF0F931F9313
:10078000CF93DF938C01D0E0C0E0F801EC0FFD1FA8
:100790006491662341F085E991E00E947103892B01
:1007A00011F02196F2CFCE01DF91CF911F910F91E1
:1007B0000895CF93DF93EC01888D8823B9F0AA893F
:1007C000BB89E889F9898C9185FD03C0808186FD0C
:1007D0000DC00FB607FCF7CF8C9185FFF2CF80815B
:1007E00085FFEDCFCE010E944F03E9CFDF91CF917E
:1007F00008958EBD00000DB407FEFDCF8EB508959F
:100800000F931F93CF93DF93EC0181E58CBD1DBC4B
:1008100060E080914F020E9458028BE0D0FF83E09D
:100820000E94F9038C2F0E94F903C0E1D1E004E299
:1008300011E080E00E94F90389930C171D07C9F7A6
:1008400061E080914F02DF91CF911F910F910C9445
:100850005802FC0101900020E9F73197AF01481BD5
:10086000590BBC0185E991E00C94D1028F929F92C3
:10087000AF92BF920F931F93CF93DF93CDB7DEB7A5
:10088000A1970FB6F894DEBF0FBECDBF19A24230BC
:1008900008F44AE08E010F5D1F4F842E912CB12C7D
:1008A000A12CA50194010E94690BE62FB901CA0190
:1008B000EA30F4F4E05DD801EE938D01232B242B74
:1008C000252B79F790E080E0109719F0CD010E9478
:1008D0002904A1960FB6F894DEBF0FBECDBFDF91FD
:1008E000CF911F910F91BF90AF909F908F900895DF
:1008F000E95CE1CFCF93DF930E94BE03EC0180E47B
:1009000091E00E9429048C0F9D1FDF91CF910895E3
:10091000682F70E090E080E04AE00C9436044F923B
:100920005F926F927F928F929F92AF92BF92CF927F
:10093000DF92EF92FF920F931F93CF936B017C0195
:10094000742EAC019B010E94DB0E882399F083E496
:1009500091E0CF911F910F91FF90EF90DF90CF909A
:10096000BF90AF909F908F907F906F905F904F90CF
:100970000C94290446015701E894B7F82FEF3FEF94
:100980004FE75FE7C501B4010E94DB0E81110DC086
:100990002FEF3FEF4FE75FE7C501B4010E94120C54
:1009A00018161CF487E491E0D4CF2FEF3FEF4FE708
:1009B0005FE4C701B6010E94C90D18161CF48BE450
:1009C00091E0C7CF2FEF3FEF4FE75FECC701B601D4
:1009D0000E94120C87FDF3CF20E030E0A901C7018F
:1009E000B6010E94120C10E000E087FF0AC06DE221
:1009F00085E991E00E9471038C01F7FAF094F7F811
:100A0000F094C0E060E070E080E09FE37C1641F08D
:100A100020E030E040E251E40E94170CCF5FF6CFB7
:100A2000A70196010E94A60B2B013C010E94900C8D
:100A30004B015C014AE00E9436047C01E00EF11E8D
:100A4000CC23C1F1C501B4010E94BF0C9B01AC01D4
:100A5000C301B2010E94A50B4B015C016EE285E966
:100A600091E00E947103E80EF91EC15018F120E0D8
:100A700030E040E251E4C501B4010E941E0E2B019A
:100A80003C010E94900C4B01B12CA12C4AE0C50105
:100A9000B4010E943604E80EF91EC501B4010E949B
:100AA000BF0C9B01AC01C301B2010E94A50B4B011D
:100AB0005C01DBCFC701CF911F910F91FF90EF90A9
:100AC000DF90CF90BF90AF909F908F907F906F906E
:100AD0005F904F900895CF93DF93BC0190E080E04A
:100AE0004AE00E943604EC0180E491E00E9429046F
:100AF0008C0F9D1FDF91CF9108951F920F920FB61B
:100B00000F9211242F933F938F939F93AF93BF9393
:100B100080918C0190918D01A0918E01B0918F01F7
:100B200030918B0123E0230F2D3758F50196A11D3D
:100B3000B11D20938B0180938C0190938D01A09324
:100B40008E01B0938F018091870190918801A091CF
:100B50008901B0918A010196A11DB11D8093870181
:100B600090938801A0938901B0938A01BF91AF91BE
:100B70009F918F913F912F910F900FBE0F901F90DB
:100B8000189526E8230F0296A11DB11DD2CF1F9202
:100B90000F920FB60F9211242F933F934F935F93B1
:100BA0006F937F938F939F93AF93BF93EF93FF9335
:100BB000E0910201F09103010995FF91EF91BF913E
:100BC000AF919F918F917F916F915F914F913F91E5
:100BD0002F910F900FBE0F901F9018951F920F929C
:100BE0000FB60F9211242F933F934F935F936F9300
:100BF0007F938F939F93AF93BF93EF93FF93E09176
:100C00000001F09101010995FF91EF91BF91AF9122
:100C10009F918F917F916F915F914F913F912F9114
:100C20000F900FBE0F901F9018951F920F920FB646
:100C30000F9211242F933F934F935F936F937F9362
:100C40008F939F93AF93BF93EF93FF9385E991E0C9
:100C50000E944F03FF91EF91BF91AF919F918F91B0
:100C60007F916F915F914F913F912F910F900FBEA8
:100C70000F901F9018951F920F920FB60F9211248C
:100C80002F938F939F93EF93FF93E091A501F091A2
:100C9000A6018081E091AB01F091AC0182FD1BC007
:100CA00090818091AE018F5F8F732091AF01821789
:100CB00041F0E091AE01F0E0EB56FE4F958F80934E
:100CC000AE01FF91EF919F918F912F910F900FBEE9
:100CD0000F901F9018958081F4CFE5E9F1E0138221
:100CE000128288EE93E0A0E0B0E084839583A6832F
:100CF000B78382E391E09183808385EC90E09587D0
:100D0000848784EC90E09787868780EC90E0918BD5
:100D1000808B81EC90E0938B828B82EC90E0958BC2
:100D2000848B86EC90E0978B868B118E128E138EBF
:100D3000148EE8E8F2E08EE0808380E090E7A9E19D
:100D4000B6E481839283A383B48380E090E4ACE132
:100D5000B6E485839683A783B08780E090E0A8EC13
:100D6000B1E481879287A387B48780E090EEA6E7FD
:100D7000B5E485879687A787B08B84E090E0928B57
:100D8000818BE4E5F2E08FE0808380E090E0A0E2F8
:100D9000B1E481839283A383B48380E090E0A0E7F1
:100DA000B1E485839683A783B08712AA11AA13AAF8
:100DB000EFE4F2E0148213828AE08083E9E3F2E058
:100DC0008FEF9FEFAFE7BFE782839383A483B58361
:100DD00080E090E0A0E8B0E086839783A087B187A9
:100DE0005DE152874CE043872CE637E03587248766
:100DF00097E196878BE38787508B418B338B228BD0
:100E0000948B858B80E098E0909338028093370232
:100E1000E2E3F2E083E0808382E390E092838183E7
:100E2000148213820895789484B5826084BD84B559
:100E3000816084BD85B5826085BD85B5816085BDD5
:100E400080916E00816080936E001092810080918D
:100E50008100826080938100809181008160809315
:100E60008100809180008160809380008091B1003A
:100E700084608093B1008091B00081608093B00065
:100E800080917A00846080937A0080917A008260F9
:100E900080937A0080917A00816080937A008091BB
:100EA0007A00806880937A001092C100E091A501D9
:100EB000F091A60182E08083E091A101F091A2016E
:100EC0001082E091A301F091A4018FEC8083109235
:100ED000AD01E091A901F091AA0186E08083E09143
:100EE000A701F091A801808180618083E091A70132
:100EF000F091A801808188608083E091A701F09142
:100F0000A801808180688083E091A701F091A80109
:100F100080818F7D8083EDE5F2E011921192119234
:100F2000119222E0E538F207C1F761E080914F02AB
:100F30000E94860261E080914F020E945802CFB762
:100F4000F89480918201811127C0E9E4F2E0849154
:100F5000EDE5F2E09491E82FF0E0EE0FFF1FEF5D7A
:100F6000FD4FA591B491EC91E92321F461E08AE071
:100F70000E94580261E08AE00E9486028CB580617E
:100F80008CBD8CB580648CBD61E08DE00E948602D2
:100F900061E08BE00E948602809182018F5F8093E6
:100FA0008201CFBF80915202909153020E940004AF
:100FB00062E0809132020E948602809132020E9499
:100FC0001B0221E030E0892B11F030E020E030936B
:100FD000360220933502CCECD2E062E0262E312C92
:100FE00000E010E00E9444028091350290913602A8
:100FF000892B09F04FC088E092E00E947A0480912A
:1010000032020E941B02892B09F442C085E991E05B
:101010000E94D90320917A0010927A0083B7817FD1
:10102000846083BFF89483B7816083BF809132026C
:10103000823009F47FC0833051F4D0930301C09310
:10104000020180916900837F80936900E99A789416
:10105000889583B78E7F83BF80913202823009F4F6
:1010600074C0833061F4E99881E090E0880F991FA3
:10107000FC01E050FF4F80ED92E09183808320934C
:101080007A00CC24C394D12CD0923602C09235027F
:101090000E9444022FB7F89480918C0190918D01A9
:1010A000A0918E01B0918F012FBF4091830150918B
:1010B000840160918501709186014115510561059A
:1010C000710571F06C017D01C41AD50AE60AF70AB0
:1010D000B701A601403157426105710508F4C9C244
:1010E0008093830190938401A0938501B09386013E
:1010F00082EF91E00E947A04809188020E94B702F8
:10110000009739F530929A022092990232E0E32E4C
:10111000F12C84E291E00E94BE03F701EE0FFF1F65
:10112000EC5DFE4F80819181009709F47AC10E94A5
:10113000290477C1D0930101C09300018091690017
:101140008C7F80936900E89A82CFE89890E080E0F5
:101150008DCF8F3F23E0920750F083E090E0909393
:101160009A028093990223E0E22EF12CD2CFBC01A7
:1011700090E080E00E94BF0C6B017C01AC019B0100
:1011800060E070EC8FE794E40E94A50B9B01AC013A
:10119000C701B6010E94170C2091890230918A0282
:1011A00040918B0250918C020E941E0E20918D0264
:1011B00030918E0240918F02509190020E94170C44
:1011C0000E94D60D2091950230919602409197028F
:1011D000509198020E94170C6B017C0123E333E9C4
:1011E00048E853E4609191027091920280919302D9
:1011F000909194020E94A60B9B01AC0160E070E00C
:1012000080E89FE30E94170CA70196010E94A60B9D
:101210009B01AC0160E070E080E89FE30E94170C46
:1012200010929A021092990223E333E948E853E4BA
:101230000E94A50B20E73EEC48E85FE30E941E0EEB
:101240009B01AC010E94A60B20E030E040E05FE390
:101250000E94A60B0E94FC0C20E030E040E05FE31F
:101260000E941E0E6B017C01C0920C01D0920D01F8
:10127000E0920E01F0920F0188EC91E00E94BE0313
:1012800042E0C701B6010E948F0484EC91E00E9405
:101290007A04209108013091090140910A0150918E
:1012A0000B01C701B6010E94C90D1816ACF4C0921B
:1012B0000801D0920901E0920A01F0920B0182EB41
:1012C00091E00E94BE0342E0C701B6010E948F0474
:1012D0008EEA91E00E947A04209104013091050188
:1012E0004091060150910701C701B6010E94120CFE
:1012F00087FF15C0C0920401D0920501E09206015B
:10130000F09207018CE991E00E94BE0342E0C70120
:10131000B6010E948F0488E991E00E947A048091CE
:101320005202909153020E9400048DE791E00E94C6
:10133000BE03609110017091110180911201909192
:10134000130142E00E948F0486E791E00E94BE03F1
:10135000809118010E94880484E791E00E94BE03F6
:10136000809119010E94880482E791E00E94BE03E7
:1013700060911A0170911B0190E080E04AE00E94A8
:10138000360480E791E00E94BE0380911C010E9418
:1013900088048EE691E00E94BE0380911D010E94A8
:1013A000880480E491E00E94290483E591E00E9492
:1013B000BE03609114017091150180911601909106
:1013C000170142E00E948F048AE491E00E94BE036C
:1013D00080911E010E94880488E491E00E94BE036F
:1013E00080911F010E94880486E491E00E94BE0360
:1013F000609120017091210190E080E04AE00E941C
:10140000360484E491E00E94BE03809122010E9490
:10141000880482E491E00E94BE03809123010E942F
:10142000880480E491E00E942904809154020E9483
:10143000B702C0905902D0905A02E0905B02F0903F
:101440005C02BC01990F880B990B0E94C10C20E033
:1014500030E040EA50E40E941E0E20E030EC4FE7FE
:1014600054E40E94170C4B015C012091550230910D
:1014700056024091570250915802C701B6010E948E
:10148000A60B9B01AC01C501B4010E941E0EA70171
:1014900096010E94170C0E9469014B015C0180912A
:1014A00054020E94B702C0905902D0905A02E090B4
:1014B0005B02F0905C02BC01990F880B990B0E94B3
:1014C000C10C20E030E040EA50E40E941E0E20E013
:1014D00030EC4FE754E40E94170C2B013C012091A3
:1014E0005502309156024091570250915802C7015F
:1014F000B6010E94A60B9B01AC01C301B2010E9480
:101500001E0EA70196010E94170C0E9469016B0133
:101510007C0126E636E646E051E40E94C90D87FFCD
:10152000B4C020E030E040EC50E4C701B6010E94B6
:10153000120C18160CF0ADC020E030E040EC50E486
:10154000C701B6010E94A50B28E939E949E150E439
:101550000E94170C6B017C01AC019B010E94A60B41
:101560009B01AC0160E070E080E490E40E94A50B78
:101570002B013C01A7019601C701B6010E941E0E76
:101580009B01AC01C301B2010E941E0E20E030E0BD
:1015900040E45FE30E948B0E20E030E048EC52E430
:1015A0000E941E0E0E94890C6B018AE191E00E944C
:1015B000BE030D2C000CEE08FF084AE0C701B6017F
:1015C000F7FE0DC06DE285E991E00E947103662788
:1015D0007727CB016C197D098E099F094AE00E948B
:1015E000360486E191E00E94BE0342E0C501B401E9
:1015F0000E948F0483E191E00E947A0487E091E0E9
:101600000E94BE0380919B0290919C02009709F476
:1016100043C08F5992400E946B058CEF90E00E946E
:10162000BE0320919B0230919C028DB79EB721157D
:101630003105A9F58F5992400E946B058AEE90E022
:101640000E94BE03809137029091380240919B0224
:1016500050919C022DB73EB74115510519F52F59F0
:101660003240821B930B0E946B058EED91E00E942D
:101670007A040115110509F4B5CC0E943B038823B7
:1016800009F4AECC0E940000ABCC84E6C82ED12C6D
:101690008CCFD12CC12C89CF90E080E0BCCF821BB5
:1016A000930BCACF241B350BDCCF97FB072E16F408
:1016B000009407D077FD09D00E948B0B07FC05D062
:1016C0003EF4909581959F4F0895709561957F4F59
:1016D0000895A1E21A2EAA1BBB1BFD010DC0AA1F73
:1016E000BB1FEE1FFF1FA217B307E407F50720F08B
:1016F000A21BB30BE40BF50B661F771F881F991F06
:101700001A9469F760957095809590959B01AC014E
:10171000BD01CF010895AA1BBB1B51E107C0AA1F41
:10172000BB1FA617B70710F0A61BB70B881F991F82
:101730005A95A9F780959095BC01CD010895EE0FBB
:10174000FF1F0590F491E02D09945058BB27AA275C
:101750000E94BD0B0C94770D0E94690D38F00E9419
:10176000700D20F039F49F3F19F426F40C94660DA7
:101770000EF4E095E7FB0C94370DE92F0E94880DDD
:1017800058F3BA17620773078407950720F079F4B6
:10179000A6F50C94C20D0EF4E0950B2EBA2FA02DD9
:1017A0000B01B90190010C01CA01A0011124FF270E
:1017B000591B99F0593F50F4503E68F11A16F04009
:1017C000A22F232F342F4427585FF3CF4695379508
:1017D0002795A795F0405395C9F77EF41F16BA0BCD
:1017E000620B730B840BBAF09150A1F0FF0FBB1F7B
:1017F000661F771F881FC2F70EC0BA0F621F731FC4
:10180000841F48F4879577956795B795F7959E3F20
:1018100008F0B0CF9395880F08F09927EE0F9795B1
:10182000879508950E94130D08F481E008950E94A1
:101830002B0C0C94770D0E94700D58F00E94690DCE
:1018400040F029F45F3F29F00C94370D51110C94AE
:10185000C30D0C94660D0E94880D68F39923B1F3B3
:10186000552391F3951B550BBB27AA2762177307C6
:10187000840738F09F5F5F4F220F331F441FAA1F5A
:10188000A9F335D00E2E3AF0E0E832D09150504016
:10189000E695001CCAF72BD0FE2F29D0660F771FC4
:1018A000881FBB1F261737074807AB07B0E809F0AA
:1018B000BB0B802DBF01FF2793585F4F3AF09E3F2F
:1018C000510578F00C94370D0C94C30D5F3FE4F391
:1018D000983ED4F3869577956795B795F7959F5F72
:1018E000C9F7880F911D9695879597F90895E1E0BE
:1018F000660F771F881FBB1F621773078407BA071D
:1019000020F0621B730B840BBA0BEE1F88F7E09577
:1019100008950E94900C6894B1110C94C30D089521
:101920000E94900D88F09F5798F0B92F9927B751D2
:10193000B0F0E1F0660F771F881F991F1AF0BA9573
:10194000C9F714C0B13091F00E94C20DB1E0089502
:101950000C94C20D672F782F8827B85F39F0B93FF4
:10196000CCF3869577956795B395D9F73EF4909526
:101970008095709561957F4F8F4F9F4F0895E894A4
:1019800009C097FB3EF490958095709561957F4FC7
:101990008F4F9F4F9923A9F0F92F96E9BB27939575
:1019A000F695879577956795B795F111F8CFFAF485
:1019B000BB0F11F460FF1BC06F5F7F4F8F4F9F4FB6
:1019C00016C0882311F096E911C0772321F09EE814
:1019D000872F762F05C0662371F096E8862F70E07A
:1019E00060E02AF09A95660F771F881FDAF7880F54
:1019F0009695879597F908950E94AA0D90F09F37C4
:101A000048F4911116F00C94C30D60E070E080E88A
:101A10009FEB089526F41B16611D711D811D0C940A
:101A20003D0D0C94580D990F0008550FAA0BE0E8D6
:101A3000FEEF16161706E807F907C0F01216130690
:101A4000E407F50798F0621B730B840B950B39F4D0
:101A50000A2661F0232B242B252B21F408950A2636
:101A600009F4A140A6958FEF811D811D089597F976
:101A70009F6780E870E060E00895882371F4772321
:101A800021F09850872B762F07C0662311F49927F1
:101A90000DC09051862B70E060E02AF09A95660F99
:101AA000771F881FDAF7880F9695879597F908951D
:101AB0009F3F31F0915020F4879577956795B795C2
:101AC000880F911D9695879597F908959FEF80EC63
:101AD000089500240A941616170618060906089594
:101AE00000240A9412161306140605060895092EFA
:101AF0000394000C11F4882352F0BB0F40F4BF2B69
:101B000011F460FF04C06F5F7F4F8F4F9F4F0895A8
:101B100057FD9058440F551F59F05F3F71F047959E
:101B2000880F97FB991F61F09F3F79F08795089583
:101B3000121613061406551FF2CF4695F1DF08C0A2
:101B4000161617061806991FF1CF869571056105BF
:101B5000089408950E94900DA0F0BEE7B91788F48C
:101B6000BB279F3860F41616B11D672F782F882782
:101B7000985FF7CF869577956795B11D93959639C0
:101B8000C8F30895E894BB2766277727CB0197F918
:101B900008950E94130D08F48FEF089516F00C9429
:101BA000580D0C94660D68940C94370D0E94900D9E
:101BB000A8F39923C1F3AEF3DF93CF931F930F9351
:101BC000FF92C92FDD2788232AF02197660F771F00
:101BD000881FDAF720E030E040E85FEB9FE38839C8
:101BE00020F0803E38F021968F770E94A60BE8E621
:101BF000F0E004C00E94A60BE5E9F0E00E941A0F95
:101C00008B01BE01EC01FB2E6F5771097595771F93
:101C1000880B990B0E94C10C28E132E741E35FE396
:101C20000E94310EAF2D9801AE01FF900F911F91D0
:101C3000CF91DF910E94BD0B0C94770D0E94310E65
:101C40000C94770D0E94690D38F00E94700D20F001
:101C5000952311F00C94370D0C94660D11240C94FF
:101C6000C30D0E94880D70F3959FC1F3950F50E04E
:101C7000551F629FF001729FBB27F00DB11D639F3E
:101C8000AA27F00DB11DAA1F649F6627B00DA11DE4
:101C9000661F829F2227B00DA11D621F739FB00D8A
:101CA000A11D621F839FA00D611D221F749F3327FA
:101CB000A00D611D231F849F600D211D822F762F93
:101CC0006A2F11249F5750409AF0F1F088234AF070
:101CD000EE0FFF1FBB1F661F771F881F91505040DC
:101CE000A9F79E3F510580F00C94370D0C94C30D5D
:101CF0005F3FE4F3983ED4F3869577956795B79563
:101D0000F795E7959F5FC1F7FE2B880F911D96957C
:101D1000879597F90895FA01EE0FFF1F3096210578
:101D20003105A1F16115710561F48038BFE39B07AE
:101D300049F168949038810561F08038BFEF9B07C6
:101D400041F099234AF5FF3FE1053105210519F1DD
:101D5000E8940894E795D901AA2329F4AB2FBE2F64
:101D6000F85FD0F310C0FF5F70F4A695E0F7F73985
:101D700050F019F0FF3A38F49F779F930DD00F90F1
:101D800007FC9058089546F00C94660D60E070E0F2
:101D900080E89FE308954FE79F775F934F933F93CA
:101DA0002F930E94D60D2F913F914F915F910E94EA
:101DB0001E0E0C94E80E0E94130D880B990B0895CB
:101DC00029F416F00C94370D0C94C20D0C94660D8A
:101DD0000E94900DA8F39638A0F707F80F92E894A8
:101DE0002BE33AEA48EB5FE70E94340E0F920F9222
:101DF0000F924DB75EB70F920E94830FE2ECF0E0B6
:101E00000E941A0F4F915F91EF91FF91E595EE1FA0
:101E1000FF1F49F0FE57E0684427EE0F441FFA9574
:101E2000E1F74195550B0E944D0F0F9007FE0C9462
:101E3000410F0895DF93CF931F930F93FF92EF927B
:101E4000DF927B018C01689406C0DA2EEF010E94BC
:101E5000310EFE01E894A59125913591459155915A
:101E6000A6F3EF010E94BD0BFE019701A801DA94D1
:101E700069F7DF90EF90FF900F911F91CF91DF9165
:101E800008959B01AC0160E070E080E89FE30C9452
:101E9000170C0C94370D0C94580D0E94900DD8F32C
:101EA0009923C9F3940F511DA3F39150504094F01E
:101EB00059F0882332F0660F771F881F91505040E9
:101EC000C1F79E3F51052CF7880F911D9695879578
:101ED00097F908955F3FACF0983E9CF0BB2786953C
:101EE00077956795B79508F4B1609395C1F7BB0FE7
:101EF00058F711F460FFE8CF6F5F7F4F8F4F9F4F10
:101F0000E3CF0C94C30DFA01DC01AA0FBB1F9B01A8
:101F1000AC01BF5728F4222733274427507820C02C
:101F2000B75190F4AB2F0024469537952795011CA7
:101F3000A395D2F3002071F0220F331F441FB395F5
:101F4000DAF30ED00C94A50B61307105A0E88A0776
:101F5000B94630F49B01AC01662777278827907833
:101F6000309621F020833183428353830895F8947F
:021F7000FFCFA1
:101F7200D002D002FFFF7F7F000080000000C07F00
:101F8200FFFF7F7F000080001D0C6C07173B1D0CBC
:101F92006C07173B4F0152015F016C017901000090
:101FA20000007103D102FE02D9032F030D032103A6
:101FB2000D0A006E616E00696E66006F7666004FF4
:101FC2004B00444953434F4E4E45435445440053FE
:101FD200484F52545F544F5F474E440053484F524C
:101FE200545F544F5F56434300494E56414C494457
:021FF2000000ED
:00000001FF
