:100000000C948B010C9442060C941B060C94B301C7
:100010000C94B3010C94B3010C94B3010C94B30190
:100020000C94B3010C94B3010C94B3010C94B30180
:100030000C94B3010C94B3010C94B3010C94B30170
:100040000C94D1050C94B3010C948F060C946906A2
:100050000C94B3010C94B3010C94B3010C94B30150
:100060000C94B3010C94B30108000000BE92244923
:10007000123EABAAAA2ABECDCCCC4C3E00000080DA
:10008000BEABAAAAAA3E00000000BF000000803F4D
:100090000000000000084178D3BB4387D1133D190D
:1000A0000E3CC3BD4282AD2B3E68EC8276BED98F3A
:1000B000E1A93E4C80EFFFBE01C4FF7F3F0000007E
:1000C000000007634236B79BD8A71A39685618AEA6
:1000D000BAAB558C1D3CB7CC5763BD6DEDFD753E7D
:1000E000F6177231BF000000803F53797374656D5D
:1000F00020676F696E6720746F20736C6565702E62
:100100002E2E0020557365642052414D2061707081
:10011000726F783A200020467265652052414D3A50
:100120002000204865617020757365643A200020C6
:1001300020426174746572696573206E6565642020
:10014000746F2072656368617267652100562900CB
:100150002520280020426174746572793A20004598
:1001600072726F7220696E2074656D706572617451
:100170007572652073656E736F723A20003A0020C5
:10018000002F002F00C2B0C2B0432040200020202A
:100190004D61782074656D70657261747572653A31
:1001A00020003A0020002F002F00C2B04320402042
:1001B0000020204D696E2074656D706572617475E4
:1001C00072653A2000204461696C7920537461742F
:1001D0007320003A0020002F002F00C2B0C2B043AD
:1001E0002040200020204D61782074656D7065727C
:1001F00061747572653A20003A0020002F002F00CC
:10020000C2B0432040200020204D696E2074656DEF
:1002100070657261747572653A2000204C6966657C
:1002200074696D652053746174732000C2B043001B
:10023000202054656D70657261747572653A200096
:100240002043757272656E7420537461747320005C
:100250003D2A3D2A3D2A3D20454E44203D2A3D2A47
:100260003D2A3D0A002D2A2D2A2D2A2D205379734F
:1002700074656D205374617473202D2A2D2A2D2AE4
:100280002D002D2A2D2A2D2A2D20456E7669726F7C
:100290006E6D656E74205374617473202D2A2D2A3F
:1002A0002D2A2D003D2A3D2A3D2A3D2053544152FE
:1002B00054203D2A3D2A3D2A3D0000000000240034
:1002C00027002A0000000000250028002B00000065
:1002D000000023002600290004040404040404048C
:1002E00002020202020203030303030301020408E1
:1002F0001020408001020408102001020408102090
:1003000000000008000201000003040700000000D4
:1003100000000000C10611241FBECFEFD8E0DEBFF1
:10032000CDBF11E0A0E0B1E0E0EDF0E202C0059049
:100330000D92A238B107D9F722E0A2E8B1E001C0DE
:100340001D92AE39B207E1F711E0CBE8D1E004C06D
:100350002197FE010E94550CCA38D107C9F70E94A7
:1003600069070C9466100C9400008F929F92AF92D4
:10037000BF92CF92DF92EF92FF920F931F93CF9392
:10038000DF932091850230E0F901EE0FFF1FEE0FA1
:10039000FF1FEC5AFD4F6187728783879487C901DD
:1003A00001966AE070E00E940B0CD82F80938502C2
:1003B000811103C081E080938602809186028111C1
:1003C000DAE00DE512E0C0E0C12CD12C7601CD17AA
:1003D00071F0F80121913191419151918F01C70143
:1003E000B6010E945C0C6B017C01CF5FF0CF2AE963
:1003F00039E949E55FE36091910170919201809143
:100400009301909194010E94CD0E4B015C016C2FE1
:1004100070E090E080E00E94700D9B01AC01C7018C
:10042000B6010E94CD0C2AE939E949E15EE30E9458
:10043000CD0E9B01AC01C501B4010E945C0C609320
:100440009101709392018093930190939401DF91B5
:10045000CF911F910F91FF90EF90DF90CF90BF90C1
:10046000AF909F908F900895833081F028F4813071
:1004700099F08230A9F008958730A9F08830C9F04A
:100480008430B1F4809180008F7D03C08091800022
:100490008F7780938000089584B58F7784BD089509
:1004A00084B58F7DFBCF8091B0008F778093B000B3
:1004B00008958091B0008F7DF9CFCF93DF93282FDF
:1004C00030E0F901E050FD4F8491F901E451FD4F16
:1004D000D491F901E852FD4FC491CC23A1F08111D0
:1004E0000E943402EC2FF0E0EE0FFF1FE253FD4FAD
:1004F000A591B491EC91ED2381E090E009F480E0C6
:10050000DF91CF91089580E090E0FACF809134029E
:100510000E945D0221E030E0892B11F030E020E004
:10052000309338022093370280919001811110920C
:10053000900108951F93CF93DF93282F30E0F901A6
:10054000E050FD4F8491F901E451FD4FD491F90140
:10055000E852FD4FC491CC23A9F0162F81110E94BF
:100560003402EC2FF0E0EE0FFF1FEC53FD4FA5918E
:10057000B4918FB7F894EC91111108C0D095DE2397
:10058000DC938FBFDF91CF911F910895DE2BF8CFC1
:10059000CF93DF9390E0FC01E451FD4F249188520A
:1005A0009D4FFC0184918823D1F090E0880F991F22
:1005B000FC01E654FD4FA591B491FC01EC53FD4FB5
:1005C000C591D491623071F49FB7F8943C91822F19
:1005D000809583238C93E8812E2B28839FBFDF9106
:1005E000CF9108958FB7F894EC912E2B2C938FBF59
:1005F000F6CF8E3008F08E508770806480937C0038
:1006000080917A00806480937A0080917A0086FDE0
:10061000FCCF80917800909179000895089581E051
:10062000809390010895AF92BF92CF92DF92EF92A4
:10063000FF920F931F93CF93DF936C017B018B018C
:10064000040F151FEB015E01AE18BF08C017D107DC
:1006500059F06991D601ED91FC910190F081E02D66
:10066000C6010995892B79F7C501DF91CF911F91BB
:100670000F91FF90EF90DF90CF90BF90AF900895D3
:10068000FC01538D448D252F30E0842F90E0821B98
:10069000930B541710F0CF96089501970895FC011D
:1006A000918D828D981761F0A28DAE0FBF2FB11D75
:1006B0005D968C91928D9F5F9F73928F90E00895CD
:1006C0008FEF9FEF0895FC01918D828D981731F087
:1006D000828DE80FF11D858D90E008958FEF9FEFDB
:1006E0000895FC01918D228D892F90E0805C9F4FB1
:1006F000821B91098F739927089585E991E00E94E3
:10070000710321E0892B09F420E0822F089580E015
:1007100090E0892B29F00E947D0381110C94000048
:100720000895FC01A48DA80FB92FB11DA35ABF4F86
:100730002C91848D90E001968F739927848FA689E0
:10074000B7892C93A089B1898C91837080648C9334
:10075000938D848D981306C00288F389E02D8081E3
:100760008F7D80830895EF92FF920F931F93CF9315
:10077000DF93EC0181E0888F9B8D8C8D98131AC0DC
:10078000E889F989808185FF15C09FB7F894EE89C3
:10079000FF896083E889F989808183708064808320
:1007A0009FBF81E090E0DF91CF911F910F91FF906B
:1007B000EF900895F62E0B8D10E00F5F1F4F0F7313
:1007C0001127E02E8C8D8E110CC00FB607FCFACFCE
:1007D000E889F989808185FFF5CFCE010E949103D8
:1007E000F1CFEB8DEC0FFD2FF11DE35AFF4FF0829F
:1007F0009FB7F8940B8FEA89FB8980818062CFCF05
:100800000F931F93CF93DF938C01D0E0C0E0F801EA
:10081000EC0FFD1F6491662341F085E991E00E9491
:10082000B303892B11F02196F2CFCE01DF91CF9146
:100830001F910F910895CF93DF93EC01888D88234A
:10084000B9F0AA89BB89E889F9898C9185FD03C033
:10085000808186FD0DC00FB607FCF7CF8C9185FF18
:10086000F2CF808185FFEDCFCE010E949103E9CFC9
:10087000DF91CF9108958EBD00000DB407FEFDCF2E
:100880008EB50895EF92FF920F931F93CF93DF934E
:10089000EC017B018A0181E58CBD1DBC60E080918B
:1008A00051020E949A028BE0D0FF83E00E943B0439
:1008B0008C2F0E943B04E7010E0D1F1D80E00E945B
:1008C0003B048993C017D107C9F761E080915102B9
:1008D000DF91CF911F910F91FF90EF900C949A02AE
:1008E000FC0101900020E9F73197AF01481B590B3B
:1008F000BC0185E991E00C941303CF93DF930E9430
:100900000004EC0180E491E00E9470048C0F9D1FB4
:10091000DF91CF9108958F929F92AF92BF920F93E4
:100920001F93CF93DF93CDB7DEB7A1970FB6F8949F
:10093000DEBF0FBECDBF19A2423008F44AE08E01DF
:100940000F5D1F4F842E912CB12CA12CA501940179
:100950000E941F0CE62FB901CA01EA30F4F4E05DF1
:10096000D801EE938D01232B242B252B79F790E0D2
:1009700080E0109719F0CD010E947004A1960FB687
:10098000F894DEBF0FBECDBFDF91CF911F910F91C5
:10099000BF90AF909F908F900895E95CE1CFBC012C
:1009A00090E080E04AE00C948B044F925F926F924B
:1009B0007F928F929F92AF92BF92CF92DF92EF92EF
:1009C000FF920F931F93CF936B017C01742EAC01A8
:1009D0009B010E948A0F882399F083E491E0CF91D4
:1009E0001F910F91FF90EF90DF90CF90BF90AF904D
:1009F0009F908F907F906F905F904F900C947004B9
:100A000046015701E894B7F82FEF3FEF4FE75FE754
:100A1000C501B4010E948A0F81110DC02FEF3FEF75
:100A20004FE75FE7C501B4010E94C80C18161CF41B
:100A300087E491E0D4CF2FEF3FEF4FE75FE4C701AA
:100A4000B6010E94780E18161CF48BE491E0C7CF13
:100A50002FEF3FEF4FE75FECC701B6010E94C80CD4
:100A600087FDF3CF20E030E0A901C701B6010E9465
:100A7000C80C10E000E087FF0AC06DE285E991E054
:100A80000E94B3038C01F7FAF094F7F8F094C0E0F9
:100A900060E070E080E09FE37C1641F020E030E011
:100AA00040E251E40E94CD0CCF5FF6CFA701960142
:100AB0000E945C0C2B013C010E943F0D4B015C012C
:100AC0004AE00E948B047C01E00EF11ECC23A9F1C8
:100AD000C501B4010E946E0D9B01AC01C301B201BE
:100AE0000E945B0C4B015C016EE285E991E00E9483
:100AF000B303E80EF91EC15000F120E030E040E2FF
:100B000051E4C501B4010E94CD0E2B013C010E94AD
:100B10003F0D4B01CB010E94CF04E80EF91EB4013A
:100B200090E080E00E946E0D9B01AC01C301B20118
:100B30000E945B0C4B015C01DECFC701CF911F917E
:100B40000F91FF90EF90DF90CF90BF90AF909F906C
:100B50008F907F906F905F904F900895CF93DF9329
:100B60000E94CF04EC0180E491E00E9470048C0F9D
:100B70009D1FDF91CF910895682F70E090E080E095
:100B80004AE00C948B04CF93DF930E94BC05EC01E8
:100B900080E491E00E9470048C0F9D1FDF91CF9143
:100BA00008951F920F920FB60F9211242F933F9327
:100BB0008F939F93AF93BF9380918C0190918D0100
:100BC000A0918E01B0918F0130918B0123E0230F12
:100BD0002D3758F50196A11DB11D20938B018093EF
:100BE0008C0190938D01A0938E01B0938F01809121
:100BF000870190918801A0918901B0918A010196A5
:100C0000A11DB11D8093870190938801A093890154
:100C1000B0938A01BF91AF919F918F913F912F9196
:100C20000F900FBE0F901F90189526E8230F029685
:100C3000A11DB11DD2CF1F920F920FB60F9211249A
:100C40002F933F934F935F936F937F938F939F93D4
:100C5000AF93BF93EF93FF93E0910201F0910301F3
:100C60000995FF91EF91BF91AF919F918F917F91E6
:100C70006F915F914F913F912F910F900FBE0F9009
:100C80001F9018951F920F920FB60F9211242F9359
:100C90003F934F935F936F937F938F939F93AF9304
:100CA000BF93EF93FF93E0910001F091010109954B
:100CB000FF91EF91BF91AF919F918F917F916F9134
:100CC0005F914F913F912F910F900FBE0F901F900A
:100CD00018951F920F920FB60F9211242F933F93E6
:100CE0004F935F936F937F938F939F93AF93BF9334
:100CF000EF93FF9385E991E00E949103FF91EF91BB
:100D0000BF91AF919F918F917F916F915F914F9123
:100D10003F912F910F900FBE0F901F9018951F922B
:100D20000F920FB60F9211242F938F939F93EF93EF
:100D3000FF93E091A501F091A6018081E091AB01C4
:100D4000F091AC0182FD1BC090818091AE018F5F5C
:100D50008F732091AF01821741F0E091AE01F0E076
:100D6000EB56FE4F958F8093AE01FF91EF919F91CF
:100D70008F912F910F900FBE0F901F90189580812B
:100D8000F4CFE5E9F1E01382128288EE93E0A0E06F
:100D9000B0E084839583A683B78382E391E0918357
:100DA000808385EC90E09587848784EC90E097873A
:100DB000868780EC90E0918B808B81EC90E0938B28
:100DC000828B82EC90E0958B848B86EC90E0978B05
:100DD000868B118E128E138E148E85E190E0909387
:100DE000330280933202E7E8F2E08EE0808380E015
:100DF00090E7A9E1B6E481839283A383B48380E082
:100E000090E4ACE1B6E485839683A783B08780E065
:100E100090E0A8ECB1E481879287A387B48780E053
:100E200090EEA6E7B5E485879687A787B08B84E028
:100E300090E0928B818BE4E5F2E08FE0808380E0AC
:100E400090E0A0E2B1E481839283A383B48380E045
:100E500090E0A0E7B1E485839683A783B08711AAC9
:100E600012AA8AE080935102EBE3F2E08FEF9FEF4A
:100E7000AFE7BFE782839383A483B58380E090E0EC
:100E8000A0E8B0E086839783A087B1875DE15287B1
:100E90004CE043872CE637E03587248797E1968737
:100EA0008BE38787508B418B338B228B948B858B85
:100EB00080E098E090933A0280933902E4E3F2E014
:100EC00083E0808382E390E09283818314821382A3
:100ED0000895CF93DF93CDB7DEB7AA970FB6F894F6
:100EE000DEBF0FBECDBF789484B5826084BD84B56B
:100EF000816084BD85B5826085BD85B5816085BD15
:100F000080916E00816080936E00109281008091CC
:100F10008100826080938100809181008160809354
:100F20008100809180008160809380008091B10079
:100F300084608093B1008091B00081608093B000A4
:100F400080917A00846080937A0080917A00826038
:100F500080937A0080917A00816080937A008091FA
:100F60007A00806880937A001092C100E091A50118
:100F7000F091A60182E08083E091A101F091A201AD
:100F80001082E091A301F091A4018FEC8083109274
:100F9000AD01E091A901F091AA0186E08083E09182
:100FA000A701F091A801808180618083E091A70171
:100FB000F091A801808188608083E091A701F09181
:100FC000A801808180688083E091A701F091A80149
:100FD00080818F7D8083EDE5F2E085E892E01192DB
:100FE0001192119211928E179F07C9F761E08091BB
:100FF00051020E94C80261E0809151020E949A024F
:101000001FB7F89480918201811127C0E2EEF2E0CF
:101010008491E6EFF2E09491E82FF0E0EE0FFF1FED
:10102000E654FD4FA591B491EC91E92321F461E0E0
:101030008AE00E949A0261E08AE00E94C8028CB5B0
:1010400080618CBD8CB580648CBD61E08DE00E94B8
:10105000C80261E08BE00E94C802809182018F5F2C
:10106000809382011FBF62E0809134020E94C80217
:10107000809134020E945D0221E030E0892B11F062
:1010800030E020E030933802209337020FE013E085
:10109000E2E02E2E312C0E94860280913702909140
:1010A0003802892B09F051C08AEE90E00E947D043D
:1010B000809134020E945D02892B09F444C085E9C5
:1010C00091E00E941B0420917A0010927A0083B76D
:1010D000817F846083BFF89483B7816083BF8091F0
:1010E0003402823009F49AC0833051F41093030122
:1010F0000093020180916900837F80936900E99ADF
:101100007894889583B78E7F83BF80913402823034
:1011100009F48FC0833071F4E99881E090E0880F82
:10112000991FFC01E050FF4F7EE0C72E73E0D72EE1
:10113000D182C08220937A00EE24E394F12CF092C5
:101140003802E09237020E9486022FB7F89480910D
:101150008C0190918D01A0918E01B0918F012FBFD4
:1011600040918301509184016091850170918601C5
:10117000411551056105710571F06C017D01C41ABD
:10118000D50AE60AF70AB701A601403157426105C0
:10119000710508F423C38093830190938401A09385
:1011A0008501B093860184EA92E00E947D0482E882
:1011B00092E00E947D0486E1EBE3F2E0DE0111960D
:1011C00001900D928A95E1F784E1EAE1F1E0DE0118
:1011D000579601900D928A95E1F7809187020E94BF
:1011E000F902009751F5309299022092980242E05C
:1011F000E42EF12C8FE591E00E940004F701EE0F40
:10120000FF1FE05FFE4F80819181009711F00E94E7
:10121000700480E491E00E947004BDC1109301014C
:1012200000930001809169008C7F80936900E89AA7
:1012300067CFE89890E080E072CF8F3F23E092077D
:1012400050F083E090E0909399028093980233E00D
:10125000E32EF12CCFCFBC0190E080E00E946E0D18
:101260006B017C01AC019B0160E070EC8FE794E4C2
:101270000E945B0C9B01AC01C701B6010E94CD0C22
:10128000209188023091890240918A0250918B020C
:101290000E94CD0E20918C0230918D0240918E02E1
:1012A00050918F020E94CD0C0E94850E20919402D5
:1012B0003091950240919602509197020E94CD0C78
:1012C0006B017C0123E333E948E853E46091900229
:1012D0007091910280919202909193020E945C0C15
:1012E0009B01AC0160E070E080E89FE30E94CD0CC0
:1012F000A70196010E945C0C9B01AC0160E070E0CC
:1013000080E89FE30E94CD0C1092990210929802FF
:1013100023E333E948E853E40E945B0C20E73EEC0A
:1013200048E85FE30E94CD0E9B01AC010E945C0C7B
:1013300020E030E040E05FE30E945C0C0E94AB0DD7
:1013400020E030E040E05FE30E94CD0E6B017C01C5
:10135000C0920C01D0920D01E0920E01F0920F01AB
:1013600080E492E00E947D0480E392E00E94000409
:1013700060910C0170910D0180910E0190910F010F
:1013800042E00E94D5048CE292E00E947D0420910C
:1013900008013091090140910A0150910B01C701E8
:1013A000B6010E94780E181644F4C0920801D0923B
:1013B0000901E0920A01F0920B01209104013091A1
:1013C00005014091060150910701C701B6010E9435
:1013D000C80C87FF08C0C0920401D0920501E092BA
:1013E0000601F092070144E150E0BE01695E7F4FC3
:1013F00081E090E00E9442048BE192E00E947D0433
:1014000087E092E00E9400046F89788D898D9A8D23
:1014100042E00E94D50480E092E00E9400048F8D9B
:101420000E94BC058EEF91E00E94000488A10E94FA
:10143000BC058CEF91E00E94000489A19AA10E9452
:10144000CF048AEF91E00E9400048BA10E94BC05AA
:1014500088EF91E00E9400048CA10E94C30584EEF5
:1014600091E00E9400046B8D7C8D8D8D9E8D42E0FD
:101470000E94D5048BED91E00E9400048DA10E9492
:10148000BC0589ED91E00E9400048EA10E94BC057C
:1014900087ED91E00E9400048FA198A50E94CF04DF
:1014A00085ED91E00E94000489A50E94BC0583EDB2
:1014B00091E00E9400048AA50E94C30546E150E025
:1014C000BE016F5F7F4F80913202909133020E9484
:1014D000420485EC91E00E947D0481EB91E00E9442
:1014E00000046B817C818D819E8142E00E94D50445
:1014F0008AEA91E00E9400048B850E94BC0588EA7C
:1015000091E00E9400048C850E94BC0586EA91E06F
:101510000E9400048D859E850E94CF0484EA91E09C
:101520000E9400048F850E94BC0582EA91E00E941F
:10153000000488890E94C3058EE891E00E9400049F
:101540006F81788589859A8542E00E94D50485E877
:1015500091E00E94000489890E94BC0583E891E023
:101560000E9400048A890E94BC0581E891E00E94E3
:1015700000048B899C890E94CF048FE791E00E9430
:1015800000048D890E94BC058DE791E00E94000453
:101590008E890E94C30585E692E00E947D048091B9
:1015A00054020E94F902C0905902D0905A02E09071
:1015B0005B02F0905C02BC0190E080E00E946E0D46
:1015C00020E030E040EA50E40E94CD0E20E030EC14
:1015D0004FE754E40E94CD0C4B015C012091550271
:1015E000309156024091570250915802C701B601FE
:1015F0000E945C0C9B01AC01C501B4010E94CD0EA0
:10160000A70196010E94CD0C0E94B5014B015C011F
:10161000809154020E94F902C0905902D0905A025F
:10162000E0905B02F0905C02BC0190E080E00E94E0
:101630006E0D20E030E040EA50E40E94CD0E20E044
:1016400030EC4FE754E40E94CD0C2B013C0120917B
:101650005502309156024091570250915802C701ED
:10166000B6010E945C0C9B01AC01C301B2010E9457
:10167000CD0EA70196010E94CD0C0E94B5016B0111
:101680007C0126E636E646E051E40E94780E87FFAC
:10169000B4C020E030E040EC50E4C701B6010E9445
:1016A000C80C18160CF0ACC020E030E040EC50E460
:1016B000C701B6010E945B0C28E939E949E150E411
:1016C0000E94CD0C6B017C01AC019B010E945C0C63
:1016D0009B01AC0160E070E080E490E40E945B0C50
:1016E0002B013C01A7019601C701B6010E94CD0E56
:1016F0009B01AC01C301B2010E94CD0E20E030E09D
:1017000040E45FE30E943A0F20E030E048EC52E40E
:101710000E94CD0E0E943F0DF62E84E591E00E94BE
:1017200000046F2D70E090E080E04AE00E948B049E
:1017300080E591E00E94000442E0C501B4010E94EE
:10174000D5048DE491E00E947D0420E030E040EC7F
:1017500050E4C501B4010E94C80C181624F08FE2B1
:1017600091E00E947D0482E291E00E940004809159
:101770009A0290919B02009709F444C08E599240BE
:101780000E94AE0586E191E00E94000420919A0239
:1017900030919B028DB79EB721153105B1F58E5959
:1017A00092400E94AE0583E091E00E940004809187
:1017B000390290913A0240919A0250919B022DB7C2
:1017C0003EB74115510521F52E593240821B930B2E
:1017D0000E94AE0580E592E00E947D0480E0C82E64
:1017E00080E0D82ECD2809F456CC0E947D038823B2
:1017F00009F44ECC0E9400004BCC94E6F92E8DCF1C
:10180000F12C8BCF90E080E0BBCF821B930BC9CF34
:10181000241B350BDBCF97FB072E16F4009407D063
:1018200077FD09D00E94410C07FC05D03EF490954D
:1018300081959F4F0895709561957F4F0895A1E21E
:101840001A2EAA1BBB1BFD010DC0AA1FBB1FEE1F3A
:10185000FF1FA217B307E407F50720F0A21BB30B85
:10186000E40BF50B661F771F881F991F1A9469F701
:1018700060957095809590959B01AC01BD01CF015D
:101880000895AA1BBB1B51E107C0AA1FBB1FA617C7
:10189000B70710F0A61BB70B881F991F5A95A9F719
:1018A00080959095BC01CD010895EE0FFF1F059026
:1018B000F491E02D09945058BB27AA270E94730C7D
:1018C0000C94260E0E94180E38F00E941F0E20F075
:1018D00039F49F3F19F426F40C94150E0EF4E0959C
:1018E000E7FB0C94E60DE92F0E94370E58F3BA1768
:1018F000620773078407950720F079F4A6F50C9426
:10190000710E0EF4E0950B2EBA2FA02D0B01B9012C
:1019100090010C01CA01A0011124FF27591B99F065
:10192000593F50F4503E68F11A16F040A22F232F71
:10193000342F4427585FF3CF469537952795A795C1
:10194000F0405395C9F77EF41F16BA0B620B730B68
:10195000840BBAF09150A1F0FF0FBB1F661F771FD9
:10196000881FC2F70EC0BA0F621F731F841F48F48E
:10197000879577956795B795F7959E3F08F0B0CF17
:101980009395880F08F09927EE0F979587950895FE
:101990000E94C20D08F481E008950E94E10C0C94AD
:1019A000260E0E941F0E58F00E94180E40F029F4D7
:1019B0005F3F29F00C94E60D51110C94720E0C94BB
:1019C000150E0E94370E68F39923B1F3552391F356
:1019D000951B550BBB27AA2762177307840738F09E
:1019E0009F5F5F4F220F331F441FAA1FA9F335D0FB
:1019F0000E2E3AF0E0E832D091505040E695001CAF
:101A0000CAF72BD0FE2F29D0660F771F881FBB1F68
:101A1000261737074807AB07B0E809F0BB0B802D46
:101A2000BF01FF2793585F4F3AF09E3F510578F072
:101A30000C94E60D0C94720E5F3FE4F3983ED4F3E1
:101A4000869577956795B795F7959F5FC9F7880F46
:101A5000911D9695879597F90895E1E0660F771F98
:101A6000881FBB1F621773078407BA0720F0621B29
:101A7000730B840BBA0BEE1F88F7E09508950E9454
:101A80003F0E88F09F5798F0B92F9927B751B0F0C3
:101A9000E1F0660F771F881F991F1AF0BA95C9F7F2
:101AA00014C0B13091F00E94710EB1E008950C9411
:101AB000710E672F782F8827B85F39F0B93FCCF3C4
:101AC000869577956795B395D9F73EF4909580956F
:101AD000709561957F4F8F4F9F4F0895E89409C08F
:101AE00097FB3EF490958095709561957F4F8F4F51
:101AF0009F4F9923A9F0F92F96E9BB279395F69567
:101B0000879577956795B795F111F8CFFAF4BB0FE4
:101B100011F460FF1BC06F5F7F4F8F4F9F4F16C048
:101B2000882311F096E911C0772321F09EE8872FD2
:101B3000762F05C0662371F096E8862F70E060E08E
:101B40002AF09A95660F771F881FDAF7880F969507
:101B5000879597F908950E94590E90F09F3748F4A1
:101B6000911116F00C94720E60E070E080E89FEB2B
:101B7000089526F41B16611D711D811D0C94EC0D3A
:101B80000C94070E990F0008550FAA0BE0E8FEEF22
:101B900016161706E807F907C0F012161306E40731
:101BA000F50798F0621B730B840B950B39F40A262A
:101BB00061F0232B242B252B21F408950A2609F408
:101BC000A140A6958FEF811D811D089597F99F670C
:101BD00080E870E060E00895882371F4772321F0B5
:101BE0009850872B762F07C0662311F499270DC0D4
:101BF0009051862B70E060E02AF09A95660F771F6F
:101C0000881FDAF7880F9695879597F908959F3F73
:101C100031F0915020F4879577956795B795880FA7
:101C2000911D9695879597F908959FEF80EC0895FB
:101C300000240A94161617061806090608950024AB
:101C40000A9412161306140605060895092E039425
:101C5000000C11F4882352F0BB0F40F4BF2B11F499
:101C600060FF04C06F5F7F4F8F4F9F4F089557FDF8
:101C70009058440F551F59F05F3F71F04795880FFA
:101C800097FB991F61F09F3F79F087950895121691
:101C900013061406551FF2CF4695F1DF08C016163D
:101CA00017061806991FF1CF8695710561050894EE
:101CB00008950E943F0EA0F0BEE7B91788F4BB2735
:101CC0009F3860F41616B11D672F782F8827985F0C
:101CD000F7CF869577956795B11D93959639C8F39B
:101CE0000895E894BB2766277727CB0197F90895D5
:101CF0000E94C20D08F48FEF089516F00C94070EA1
:101D00000C94150E68940C94E60D0E943F0EA8F3F7
:101D10009923C1F3AEF3DF93CF931F930F93FF92F9
:101D2000C92FDD2788232AF02197660F771F881F88
:101D3000DAF720E030E040E85FEB9FE3883920F0FD
:101D4000803E38F021968F770E945C0CE8E6F0E048
:101D500004C00E945C0CE5E9F0E00E94C90F8B0111
:101D6000BE01EC01FB2E6F5771097595771F880B2B
:101D7000990B0E94700D28E132E741E35FE30E9476
:101D8000E00EAF2D9801AE01FF900F911F91CF9102
:101D9000DF910E94730C0C94260E0E94E00E0C94AE
:101DA000260E0E94180E38F00E941F0E20F0952378
:101DB00011F00C94E60D0C94150E11240C94720E77
:101DC0000E94370E70F3959FC1F3950F50E0551F99
:101DD000629FF001729FBB27F00DB11D639FAA2780
:101DE000F00DB11DAA1F649F6627B00DA11D661FCF
:101DF000829F2227B00DA11D621F739FB00DA11DF0
:101E0000621F839FA00D611D221F749F3327A00DA9
:101E1000611D231F849F600D211D822F762F6A2F45
:101E200011249F5750409AF0F1F088234AF0EE0FAA
:101E3000FF1FBB1F661F771F881F91505040A9F7D7
:101E40009E3F510580F00C94E60D0C94720E5F3F9E
:101E5000E4F3983ED4F3869577956795B795F79513
:101E6000E7959F5FC1F7FE2B880F911D969587958B
:101E700097F90895FA01EE0FFF1F309621053105FD
:101E8000A1F16115710561F48038BFE39B0749F149
:101E900068949038810561F08038BFEF9B0741F06E
:101EA00099234AF5FF3FE1053105210519F1E89431
:101EB0000894E795D901AA2329F4AB2FBE2FF85F28
:101EC000D0F310C0FF5F70F4A695E0F7F73950F03B
:101ED00019F0FF3A38F49F779F930DD00F9007FCCD
:101EE0009058089546F00C94150E60E070E080E87C
:101EF0009FE308954FE79F775F934F933F932F930F
:101F00000E94850E2F913F914F915F910E94CD0EBF
:101F10000C94970F0E94C20D880B990B089529F419
:101F200016F00C94E60D0C94710E0C94150E0E9494
:101F30003F0EA8F39638A0F707F80F92E8942BE32A
:101F40003AEA48EB5FE70E94E30E0F920F920F927E
:101F50004DB75EB70F920E943210E2ECF0E00E94A3
:101F6000C90F4F915F91EF91FF91E595EE1FFF1F14
:101F700049F0FE57E0684427EE0F441FFA95E1F759
:101F80004195550B0E94FC0F0F9007FE0C94F00F2B
:101F90000895DF93CF931F930F93FF92EF92DF92F9
:101FA0007B018C01689406C0DA2EEF010E94E00EDE
:101FB000FE01E894A5912591359145915591A6F39F
:101FC000EF010E94730CFE019701A801DA9469F7F2
:101FD000DF90EF90FF900F911F91CF91DF910895C7
:101FE0009B01AC0160E070E080E89FE30C94CD0CB5
:101FF0000C94E60D0C94070E0E943F0ED8F3992323
:10200000C9F3940F511DA3F39150504094F059F02F
:10201000882332F0660F771F881F91505040C1F718
:102020009E3F51052CF7880F911D9695879597F93E
:1020300008955F3FACF0983E9CF0BB27869577955E
:102040006795B79508F4B1609395C1F7BB0F58F742
:1020500011F460FFE8CF6F5F7F4F8F4F9F4FE3CF4B
:102060000C94720EFA01DC01AA0FBB1F9B01AC019C
:10207000BF5728F4222733274427507820C0B75170
:1020800090F4AB2F0024469537952795011CA39516
:10209000D2F3002071F0220F331F441FB395DAF3FF
:1020A0000ED00C945B0C61307105A0E88A07B9462C
:1020B00030F49B01AC01662777278827907830960B
:1020C00021F020833183428353830895F894FFCF16
:1020D0000E030E03FFFF7F7F000080000000C07F23
:1020E0004F0152015F016C017901FFFF7F7F00000A
:1020F00080001D0C6C07173B1D0C6C07173B000084
:102100000000B303130340031B0471034F03630375
:102110000D0A006E616E00696E66006F7666004F94
:102120004B00444953434F4E4E454354454400539E
:10213000484F52545F544F5F474E440053484F52EC
:10214000545F544F5F56434300494E56414C4944F7
:0221500000008D
:00000001FF
