:100000000C940C010C9434010C9434010C943401C4
:100010000C9434010C9434010C9434010C9434018C
:100020000C9434010C9434010C9434010C9434017C
:100030000C9434010C9434010C9434010C9434016C
:100040000C94DD040C9434010C944D050C9427059C
:100050000C9434010C9434010C9434010C9434014C
:100060000C9434010C94340108000000BE92244921
:10007000123EABAAAA2ABECDCCCC4C3E00000080DA
:10008000BEABAAAAAA3E00000000BF000000803F4D
:100090000000000000084178D3BB4387D1133D190D
:1000A0000E3CC3BD4282AD2B3E68EC8276BED98F3A
:1000B000E1A93E4C80EFFFBE01C4FF7F3F0000007E
:1000C000000007634236B79BD8A71A39685618AEA6
:1000D000BAAB558C1D3CB7CC5763BD6DEDFD753E7D
:1000E000F6177231BF000000803F557365642052DF
:1000F000414D20617070726F783A200046726565DC
:100100002052414D3A200048656170207573656446
:100110003A20005629002520280042617474657237
:10012000793A20004572726F7220696E2074656D95
:1001300070657261747572652073656E736F723A63
:100140002000C2B043004D61782074656D70657207
:100150006174757265206C69666574696D653A20B5
:1001600000C2B043004D696E2074656D70657261A8
:1001700074757265206C69666574696D653A2000F6
:10018000C2B043004D696E2074656D706572617414
:100190007572653A2000C2B043004D6178207465E5
:1001A0006D70657261747572653A2000C2B043006B
:1001B00043757272656E742074656D7065726174DA
:1001C0007572653A2000000000080002010000037B
:1001D00004070000000000000000000000002500EF
:1001E00028002B0000000000240027002A0004043F
:1001F00004040404040402020202020203030303CF
:1002000003030102040810204080010204081020AA
:100210000102040810207F0511241FBECFEFD8E093
:10022000DEBFCDBF11E0A0E0B1E0EAEBFBE102C030
:1002300005900D92AA36B107D9F722E0AAE6B1E0FF
:1002400001C01D92AB37B207E1F711E0CCE0D1E07D
:1002500004C02197FE010E94C309CB30D107C9F722
:100260000E94F7050C94DB0D0C94000090E0FC015B
:10027000EE5FFD4F249182519E4FFC0184918823B3
:1002800099F090E0880F991FFC01EC51FE4FA59169
:10029000B491FC01E652FE4F859194918FB7F8948A
:1002A000EC91E22BEC938FBF08958F929F92AF92C7
:1002B000BF92CF92DF92EF92FF920F931F93CF9353
:1002C000DF932091610230916202F901EE0FFF1F6E
:1002D000EE0FFF1FE05DFD4F618772878387948774
:1002E000C90101966AE070E00E947909EC019093DF
:1002F000620280936102892B19F481E0809363028A
:1003000080916302882311F0CAE0D0E089E3A82E2F
:1003100082E0B82E10E000E0C12CD12C76010C1741
:100320001D077CF4F50121913191419151915F01BB
:10033000C701B6010E94CA096B017C010F5F1F4F04
:10034000EECF2AE939E949E55FE3609178017091E0
:10035000790180917A0190917B010E94420C4B01BE
:100360005C01BE01DD0F880B990B0E94E50A9B0121
:10037000AC01C701B6010E943B0A2AE939E949E10B
:100380005EE30E94420C9B01AC01C501B4010E94D6
:10039000CA09609378017093790180937A019093F0
:1003A0007B01DF91CF911F910F91FF90EF90DF9034
:1003B000CF90BF90AF909F908F90089590E0FC01F8
:1003C000EA53FE4F2491FC01EE5FFD4F3491FC0196
:1003D000E251FE4FE491EE23C9F0222339F023309D
:1003E00001F1A8F4213019F1223029F1F0E0EE0FEB
:1003F000FF1FE652FE4FA591B4918FB7F894EC9190
:10040000611126C030953E233C938FBF089527305D
:10041000A9F02830C9F0243049F7809180008F7D01
:1004200003C0809180008F7780938000DFCF84B5F8
:100430008F7784BDDBCF84B58F7DFBCF8091B000FB
:100440008F778093B000D2CF8091B0008F7DF9CFAD
:100450003E2BDACF8E3008F08E5087708064809308
:100460007C0080917A00806480937A0080917A0089
:1004700086FDFCCF80917800909179000895AF922D
:10048000BF92CF92DF92EF92FF920F931F93CF9381
:10049000DF936C017B018B01040F151FEB015E01E3
:1004A000AE18BF08C017D10759F06991D601ED9178
:1004B000FC910190F081E02DC6010995892B79F717
:1004C000C501DF91CF911F910F91FF90EF90DF90C9
:1004D000CF90BF90AF900895FC01538D448D252F90
:1004E00030E0842F90E0821B930B541710F0CF96CE
:1004F000089501970895FC01918D828D981761F000
:10050000A28DAE0FBF2FB11D5D968C91928D9F5F16
:100510009F73928F90E008958FEF9FEF0895FC01F5
:10052000918D828D981731F0828DE80FF11D858DA8
:1005300090E008958FEF9FEF0895FC01918D228D3B
:10054000892F90E0805C9F4F821B91098F739927C0
:1005500008958CE891E00E949D0221E0892B09F426
:1005600020E0822F089580E090E0892B29F00E94FE
:10057000A90281110C9400000895FC01A48DA80F1C
:10058000B92FB11DA35ABF4F2C91848D90E00196D5
:100590008F739927848FA689B7892C93A089B189F5
:1005A0008C91837080648C93938D848D981306C096
:1005B0000288F389E02D80818F7D80830895EF92FA
:1005C000FF920F931F93CF93DF93EC0181E0888F0D
:1005D0009B8D8C8D98131AC0E889F989808185FFDD
:1005E00015C09FB7F894EE89FF896083E889F9897F
:1005F00080818370806480839FBF81E090E0DF9181
:10060000CF911F910F91FF90EF900895F62E0B8DD3
:1006100010E00F5F1F4F0F731127E02E8C8D8E118E
:100620000CC00FB607FCFACFE889F989808185FFF5
:10063000F5CFCE010E94BD02F1CFEB8DEC0FFD2F67
:10064000F11DE35AFF4FF0829FB7F8940B8FEA89B0
:10065000FB8980818062CFCF0F931F93CF93DF936D
:100660008C01D0E0C0E0F801EC0FFD1F649166231F
:1006700041F08CE891E00E94DF02892B11F0219675
:10068000F2CFCE01DF91CF911F910F910895CF93BB
:10069000DF93EC01888D8823B9F0AA89BB89E889AA
:1006A000F9898C9185FD03C0808186FD0DC00FB650
:1006B00007FCF7CF8C9185FFF2CF808185FFEDCFCE
:1006C000CE010E94BD02E9CFDF91CF9108958EBD8A
:1006D00000000DB407FEFDCF8EB50895CF93DF93D4
:1006E000EC0160E080912B020E94DE0183E00E9419
:1006F00067038D2F0E9467038C2F0E946703CCE74E
:10070000D1E080E00E946703899381E0CC38D8076C
:10071000C1F761E080912B02DF91CF910C94DE0153
:10072000FC0101900020E9F73197AF01481B590BFC
:10073000BC018CE891E00C943F02CF93DF930E94C0
:100740002C03EC0188E291E00E9490038C0F9D1F26
:10075000DF91CF9108958F929F92AF92BF920F93A6
:100760001F93CF93DF93CDB7DEB7A1970FB6F89461
:10077000DEBF0FBECDBF19A2423008F44AE08E01A1
:100780000F5D1F4F842E912CB12CA12CA50194013B
:100790000E948D09E62FB901CA01EA30F4F4E05D48
:1007A000D801EE938D01232B242B252B79F790E094
:1007B00080E0109719F0CD010E949003A1960FB62A
:1007C000F894DEBF0FBECDBFDF91CF911F910F9187
:1007D000BF90AF909F908F900895E95CE1CFCF9349
:1007E000DF93BC0190E080E04AE00E94AB03EC01A3
:1007F00088E291E00E9490038C0F9D1FDF91CF91C2
:1008000008954F925F926F927F928F929F92AF92D4
:10081000BF92CF92DF92EF92FF920F931F93CF93ED
:100820006B017C01742EAC019B010E94FF0C88239C
:1008300099F08BE291E0CF911F910F91FF90EF9093
:10084000DF90CF90BF90AF909F908F907F906F90F0
:100850005F904F900C94900346015701E894B7F8CD
:100860002FEF3FEF4FE75FE7C501B4010E94FF0C98
:1008700081110DC02FEF3FEF4FE75FE7C501B401D6
:100880000E94360A18161CF48FE291E0D4CF2FEFA5
:100890003FEF4FE75FE4C701B6010E94ED0B18166A
:1008A0001CF483E391E0C7CF2FEF3FEF4FE75FECFE
:1008B000C701B6010E94360A87FDF3CF20E030E081
:1008C000A901C701B6010E94360A10E000E087FFC7
:1008D0000AC06DE28CE891E00E94DF028C01F7FA19
:1008E000F094F7F8F094C0E060E070E080E09FE3FF
:1008F0007C1641F020E030E040E251E40E943B0AE7
:10090000CF5FF6CFA70196010E94CA092B013C01D7
:100910000E94B40A4B015C014AE00E94AB037C01D7
:10092000E00EF11ECC23C1F1C501B4010E94E30A1F
:100930009B01AC01C301B2010E94C9094B015C01DA
:100940006EE28CE891E00E94DF02E80EF91EC150D1
:1009500018F120E030E040E251E4C501B4010E940A
:10096000420C2B013C010E94B40A4B01B12CA12C7A
:100970004AE0C501B4010E94AB03E80EF91EC501AF
:10098000B4010E94E30A9B01AC01C301B2010E94C1
:10099000C9094B015C01DBCFC701CF911F910F91BA
:1009A000FF90EF90DF90CF90BF90AF909F908F908F
:1009B0007F906F905F904F9008951F920F920FB6A7
:1009C0000F9211242F933F938F939F93AF93BF93D5
:1009D0008091740190917501A0917601B091770199
:1009E0003091730123E0230F2D3758F50196A11D97
:1009F000B11D209373018093740190937501A093AE
:100A00007601B093770180916F0190917001A09170
:100A10007101B09172010196A11DB11D80936F010A
:100A200090937001A0937101B0937201BF91AF9147
:100A30009F918F913F912F910F900FBE0F901F901C
:100A4000189526E8230F0296A11DB11DD2CF1F9243
:100A50000F920FB60F9211242F933F934F935F93F2
:100A60006F937F938F939F93AF93BF93EF93FF9376
:100A70008CE891E00E94BD02FF91EF91BF91AF9190
:100A80009F918F917F916F915F914F913F912F91A6
:100A90000F900FBE0F901F9018951F920F920FB6D8
:100AA0000F9211242F938F939F93EF93FF93E091D5
:100AB0009C01F0919D018081E091A201F091A30140
:100AC00082FD1BC090818091A5018F5F8F73209163
:100AD000A601821741F0E091A501F0E0E457FE4F36
:100AE000958F8093A501FF91EF919F918F912F9109
:100AF0000F900FBE0F901F9018958081F4CFECE8F7
:100B0000F1E01382128288EE93E0A0E0B0E08483EB
:100B10009583A683B7838AE191E09183808385ECF6
:100B200090E09587848784EC90E09787868780ECB7
:100B300090E0918B808B81EC90E0938B828B82ECA8
:100B400090E0958B848B86EC90E0978B868B118E52
:100B5000128E138E148EE4E6F2E08EE0808380E045
:100B600090E7A9E1B6E481839283A383B48380E014
:100B700090E4ACE1B6E485839683A783B08780E0F8
:100B800090E0A8ECB1E481879287A387B48780E0E6
:100B900090EEA6E7B5E485879687A787B08B84E0BB
:100BA00090E0928B818BE0E3F2E08FE0808380E045
:100BB00090E0A0E2B1E481839283A383B48380E0D8
:100BC00090E0A0E7B1E485839683A783B08712AA5B
:100BD00011AA13AAEBE2F2E0148213828AE0808366
:100BE00080E098E090932A02809329020895CF93A1
:100BF000DF9300D0CDB7DEB7789484B5826084BD32
:100C000084B5816084BD85B5826085BD85B5816010
:100C100085BD80916E00816080936E00109281008E
:100C20008091810082608093810080918100816049
:100C3000809381008091800081608093800080910A
:100C4000B10084608093B1008091B0008160809396
:100C5000B00080917A00846080937A0080917A005D
:100C6000826080937A0080917A00816080937A001C
:100C700080917A00806880937A001092C100E091A0
:100C80009C01F0919D0182E08083E0919801F091B8
:100C900099011082E0919A01F0919B018FEC808381
:100CA0001092A401E091A001F091A10186E080835F
:100CB000E0919E01F0919F01808180618083E091AD
:100CC0009E01F0919F01808188608083E0919E0168
:100CD000F0919F01808180688083E0919E01F09176
:100CE0009F0180818F7D8083E9E3F2E081E692E0DD
:100CF00011921192119211928E179F07C9F780914C
:100D00002B020E94360161E080912B020E94DE01DD
:100D10001FB7F89480916A01811124C0E8EFF1E0D7
:100D20008491ECE0F2E09491E82FF0E0EE0FFF1FE9
:100D3000EC51FE4FA591B491EC91E92321F461E0CF
:100D40008AE00E94DE018AE00E9436018CB5806153
:100D50008CBD8CB580648CBD8DE00E9436018BE02B
:100D60000E94360180916A018F5F80936A011FBFE4
:100D700080912E0290912F020E946E038E010F5FD0
:100D80001F4F98012B57324019012FB7F8948091CB
:100D9000740190917501A0917601B09177012FBFF8
:100DA00040916B0150916C0160916D0170916E01E9
:100DB000411551056105710571F06C017D01C41A81
:100DC000D50AE60AF70AB701A60140315742610584
:100DD000710508F46DC280936B0190936C01A09330
:100DE0006D01B0936E01809164020E942A02009707
:100DF000E9F442E050E0509376024093750232E00D
:100E0000E32EF12C84E291E00E942C03F701EE0F17
:100E1000FF1FE45FFE4F80819181009711F00E94D7
:100E2000900388E291E00E9490032AC18F3F53E033
:100E3000950750F083E090E09093760280937502DE
:100E400023E0E22EF12CDECFBC0190E080E00E9496
:100E5000E30A6B017C01AC019B0160E070EC8FE761
:100E600094E40E94C9099B01AC01C701B6010E942C
:100E70003B0A2091650230916602409167025091D1
:100E800068020E94420C2091690230916A024091EE
:100E90006B0250916C020E943B0A0E94FA0B209157
:100EA00071023091720240917302509174020E945B
:100EB0003B0A6B017C0123E333E948E853E460918A
:100EC0006D0270916E0280916F02909170020E948B
:100ED000CA099B01AC0160E070E080E89FE30E94DA
:100EE0003B0AA70196010E94CA099B01AC0160E080
:100EF00070E080E89FE30E943B0A10927602109215
:100F0000750223E333E948E853E40E94C90920E766
:100F10003EEC48E85FE30E94420C9B01AC010E945A
:100F2000CA0920E030E040E05FE30E94CA090E9465
:100F3000200B20E030E040E05FE30E94420C6B01B8
:100F40007C018090080190900901A0900A01B09066
:100F50000B01A5019401C501B4010E94FF0C811190
:100F600008C0A5019401C701B6010E94360A882372
:100F7000A9F0C0920801D0920901E0920A01F09212
:100F80000B0180EB91E00E942C0342E0C701B60107
:100F90000E9401048CEA91E00E949D0320910401CB
:100FA000309105014091060150910701C701B6013A
:100FB0000E94ED0B1816ACF4C0920401D09205010A
:100FC000E0920601F09207018AE991E00E942C0369
:100FD00042E0C701B6010E94010486E991E00E9447
:100FE0009D03209100013091010140910201509137
:100FF0000301C701B6010E94360A87FF15C0C092DF
:101000000001D0920101E0920201F092030184E814
:1010100091E00E942C0342E0C701B6010E94010446
:1010200080E891E00E949D0380912E0290912F0212
:101030000E946E0385E691E00E942C0360917C0182
:1010400070917D0180917E0190917F0142E00E942C
:10105000010481E691E00E949D0386E491E00E94F4
:101060002C036091800170918101809182019091A7
:10107000830142E00E94010482E491E00E949D030A
:10108000809130020E942A02C0903502D090360230
:10109000E0903702F0903802BC01990F880B990B51
:1010A0000E94E50A20E030E040EA50E40E94420C51
:1010B00020E030EC4FE754E40E943B0A4B015C0116
:1010C000209131023091320240913302509134022A
:1010D000C701B6010E94CA099B01AC01C501B40158
:1010E0000E94420CA70196010E943B0A0E945501F2
:1010F0004B015C01809130020E942A02C0903502AF
:10110000D0903602E0903702F0903802BC01990F7F
:10111000880B990B0E94E50A20E030E040EA50E499
:101120000E94420C20E030EC4FE754E40E943B0A5E
:101130002B013C0120913102309132024091330267
:1011400050913402C701B6010E94CA099B01AC014B
:10115000C301B2010E94420CA70196010E943B0A02
:101160000E9455016B017C0126E636E646E051E41B
:101170000E94ED0B87FFA9C020E030E040EC50E476
:10118000C701B6010E94360A18160CF0A2C020E072
:1011900030E040EC50E4C701B6010E94C90928E9DB
:1011A00039E949E150E40E943B0A6B017C01AC0142
:1011B0009B010E94CA099B01AC0160E070E080E4E1
:1011C00090E40E94C9092B013C01A7019601C701C7
:1011D000B6010E94420C9B01AC01C301B2010E9406
:1011E000420C20E030E040E45FE30E94AF0C20E0DE
:1011F00030E048EC52E40E94420C0E94AD0A6B01C0
:101200008AE191E00E942C030D2C000CEE08FF08EF
:101210004AE0C701B601F7FE0DC06DE28CE891E02F
:101220000E94DF0266277727CB016C197D098E09A2
:101230009F094AE00E94AB0386E191E00E942C03E3
:1012400042E0C501B4010E94010483E191E00E94E3
:101250009D0387E091E00E942C038091770290919A
:1012600078020097C9F18B5792400E94EF038CEFF0
:1012700090E00E942C038091770290917802009771
:1012800071F5C1010E94EF038AEE90E00E942C03E9
:101290008091290290912A02209177023091780260
:1012A0002115310509F59101821B930B0E94EF0373
:1012B00020E030E0232B09F468CD0E94A9028823A6
:1012C00009F463CD0E94000060CD84E6C82ED12CC5
:1012D00097CFD12CC12C94CF90E080E0C6CF68018D
:1012E000C81AD90AC601CECF7801E21AF30A9701CB
:1012F000DBCF97FB072E16F4009407D077FD09D0BB
:101300000E94AF0907FC05D03EF4909581959F4F50
:101310000895709561957F4F0895A1E21A2EAA1B3A
:10132000BB1BFD010DC0AA1FBB1FEE1FFF1FA21795
:10133000B307E407F50720F0A21BB30BE40BF50B92
:10134000661F771F881F991F1A9469F7609570951B
:10135000809590959B01AC01BD01CF010895AA1B1A
:10136000BB1B51E107C0AA1FBB1FA617B70710F090
:10137000A61BB70B881F991F5A95A9F780959095C2
:10138000BC01CD010895EE0FFF1F0590F491E02DF3
:1013900009945058BB27AA270E94E1090C949B0B83
:1013A0000E948D0B38F00E94940B20F039F49F3F7F
:1013B00019F426F40C948A0B0EF4E095E7FB0C94D8
:1013C0005B0BE92F0E94AC0B58F3BA176207730747
:1013D0008407950720F079F4A6F50C94E60B0EF43B
:1013E000E0950B2EBA2FA02D0B01B90190010C0135
:1013F000CA01A0011124FF27591B99F0593F50F44D
:10140000503E68F11A16F040A22F232F342F4427A4
:10141000585FF3CF469537952795A795F04053959C
:10142000C9F77EF41F16BA0B620B730B840BBAF06C
:101430009150A1F0FF0FBB1F661F771F881FC2F7D7
:101440000EC0BA0F621F731F841F48F487957795EB
:101450006795B795F7959E3F08F0B0CF9395880FA5
:1014600008F09927EE0F9795879508950E94370BFE
:1014700008F481E008950E944F0A0C949B0B0E948F
:10148000940B58F00E948D0B40F029F45F3F29F037
:101490000C945B0B51110C94E70B0C948A0B0E947B
:1014A000AC0B68F39923B1F3552391F3951B550BBE
:1014B000BB27AA2762177307840738F09F5F5F4F27
:1014C000220F331F441FAA1FA9F335D00E2E3AF066
:1014D000E0E832D091505040E695001CCAF72BD07E
:1014E000FE2F29D0660F771F881FBB1F26173707CF
:1014F0004807AB07B0E809F0BB0B802DBF01FF2701
:1015000093585F4F3AF09E3F510578F00C945B0B77
:101510000C94E70B5F3FE4F3983ED4F38695779500
:101520006795B795F7959F5FC9F7880F911D9695B9
:10153000879597F90895E1E0660F771F881FBB1F15
:10154000621773078407BA0720F0621B730B840BC2
:10155000BA0BEE1F88F7E09508950E94B40A6894CC
:10156000B1110C94E70B08950E94B40B88F09F57BB
:1015700098F0B92F9927B751B0F0E1F0660F771FB7
:10158000881F991F1AF0BA95C9F714C0B13091F0AD
:101590000E94E60BB1E008950C94E60B672F782FBC
:1015A0008827B85F39F0B93FCCF386957795679572
:1015B000B395D9F73EF490958095709561957F4FDE
:1015C0008F4F9F4F0895E89409C097FB3EF4909584
:1015D0008095709561957F4F8F4F9F4F9923A9F00C
:1015E000F92F96E9BB279395F6958795779567959B
:1015F000B795F111F8CFFAF4BB0F11F460FF1BC0DF
:101600006F5F7F4F8F4F9F4F16C0882311F096E971
:1016100011C0772321F09EE8872F762F05C066231F
:1016200071F096E8862F70E060E02AF09A95660FD8
:10163000771F881FDAF7880F9695879597F9089591
:101640000E94CE0B90F09F3748F4911116F00C9445
:10165000E70B60E070E080E89FEB089526F41B162E
:10166000611D711D811D0C94610B0C947C0B990FF5
:101670000008550FAA0BE0E8FEEF16161706E8075C
:10168000F907C0F012161306E407F50798F0621B7D
:10169000730B840B950B39F40A2661F0232B242B52
:1016A000252B21F408950A2609F4A140A6958FEF71
:1016B000811D811D089597F99F6780E870E060E0C3
:1016C0000895882371F4772321F09850872B762F83
:1016D00007C0662311F499270DC09051862B70E046
:1016E00060E02AF09A95660F771F881FDAF7880F57
:1016F0009695879597F908959F3F31F0915020F482
:10170000879577956795B795880F911D96958795DD
:1017100097F908959FEF80EC089500240A94161617
:10172000170618060906089500240A9412161306CF
:10173000140605060895092E0394000C11F488235D
:1017400052F0BB0F40F4BF2B11F460FF04C06F5F79
:101750007F4F8F4F9F4F089557FD9058440F551F4F
:1017600059F05F3F71F04795880F97FB991F61F023
:101770009F3F79F087950895121613061406551F9A
:10178000F2CF4695F1DF08C0161617061806991F06
:10179000F1CF869571056105089408950E94B40BF8
:1017A000A0F0BEE7B91788F4BB279F3860F416167F
:1017B000B11D672F782F8827985FF7CF869577958B
:1017C0006795B11D93959639C8F30895E894BB27A2
:1017D00066277727CB0197F908950E94370B08F405
:1017E0008FEF089516F00C947C0B0C948A0B689480
:1017F0000C945B0B0E94B40BA8F39923C1F3AEF3D6
:10180000DF93CF931F930F93FF92C92FDD27882378
:101810002AF02197660F771F881FDAF720E030E063
:1018200040E85FEB9FE3883920F0803E38F0219656
:101830008F770E94CA09E8E6F0E004C00E94CA0956
:10184000E5E9F0E00E943E0D8B01BE01EC01FB2EAC
:101850006F5771097595771F880B990B0E94E50AE0
:1018600028E132E741E35FE30E94550CAF2D980178
:10187000AE01FF900F911F91CF91DF910E94E1097E
:101880000C949B0B0E94550C0C949B0B0E948D0B8F
:1018900038F00E94940B20F0952311F00C945B0B10
:1018A0000C948A0B11240C94E70B0E94AC0B70F380
:1018B000959FC1F3950F50E0551F629FF001729FF5
:1018C000BB27F00DB11D639FAA27F00DB11DAA1F04
:1018D000649F6627B00DA11D661F829F2227B00D51
:1018E000A11D621F739FB00DA11D621F839FA00DDC
:1018F000611D221F749F3327A00D611D231F849F2C
:10190000600D211D822F762F6A2F11249F57504082
:101910009AF0F1F088234AF0EE0FFF1FBB1F661FFD
:10192000771F881F91505040A9F79E3F510580F0C6
:101930000C945B0B0C94E70B5F3FE4F3983ED4F3FD
:10194000869577956795B795F795E7959F5FC1F76A
:10195000FE2B880F911D9695879597F90895FA01AA
:10196000EE0FFF1F309621053105A1F161157105BC
:1019700061F48038BFE39B0749F168949038810592
:1019800061F08038BFEF9B0741F099234AF5FF3F94
:10199000E1053105210519F1E8940894E795D9018D
:1019A000AA2329F4AB2FBE2FF85FD0F310C0FF5F3E
:1019B00070F4A695E0F7F73950F019F0FF3A38F4D3
:1019C0009F779F930DD00F9007FC9058089546F095
:1019D0000C948A0B60E070E080E89FE308954FE785
:1019E0009F775F934F933F932F930E94FA0B2F9112
:1019F0003F914F915F910E94420C0C940C0D0E94FC
:101A0000370B880B990B089529F416F00C945B0B97
:101A10000C94E60B0C948A0B0E94B40BA8F3963836
:101A2000A0F707F80F92E8942BE33AEA48EB5FE758
:101A30000E94580C0F920F920F924DB75EB70F9203
:101A40000E94A70DE2ECF0E00E943E0D4F915F91E5
:101A5000EF91FF91E595EE1FFF1F49F0FE57E068FB
:101A60004427EE0F441FFA95E1F74195550B0E946C
:101A7000710D0F9007FE0C94650D0895DF93CF93C1
:101A80001F930F93FF92EF92DF927B018C0168947A
:101A900006C0DA2EEF010E94550CFE01E894A591D4
:101AA0002591359145915591A6F3EF010E94E109E9
:101AB000FE019701A801DA9469F7DF90EF90FF909B
:101AC0000F911F91CF91DF9108959B01AC0160E0D0
:101AD00070E080E89FE30C943B0A0C945B0B0C9441
:101AE0007C0B0E94B40BD8F39923C9F3940F511DBA
:101AF000A3F39150504094F059F0882332F0660FD0
:101B0000771F881F91505040C1F79E3F51052CF719
:101B1000880F911D9695879597F908955F3FACF0D2
:101B2000983E9CF0BB27869577956795B79508F406
:101B3000B1609395C1F7BB0F58F711F460FFE8CF80
:101B40006F5F7F4F8F4F9F4FE3CF0C94E70BFA01EE
:101B5000DC01AA0FBB1F9B01AC01BF5728F4222751
:101B600033274427507820C0B75190F4AB2F00247E
:101B7000469537952795011CA395D2F3002071F067
:101B8000220F331F441FB395DAF30ED00C94C9090A
:101B900061307105A0E88A07B94630F49B01AC01B9
:101BA0006627772788279078309621F02083318325
:0A1BB000428353830895F894FFCF99
:101BBA00FFFF7F7FFFFF7FFF0000C07F37013A01F1
:101BCA0047015401610100000000DF023F026C027C
:101BDA0047039D027B028F020D0A006E616E006947
:101BEA006E66006F7666004F4B00444953434F4E72
:101BFA004E45435445440053484F52545F544F5F37
:101C0A00474E440053484F52545F544F5F56434324
:0A1C1A0000494E56414C49440000B9
:00000001FF
