:100000000C940C010C9434010C9434010C943401C4
:100010000C9434010C9434010C9434010C9434018C
:100020000C9434010C9434010C9434010C9434017C
:100030000C9434010C9434010C9434010C9434016C
:100040000C94DD040C9434010C944D050C9427059C
:100050000C9434010C9434010C9434010C9434014C
:100060000C9434010C94340108000000BE92244921
:10007000123EABAAAA2ABECDCCCC4C3E00000080DA
:10008000BEABAAAAAA3E00000000BF000000803F4D
:100090000000000000084178D3BB4387D1133D190D
:1000A0000E3CC3BD4282AD2B3E68EC8276BED98F3A
:1000B000E1A93E4C80EFFFBE01C4FF7F3F0000007E
:1000C000000007634236B79BD8A71A39685618AEA6
:1000D000BAAB558C1D3CB7CC5763BD6DEDFD753E7D
:1000E000F6177231BF000000803F557365642052DF
:1000F000414D20617070726F783A200046726565DC
:100100002052414D3A200048656170207573656446
:100110003A20005629002520280042617474657237
:10012000793A20004572726F7220696E2074656D95
:1001300070657261747572652073656E736F723A63
:100140002000C2B043004D61782074656D70657207
:100150006174757265206C69666574696D653A20B5
:1001600000C2B043004D696E2074656D70657261A8
:1001700074757265206C69666574696D653A2000F6
:10018000C2B043004D696E2074656D706572617414
:100190007572653A2000C2B043004D6178207465E5
:1001A0006D70657261747572653A2000C2B043006B
:1001B00043757272656E742074656D7065726174DA
:1001C0007572653A2000000000080002010000037B
:1001D00004070000000000000000000000002500EF
:1001E00028002B0000000000240027002A0004043F
:1001F00004040404040402020202020203030303CF
:1002000003030102040810204080010204081020AA
:100210000102040810207F0511241FBECFEFD8E093
:10022000DEBFCDBF11E0A0E0B1E0E8E9FBE102C034
:1002300005900D92AA36B107D9F722E0AAE6B1E0FF
:1002400001C01D92AD37B207E1F711E0CCE0D1E07B
:1002500004C02197FE010E94B209CB30D107C9F733
:100260000E94FF050C94CA0D0C94000090E0FC0164
:10027000EE5FFD4F249182519E4FFC0184918823B3
:1002800099F090E0880F991FFC01EC51FE4FA59169
:10029000B491FC01E652FE4F859194918FB7F8948A
:1002A000EC91E22BEC938FBF08958F929F92AF92C7
:1002B000BF92CF92DF92EF92FF920F931F93CF9353
:1002C000DF932091630230916402F901EE0FFF1F6A
:1002D000EE0FFF1FEE5CFD4F618772878387948767
:1002E000C90101966AE070E00E946809EC019093F0
:1002F000640280936302892B19F481E08093650284
:1003000080916502882311F0CAE0D0E08BE3A82E2B
:1003100082E0B82E10E000E0C12CD12C76010C1741
:100320001D077CF4F50121913191419151915F01BB
:10033000C701B6010E94B9096B017C010F5F1F4F15
:10034000EECF2AE939E949E55FE3609178017091E0
:10035000790180917A0190917B010E94310C4B01CF
:100360005C01BE01DD0F880B990B0E94D40A9B0132
:10037000AC01C701B6010E942A0A2AE939E949E11C
:100380005EE30E94310C9B01AC01C501B4010E94E7
:10039000B909609378017093790180937A01909301
:1003A0007B01DF91CF911F910F91FF90EF90DF9034
:1003B000CF90BF90AF909F908F90089590E0FC01F8
:1003C000EA53FE4F2491FC01EE5FFD4F3491FC0196
:1003D000E251FE4FE491EE23C9F0222339F023309D
:1003E00001F1A8F4213019F1223029F1F0E0EE0FEB
:1003F000FF1FE652FE4FA591B4918FB7F894EC9190
:10040000611126C030953E233C938FBF089527305D
:10041000A9F02830C9F0243049F7809180008F7D01
:1004200003C0809180008F7780938000DFCF84B5F8
:100430008F7784BDDBCF84B58F7DFBCF8091B000FB
:100440008F778093B000D2CF8091B0008F7DF9CFAD
:100450003E2BDACF8E3008F08E5087708064809308
:100460007C0080917A00806480937A0080917A0089
:1004700086FDFCCF80917800909179000895AF922D
:10048000BF92CF92DF92EF92FF920F931F93CF9381
:10049000DF936C017B018B01040F151FEB015E01E3
:1004A000AE18BF08C017D10759F06991D601ED9178
:1004B000FC910190F081E02DC6010995892B79F717
:1004C000C501DF91CF911F910F91FF90EF90DF90C9
:1004D000CF90BF90AF900895FC01538D448D252F90
:1004E00030E0842F90E0821B930B541710F0CF96CE
:1004F000089501970895FC01918D828D981761F000
:10050000A28DAE0FBF2FB11D5D968C91928D9F5F16
:100510009F73928F90E008958FEF9FEF0895FC01F5
:10052000918D828D981731F0828DE80FF11D858DA8
:1005300090E008958FEF9FEF0895FC01918D228D3B
:10054000892F90E0805C9F4F821B91098F739927C0
:1005500008958CE891E00E949D0221E0892B09F426
:1005600020E0822F089580E090E0892B29F00E94FE
:10057000A90281110C9400000895FC01A48DA80F1C
:10058000B92FB11DA35ABF4F2C91848D90E00196D5
:100590008F739927848FA689B7892C93A089B189F5
:1005A0008C91837080648C93938D848D981306C096
:1005B0000288F389E02D80818F7D80830895EF92FA
:1005C000FF920F931F93CF93DF93EC0181E0888F0D
:1005D0009B8D8C8D98131AC0E889F989808185FFDD
:1005E00015C09FB7F894EE89FF896083E889F9897F
:1005F00080818370806480839FBF81E090E0DF9181
:10060000CF911F910F91FF90EF900895F62E0B8DD3
:1006100010E00F5F1F4F0F731127E02E8C8D8E118E
:100620000CC00FB607FCFACFE889F989808185FFF5
:10063000F5CFCE010E94BD02F1CFEB8DEC0FFD2F67
:10064000F11DE35AFF4FF0829FB7F8940B8FEA89B0
:10065000FB8980818062CFCF0F931F93CF93DF936D
:100660008C01D0E0C0E0F801EC0FFD1F649166231F
:1006700041F08CE891E00E94DF02892B11F0219675
:10068000F2CFCE01DF91CF911F910F910895CF93BB
:10069000DF93EC01888D8823B9F0AA89BB89E889AA
:1006A000F9898C9185FD03C0808186FD0DC00FB650
:1006B00007FCF7CF8C9185FFF2CF808185FFEDCFCE
:1006C000CE010E94BD02E9CFDF91CF9108958EBD8A
:1006D00000000DB407FEFDCF8EB50895CF93DF93D4
:1006E000EC0160E080912D020E94DE0183E00E9417
:1006F00067038D2F0E9467038C2F0E946703CCE74E
:10070000D1E080E00E946703899381E0CC38D8076C
:10071000C1F761E080912D02DF91CF910C94DE0151
:10072000FC0101900020E9F73197AF01481B590BFC
:10073000BC018CE891E00C943F02CF93DF930E94C0
:100740002C03EC0188E291E00E9490038C0F9D1F26
:10075000DF91CF9108958F929F92AF92BF920F93A6
:100760001F93CF93DF93CDB7DEB7A1970FB6F89461
:10077000DEBF0FBECDBF19A2423008F44AE08E01A1
:100780000F5D1F4F842E912CB12CA12CA50194013B
:100790000E947C09E62FB901CA01EA30F4F4E05D59
:1007A000D801EE938D01232B242B252B79F790E094
:1007B00080E0109719F0CD010E949003A1960FB62A
:1007C000F894DEBF0FBECDBFDF91CF911F910F9187
:1007D000BF90AF909F908F900895E95CE1CFCF9349
:1007E000DF93BC0190E080E04AE00E94AB03EC01A3
:1007F00088E291E00E9490038C0F9D1FDF91CF91C2
:1008000008954F925F926F927F928F929F92AF92D4
:10081000BF92CF92DF92EF92FF920F931F93CF93ED
:100820006B017C01742EAC019B010E94EE0C8823AD
:1008300099F08BE291E0CF911F910F91FF90EF9093
:10084000DF90CF90BF90AF909F908F907F906F90F0
:100850005F904F900C94900346015701E894B7F8CD
:100860002FEF3FEF4FE75FE7C501B4010E94EE0CA9
:1008700081110DC02FEF3FEF4FE75FE7C501B401D6
:100880000E94250A18161CF48FE291E0D4CF2FEFB6
:100890003FEF4FE75FE4C701B6010E94DC0B18167B
:1008A0001CF483E391E0C7CF2FEF3FEF4FE75FECFE
:1008B000C701B6010E94250A87FDF3CF20E030E092
:1008C000A901C701B6010E94250A10E000E087FFD8
:1008D0000AC06DE28CE891E00E94DF028C01F7FA19
:1008E000F094F7F8F094C0E060E070E080E09FE3FF
:1008F0007C1641F020E030E040E251E40E942A0AF8
:10090000CF5FF6CFA70196010E94B9092B013C01E8
:100910000E94A30A4B015C014AE00E94AB037C01E8
:10092000E00EF11ECC23C1F1C501B4010E94D20A30
:100930009B01AC01C301B2010E94B8094B015C01EB
:100940006EE28CE891E00E94DF02E80EF91EC150D1
:1009500018F120E030E040E251E4C501B4010E940A
:10096000310C2B013C010E94A30A4B01B12CA12C9C
:100970004AE0C501B4010E94AB03E80EF91EC501AF
:10098000B4010E94D20A9B01AC01C301B2010E94D2
:10099000B8094B015C01DBCFC701CF911F910F91CB
:1009A000FF90EF90DF90CF90BF90AF909F908F908F
:1009B0007F906F905F904F9008951F920F920FB6A7
:1009C0000F9211242F933F938F939F93AF93BF93D5
:1009D0008091740190917501A0917601B091770199
:1009E0003091730123E0230F2D3758F50196A11D97
:1009F000B11D209373018093740190937501A093AE
:100A00007601B093770180916F0190917001A09170
:100A10007101B09172010196A11DB11D80936F010A
:100A200090937001A0937101B0937201BF91AF9147
:100A30009F918F913F912F910F900FBE0F901F901C
:100A4000189526E8230F0296A11DB11DD2CF1F9243
:100A50000F920FB60F9211242F933F934F935F93F2
:100A60006F937F938F939F93AF93BF93EF93FF9376
:100A70008CE891E00E94BD02FF91EF91BF91AF9190
:100A80009F918F917F916F915F914F913F912F91A6
:100A90000F900FBE0F901F9018951F920F920FB6D8
:100AA0000F9211242F938F939F93EF93FF93E091D5
:100AB0009C01F0919D018081E091A201F091A30140
:100AC00082FD1BC090818091A5018F5F8F73209163
:100AD000A601821741F0E091A501F0E0E457FE4F36
:100AE000958F8093A501FF91EF919F918F912F9109
:100AF0000F900FBE0F901F9018958081F4CFECE8F7
:100B0000F1E01382128288EE93E0A0E0B0E08483EB
:100B10009583A683B7838AE191E09183808385ECF6
:100B200090E09587848784EC90E09787868780ECB7
:100B300090E0918B808B81EC90E0938B828B82ECA8
:100B400090E0958B848B86EC90E0978B868B118E52
:100B5000128E138E148E8091790290917A02909366
:100B60002A0280932902E6E6F2E08EE0808380E0AC
:100B700090E7A9E1B6E481839283A383B48380E004
:100B800090E4ACE1B6E485839683A783B08780E0E8
:100B900090E0A8ECB1E481879287A387B48780E0D6
:100BA00090EEA6E7B5E485879687A787B08B84E0AB
:100BB00090E0928B818BE2E3F2E08FE0808380E033
:100BC00090E0A0E2B1E481839283A383B48380E0C8
:100BD00090E0A0E7B1E485839683A783B08712AA4B
:100BE00011AA13AAEDE2F2E0148213828AE0808354
:100BF00080E098E090932C0280932B020895CF938D
:100C0000DF9300D0CDB7DEB7789484B5826084BD21
:100C100084B5816084BD85B5826085BD85B5816000
:100C200085BD80916E00816080936E00109281007E
:100C30008091810082608093810080918100816039
:100C400080938100809180008160809380008091FA
:100C5000B10084608093B1008091B0008160809386
:100C6000B00080917A00846080937A0080917A004D
:100C7000826080937A0080917A00816080937A000C
:100C800080917A00806880937A001092C100E09190
:100C90009C01F0919D0182E08083E0919801F091A8
:100CA00099011082E0919A01F0919B018FEC808371
:100CB0001092A401E091A001F091A10186E080834F
:100CC000E0919E01F0919F01808180618083E0919D
:100CD0009E01F0919F01808188608083E0919E0158
:100CE000F0919F01808180688083E0919E01F09166
:100CF0009F0180818F7D8083EBE3F2E083E692E0C9
:100D000011921192119211928E179F07C9F780913B
:100D10002D020E94360161E080912D020E94DE01C9
:100D20001FB7F89480916A01811124C0E8EFF1E0C7
:100D30008491ECE0F2E09491E82FF0E0EE0FFF1FD9
:100D4000EC51FE4FA591B491EC91E92321F461E0BF
:100D50008AE00E94DE018AE00E9436018CB5806143
:100D60008CBD8CB580648CBD8DE00E9436018BE01B
:100D70000E94360180916A018F5F80936A011FBFD4
:100D800080913002909131020E946E038E010C57C7
:100D9000124052E0252E312C2FB7F8948091740127
:100DA00090917501A0917601B09177012FBF40918C
:100DB0006B0150916C0160916D0170916E01411554
:100DC00051056105710571F06C017D01C41AD50AE8
:100DD000E60AF70AB701A6014031574261057105DD
:100DE00008F45DC280936B0190936C01A0936D0138
:100DF000B0936E01809166020E942A020097D9F496
:100E0000309278022092770242E0E42EF12C84E2C4
:100E100091E00E942C03F701EE0FFF1FE45FFE4FED
:100E200080819181009711F00E94900388E291E007
:100E30000E9490032AC18F3F23E0920750F083E085
:100E400090E0909378028093770233E0E32EF12CC8
:100E5000DECFBC0190E080E00E94D20A6B017C01F1
:100E6000AC019B0160E070EC8FE794E40E94B8094C
:100E70009B01AC01C701B6010E942A0A20916702BA
:100E8000309168024091690250916A020E94310CCF
:100E900020916B0230916C0240916D0250916E0274
:100EA0000E942A0A0E94E90B209173023091740279
:100EB00040917502509176020E942A0A6B017C01D2
:100EC00023E333E948E853E460916F0270917002C4
:100ED00080917102909172020E94B9099B01AC014C
:100EE00060E070E080E89FE30E942A0AA701960173
:100EF0000E94B9099B01AC0160E070E080E89FE3CB
:100F00000E942A0A109278021092770223E333E9B2
:100F100048E853E40E94B80920E73EEC48E85FE364
:100F20000E94310C9B01AC010E94B90920E030E025
:100F300040E05FE30E94B9090E940F0B20E030E01F
:100F400040E05FE30E94310C6B017C01809008015E
:100F500090900901A0900A01B0900B01A5019401A5
:100F6000C501B4010E94EE0C811108C0A5019401D5
:100F7000C701B6010E94250A8823A9F0C092080182
:100F8000D0920901E0920A01F0920B0180EB91E00E
:100F90000E942C0342E0C701B6010E9401048CEAC2
:100FA00091E00E949D032091040130910501409140
:100FB000060150910701C701B6010E94DC0B18160B
:100FC000ACF4C0920401D0920501E0920601F092C7
:100FD00007018AE991E00E942C0342E0C701B601B3
:100FE0000E94010486E991E00E949D032091000186
:100FF000309101014091020150910301C701B601F6
:101000000E94250A87FF15C0C0920001D0920101FD
:10101000E0920201F092030184E891E00E942C0327
:1010200042E0C701B6010E94010480E891E00E94FD
:101030009D0380913002909131020E946E0385E6FB
:1010400091E00E942C0360917C0170917D01809160
:101050007E0190917F0142E00E94010481E691E0CF
:101060000E949D0386E491E00E942C036091800120
:1010700070918101809182019091830142E00E94F0
:10108000010482E491E00E949D03809132020E945B
:101090002A02C0903702D0903802E0903902F090D6
:1010A0003A02BC01990F880B990B0E94D40A20E0E8
:1010B00030E040EA50E40E94310C20E030EC4FE791
:1010C00054E40E942A0A4B015C01209133023091C2
:1010D00034024091350250913602C701B6010E9498
:1010E000B9099B01AC01C501B4010E94310CA701F3
:1010F00096010E942A0A0E9455014B015C018091D1
:1011000032020E942A02C0903702D0903802E0904A
:101110003902F0903A02BC01990F880B990B0E949A
:10112000D40A20E030E040EA50E40E94310C20E094
:1011300030EC4FE754E40E942A0A2B013C01209135
:101140003302309134024091350250913602C7018A
:10115000B6010E94B9099B01AC01C301B2010E9412
:10116000310CA70196010E942A0A0E9455016B01C9
:101170007C0126E636E646E051E40E94DC0B87FF60
:101180009DC020E030E040EC50E4C701B6010E9471
:10119000250A18160CF096C020E030E040EC50E430
:1011A000C701B6010E94B80928E939E949E150E4CC
:1011B0000E942A0A6B017C01AC019B010E94B909C3
:1011C0009B01AC0160E070E080E490E40E94B8090B
:1011D0002B013C01A7019601C701B6010E94310C09
:1011E0009B01AC01C301B2010E94310C20E030E050
:1011F00040E45FE30E949E0C20E030E048EC52E4C3
:101200000E94310C0E949C0A6B018AE191E00E94CD
:101210002C030D2C000CEE08FF084AE0C701B601B4
:10122000F7FE0DC06DE28CE891E00E94DF026627B8
:101230007727CB016C197D098E099F094AE00E942E
:10124000AB0386E191E00E942C0342E0C501B401AA
:101250000E94010483E191E00E949D0387E091E0F8
:101260000E942C038091290290912A02009769F133
:101270008D5792400E94EF038CEF90E00E942C0368
:10128000C8010E94EF038AEE90E00E942C03809137
:101290002B0290912C02801B910B0E94EF0380E0A7
:1012A000C82E80E0D82ECD2809F476CD0E94A90260
:1012B000882309F471CD0E9400006ECD94E6C92EFA
:1012C000D12CA3CFD12CC12CA0CF90E080E0D2CFE5
:1012D00097FB072E16F4009407D077FD09D00E94E3
:1012E0009E0907FC05D03EF4909581959F4F089587
:1012F000709561957F4F0895A1E21A2EAA1BBB1B22
:10130000FD010DC0AA1FBB1FEE1FFF1FA217B307D1
:10131000E407F50720F0A21BB30BE40BF50B661FE7
:10132000771F881F991F1A9469F7609570958095AB
:1013300090959B01AC01BD01CF010895AA1BBB1B79
:1013400051E107C0AA1FBB1FA617B70710F0A61BC5
:10135000B70B881F991F5A95A9F780959095BC01E6
:10136000CD010895EE0FFF1F0590F491E02D099433
:101370005058BB27AA270E94D0090C948A0B0E94C0
:101380007C0B38F00E94830B20F039F49F3F19F456
:1013900026F40C94790B0EF4E095E7FB0C944A0BC1
:1013A000E92F0E949B0B58F3BA1762077307840753
:1013B000950720F079F4A6F50C94D50B0EF4E09582
:1013C0000B2EBA2FA02D0B01B90190010C01CA01FF
:1013D000A0011124FF27591B99F0593F50F4503EAA
:1013E00068F11A16F040A22F232F342F4427585F9C
:1013F000F3CF469537952795A795F0405395C9F7B4
:101400007EF41F16BA0B620B730B840BBAF091506B
:10141000A1F0FF0FBB1F661F771F881FC2F70EC00A
:10142000BA0F621F731F841F48F4879577956795DD
:10143000B795F7959E3F08F0B0CF9395880F08F0C9
:101440009927EE0F9795879508950E94260B08F42B
:1014500081E008950E943E0A0C948A0B0E94830B3F
:1014600058F00E947C0B40F029F45F3F29F00C9467
:101470004A0B51110C94D60B0C94790B0E949B0BC8
:1014800068F39923B1F3552391F3951B550BBB27B3
:10149000AA2762177307840738F09F5F5F4F220FF8
:1014A000331F441FAA1FA9F335D00E2E3AF0E0E8EF
:1014B00032D091505040E695001CCAF72BD0FE2F39
:1014C00029D0660F771F881FBB1F261737074807CD
:1014D000AB07B0E809F0BB0B802DBF01FF27935885
:1014E0005F4F3AF09E3F510578F00C944A0B0C94F4
:1014F000D60B5F3FE4F3983ED4F3869577956795D6
:10150000B795F7959F5FC9F7880F911D96958795B9
:1015100097F90895E1E0660F771F881FBB1F6217D8
:1015200073078407BA0720F0621B730B840BBA0B96
:10153000EE1F88F7E09508950E94A30A6894B11100
:101540000C94D60B08950E94A30B88F09F5798F037
:10155000B92F9927B751B0F0E1F0660F771F881FB8
:10156000991F1AF0BA95C9F714C0B13091F00E94D2
:10157000D50BB1E008950C94D50B672F782F8827F1
:10158000B85F39F0B93FCCF3869577956795B395F9
:10159000D9F73EF490958095709561957F4F8F4F68
:1015A0009F4F0895E89409C097FB3EF4909580956D
:1015B000709561957F4F8F4F9F4F9923A9F0F92F19
:1015C00096E9BB279395F695879577956795B79597
:1015D000F111F8CFFAF4BB0F11F460FF1BC06F5F7D
:1015E0007F4F8F4F9F4F16C0882311F096E911C08F
:1015F000772321F09EE8872F762F05C0662371F0B0
:1016000096E8862F70E060E02AF09A95660F771FC3
:10161000881FDAF7880F9695879597F908950E94A5
:10162000BD0B90F09F3748F4911116F00C94D60B37
:1016300060E070E080E89FEB089526F41B16611DC2
:10164000711D811D0C94500B0C946B0B990F0008AD
:10165000550FAA0BE0E8FEEF16161706E807F90784
:10166000C0F012161306E407F50798F0621B730B1F
:10167000840B950B39F40A2661F0232B242B252BA0
:1016800021F408950A2609F4A140A6958FEF811D43
:10169000811D089597F99F6780E870E060E00895E4
:1016A000882371F4772321F09850872B762F07C079
:1016B000662311F499270DC09051862B70E060E0ED
:1016C0002AF09A95660F771F881FDAF7880F96958C
:1016D000879597F908959F3F31F0915020F48795B1
:1016E00077956795B795880F911D9695879597F98A
:1016F00008959FEF80EC089500240A9416161706AB
:1017000018060906089500240A94121613061406F2
:1017100005060895092E0394000C11F4882352F055
:10172000BB0F40F4BF2B11F460FF04C06F5F7F4F0D
:101730008F4F9F4F089557FD9058440F551F59F0F4
:101740005F3F71F04795880F97FB991F61F09F3FAE
:1017500079F087950895121613061406551FF2CFD7
:101760004695F1DF08C0161617061806991FF1CF27
:10177000869571056105089408950E94A30BA0F059
:10178000BEE7B91788F4BB279F3860F41616B11D61
:10179000672F782F8827985FF7CF8695779567957D
:1017A000B11D93959639C8F30895E894BB27662731
:1017B0007727CB0197F908950E94260B08F48FEF45
:1017C000089516F00C946B0B0C94790B68940C94A0
:1017D0004A0B0E94A30BA8F39923C1F3AEF3DF9346
:1017E000CF931F930F93FF92C92FDD2788232AF0F1
:1017F0002197660F771F881FDAF720E030E040E876
:101800005FEB9FE3883920F0803E38F021968F7798
:101810000E94B909E8E6F0E004C00E94B909E5E9D0
:10182000F0E00E942D0D8B01BE01EC01FB2E6F57E5
:1018300071097595771F880B990B0E94D40A28E1CE
:1018400032E741E35FE30E94440CAF2D9801AE0103
:10185000FF900F911F91CF91DF910E94D0090C94BE
:101860008A0B0E94440C0C948A0B0E947C0B38F06B
:101870000E94830B20F0952311F00C944A0B0C94DA
:10188000790B11240C94D60B0E949B0B70F3959F3F
:10189000C1F3950F50E0551F629FF001729FBB2767
:1018A000F00DB11D639FAA27F00DB11DAA1F649F03
:1018B0006627B00DA11D661F829F2227B00DA11DB6
:1018C000621F739FB00DA11D621F839FA00D611D3C
:1018D000221F749F3327A00D611D231F849F600D5D
:1018E000211D822F762F6A2F11249F5750409AF086
:1018F000F1F088234AF0EE0FFF1FBB1F661F771F12
:10190000881F91505040A9F79E3F510580F00C94DC
:101910004A0B0C94D60B5F3FE4F3983ED4F38695C4
:1019200077956795B795F795E7959F5FC1F7FE2B7C
:10193000880F911D9695879597F90895FA01EE0FF6
:10194000FF1F309621053105A1F16115710561F484
:101950008038BFE39B0749F168949038810561F0B6
:101960008038BFEF9B0741F099234AF5FF3FE1051F
:101970003105210519F1E8940894E795D901AA23C6
:1019800029F4AB2FBE2FF85FD0F310C0FF5F70F4C7
:10199000A695E0F7F73950F019F0FF3A38F49F7741
:1019A0009F930DD00F9007FC9058089546F00C942B
:1019B000790B60E070E080E89FE308954FE79F7740
:1019C0005F934F933F932F930E94E90B2F913F9189
:1019D0004F915F910E94310C0C94FB0C0E94260BDE
:1019E000880B990B089529F416F00C944A0B0C946B
:1019F000D50B0C94790B0E94A30BA8F39638A0F793
:101A000007F80F92E8942BE33AEA48EB5FE70E946D
:101A1000470C0F920F920F924DB75EB70F920E9434
:101A2000960DE2ECF0E00E942D0D4F915F91EF9149
:101A3000FF91E595EE1FFF1F49F0FE57E068442730
:101A4000EE0F441FFA95E1F74195550B0E94600D8A
:101A50000F9007FE0C94540D0895DF93CF931F93BE
:101A60000F93FF92EF92DF927B018C01689406C086
:101A7000DA2EEF010E94440CFE01E894A591259115
:101A8000359145915591A6F3EF010E94D009FE01D1
:101A90009701A801DA9469F7DF90EF90FF900F911A
:101AA0001F91CF91DF9108959B01AC0160E070E040
:101AB00080E89FE30C942A0A0C944A0B0C946B0B5D
:101AC0000E94A30BD8F39923C9F3940F511DA3F3DC
:101AD0009150504094F059F0882332F0660F771FF0
:101AE000881F91505040C1F79E3F51052CF7880F39
:101AF000911D9695879597F908955F3FACF0983EB4
:101B00009CF0BB27869577956795B79508F4B160EB
:101B10009395C1F7BB0F58F711F460FFE8CF6F5FE3
:101B20007F4F8F4F9F4FE3CF0C94D60BFA01DC0110
:101B3000AA0FBB1F9B01AC01BF5728F422273327F4
:101B40004427507820C0B75190F4AB2F002446951D
:101B500037952795011CA395D2F3002071F0220F31
:101B6000331F441FB395DAF30ED00C94B8096130DB
:101B70007105A0E88A07B94630F49B01AC016627DD
:101B8000772788279078309621F02083318342830D
:081B900053830895F894FFCF80
:101B9800FFFF7F7FFFFF7FFF0000C07F37013A0113
:101BA80047015401610100000000DF023F026C029E
:101BB80047039D027B028F020D0A006E616E006969
:101BC8006E66006F7666004F4B00444953434F4E94
:101BD8004E45435445440053484F52545F544F5F59
:101BE800474E440053484F52545F544F5F56434347
:0A1BF80000494E56414C49440000DC
:00000001FF
