:100000000C946B010C94B0050C9489050C9493012D
:100010000C9493010C9493010C9493010C94930110
:100020000C9493010C9493010C9493010C94930100
:100030000C9493010C9493010C9493010C949301F0
:100040000C943F050C9493010C94FD050C94D7057A
:100050000C9493010C9493010C9493010C949301D0
:100060000C9493010C94930108000000BE92244963
:10007000123EABAAAA2ABECDCCCC4C3E00000080DA
:10008000BEABAAAAAA3E00000000BF000000803F4D
:100090000000000000084178D3BB4387D1133D190D
:1000A0000E3CC3BD4282AD2B3E68EC8276BED98F3A
:1000B000E1A93E4C80EFFFBE01C4FF7F3F0000007E
:1000C00000003A0020002F002F00C2B04320402043
:1000D0000053797374656D20676F696E6720746F64
:1000E00020736C6565702E2E2E002055736564207C
:1000F00052414D20617070726F783A200020467234
:1001000065652052414D3A20002048656170207598
:100110007365643A200020204261747465726965D9
:1001200073206E65656420746F2072656368617208
:100130006765210056290030002E00252028002068
:10014000426174746572793A200052756E6E696E00
:1001500067206F6E2055534220706F77657200459F
:1001600072726F7220696E2074656D706572617451
:100170007572652073656E736F723A200020204D92
:1001800061782074656D70657261747572653A206E
:100190000020204D696E2074656D70657261747504
:1001A00072653A2000204461696C7920537461744F
:1001B00073200020204D61782074656D7065726138
:1001C000747572653A200020204D696E2074656D4B
:1001D00070657261747572653A2000204C696665BD
:1001E00074696D652053746174732000C2B043005C
:1001F000202054656D70657261747572653A2000D7
:100200002043757272656E7420537461747320009C
:100210003D2A3D2A3D2A3D20454E44203D2A3D2A87
:100220003D2A3D0A002D2A2D2A2D2A2D205379738F
:1002300074656D205374617473202D2A2D2A2D2A24
:100240002D002D2A2D2A2D2A2D20456E7669726FBC
:100250006E6D656E74205374617473202D2A2D2A7F
:100260002D2A2D003D2A3D2A3D2A3D20535441523E
:1002700054203D2A3D2A3D2A3D0000000000240074
:1002800027002A0000000000250028002B000000A5
:1002900000002300260029000404040404040404CC
:1002A0000202020202020303030303030102040821
:1002B00010204080010204081020010204081020D0
:1002C0000000000800020100000304070000000015
:1002D000000000002F0611241FBECFEFD8E0DEBFC4
:1002E000CDBF11E0A0E0B1E0E6E4F0E202C005908D
:1002F0000D92A837B107D9F722E0A8E7B1E001C015
:100300001D92A838B207E1F711E0CBE6D1E004C0B6
:100310002197FE010E94100DCA36D107C9F70E942D
:10032000CD060C9421100C940000833081F028F449
:10033000813099F08230A9F008958730A9F0883093
:10034000C9F08430B1F4809180008F7D03C080912A
:1003500080008F7780938000089584B58F7784BD67
:10036000089584B58F7DFBCF8091B0008F77809307
:10037000B00008958091B0008F7DF9CFCF93DF93C7
:10038000282F30E0F901E054FD4F8491F901E45544
:10039000FD4FD491F901E856FD4FC491CC23A1F053
:1003A00081110E949501EC2FF0E0EE0FFF1FE25744
:1003B000FD4FA591B491EC91ED2381E090E009F41B
:1003C00080E0DF91CF91089580E090E0FACF8091B6
:1003D00024020E94BE0121E030E0892B11F030E0C0
:1003E00020E030932802209327028091860181111A
:1003F0001092860108951F93CF93DF93282F30E04A
:10040000F901E054FD4F8491F901E455FD4FD49179
:10041000F901E856FD4FC491CC23A9F0162F8111A4
:100420000E949501EC2FF0E0EE0FFF1FEC57FD4FFF
:10043000A591B4918FB7F894EC91111108C0D095A3
:10044000DE23DC938FBFDF91CF911F910895DE2BC8
:10045000F8CFCF93DF9390E0FC01E455FD4F24915A
:1004600088569D4FFC0184918823D1F090E0880F3D
:10047000991FFC01E658FD4FA591B491FC01EC5782
:10048000FD4FC591D491623071F49FB7F8943C91BF
:10049000822F809583238C93E8812E2B28839FBF06
:1004A000DF91CF9108958FB7F894EC912E2B2C9378
:1004B0008FBFF6CF8E3008F08E50877080648093A7
:1004C0007C0080917A00806480937A0080917A0029
:1004D00086FDFCCF80917800909179000895089571
:1004E00081E0809386010895AF92BF92CF92DF9210
:1004F000EF92FF920F931F93CF93DF936C017B01D9
:100500008B01040F151FEB015E01AE18BF08C01769
:10051000D10759F06991D601ED91FC910190F081DC
:10052000E02DC6010995892B79F7C501DF91CF919F
:100530001F910F91FF90EF90DF90CF90BF90AF9001
:100540000895FC01538D448D252F30E0842F90E0D9
:10055000821B930B541710F0CF96089501970895BE
:10056000FC01918D828D981761F0A28DAE0FBF2F87
:10057000B11D5D968C91928D9F5F9F73928F90E0DD
:1005800008958FEF9FEF0895FC01918D828D98174C
:1005900031F0828DE80FF11D858D90E008958FEF89
:1005A0009FEF0895FC01918D228D892F90E0805C52
:1005B0009F4F821B91098F739927089587E891E0D7
:1005C0000E94D20221E0892B09F420E0822F0895B5
:1005D00080E090E0892B29F00E94DE0281110C94CA
:1005E00000000895FC01A48DA80FB92FB11DA35AD6
:1005F000BF4F2C91848D90E001968F739927848F43
:10060000A689B7892C93A089B1898C918370806465
:100610008C93938D848D981306C00288F389E02D06
:1006200080818F7D80830895EF92FF920F931F93B7
:10063000CF93DF93EC0181E0888F9B8D8C8D981395
:100640001AC0E889F989808185FF15C09FB7F894A1
:10065000EE89FF896083E889F989808183708064ED
:1006600080839FBF81E090E0DF91CF911F910F9138
:10067000FF90EF900895F62E0B8D10E00F5F1F4F47
:100680000F731127E02E8C8D8E110CC00FB607FC56
:10069000FACFE889F989808185FFF5CFCE010E94E4
:1006A000F202F1CFEB8DEC0FFD2FF11DE35AFF4F5E
:1006B000F0829FB7F8940B8FEA89FB898081806272
:1006C000CFCF0F931F93CF93DF938C01D0E0C0E087
:1006D000F801EC0FFD1F6491662341F087E891E07B
:1006E0000E941403892B11F02196F2CFCE01DF91E5
:1006F000CF911F910F910895CF93DF93EC01888DD7
:100700008823B9F0AA89BB89E889F9898C9185FD8C
:1007100003C0808186FD0DC00FB607FCF7CF8C911A
:1007200085FFF2CF808185FFEDCFCE010E94F202DE
:10073000E9CFDF91CF9108958EBD00000DB407FE83
:10074000FDCF8EB50895FC0101900020E9F73197A7
:10075000AF01481B590BBC0187E891E00C9474026F
:10076000CF93DF930E946103EC0187E391E00E9445
:10077000A3038C0F9D1FDF91CF9108958F929F92BD
:10078000AF92BF920F931F93CF93DF93CDB7DEB796
:10079000A1970FB6F894DEBF0FBECDBF19A24230AD
:1007A00008F44AE08E010F5D1F4F842E912CB12C6E
:1007B000A12CA50194010E94C50CE62FB901CA0124
:1007C000EA30F4F4E05DD801EE938D01232B242B65
:1007D000252B79F790E080E0109719F0CD010E9469
:1007E000A303A1960FB6F894DEBF0FBECDBFDF9175
:1007F000CF911F910F91BF90AF909F908F900895D0
:10080000E95CE1CF682F70E090E080E04AE00C9472
:10081000BE034F925F926F927F928F929F92AF92A0
:10082000BF92CF92DF92EF92FF920F931F93CF93DD
:100830006B017C01742EAC019B010E94F50F882393
:1008400099F08AE391E0CF911F910F91FF90EF9083
:10085000DF90CF90BF90AF909F908F907F906F90E0
:100860005F904F900C94A30346015701E894B7F8AA
:100870002FEF3FEF4FE75FE7C501B4010E94F50F8F
:1008800081110DC02FEF3FEF4FE75FE7C501B401C6
:100890000E94830D18161CF48EE391E0D4CF2FEF45
:1008A0003FEF4FE75FE4C701B6010E94330F181610
:1008B0001CF482E491E0C7CF2FEF3FEF4FE75FECEE
:1008C000C701B6010E94830D87FDF3CF20E030E021
:1008D000A901C701B6010E94830D10E000E087FF67
:1008E0000AC06DE287E891E00E9414038C01F7FAD8
:1008F000F094F7F8F094C0E060E070E080E09FE3EF
:100900007C1641F020E030E040E251E40E94880D86
:10091000CF5FF6CFA70196010E94170D2B013C0176
:100920000E94FA0D4B015C014AE00E94BE037C016B
:10093000E00EF11ECC23C1F1C501B4010E94290EC5
:100940009B01AC01C301B2010E94160D4B015C0179
:100950006EE287E891E00E941403E80EF91EC15090
:1009600018F120E030E040E251E4C501B4010E94FA
:10097000880F2B013C010E94FA0D4B01B12CA12CD8
:100980004AE0C501B4010E94BE03E80EF91EC5018C
:10099000B4010E94290E9B01AC01C301B2010E9467
:1009A000160D4B015C01DBCFC701CF911F910F9159
:1009B000FF90EF90DF90CF90BF90AF909F908F907F
:1009C0007F906F905F904F9008954F925F926F92DB
:1009D0007F92AF92CF92EF92FF920F93CF932A0123
:1009E0003B01C22F0E94610342E0C301B2010E9499
:1009F00009048AEC90E00E9461038C2F0E9402049B
:100A000088EC90E00E946103802F0E94020486EC33
:100A100090E00E946103B70190E080E04AE00E940C
:100A2000BE0384EC90E00E9461038C2D0E940204BE
:100A300082EC90E00E9461038A2D0E94020487E309
:100A400091E0CF910F91FF90EF90CF90AF907F907A
:100A50006F905F904F900C94A303CF93DF93BC01F2
:100A600090E080E04AE00E94BE03EC0187E391E061
:100A70000E94A3038C0F9D1FDF91CF9108951F92B9
:100A80000F920FB60F9211242F933F938F939F9342
:100A9000AF93BF938091820190918301A0918401D3
:100AA000B09185013091810123E0230F2D3758F556
:100AB0000196A11DB11D2093810180938201909325
:100AC0008301A0938401B093850180917D01909171
:100AD0007E01A0917F01B09180010196A11DB11D01
:100AE00080937D0190937E01A0937F01B09380015C
:100AF000BF91AF919F918F913F912F910F900FBE1A
:100B00000F901F90189526E8230F0296A11DB11D86
:100B1000D2CF1F920F920FB60F9211242F933F93B3
:100B20004F935F936F937F938F939F93AF93BF93F5
:100B3000EF93FF93E0910201F09103010995FF917A
:100B4000EF91BF91AF919F918F917F916F915F9145
:100B50004F913F912F910F900FBE0F901F901895BE
:100B60001F920F920FB60F9211242F933F934F9322
:100B70005F936F937F938F939F93AF93BF93EF9305
:100B8000FF93E0910001F09101010995FF91EF9130
:100B9000BF91AF919F918F917F916F915F914F9195
:100BA0003F912F910F900FBE0F901F9018951F929D
:100BB0000F920FB60F9211242F933F934F935F9391
:100BC0006F937F938F939F93AF93BF93EF93FF9315
:100BD00087E891E00E94F202FF91EF91BF91AF91FF
:100BE0009F918F917F916F915F914F913F912F9145
:100BF0000F900FBE0F901F9018951F920F920FB677
:100C00000F9211242F938F939F93EF93FF93E09173
:100C10009701F09198018081E0919D01F0919E01F2
:100C200082FD1BC090818091A0018F5F8F73209106
:100C3000A101821741F0E091A001F0E0E957FE4FD9
:100C4000958F8093A001FF91EF919F918F912F91AC
:100C50000F900FBE0F901F9018958081F4CFE7E89A
:100C6000F1E01382128288EE93E0A0E0B0E084838A
:100C70009583A683B78389E291E09183808385EC95
:100C800090E09587848784EC90E09787868780EC56
:100C900090E0918B808B81EC90E0938B828B82EC47
:100CA00090E0958B848B86EC90E0978B868B118EF1
:100CB000128E138E148EE1E7F2E08EE0808380E0E6
:100CC00090E7A9E1B6E481839283A383B48380E0B3
:100CD00090E4ACE1B6E485839683A783B08780E097
:100CE00090E0A8ECB1E481879287A387B48780E085
:100CF00090EEA6E7B5E485879687A787B08B84E05A
:100D000090E0928B818BEEE4F2E08FE080838AE0CA
:100D100090E0A0E0B0E081839283A383B4838FE06E
:100D200090E0A0E0B0E085839683A783B087158E1E
:100D3000168E10A2178E12A211A28AE080934D0285
:100D4000EBE3F2E04FEF5FEF6FE77FE74283538320
:100D50006483758380E090E0A0E8B0E086839783A9
:100D6000A087B187EBE2F2E0408351836283738313
:100D700084839583A683B78380E098E090932A02CA
:100D800080932902E4E2F2E083E0808382E390E052
:100D900092838183148213820895CF93DF93CDB71A
:100DA000DEB76E970FB6F894DEBF0FBECDBF789456
:100DB00084B5826084BD84B5816084BD85B5826060
:100DC00085BD85B5816085BD80916E008160809311
:100DD0006E0010928100809181008260809381007A
:100DE000809181008160809381008091800081608A
:100DF000809380008091B10084608093B1008091E5
:100E0000B00081608093B00080917A00846080930C
:100E10007A0080917A00826080937A0080917A00D3
:100E2000816080937A0080917A00806880937A0054
:100E30001092C100E0919701F091980182E08083C7
:100E4000E0919301F09194011082E0919501F0916D
:100E500096018FEC808310929F01E0919B01F091AD
:100E60009C0186E08083E0919901F0919A01808154
:100E700080618083E0919901F0919A01808188607E
:100E80008083E0919901F0919A018081806880834C
:100E9000E0919901F0919A0180818F7D80838BE6AA
:100EA00092E0E7E5F2E0119211928E179F07D9F7D1
:100EB00061E080914D020E94290261E080914D0223
:100EC0000E94FB011FB7F89480917801811127C01F
:100ED000E2EAF2E08491E6EBF2E09491E82FF0E0B0
:100EE000EE0FFF1FE658FD4FA591B491EC91E92359
:100EF00021F461E08AE00E94FB0161E08AE00E9447
:100F000029028CB580618CBD8CB580648CBD61E09C
:100F10008DE00E94290261E08BE00E94290280910D
:100F200078018F5F809378011FBF62E08091240277
:100F30000E942902809124020E94BE0121E030E03B
:100F4000892B11F030E020E0309328022093270213
:100F50008E010F5E1F4F1A8B098B0E94E701809153
:100F6000270290912802892B09F050C081ED90E072
:100F70000E94B003809124020E94BE01892B09F4D3
:100F800043C087E891E00E947C0320917A00109290
:100F90007A0083B7817F846083BFF89483B78160D0
:100FA00083BF80912402823009F403C1833061F44D
:100FB00080E792E0909303018093020180916900A1
:100FC000837F80936900E99A7894889583B78E7FB0
:100FD00083BF80912402823009F4F8C0833061F429
:100FE000E99881E090E0880F991FFC01E050FF4FE5
:100FF0000FE612E01183008320937A0021E030E0B5
:1010000030932802209327020E94E7012FB7F8941B
:101010008091820190918301A0918401B09185011A
:101020002FBF4091790150917A0160917B017091BD
:101030007C01411551056105710571F08C019D011F
:10104000041B150B260B370BB901A8014031574281
:101050006105710508F4EEC28093790190937A01DD
:10106000A0937B01B0937C0180912702909128028C
:10107000892B09F4DFC284E692E00E94B00382E487
:1010800092E00E94B003C0903D02E0903E02F090DA
:101090003F02009140022090410230904202409075
:1010A0004302A090440290914502192F1F711F8B9B
:1010B00092959695977080914602282F2170220F65
:1010C000220F220F292B2B8B982F96958091470268
:1010D000282F279522272795292B2A8F982F9695F9
:1010E0009F709B8F82958695877020914802922FE2
:1010F0009370990F990F990F982B9D8B2695269594
:101100002E8B10914902212F2F712C8B1295169541
:10111000177080914A02982F9170990F990F990F2B
:10112000192B982F969580914B02282F27952227CF
:101130002795292B2C8F982F96959F709D8F8295A0
:101140008695877020914C02922F9370990F990F7A
:10115000990F982B998F26952695288F80E1EBE2A1
:10116000F2E0DE01119601900D928A95E1F78091EF
:1011700071020E945A02009769F582E090E0909314
:1011800083028093820202E010E08FE591E00E94EA
:101190006103000F111FF801E55EFE4F8081918110
:1011A000009711F00E94A30387E391E00E94A3033C
:1011B000C8C1E0E7F2E0F0930101E0930001809103
:1011C00069008C7F80936900E89AFECEE89890E0F1
:1011D00080E009CF8F3F33E0930748F083E090E051
:1011E000909383028093820203E010E0CECFBC0193
:1011F00090E080E00E94290E3B014C01AC019B0174
:1012000060E070EC8FE794E40E94160D9B01AC0146
:10121000C401B3010E94880D2091720230917302C3
:1012200040917402509175020E94880F20917602BD
:101230003091770240917802509179020E94880D96
:101240000E94400F20917E0230917F0240918002E7
:10125000509181020E94880D3B014C0123E333E948
:1012600048E853E460917A0270917B0280917C029D
:1012700090917D020E94170D9B01AC0160E070E02F
:1012800080E89FE30E94880DA40193010E94170D3E
:101290009B01AC0160E070E080E89FE30E94880D54
:1012A000109283021092820223E333E948E853E468
:1012B0000E94160D9B01AC010E94170D20E030E04A
:1012C00040E05FE30E94170D0E94660E20E030E0D0
:1012D00040E05FE30E94880F3B014C0160920C01EB
:1012E00070920D0180920E0190920F0180E092E0C9
:1012F0000E94B00380EF91E00E94610360910C01B5
:1013000070910D0180910E0190910F0142E00E94B9
:1013100009048CEE91E00E94B00320910801309105
:10132000090140910A0150910B01C401B3010E94CF
:10133000330F181644F460920801709209018092EC
:101340000A0190920B012091040130910501409116
:10135000060150910701C401B3010E94830D87FF6C
:1013600008C060920401709205018092060190927B
:101370000701509004016090050170900601809073
:10138000070190900801B0900901D0900A01809166
:101390000B018E8F9101442D5A2DB101842D9A2D70
:1013A0000E94F50F811153C19101442D5A2D692DD1
:1013B0007B2D8D2D9E8D0E94330F18160CF447C186
:1013C000922CB32CD42CAE8E2C2D3E2D4F2D502F85
:1013D0006C2D7E2D8F2D902F0E94F50F811143C112
:1013E0002C2D3E2D4F2D502F652D762D872D982D90
:1013F0000E94830D87FD44C15C2C3701802E81E55E
:101400008CBD1DBC60E080914D020E94FB0183E019
:101410000E949C0381E00E949C039E012F5F3F4F2E
:10142000790180E00E949C03F70181937F01298963
:101430003A89E217F307A9F761E080914D020E9413
:10144000FB018BED91E00E94B0038C85A82EA69441
:10145000A694FB849F2D9295969597708370C82EC5
:10146000CC0CCC0CCC0CC92A0A85E02EE6949F2D1E
:10147000979599279795E92AF6943F2D3F70F32E7B
:101480002985922F9295969597700170000F000F05
:10149000000F092B2F7149815A816B817C8187EC68
:1014A00091E00E94E5048889A82EA694A694FF8462
:1014B0009F2D9295969597708370C82ECC0CCC0C6E
:1014C000CC0CC92A0E85E02EE6949F2D979599277E
:1014D0009795E92AF6948F2D8F70F82E2D85922FEF
:1014E0009295969597700170000F000F000F092BD1
:1014F0002F714D815E816F81788583EB91E00E9431
:10150000E50485EA91E00E94B003AE88CD88EA8CBC
:10151000FB8C0B892F89452D562D672D782D81E960
:1015200091E00E94E504A88CC98CEC8CFD8C012F05
:101530002C89492D5B2D6D2D7E8D8DE791E00E94CC
:10154000E50485E292E00E94B00380914E020E9481
:101550005A028090530290905402A0905502B0908D
:101560005602C0904F02D0905002E0905102F0908D
:101570005202C80CD91CEA1CFB1C28E833E1DC0130
:101580000E94F60C2FEF33E040E050E00E94C50CC3
:10159000CA01B901A70196010E948D0CA501940111
:1015A0000E94C50C5901215A3F402B34344008F0A9
:1015B00074C08AE491E00E94B00389E091E00E9447
:1015C00061038091840290918502009709F49CC187
:1015D000885892400E942D058DEF90E00E94610393
:1015E00020918402309185028DB79EB72115310577
:1015F00009F08DC1885892400E942D058AEE90E036
:101600000E9461038091290290912A0240918402F4
:10161000509185022DB73EB74115510509F07AC1A9
:1016200028583240821B930B0E942D0580E192E0E6
:101630000E94B00380E090E0892B09F48ECC0E94D8
:10164000DE02882309F489CC0E94000081CC1BE3D0
:10165000188F17E1198F1AEE1C8F17E01D8F1CE0F1
:101660002FE12C8BB1CE3BE33E8B87E18D8B9AEE45
:101670009A8FE7E0EB8FFCE0FB8B0FE10F8BBFCE87
:101680002BE32E8B37E13D8B8AEE8A8F97E09B8F81
:10169000ECE0EB8BFFE1FF8BB2CEC50168EE73E0AF
:1016A0000E949D0C362E6AE070E00E949D0C962EE2
:1016B000862E80914E020E945A0240905302509012
:1016C00054026090550270905602C0904F02D09024
:1016D0005002E0905102F0905202C40CD51CE61C5E
:1016E000F71C28E833E1DC010E94F60C2FEF33E011
:1016F00040E050E00E94C50CCA01B901A701960163
:101700000E948D0CA30192010E94C50CC901609139
:101710006F02709170026115710509F08EC03093EF
:101720006E0220936D029093700280936F02803D51
:10173000F0E29F0708F0E6C010E0813707E190076C
:1017400008F452C09C0120573741A8EEB3E00E9434
:10175000E70C20E639E040E050E00E94C50CAEEF17
:10176000BFEF0E940B0D6B017C0118EBC10E1BE05B
:10177000D11EE11CF11CCA01B9010E948D0CA70108
:1017800096010E948D0C2B013C0120E031EE45EFCB
:1017900055E00E94C50C2A3008F0B4C0E22FF0E0FA
:1017A000E05FFE4FF08001810F19110BC301B20100
:1017B00020E432E44FE050E00E94C50CCA01B901B8
:1017C00024E630E040E050E00E94C50C069F900106
:1017D000079F300D169F300D1124C90164E670E09B
:1017E0000E94B10C1F2D160F8FE391E00E94610340
:1017F000812F0E9402048BE391E00E946103832DFC
:101800000E94020489E391E00E94610329E0281507
:1018100020F087E391E00E946103892D0E94020479
:1018200084E391E00E94B00331E7A31637E1B306E9
:1018300008F0C3CE86E191E0BECE621B730B77FF4A
:1018400003C0719561957109643F71400CF06BCFD5
:1018500080916B0290E0FC01EE0FFF1FE25BFD4FF9
:101860003287218701966AE070E00E94B10C382F20
:1018700080936B02811103C081E080936C028091A0
:101880006C0281113AE0E7E5F2E020E060E070E010
:10189000CB01231741F041915191640F751F811DB8
:1018A000911D2F5FF6CF30E050E040E00E94C50C64
:1018B00029013A0180916D0290916E02892B21F4E9
:1018C00030936E0220936D0220916D0230916E0272
:1018D000A5E5B0E00E94E70C6B017C01A301920139
:1018E00044275527AFE0B0E00E94FD0C6C0D7D1D34
:1018F0008E1D9F1D24E630E040E050E00E94C50CA4
:10190000C9010DCF14E670CF90E080E063CE821B5A
:10191000930B72CE241B350B85CEDB018F939F93E7
:101920000E94FD0CBF91AF91A29F800D911DA39FBE
:10193000900DB29F900D11240895AA1BBB1B51E17D
:1019400007C0AA1FBB1FA617B70710F0A61BB70B2F
:10195000881F991F5A95A9F780959095BC01CD01D4
:10196000089597FB072E16F4009407D077FD09D051
:101970000E949D0C07FC05D03EF4909581959F4FE9
:101980000895709561957F4F0895A1E21A2EAA1BC4
:10199000BB1BFD010DC0AA1FBB1FEE1FFF1FA2171F
:1019A000B307E407F50720F0A21BB30BE40BF50B1C
:1019B000661F771F881F991F1A9469F760957095A5
:1019C000809590959B01AC01BD01CF010895A29F28
:1019D000B001B39FC001A39F700D811D1124911D03
:1019E000B29F700D811D1124911D08950E94E70C76
:1019F000B7FF0895821B930B08950E94E70CA59FE3
:101A0000900DB49F900DA49F800D911D11240895F9
:101A1000B7FF0C94FD0C0E94FD0C821B930B0895E4
:101A2000EE0FFF1F0590F491E02D09945058BB274D
:101A3000AA270E942E0D0C94E10E0E94D30E38F0BE
:101A40000E94DA0E20F039F49F3F19F426F40C942A
:101A5000D00E0EF4E095E7FB0C94A10EE92F0E9446
:101A6000F20E58F3BA17620773078407950720F040
:101A700079F4A6F50C942C0F0EF4E0950B2EBA2FEA
:101A8000A02D0B01B90190010C01CA01A001112484
:101A9000FF27591B99F0593F50F4503E68F11A1630
:101AA000F040A22F232F342F4427585FF3CF4695C1
:101AB00037952795A795F0405395C9F77EF41F16E3
:101AC000BA0B620B730B840BBAF09150A1F0FF0FAD
:101AD000BB1F661F771F881FC2F70EC0BA0F621F99
:101AE000731F841F48F4879577956795B795F79589
:101AF0009E3F08F0B0CF9395880F08F09927EE0F1E
:101B00009795879508950E947D0E08F481E00895C9
:101B10000E949C0D0C94E10E0E94DA0E58F00E9477
:101B2000D30E40F029F45F3F29F00C94A10E51111F
:101B30000C942D0F0C94D00E0E94F20E68F3992392
:101B4000B1F3552391F3951B550BBB27AA276217B9
:101B50007307840738F09F5F5F4F220F331F441FC6
:101B6000AA1FA9F335D00E2E3AF0E0E832D09150FA
:101B70005040E695001CCAF72BD0FE2F29D0660FE7
:101B8000771F881FBB1F261737074807AB07B0E82A
:101B900009F0BB0B802DBF01FF2793585F4F3AF030
:101BA0009E3F510578F00C94A10E0C942D0F5F3FD1
:101BB000E4F3983ED4F3869577956795B795F795B6
:101BC0009F5FC9F7880F911D9695879597F908959E
:101BD000E1E0660F771F881FBB1F6217730784073A
:101BE000BA0720F0621B730B840BBA0BEE1F88F749
:101BF000E09508950E94FA0E88F09F5798F0B92F4B
:101C00009927B751B0F0E1F0660F771F881F991F31
:101C10001AF0BA95C9F714C0B13091F00E942C0F98
:101C2000B1E008950C942C0F672F782F8827B85FA8
:101C300039F0B93FCCF3869577956795B395D9F789
:101C40003EF490958095709561957F4F8F4F9F4F93
:101C50000895E89409C097FB3EF49095809570959F
:101C600061957F4F8F4F9F4F9923A9F0F92F96E9E8
:101C7000BB279395F695879577956795B795F1115D
:101C8000F8CFFAF4BB0F11F460FF1BC06F5F7F4FFA
:101C90008F4F9F4F16C0882311F096E911C077230C
:101CA00021F09EE8872F762F05C0662371F096E815
:101CB000862F70E060E02AF09A95660F771F881FE4
:101CC000DAF7880F9695879597F908950E94140F73
:101CD00090F09F3748F4911116F00C942D0F60E0AE
:101CE00070E080E89FEB089526F41B16611D711DBE
:101CF000811D0C94A70E0C94C20E990F0008550F6D
:101D0000AA0BE0E8FEEF16161706E807F907C0F081
:101D100012161306E407F50798F0621B730B840B89
:101D2000950B39F40A2661F0232B242B252B21F463
:101D300008950A2609F4A140A6958FEF811D811D03
:101D4000089597F99F6780E870E060E00895882320
:101D500071F4772321F09850872B762F07C06623E4
:101D600011F499270DC09051862B70E060E02AF0A5
:101D70009A95660F771F881FDAF7880F96958795D3
:101D800097F908959F3F31F0915020F4879577950A
:101D90006795B795880F911D9695879597F9089542
:101DA0009FEF80EC089500240A9416161706180673
:101DB0000906089500240A9412161306140605064F
:101DC0000895092E0394000C11F4882352F0BB0FE0
:101DD00040F4BF2B11F460FF04C06F5F7F4F8F4F43
:101DE0009F4F089557FD9058440F551F59F05F3F7E
:101DF00071F04795880F97FB991F61F09F3F79F02D
:101E000087950895121613061406551FF2CF4695AE
:101E1000F1DF08C0161617061806991FF1CF869530
:101E200071056105089408950E94FA0EA0F0BEE7BE
:101E3000B91788F4BB279F3860F41616B11D672FB9
:101E4000782F8827985FF7CF869577956795B11D8E
:101E500093959639C8F30895E894BB2766277727AA
:101E6000CB0197F908950E947D0E08F48FEF089535
:101E700016F00C94C20E0C94D00E68940C94A10E23
:101E80000E94FA0EA8F39923C1F3AEF3DF93CF9328
:101E90001F930F93FF92C92FDD2788232AF02197E4
:101EA000660F771F881FDAF720E030E040E85FEB2D
:101EB0009FE3883920F0803E38F021968F770E948A
:101EC000170DE8E6F0E004C00E94170DE5E9F0E028
:101ED0000E94FA0F8B01BE01EC01FB2E6F577109B6
:101EE0007595771F880B990B0E942B0E28E132E71E
:101EF00041E35FE30E949B0FAF2D9801AE01FF907D
:101F00000F911F91CF91DF910E942E0D0C94E10E45
:101F10000E949B0F0C94E10E0E94D30E38F00E9499
:101F2000DA0E20F0952311F00C94A10E0C94D00E33
:101F300011240C942D0F0E94F20E70F3959FC1F3A3
:101F4000950F50E0551F629FF001729FBB27F00D67
:101F5000B11D639FAA27F00DB11DAA1F649F6627BC
:101F6000B00DA11D661F829F2227B00DA11D621F0B
:101F7000739FB00DA11D621F839FA00D611D221FC5
:101F8000749F3327A00D611D231F849F600D211DA9
:101F9000822F762F6A2F11249F5750409AF0F1F02C
:101FA00088234AF0EE0FFF1FBB1F661F771F881F95
:101FB00091505040A9F79E3F510580F00C94A10E1E
:101FC0000C942D0F5F3FE4F3983ED4F386957795FC
:101FD0006795B795F795E7959F5FC1F7FE2B880F3B
:101FE000911D9695879597F908950E947D0E880B0F
:101FF000990B0895DF93CF931F930F93FF92EF9266
:10200000DF927B018C01689406C0DA2EEF010E94FA
:102010009B0FFE01E894A59125913591459155912D
:10202000A6F3EF010E942E0DFE019701A801DA949C
:1020300069F7DF90EF90FF900F911F91CF91DF91A3
:062040000895F894FFCFA3
:102046006F026F02FFFF7F7F000080000000C07FED
:10205600000F1C28343F49525A6064460149015614
:1020660001630170010000000014037402A1027CE8
:1020760003D202B002C4020D0A006E616E00696EE0
:1020860066006F7666004F4B00444953434F4E4EF1
:1020960045435445440053484F52545F544F5F479D
:1020A6004E440053484F52545F544F5F56434300CB
:0820B600494E56414C4944001B
:00000001FF
